:020000040800F2
:10000000E814002069020008EB3D00087D28000884
:100010006D390008CD0A0008AF7700080000000025
:1000200000000000000000000000000099600008CF
:100030007320000800000000394E0008896700089E
:10004000830200088302000883020008830200087C
:10005000830200088302000883020008830200086C
:1000600083020008830200088D2300088302000831
:1000700083020008E11B000883020008F51C000849
:10008000830200088302000883020008830200083C
:10009000750D00088302000883020008830200082F
:1000A000830200088302000883020008830200081C
:1000B000830200088302000883020008830200080C
:1000C00083020008830200088302000883020008FC
:1000D0008302000883020008830200087D73000881
:1000E00083020008830200088302000883020008DC
:1000F00083020008830200088302000883020008CC
:1001000083020008830200088302000883020008BB
:1001100083020008830200083D680008830200088B
:100120008302000883020008F91C0008830200080B
:10013000830200088302000883020008830200088B
:100140004D100008830200088302000883020008A3
:100150008302000883020008830200082974000853
:10016000830200088302000883020008830200085B
:10017000830200088302000883020008830200084B
:10018000830200088302000800F002F800F05CF827
:100190000AA090E8000C82448344AAF10107DA45E2
:1001A00001D100F051F8AFF2090EBAE80F0013F0D8
:1001B000010F18BFFB1A43F0010318478C9C000085
:1001C000AC9C00000A444FF0000C10F8013B13F007
:1001D000070408BF10F8014B1D1108BF10F8015BA0
:1001E000641E05D010F8016B641E01F8016BF9D193
:1001F00013F0080F1EBF10F8014BAD1C0C1B09D1EA
:100200006D1E58BF01F801CBFAD505E014F8016B5B
:1002100001F8016B6D1EF9D59142D6D370470000ED
:100220000023002400250026103A28BF78C1FBD8FF
:10023000520728BF30C148BF0B6070471FB509F097
:100240006CFB1FBD10B510BD00F0E4F81146FFF7C0
:10025000F5FF08F0F7FD00F002F903B4FFF7F2FF35
:1002600003BC08F061FC00000948804709480047CA
:10027000FEE7FEE7FEE7FEE7FEE7FEE7FEE7FEE756
:10028000FEE7FEE704480549054A064B70470000B3
:100290008D67000889010008E80E0020E81400209E
:1002A000E8100020E81000207047032A40F2308058
:1002B00010F0030C00F0158011F8013BBCF1020FA7
:1002C000624498BF11F801CB00F8013B38BF11F828
:1002D000013BA2F1040298BF00F801CB38BF00F83F
:1002E000013B11F0030300F05B80083AC0F0088086
:1002F00051F8043B083A51F804CBA0E80810F5E7A0
:10030000121D5CBF51F8043B40F8043BAFF3008082
:10031000D20724BF11F8013B11F801CB48BF11F8F7
:10032000012B24BF00F8013B00F801CB48BF00F8C7
:10033000012B70474FF0000200B5134694469646D5
:10034000203922BFA0E80C50A0E80C50B1F12001E8
:10035000BFF4F7AF090728BFA0E80C5048BF0CC096
:100360005DF804EB890028BF40F8042B08BF7047F4
:1003700048BF20F8022B11F0804F18BF00F8012B66
:100380007047704770477047704710B500F03AF8F3
:10039000006810BD10B5044600F034F8046010BDCC
:1003A00010B5203AC0F00B80B1E81850203AA0E810
:1003B0001850B1E81850A0E81850BFF4F5AF5FEA44
:1003C000027C24BFB1E81850A0E8185044BF18C9F7
:1003D00018C0BDE810405FEA827C24BF51F8043B9E
:1003E00040F8043B08BF7047D20728BF31F8023BF2
:1003F00048BF11F8012B28BF20F8023B48BF00F886
:10040000012B704700487047840E00200048704759
:10041000840E00207546FFF7F9FFAE4605006946D9
:10042000534620F00700854618B020B5FFF72AFF95
:10043000BDE820404FF000064FF000074FF00008E5
:100440004FF0000B21F00701AC46ACE8C009ACE866
:10045000C009ACE8C009ACE8C0098D467047044645
:10046000AFF300802046FFF7F8FE000000B5002043
:1004700006F064F8012005F0ADFE002005F052FE04
:1004800000204F490880012005F0A4FE012871D109
:10049000002005F047FE0128F9D14A48006818B944
:1004A0004948006847490860474800684549096865
:1004B000401AB0F5C87F07D26FF09F00434908800B
:1004C00000203F49088011E03F4800683D49096825
:1004D000401AB0F5C87F09D93A48006830B16FF0CA
:1004E00059003A490880002035490880384800788A
:1004F00050B93748407838B96FF00900334908805F
:1005000000202F49088022E03148007801280ED1D0
:100510002F48407858B9012006F010F86FF0090014
:100520002A4908806FF01D00254908800FE02848FF
:10053000007860B926484078012808D105F0FEFF10
:100540006FF00900214908801E201D4908802048BD
:10055000007901280FD11E48407901280BD16FF096
:1005600027001A49088000201549088015490860AD
:10057000012000BD22E01648007970B91448407986
:1005800001280AD105F0DAFF6FF027000F49088033
:100590006FF01D000A49088010E00D48007901281D
:1005A0000CD10B48407948B9012005F0C7FF6FF026
:1005B0002700064908801E20014908800020D8E74E
:1005C000CE0100205800002024040020CA01002091
:1005D000EE07002010B5002013E09FED390A10EE61
:1005E000101A00EB4012374B03EB420251609FEDB3
:1005F000360A10EE101A00EB401203EB42021162B1
:10060000401C0428E9DB012030490870304800789C
:10061000062853D2DFE800F0030A121A222A00F05B
:10062000E1F8012801D12A49087047E0FFF71EFFD1
:10063000012802D10220264908703FE000F04EF860
:10064000012802D103202249087037E000F06CF93C
:10065000012802D104201E4908702FE0FFF706FF91
:10066000012802D105201A49087027E000F036F869
:10067000012822D1042005F05BFF002014490870F6
:100680001249087000BF13E09FED120A10EE101A15
:1006900000EB40120B4B03EB420251609FED0E0A40
:1006A00010EE101A00EB401203EB42021162401CE4
:1006B0000428E9DB012005F041FF00BF00BF10BDA9
:1006C0003E0AD73D6C0000206E43D147F60700205C
:1006D00048000020295C0F3D49828B4700B53B480C
:1006E000006818B93A480068384908603848006816
:1006F00036490968401AB0F5E17F64D9002005F059
:100700001DFF002005F066FD002005F00BFD002018
:100710003049088005F05EFD012828D1002005F051
:1007200001FD012823D12C48006850B928480068F1
:10073000294908606FF09F0028490880002025495A
:1007400008802348006824490968401A40F276214D
:10075000884238D96FF027002049088000201D49C1
:1007600008801D49086019490860012000BD1C4827
:10077000007850B91A48407838B96FF02700174907
:1007800008800020134908801DE0154800780128E2
:100790000BD11348407840B96FF027000F4908800B
:1007A0006FF01D000B4908800DE00D48007850B92E
:1007B0000B484078012806D16FF0270007490880D0
:1007C0001E20044908800020D0E7000060000020BF
:1007D00024040020CE0100205C000020CA0100207B
:1007E000EE07002000B5002005F0A8FE012005F06E
:1007F000F1FC012005F096FC00204849088001200A
:1008000005F0E8FC012803D105F08CFC012807D095
:100810006FF045004249088000204049088006E00A
:100820006FF06D003E49088000203C49088001209F
:1008300005F0D0FC01280DD13A48807850B93948EC
:10084000C07838B96FF00900354908800020334975
:1008500008802CE0012005F0BDFC012812D13148B0
:10086000807801280ED12F48C07858B9012005F0B2
:1008700065FE6FF009002A4908806FF01D002749C6
:10088000088014E0012005F0A5FC01280FD12548BF
:10089000807860B92348C078012808D105F04EFE61
:1008A0006FF009001E4908801E201C4908801D4861
:1008B000807901280CD11B48C079012808D16FF03C
:1008C000270017490880002014490880012000BD36
:1008D0001448807970B91348C07901280AD105F00D
:1008E0002DFE6FF027000E4908806FF01D000B49A8
:1008F000088010E00B48807901280CD10948C079A4
:1009000048B9012005F01AFE6FF02700044908805D
:100910001E20024908800020D9E70000CE010020F7
:10092000CA010020EE07002000B5002005F006FEF9
:10093000012005F04FFC012005F0F4FB00204849A0
:100940000880012005F046FC012803D105F0EAFBF0
:10095000012807D06FF04500424908800020404937
:10096000088006E06FF06D003E49088000203C4999
:100970000880012005F02EFC01280DD13A4880782E
:1009800050B93948C07838B96FF009003549088046
:100990000020334908802CE0012005F01BFC0128D1
:1009A00012D13148807801280ED12F48C07858B92B
:1009B000012005F0C3FD6FF009002A4908806FF09F
:1009C0001D002749088014E0012005F003FC0128E0
:1009D0000FD12548807860B92348C078012808D114
:1009E00005F0ACFD6FF009001E4908801E201C496F
:1009F00008801D48807901280CD11B48C079012846
:100A000008D16FF02700174908800020144908809A
:100A1000012000BD1448807970B91348C0790128BD
:100A20000AD105F08BFD6FF027000E4908806FF0AA
:100A30001D000B49088010E00B48807901280CD17B
:100A40000948C07948B9012005F078FD6FF027000A
:100A5000044908801E20024908800020D9E70000D0
:100A6000CE010020CA010020EE07002010B54FF48F
:100A7000A06003F0F7F902F0D7F904F003F802F0F0
:100A8000B1FA114806F044FB4FF4E13006F0E6FC01
:100A90004FF4E13006F0D2FB08F0ECF908F012F95F
:100AA00008F09AF84FF47A7008F088F805F0A2FE82
:100AB00000F0E4F800F04EFA4FF4C86008F07EF859
:100AC00005F0D0FE10BD0000A086010000BFFEE7CB
:100AD000C178012903D10188491C018001E000216E
:100AE000018001880A290EDD0188B1F57A7F07DAD5
:100AF000C178012909D1817839B90121017104E056
:100B00000221017101E0002101718178C1707047FB
:100B100010B50446224600213A4800F0ECFC20685B
:100B2000A0F20120062869D2DFE800F00311223389
:100B300044562146344805F01FFE224633493248C8
:100B4000203004F07DF9324802F037FE57E02146AC
:100B50002D48001D05F010FE22462C4918312A4868
:100B6000243004F06DF92A48801C02F026FE46E08D
:100B700021462548083005F0FFFD22462349303143
:100B80002148283004F05CF92148001D02F015FED0
:100B900035E021461C480C3005F0EEFD22461B498D
:100BA000483119482C3004F04BF91948801D02F0E7
:100BB00004FE24E0207BE17A40EA012015494861E7
:100BC000A17B607B41EA002000B212498861104895
:100BD000001F02F0F2FD12E0207BE17A40EA0120E2
:100BE0000C490860A17B607B41EA002000B2094902
:100BF00048600748801E02F0E0FD00E000BF00BF33
:100C000010BD000000640040880A00203C0C002059
:100C1000A804002000060020F0B585B004460D466B
:100C200016461F464FF40070009000208DF8080013
:100C30008DF8090008208DF80A00200A8DF80B00B5
:100C4000E1B28DF80C10290A8DF80D10E9B28DF87B
:100C50000E10310A8DF80F10F1B28DF81010390A0C
:100C60008DF81110F9B28DF812106946024800F0A3
:100C7000CAFC05B0F0BD00000064004000B58BB0B8
:100C80000121084604F0B2F90121480604F0BEF93A
:100C900009220B21354801F081FD09220C2133483E
:100CA00001F07CFD4FF4C050029002208DF80C0042
:100CB00002A92E4801F02AFD14208DF8040001201D
:100CC0008DF8050000208DF8060001208DF8070042
:100CD00001A803F08BF8264800F04AFA08A800F0B3
:100CE00082FC00208DF826008DF827008DF8280062
:100CF0008DF829008DF82A0001208DF82B000020A6
:100D00008DF822008DF8230008208DF824000320A0
:100D10008DF82500ADF8200008A9154800F061FB0A
:100D200001208DF81A0000208DF81B0001208DF89D
:100D30001C000020ADF81000ADF81200ADF8140052
:100D4000ADF81600ADF8180001208DF81D0004A8BC
:100D500000F02AFA01220221054800F039FB0122A5
:100D60001146034800F034FB0BB000BD0000024008
:100D70000064004000B585B00221064800F098FAF2
:100D800030B10221034800F09FF96846FFF7C0FE2A
:100D900005B000BD0064004030B585B004460D4686
:100DA00040F2FF10009000208DF808008DF8090037
:100DB00008208DF80A00200A8DF80B00E1B28DF8AA
:100DC0000C10290A8DF80D10E9B28DF80E100021D3
:100DD0008DF80F108DF810108DF811108DF812107D
:100DE0006946024800F00FFC05B030BD00640040C9
:100DF000F0B585B004460D4616461F464FF4007008
:100E0000009000208DF808008DF8090008208DF86A
:100E10000A00200A8DF80B00E1B28DF80C10290AA7
:100E20008DF80D10E9B28DF80E10310A8DF80F1003
:100E3000F1B28DF81010390A8DF81110F9B28DF851
:100E400012106946024800F0DEFB05B0F0BD00005C
:100E50000068004010B5044622460021344800F0E6
:100E60004AFB2068A0F2012006285ED2DFE800F0ED
:100E700003112233444E21462E4805F07DFC2246C4
:100E80002D492C48203003F0DBFF2C4802F095FC64
:100E90004CE021462748001D05F06EFC22462649FD
:100EA00018312448243003F0CBFF2448801C02F082
:100EB00084FC3BE021461F48083005F05DFC2246DB
:100EC0001D4930311B48283003F0BAFF1B48001D74
:100ED00002F073FC2AE0214616480C3005F04CFC69
:100EE00022461549483113482C3003F0A9FF134816
:100EF000801D02F062FC19E022461149114805F0FC
:100F000023FB0E48143002F058FC0FE00E48008816
:100F1000401C0D49088022460C490D4805F014FB81
:100F20000648163002F049FC00E000BF00BF10BDCB
:100F300000680040280A00209C0C00209C0400202F
:100F4000240B0020080B002006020020600B00206C
:100F5000440B002000B58BB00121022004F046F8BC
:100F60000121880604F052F809220C21354801F0CD
:100F700015FC09220D21334801F010FC4FF44050BC
:100F8000029002208DF80C0002A92E4801F0BEFB51
:100F900040208DF8040001208DF8050000208DF818
:100FA000060001208DF8070001A802F01FFF264867
:100FB00000F0DEF808A800F016FB00208DF82600EF
:100FC0008DF827008DF828008DF829008DF82A006B
:100FD00001208DF82B0000208DF822008DF82300D1
:100FE00008208DF8240003208DF82500ADF820009E
:100FF00008A9154800F0F5F90E208DF81A00002018
:101000008DF81B0001208DF81C000020ADF81000A9
:10101000ADF81200ADF81400ADF81600ADF81800E8
:1010200001208DF81D0004A800F0BEF80122022165
:10103000054800F0CDF901221146034800F0C8F937
:101040000BB000BD000402400068004000B585B050
:101050000221064800F02CF930B10221034800F0CB
:1010600033F86846FFF7F6FE05B000BD00680040A3
:1010700030B585B004460D4640F2FF1000900020C8
:101080008DF808008DF8090008208DF80A00200A64
:101090008DF80B00E1B28DF80C10290A8DF80D10B7
:1010A000E9B28DF80E1000218DF80F108DF8101098
:1010B0008DF811108DF812106946024800F0A3FA5D
:1010C00005B030BD00680040B1F5007F3AD00FDCBC
:1010D000202928D006DC01291CD004291DD008298C
:1010E00040D11DE0402921D0B1F5807F3AD126E0E2
:1010F000B1F5004F31D006DCB1F5806F25D0B1F5E8
:10110000006F2FD124E0B1F5803F12D0B1F5003F40
:1011100028D111E0154A826025E00822C26022E051
:101120001022C2601FE0082202611CE0102202614E
:1011300019E00822426016E01022426013E0042207
:10114000426010E0042242600DE0042242600AE0A6
:10115000002282610422426005E0002282610422B2
:10116000426000E000BF00BF7047000001010100C5
:1011700010B504460B48844209D10121480603F00A
:1011800055FF00214FF0007003F050FF08E00121EF
:10119000880603F04BFF00214FF0806003F046FF0C
:1011A00010BD00000064004010B50021837A0122C8
:1011B00002FA03F13D4A126842F001023B4B1A6009
:1011C0003A4A1C3212688A43384B1C331A60027B3D
:1011D000CAB9364A0C3212688A43344B0C331A604F
:1011E0004288C38842EA0343304A4032847A42F854
:1011F00034300288838842EA03432C4A4032847A9E
:1012000002EBC4025360027B012A19D1274A0C3237
:1012100012680A43254B0C331A604288038842EA5D
:101220000343224A4032847A42F83430C2888388A9
:1012300042EA03431D4A4032847A02EBC4025360FF
:10124000C27A3AB9194A121D12688A43174B1B1DFC
:101250001A6006E0154A121D12680A43134B1B1D43
:101260001A60028932B9114A143212688A430F4B4C
:1012700014331A600289012A06D10C4A143212680A
:101280000A430A4B14331A60427B012A06D1074AEB
:101290001C3212680A43054B1C331A60034A126859
:1012A00022F00102014B1A6010BD000000660040F0
:1012B00070B504460D46002660692840002871D0AC
:1012C000B5F5807F5CD010DC082D35D006DC012D13
:1012D00020D0022D24D0042D72D127E0102D31D042
:1012E000202D35D0402D6BD138E0B5F5004F60D0C2
:1012F00009DCB5F5007F49D0B5F5806F4CD0B5F568
:10130000006F5DD14FE0B5F5803F2DD0B5F5003FC2
:1013100056D12FE0A0682D4900F0ACFA064651E006
:10132000E068032100F0A6FA06464BE0E0680821D9
:1013300000F0A0FA064645E0E068102100F09AFAB5
:1013400006463FE02069032100F094FA064639E0A2
:101350002069082100F08EFA064633E0206910214A
:1013600000F088FA06462DE06068082100F082FA55
:10137000064627E06068102100F07CFA064621E06E
:10138000A069012100F076FA06461BE0A06902215F
:1013900000F070FA064615E0A069042100F06AFA30
:1013A00006460FE00FE0A069702100F063FA0646E0
:1013B00008E06068042100F05DFA064602E0FFE7FD
:1013C000002600BF00E00026304670BD010101008C
:1013D0001AB143690B43436102E043698B434361A4
:1013E000704730B5024600200023146824F0020440
:1013F0001460146844F00104146000E05B1C54683D
:1014000004F001041CB94FF6FF74A342F6D15468EE
:1014100004F001040CB900206CE08C79012C04D19B
:10142000146844F08004146003E0146824F080041D
:101430001460CC79012C04D1146844F04004146089
:1014400003E0146824F0400414600C7A012C04D1E9
:10145000146844F02004146003E0146824F02004AD
:1014600014604C7A012C04D1146844F01004146008
:1014700003E0146824F0100414608C7A012C04D169
:10148000146844F00804146003E0146824F00804AD
:101490001460CC7A012C04D1146844F00404146064
:1014A00003E0146824F0040414608C78A407CD7859
:1014B00044EA05640D7944EA05444D7944EA05544B
:1014C0000D886D1E2C43D461146824F0010414604F
:1014D000002300E05B1C546804F001041CB14FF6CB
:1014E000FF74A342F6D1546804F001040CB100204B
:1014F00000E0012030BD10B500F5D87303EB0113F7
:101500001B6803F004031372137A53B900F5D87300
:1015100003EB01131B6840F2FF7404EA535313609A
:1015200009E000F5D87303EB01131B686FF060440A
:1015300004EAD303536000F5D87303EB01131B686F
:1015400003F00203537200F5D87303EB01135B68D9
:1015500003F00F03937200F5D87303EB01135B687C
:101560001B0AD37400F5D87303EB01139B68D37285
:1015700000F5D87303EB01139B681C0A147300F584
:10158000D87303EB01139B681C0C547300F5D873DC
:1015900003EB01139B681B0E937300F5D87303EBE9
:1015A0000113DB68D37300F5D87303EB0113DB6819
:1015B0001C0A147400F5D87303EB0113DB681C0CD0
:1015C000547400F5D87303EB0113DB681B0E93749E
:1015D00021B9C36843F02003C36003E0036943F00B
:1015E0002003036110BD00218171C171017241723C
:1015F0008172C1728170C170032101710221417138
:1016000001210180704710B502460020936803F065
:101610008063B3F1806F00D110E0936803F0006342
:10162000B3F1006F01D1012008E0936803F080530B
:10163000B3F1805F01D1022000E00420042874D0BF
:1016400002F5C07303EB00131B6803F0010402F5FD
:10165000C07303EB00131C600B7A7BB94B7A0C88C8
:1016600043EA445302F5C07404EB00142468234396
:1016700002F5C07404EB0014236010E00B7A4C6890
:1016800043EAC4034C7A234302F5C07404EB00140C
:101690002468234302F5C07404EB001423608B7AA2
:1016A00003F00F038B7202F5C07303EB00135B684A
:1016B00023F00F0402F5C07303EB00135C6002F526
:1016C000C07303EB00135B688C7A234302F5C0748C
:1016D00004EB001463608B7B1C064B7B44EA0344E1
:1016E0000B7B44EA0323CC7A234302F5C07404EB5A
:1016F0000014A3608B7C1C064B7C44EA03440B7CE7
:1017000044EA0323CC7B234302F5C07404EB0014AA
:10171000E36002F5C07303EB00131B6843F00104A0
:1017200002F5C07303EB00131C6010BDDFED0D0A62
:10173000B4EEE00AF1EE10FA04DDDFED0A0AC0EDC6
:10174000000A0DE0DFED080AB4EEE00AF1EE10FA4F
:1017500004D2DFED050AC0ED000A01E080ED000AC9
:10176000704700000020B2450080D4C439480068AA
:1017700040F65431081A01EE100AB8EEC11AB0EE64
:10178000410A3448406934490968081A01EE100AD0
:10179000B8EEC11AF0EE410A9FED301A60EE011A60
:1017A0009FED2F2A81EE821A2E48D0ED031AF1EE1A
:1017B000611A31EEC11AF7EE001A31EE211A2A48E9
:1017C00080ED001A274890ED041AF0EE081A31EE69
:1017D000611A254880ED011A9FED201A60EE811AEA
:1017E0009FED1F2A81EE821A1E48D0ED051A31EEB8
:1017F000211A1D4880ED021A90ED021ADFED1B1A26
:10180000B4EEE11AF1EE10FA06DD90ED021ADFED0A
:10181000131A31EE611A02E0134890ED021A1248D1
:1018200080ED021A90ED021ADFED111AB4EEE11A02
:10183000F1EE10FA06D290ED021ADFED081A31EE41
:10184000211A02E0084890ED021A074880ED021ABA
:101850007047000000060020FC0500200000B44393
:1018600000000046C40D0020E80A002000003443B8
:10187000000034C30246002002EA01030BB101203C
:1018800000E000207047000010B5002410E023495C
:1018900001EB440001F07CFF204B203B33F8142087
:1018A00040331919203B33F8140001F07AFF641C0F
:1018B000102CECDB1948203890F84000012807D1A3
:1018C000174908600020174908800B2004F030FEFB
:1018D00004240EE011482030005D012808D1801E4C
:1018E0000F49086020B20F4908800B2004F020FE49
:1018F000641C0E2CEEDB0948203890F841000128CA
:101900000AD100F089FF012803D1032004F010FE62
:1019100002E00A2004F00CFE10BD00009404002038
:10192000C8040020C404002010B5A1480068401C71
:101930009F490860084600684FF47A71B0FBF1F2E5
:1019400001FB120030B99B4800889B4908800020A9
:1019500098490880994801F0C7FEFFF795FF00BF3E
:10196000002407E004EB4401954A02EB4100FFF735
:10197000AFF8641C102CF5DB05F0F4FF06F022F93B
:1019800001F0E6F800F048FF0C2831D2DFE800F063
:101990003106A8FAB8C5FBD2DDE8FEF98448006834
:1019A000B0F5967F24D903F0E5FB002004F0C0FDDC
:1019B00040F654308349C8604969834A1268511A15
:1019C0004FF4616201FB02F0C11700EBD1414913F2
:1019D00000EE101AB8EEC00A7C49D1ED050AB2EE4D
:1019E000041A00EE810ABDEEC00A764981ED080AAC
:1019F000CDE006F025FB7548B0F90600002803DDB0
:101A00007248B0F9060003E07048B0F906004042A1
:101A1000142862DA6D48B0F90A00002803DD6B482B
:101A2000B0F90A0003E06948B0F90A0040421428FE
:101A300053DA664890ED030ADFED650A20EE200ACE
:101A40009FED641AC0EE010A9FED630A70EE800AF2
:101A50005C4890ED030AB8EEC00A30EE600AB5EEBD
:101A6000C00AF1EE10FA16DD584890ED030ADFEDDA
:101A7000580A20EE200ADFED570A80EE201A9FED6B
:101A8000560A71EE000A4F4890ED030AB8EEC00AFC
:101A900030EE600A17E04D4890ED030ADFED4C0A86
:101AA00020EE200ADFED4B0A80EE201A9FED4A0A55
:101AB00071EE000A434890ED030AB8EEC00A30EE1A
:101AC000600AB1EE400ADFED450AB4EEE00AF1EE3D
:101AD00010FA02D2022004F02BFD04F0B1FD56E012
:101AE00001F09CFA012802D1042004F021FD06F047
:101AF000A7FA01F007FC04F0A3FD05F08BF846E01F
:101B000005F074FA06F09CFA03F04AFD01F0FAFBC6
:101B100004F096FD05F07EF839E005F067FA06F06E
:101B20008FFA03F03DFD01F0EDFB04F089FD05F0B7
:101B300071F82CE0FEF74EFD06F082FA03F030FD5E
:101B400001F0E0FB05F066F821E000F093FA06F002
:101B500077FA03F025FD01F0D5FB05F05BF816E000
:101B600005F044FA05F056F806F06AFA03F018FD9D
:101B700001F0C8FB04F064FD09E002E006E002E0C9
:101B800000E004E003E005F045F800E000BF00BF1E
:101B900001F06AF9FFF7EAFD01F0EAFE0448007877
:101BA00000F0010018B905F03DFE05F067FE10BD1C
:101BB0002404002006020020080200201E04002049
:101BC000FC0C002000060020FC050020C40D0020B5
:101BD000000000460000B443004035450000484284
:101BE0002DE9F0413C493D4800F0B6F9002871D09C
:101BF0004FF08151394800F09DF83749374800F0DF
:101C0000B3F8374801F0D9FD364800785A280DD18D
:101C100034484078A52809D1002404E03149085D02
:101C200003F028F8641C222CF8DB48E02E4890F8DA
:101C300021005A2805D12B480078A52801D121265A
:101C40000EE000250AE02848405D5A2805D12649C3
:101C5000681C085CA52800D12E466D1C222DF2DBE5
:101C6000002405E0A0192049085C20490855641C9F
:101C7000C6F12200A042F5DC002707E01948C15D4B
:101C800007F12200801B194A11547F1CB742F5DB73
:101C9000002404E01348005D13490855641C222CFD
:101CA000F8DB4FF0000806E0104911F8080002F0D8
:101CB000E1FF08F10108B8F1220FF5DB00BF0C4885
:101CC00006F0ECFF0A48801D06F0F2FF08480C30D1
:101CD00006F0DAFFBDE8F08100802010406002408D
:101CE000940400205C0D00207E0D0020A00D00203B
:101CF000C40D00207047000010B50A490A4800F0E2
:101D00002BF970B14FF08151074800F013F80549E5
:101D1000054800F029F8054803F0E4FB044801F009
:101D20004CFD10BD008020104064024038080020A7
:101D3000960400200246094B9A4201D2084801E06D
:101D40000648103801F000531BB1064B0B40C3602E
:101D500002E0044B0B4083607047000010640240B7
:101D6000006002407D0F7D0F0246094B9A4201D26E
:101D7000084801E00648103801F000531BB1064B3B
:101D80000B40C36002E0044B0B40836070470000CF
:101D900010640240006002407D0F7D0F21B1026897
:101DA00042F00102026003E0026822F001020260D8
:101DB00070470000016821F001010160002101600D
:101DC00041608160C1600161212141614A498842CD
:101DD00004D13D21484A103A91608CE046491831BF
:101DE000884205D14FF47461434A103A916082E011
:101DF00041493031884205D14FF474113E4A103ABE
:101E0000916078E03C494831884205D14FF07461D7
:101E1000394A103A91606EE037496031884204D106
:101E20003649354A103AD16065E033497831884205
:101E300004D13349304A103AD1605CE02E499031E8
:101E4000884204D12F492C4A103AD16053E02A49E4
:101E5000A831884205D14FF03D51274A103AD16050
:101E600049E02949884204D13D21274A083A1160B6
:101E700041E025491831884205D14FF47461224A66
:101E8000083A116037E020493031884205D14FF4DB
:101E900074111D4A083A11602DE01B4948318842EF
:101EA00005D14FF07461184A083A116023E01649D1
:101EB0006031884204D11149134A121F11601AE09F
:101EC00011497831884204D10D490F4A121F11601F
:101ED00011E00D499031884204D10A490A4A121F83
:101EE000116008E00849A831884204D14FF03D5103
:101EF000054A121F11607047106002403D0000202B
:101F0000400F002000003D201064024021B1026813
:101F100042F48022026003E0026822F48022026020
:101F2000704722B1036843F40023036003E00368B1
:101F300023F400230360016170470146486880B2C2
:101F40007047014600200A6802F400220AB101200D
:101F500000E000207047000070B502460020002419
:101F60000025124EB24201D2114B01E00F4B103B43
:101F7000104E0E4036B11E2606EAD124166806EA37
:101F8000040502E0566906F0800501F000560EB126
:101F90005C6800E01C68084E344004EA010616B193
:101FA0000DB1012000E0002070BD0000106402406F
:101FB000006002403C0F3C0F7D0F7D0F10B501F01B
:101FC00080034BB122B1436943F08003436103E0D6
:101FD000436923F08003436180290BD02AB1036851
:101FE00001F01E042343036004E0036801F01E04B3
:101FF000A343036010BD000010B500220268134B1C
:102000001A40CC680B6823434C6923438C692343F3
:10201000CC6923430C6A23434C6A23438C6A2343D1
:102020004C6B23438C6B23431A430260426922F0BA
:102030000702D1E90B3423431A4342610B69436021
:102040004B6883608B68C36010BD00003F801CF04C
:102050000021016041608160C16001614161816175
:10206000C161016241628162C16201634163816356
:102070007047704710B5002013E09FED390A10EE4D
:10208000101A00EB4012374B03EB420251609FEDF8
:10209000360A10EE101A00EB401203EB42021162F6
:1020A000401C0428E9DB01203049087030480078E2
:1020B000062853D2DFE800F0030A121A222A00F0A1
:1020C000B5F8012801D12A49087047E000F056F818
:1020D000012802D10220264908703FE000F0FAF8FA
:1020E000012802D103202249087037E000F09EF851
:1020F000012802D104201E4908702FE000F03EF8AC
:10210000012802D105201A49087027E000F0E2F802
:10211000012822D10020154908701549087000BF18
:1021200013E09FED140A10EE101A00EB40120D4B55
:1021300003EB420251609FED100A10EE101A00EB03
:10214000401203EB42021162401C0428E9DB042028
:1021500004F0EEF9002004F0F1F900BF00BF10BD5B
:102160003E0AD73D6C0000206E43D147F6070020A1
:1021700049000020295C0F3D49828B4700B50020B3
:1021800004F0DCF900202649088026490880012057
:1021900004F020F8002003F0C5FF012004F01AF835
:1021A00001283BD1002003F0BDFF012836D1482093
:1021B0001B49088000201B4908801B4880780128A3
:1021C0000AD11948C078012806D100201449088096
:1021D00014490880012000BD1348807868B912486E
:1021E000C078012809D100200D4908801E200D4922
:1021F0000880012004F0A2F910E00B488078012843
:102200000CD10948C07848B90020054908806FF012
:102210001D0004490880012004F090F90020DAE74D
:10222000CA010020CE010020EE07002000B50020EA
:1022300004F084F90020244908802449088003F030
:10224000C9FF002003F06EFF002003F0C3FF012848
:1022500037D1002003F066FF012832D128201A4927
:1022600008801B480078012809D1194840780128C6
:1022700005D10020088015490880012000BD1448C0
:10228000007868B912484078012809D100200E4929
:1022900008801E200D490880012004F04FF910E04D
:1022A0000B48007801280CD10948407848B9002033
:1022B000054908806FF01D0004490880012004F0E2
:1022C0003DF90020DAE70000CA010020CE0100201D
:1022D000EE07002000B5002004F030F90020264968
:1022E000088026490880012003F074FF012809D1E5
:1022F00003F018FF012805D12148007810B901200A
:102300001F4908701E480078012832D11D48006816
:1023100018B91D4800681B49086046201649088006
:102320000020164908801848006816490968401AB4
:10233000C82808D91348006828B1002003F04AFFD4
:10234000002003F0EFFE104800680E490968401AAB
:10235000B0F5966F0DD90B48006850B100200649C2
:10236000088006490880074908600549087001206F
:1023700000BD0020FCE70000CA010020CE010020C3
:1023800068000020640000202404002010B5102004
:1023900000F018F8012807D101F012FA102000F01F
:1023A00005F8102000F008F810BD00000149086091
:1023B00070470000143C014001490860704700006C
:1023C000143C0140014600200022074B1B6803EA31
:1023D0000102054B14331B680B4013B10AB10120F5
:1023E00000E0002070470000003C01408CB0016913
:1023F000002901DD016901E0016949424269002AC1
:1024000001DD426901E0426952420A4481690029C2
:1024100001DD816901E0816949420A44C1690029FD
:1024200001DDC16901E0C1694942114401EE101AA0
:10243000B8EEC10A0168002901DD016801E0016808
:1024400049424268002A01DD426801E04268524286
:102450000A448168002901DD816801E08168494200
:102460000A44C168002901DDC16801E0C168494230
:10247000114401EE101AF8EEC10A002108910991E9
:102480000A910B910491059106910791B5EEC00A4E
:10249000F1EE10FA02DDB0EE401A01E0B1EE401AA2
:1024A000DFED931AB4EEE11AF1EE10FA10D29FEDBF
:1024B000911A8DED081A9FED8F1A8DED091A9FED77
:1024C0008D1A8DED0A1A9FED8B1A8DED0B1A27E0F0
:1024D00090ED041AB8EEC11A21EE201AC1EE001ACE
:1024E000CDED081A90ED051AB8EEC11A21EE201AAA
:1024F000C1EE001ACDED091A90ED061AB8EEC11A18
:1025000021EE201AC1EE001ACDED0A1A90ED071A3D
:10251000B8EEC11A21EE201AC1EE001ACDED0B1A49
:10252000DDED081A90ED001AB8EEC11A31EEC11AAD
:102530008DED041ADDED091A90ED011AB8EEC11AFD
:1025400031EEC11A8DED051ADDED0A1A90ED021A71
:10255000B8EEC11A31EEC11A8DED061ADDED0B1A77
:1025600090ED031AB8EEC11A31EEC11A8DED071ABB
:10257000614991ED001ADDED041A9FED602A01EE2C
:10258000821A81ED001A91ED001ADDED041A9FED1B
:102590005B2A01EE821A81ED001A91ED001ADDED41
:1025A000041A9FED562A01EE821A81ED001A91ED70
:1025B000001ADDED041A9FED512A01EE821A81ED19
:1025C000001A002132E04C4A02EB810292ED001A1F
:1025D000DFED4B1AB4EEE11AF1EE10FA02DD9FEDD9
:1025E000481A04E0444A02EB810292ED001A424A82
:1025F00002EB810282ED001A3F4A02EB810292ED6A
:10260000001ADFED401AB4EEE11AF1EE10FA02D230
:102610009FED3C1A04E0384A02EB810292ED001A69
:10262000354A02EB810282ED001A491C0429CADBFB
:10263000314991ED001ADDED041AB0EE082A01EEE1
:10264000821ABDEEC11A8DED001A91ED011ADDED71
:10265000051AB0EE082A01EE821ABDEEC11A8DED00
:10266000011A91ED021ADDED061AB0EE082A01EE0C
:10267000821ABDEEC11A8DED021A91ED031ADDED3D
:10268000071AB0EE082A01EE821ABDEEC11A8DEDCE
:10269000031A002117E05DF82120B2F57A6F02DD00
:1026A0004FF47A6201E05DF821204DF821205DF8B9
:1026B000212012F57A6F01DA134A01E05DF821203A
:1026C0004DF82120491C0429E5DB016C009A1144D6
:1026D0000164416C019A11444164816C029A114475
:1026E0008164C16C039A1144C1640CB0704700004E
:1026F000CDCCCC3D00000000780A00200AD7233C56
:1027000000007A4400007AC460F0FFFFF0B50A468A
:1027100000210023002400BF3DE0012505FA01F35C
:10272000156805EA03049C4234D105684F0003266E
:10273000BE40B543056015794E00B5400668354387
:1027400005601579012D02D01579022D16D1856805
:102750004F000326BE40B543856055794E00B54015
:10276000866835438560456801268E40B5434560DF
:10277000456896798E40B6B235434560C5684F00CE
:102780000326BE40B543C560D5794E00B540C66846
:102790003543C560491C1029BFD3F0BDF0B50023F7
:1027A00000244D07ED0E02FA05F3CE1000F12005CE
:1027B00055F826504E07F70E0F26BE40B543CF10F2
:1027C00000F1200646F82750CE1000F1200555F8FC
:1027D000265045EA0304CE1000F1200545F82640B6
:1027E000F0BD0246002013690B400BB1012000E050
:1027F0000020704741837047018370474FF6FF7197
:1028000001600021017141718171C171704742699C
:102810004A4042617047000001480078704700005C
:102820000402002030B5034613B94FF6FF7030BDE7
:1028300009E013F8014B82EA0400C0B2054D35F8F7
:10284000100080EA22220800A1F10101F1D1104616
:10285000EDE70000309A000830B5034605E013F8B4
:10286000010B80EA02040448025D0800A1F10105A1
:10287000A9B2F4D1104630BD2F99000800BFFEE781
:1028800010B5044600F0B0F82CB14FF400710D48BB
:10289000FFF7B2FF04E04FF400710A48FFF7AAFF08
:1028A0004FF480710748FFF7A7FF012000F00CF8F4
:1028B0004FF480710348FFF79DFF012000F004F8FA
:1028C00010BD00000004024010B5002106E0062201
:1028D00000BF1300A2F10102FBD1491C8142F6D3D3
:1028E00010BD000070B5002400F068F800251BE062
:1028F0004FF480711148FFF77DFF0120FFF7E4FFDF
:102900004FF480710D48FFF777FF6006040E4FF417
:1029100000710A48FFF765FF08B1601CC4B20120CE
:10292000FFF7D2FF681CC5B2082DE1DB4FF48071C0
:102930000248FFF75FFF204670BD00000004024020
:102940002DE9F04106460F461446984600F060F81F
:10295000304600F0CBF800F09BF8FF2801D1BDE82D
:10296000F081384600F0C2F800F092F8FF2800D15C
:10297000F5E700F04DF8711CC8B200F0B7F800F0B0
:1029800087F8FF2800D1EAE7002508E0FFF7AAFF53
:1029900020700020FFF774FF641C681CC5B2A8F10A
:1029A0000100A842F2DCFFF79DFF20700120FFF735
:1029B00067FF00F04DF80020D1E700001CB54FF490
:1029C0000070009000208DF804008DF806008DF84E
:1029D000070002208DF8050069460248FFF796FEC1
:1029E0001CBD0000000402401CB54FF400700090B4
:1029F00001208DF804008DF8060003208DF80500F5
:102A000069460248FFF782FE1CBD00000004024038
:102A100010B5FFF7E9FF4FF400710C48FFF7ECFE2B
:102A20004FF480710948FFF7E7FE0120FFF74CFFE4
:102A30004FF400710548FFF7DDFE0120FFF744FF6A
:102A40004FF480710148FFF7D5FE10BD000402402D
:102A500010B5FFF7C9FF4FF480710C48FFF7CAFEAD
:102A60004FF400710948FFF7C5FE0120FFF72CFF66
:102A70004FF480710548FFF7BFFE4FF40071034823
:102A8000FFF7BAFE0120FFF71FFF10BD0004024050
:102A900010B54FF47A744FF400711348FFF7ACFE91
:102AA000FFF78CFF0120FFF70FFF4FF480710E48F6
:102AB000FFF7A2FE0120FFF707FF07E0601E80B2CC
:102AC000040003D0FFF7C4FFFF2010BD4FF40071D6
:102AD0000548FFF786FE0028F0D14FF480710248C8
:102AE000FFF788FE0020F0E70004024070B50446BE
:102AF000FFF77AFF4FF480711448FFF77BFE002543
:102B000021E004F0800028B14FF400710F48FFF776
:102B100073FE04E04FF400710C48FFF76BFE600693
:102B2000040E0120FFF7D0FE4FF480710748FFF735
:102B300063FE0120FFF7C8FE4FF480710348FFF7E2
:102B400059FE681CC5B2082DDBDB70BD00040240D5
:102B500010B52748007844F6206110FB01F02549A4
:102B6000086025480078092807D0FFF755FE092896
:102B700003D101202149087012E01F48007809287C
:102B800007D1FFF749FE092803D000201B49087030
:102B900006E0FFF741FE042802D100201749087023
:102BA0001748007860B9174890F83200012807D11B
:102BB0001248007808B9012000E000200F49087091
:102BC0000E48007840F2771110FB01F040F2D66118
:102BD000A1EB4000074908310860FFF71DFE0649D8
:102BE0000870084890F832000549087010BD0000D0
:102BF00084070020380C004089070020850700204A
:102C000088070020FC0C00203448807C00F0010084
:102C1000334988703148807CC0F3400130480172EC
:102C20002E48807CC0F380012D4881732B48807C26
:102C3000C0F3C0012A4801752848807CC0F3001108
:102C4000274881762548807CC0F34011244880F8CD
:102C500020102248807CC0F38011214880F8261083
:102C60001E48807CC1091E4880F82C101B48C07C7F
:102C700000F001011A4880F832101848C07CC0F3F7
:102C80004001174880F838101448C07CC0F3800118
:102C9000134880F83E101148C07CC0F3C0011048B2
:102CA00080F844100D48C07CC0F300110C4880F837
:102CB0004A100A48C07CC0F34011094880F85010FF
:102CC0000648C07CC0F38011054880F856100348C0
:102CD000C07CC109024880F85C107047D80700200A
:102CE000FC0C002010B5424800780A2830DA404831
:102CF000007800282CDD3F4800684FF41661B0FBD7
:102D0000F1F201FB12003A4909784900C1EB0111C7
:102D100001EB8101B0EB410F27D8364800684FF432
:102D20001661B0FBF1F201FB120020B9022132481A
:102D3000FFF762FD19E02F4800689621B0FBF1F221
:102D400001FB120088B902212B48FFF760FD0CE05F
:102D5000274800780A2804DB02212748FFF74AFDAC
:102D600003E002212448FFF747FD244800780A28A1
:102D700030DA2248007800282CDD1E4800684FF425
:102D80001661B0FBF1F201FB12001C490978490001
:102D9000C1EB011101EB8101B0EB410F27D81548C0
:102DA00000684FF41661B0FBF1F201FB120020B98C
:102DB00001211148FFF720FD19E00E480068962117
:102DC000B0FBF1F201FB120088B901210A48FFF7BC
:102DD0001EFD0CE0094800780A2804DB01210648A2
:102DE000FFF708FD03E001210348FFF705FD10BDD3
:102DF000CC0400202404002000080240CD04002060
:102E00000A2801DD0A2200E00246054B1A700A2951
:102E100001DD0A2200E00A46024B1A7070470000EA
:102E2000CC040020CD0400201CB50121042002F0B8
:102E3000DDF80320009001208DF8040000208DF8BB
:102E4000060003208DF8050069460648FFF75EFC82
:102E500002210448FFF7D0FC01210248FFF7CCFC17
:102E60001CBD00000008024010B55C4800689621B7
:102E7000B0FBF1F201FB120000286FD1FFF7CCFC90
:102E80000C280BD2DFE800F00B06107D151A821F0C
:102E90002429A02E0A210846FFF7B2FF99E0092154
:102EA0000846FFF7ADFF94E009210846FFF7A8FFA9
:102EB0008FE000210120FFF7A3FF8AE0002101201D
:102EC000FFF79EFF85E000210120FFF799FF80E0DA
:102ED00000210120FFF794FF7BE000210120FFF794
:102EE0008FFF76E03E4800880E2804D10A21032097
:102EF000FFF786FF44E03A4800880F2804D10A21F2
:102F00000420FFF77DFF3BE03548008804280BD004
:102F100033480088052807D031480088062803D0A8
:102F20002F480088072804D10A210220FFF768FFF4
:102F300026E02B4800880A280BD0294800880B2857
:102F400007D0274800880C2803D0254800880D2882
:102F500005D10A210120FFF753FF11E03CE0204892
:102F60000088092803D01E480088082804D10A21B7
:102F70000520FFF745FF03E00A210620FFF740FF89
:102F800027E001210846FFF73BFF22E013480068D5
:102F90004FF41661B0FBF1F201FB120020B90A21D7
:102FA0000020FFF72DFF0EE00C48006800F596604A
:102FB0004FF41661B0FBF1F201FB120018B90021C9
:102FC0000A20FFF71DFF04E001210846FFF718FF64
:102FD00000BF00BFFFF786FE10BD000024040020E4
:102FE000C40400201CB50121042001F0FFFF2020B3
:102FF000009001208DF8040000208DF806000320C9
:103000008DF8050069460448FFF780FB202102483F
:10301000FFF7F0FB1CBD000000080240614800788B
:1030200020B1012836D0022833D162E09FED5E0A3C
:1030300010EE100A5D4948609FED5B0A10EE100A21
:10304000C1F846009FED580A10EE100AC1F888003A
:103050009FED550A10EE100AC1F8CA0046205449E7
:10306000086348638863C8630846006A1E2810DD49
:103070000846406A1E280CDD0846806A1E2808DDC6
:103080000846C06A1E2804DD0120464908704949E7
:10309000087083E09FED480A10EE100A434948602B
:1030A0009FED460A10EE100AC1F846009FED430A54
:1030B00010EE100AC1F888009FED400A10EE100AC9
:1030C000C1F8CA003E483A49086348638863C86348
:1030D0000846006849680844354989680844344905
:1030E000C968084410F1190F02DA02202D4908704E
:1030F00054E02F4800682E49496808442C498968E3
:1031000008442B49C968084400280BDD284800689A
:103110002749496808442649896808442449C968F8
:1031200008440BE0224800682149496808442049C6
:10313000896808441E49C968084440420A282CDAB4
:1031400000202049C88200211E48C185A0F84610F1
:10315000A0F85E1000201649086348638863C863BE
:103160009FED150A10EE100A104948609FED120AF3
:1031700010EE100AC1F846009FED0F0A10EE100A7B
:10318000C1F888009FED0C0A10EE100AC1F8CA00C1
:103190000020084908700120704700BF00BF0020D0
:1031A000FAE700002C040020CDCCCC3D1203002017
:1031B000880A00202D040020CDCC4C3D00000000EA
:1031C000F0D8FFFF3C0C00204749097801297DD148
:1031D000464991ED000AB1EE400AD1ED010A70EEC8
:1031E000600A90ED000A9FED421A01EE200A80ED80
:1031F000000A91ED000AB1EE400AD1ED010A70EE2D
:10320000200A90ED010A9FED3A1A01EE200A80EDA6
:10321000010A91ED000AD1ED010A70EE600A90ED0D
:10322000020A9FED331A01EE200A80ED020A91EDA9
:10323000000AD1ED010A70EE200A90ED030A9FED1D
:103240002C1A01EE200A80ED030A91ED000AB1EE7E
:10325000400AD1ED010A30EE600ADFED250A20EECA
:10326000200ABDEEC00A10EE101A09B2214A1180E0
:103270001E4991ED000AB1EE400AD1ED010A30EE8F
:10328000200ADFED1B0A20EE200ABDEEC00A10EE78
:10329000101A09B2184A1180144991ED000AD1EDB3
:1032A000010A30EE600ADFED120A20EE200ABDEEC0
:1032B000C00A10EE101A09B2104A11800B4991EDA4
:1032C000000AD1ED010A30EE200A00E00AE0DFED4D
:1032D000080A20EE200ABDEEC00A10EE101A09B24C
:1032E000074A1180704700002D040020E80A0020E2
:1032F000000082426404002066040020680400206C
:103300006A04002010B52DED048BFFF785FA042820
:1033100072D1EE48007A0128FAD1ED4800680A21FE
:10332000B0FBF1F201FB12000028F1D1E748407A2E
:10333000012804D0022860D003285CD1C6E0E3490C
:10334000C988A1F5806101EB4101880006F055F8BC
:103350009FEDE00B53EC102B05F0C8FE06F01EF8B5
:1033600000B2DE49096B0844DC490863D749C988C3
:10337000A1F5806101EB4101880006F03EF89FED68
:10338000D50B53EC102B05F0B1FE06F007F800B298
:10339000D249496B0844D1494863CC49C988A1F551
:1033A000806101EB4101880006F027F89FEDC90B11
:1033B00053EC102B05F09AFE05F0F0FF00B2C74960
:1033C000896B0844C5498863C049C988A1F58061F3
:1033D00001EB4101880006F010F89FEDBE0B53ECA5
:1033E000102B05F083FE05F0D9FF00B2BB49C96B75
:1033F0000844BA49C8636AE06AE0B449C988A1F5DB
:103400008061C1EBC10005F0F8FF41EC190B9FEDA5
:10341000B10B53EC102B05F069FE41EC180B05F0D5
:10342000BDFF00B2AD49096B0844AC490863A74928
:10343000C988A1F58061C1EBC10005F0DEFF41EC58
:10344000190B9FEDA40B53EC102B05F04FFE41EC34
:10345000180B05F0A3FF00B2A049496B08449F492F
:1034600048639A49C988A1F58061C1EBC10005F0A4
:10347000C4FF41EC190B9FED970B53EC102B05F09B
:1034800035FE41EC180B05F089FF00B29349896BBA
:10349000081A924988638D49C988A1F58061C1EBFA
:1034A000C10005F0AAFF41EC190B9FED8A0B53EC0C
:1034B000102B05F01BFE41EC180B05F06FFF00B25E
:1034C0008649C96B081A8549C86300E000BF00BF80
:1034D000FFF7A2F9022857D08048006B1E2801DAB6
:1034E0001E2001E07D48006B7C4908630846006BA4
:1034F00040F24651884201DD084601E07748006B02
:10350000764908630846406B1E2801DA1E2001E058
:103510007248406B714948630846406B40F246511F
:10352000884201DD084601E06C48406B6B49486306
:103530000846806B1E2801DA1E2001E06748806B78
:10354000664988630846806B40F24651884201DD37
:10355000084601E06148806B604988630846C06B9B
:103560001E2801DA1E2001E05C48C06B5B49C8637D
:103570000846C06B40F24651884201DD084601E032
:103580005648C06B5549C863544890ED081AB8EEC8
:10359000C11AF0EE410A90ED0C1AB8EEC11AB0EE65
:1035A000410A4F4801F056F9BDEEC00A4B4880ED84
:1035B000040A90ED091AB8EEC11AF0EE410A90ED36
:1035C0000D1AB8EEC11AB0EE410A4548423001F07A
:1035D00041F9BDEEC00A414880ED050A90ED0A1A96
:1035E000B8EEC11AF0EE410A90ED0E1AB8EEC11A0B
:1035F000B0EE410A3A48843001F02CF9BDEEC00A21
:10360000364880ED060A90ED0B1AB8EEC11AF0EEBE
:10361000410A90ED0F1AB8EEC11AB0EE410A3048D7
:10362000C63001F017F9BDEEC00A2C4880ED070A3C
:1036300090ED001AB8EEC11AF0EE410A90ED041AAE
:10364000B8EEC11AB0EE410A264801F003F923484A
:1036500080ED100A90ED011AB8EEC11AF0EE410AA1
:1036600090ED051AB8EEC11AB0EE410A1D4842307D
:1036700001F0F0F8194880ED110A90ED021AB8EE49
:10368000C11AF0EE410A90ED061AB8EEC11AB0EE7A
:10369000410A1448843001F0DDF8104880ED120A28
:1036A00090ED031AB8EEC11AF0EE410A90ED071A38
:1036B000B8EEC11AB0EE410A0A48C63001F0CAF8A5
:1036C000064880ED130ABDEC048B10BDD80700201E
:1036D000240400200000000000A08440880A00208C
:1036E0000A0200201203002010B5044620780128A9
:1036F00015D10B480088401C09490880012002F0C0
:1037000069FD012804D0012002F00CFD012806D13A
:103710000020207002F05EFD002002F003FD10BDCD
:103720006C040020B0EE401AF7EE001AB0EE610A09
:10373000F0EE081A60EEA11ADFED132A81EEA22A3C
:10374000DFED121A72EE211AB0EE610AF7EE001ADE
:10375000B4EEE10AF1EE10FA02DDF7EE001A01E034
:10376000F0EE401AB0EE610ADFED081AB4EEE10A9D
:10377000F1EE10FA02D2DFED051A01E0F0EE401A88
:10378000B0EE610A7047000000004843CDCCCC3D4C
:1037900001884FF6FE72914202DA0188491C0180CD
:1037A0007047034602EB8200984202DA012008705B
:1037B00001E0002008700878704700210180704700
:1037C0001FB50E236A463B21D020FFF7B9F8FF282A
:1037D00001D104B010BD9DF801009DF8001040EA31
:1037E000012000B2584908809DF803009DF802109E
:1037F00040EA012000B2544948809DF805009DF838
:10380000041040EA012000B24F4988809DF807006B
:103810009DF8061040EA012000B24B49C8809DF88F
:1038200009009DF8081040EA012000B246490881CD
:103830009DF80B009DF80A1040EA012000B24249B1
:1038400048819DF80D009DF80C1040EA012000B25F
:103850003D4988810846B0F9000000EE100AB8EE34
:10386000C00AB1EE400ADFED390A80EE201A38486E
:1038700080ED001A0846B0F9020000EE100AB8EE1A
:10388000C00AB1EE400ADFED310A80EE201A30485E
:1038900080ED011A0846B0F9040000EE100AB8EEF7
:1038A000C00ADFED2A0A80EE201A294880ED021AAC
:1038B0000846B0F9060000EE100AB8EEC00A9FED07
:1038C000251AC0EE010A9FED240A30EE800A204836
:1038D00080ED030A0846B0F9080020490968401A3B
:1038E00000EE100AB8EEC00ADFED1D0A80EE201AC5
:1038F000174880ED041A1448B0F90A0019490968FC
:10390000401A00EE100AB8EEC00AB1EE400ADFED30
:10391000140A80EE201A0E4880ED051A0A48B0F904
:103920000C0011490968401A00EE100AB8EEC00AEE
:10393000B1EE400ADFED0A0A80EE201A044880ED5D
:10394000061A002045E70000D40B002000000046C6
:10395000E40B00200000AA43B81E12428C0700208E
:1039600000008342900700209407002000BFFEE77C
:1039700070B5FEF751FF0C287DD2DFE800F01B0682
:103980003B7CAAF5F3F2F1F0EFEE00210846FDF7DB
:1039900003FA00231A4619461846FDF729FA0023B0
:1039A0001A4619461846FDF737F900210846FDF773
:1039B0005FFB18E2F94A128A11B2F84A928C10B2EF
:1039C000FDF7EAF900231A4619461846FDF710FAE2
:1039D00000231A4619461846FDF71EF9F04991EDE5
:1039E000070ABDEEC00A10EE101A08B20021FDF75A
:1039F0003FFBF8E1EB480068401CEA4908604FF4DF
:103A00004870E9490860091D0860E848D0ED100ACF
:103A1000B0EE600AE648FDF789FEE448D0ED110AF1
:103A2000B0EE600AE248001DFDF780FEDF48D0EDF1
:103A3000120AB0EE600ADE480830FDF777FEDB4878
:103A4000D0ED130AB0EE600AD9480C30FDF76EFED7
:103A5000D748FFF7B9FBD14A128A11B2CF4A928CEC
:103A600010B2FDF799F900231A4619461846FDF7DA
:103A7000BFF9CF4C00E0A1E194ED030ABDEEC00A0E
:103A800010EE104A23B2CA4C94ED020ABDEEC00AF1
:103A900010EE104A22B2C64C94ED010ABDEEC00AE7
:103AA00010EE104A21B2C24C94ED000ABDEEC00ADD
:103AB00010EE104A20B2FDF7AFF8B94991ED070AB0
:103AC000BDEEC00A10EE101A08B20021FDF7D0FAC0
:103AD00089E1B24A128A11B2B04A928C10B2FDF753
:103AE0005BF9B44CE36CA26C616C206CFDF780F95F
:103AF000AE4C94ED130ABDEEC00A10EE104A23B28C
:103B0000AA4C94ED120ABDEEC00A10EE104A22B281
:103B1000A64C94ED110ABDEEC00A10EE104A21B277
:103B2000A24C94ED100ABDEEC00A10EE104A20B26D
:103B3000FDF772F8A04A92ED070ABDEEC00A10EE3A
:103B4000102A11B2964A92ED070ABDEEC00A10EE95
:103B5000102A10B2FDF78CFA45E126E04FE0E7E0CD
:103B6000A4E061E036E0FFE78C4A128A11B28B4A8A
:103B7000928C10B2FDF710F98E4CE36CA26C616C64
:103B8000206CFDF735F900231A4619461846FDF753
:103B900043F8834991ED070ABDEEC00A10EE101AF2
:103BA00008B20021FDF764FA1DE100210846FDF787
:103BB000F3F800231A4619461846FDF719F90023B1
:103BC0001A4619461846FDF727F800210846FDF762
:103BD0004FFA08E100210846FDF7DEF800231A46F7
:103BE00019461846FDF704F900231A4619461846E7
:103BF000FDF712F800210846FDF73AFAF3E000213C
:103C00000846FDF7C9F800231A4619461846FDF77D
:103C1000EFF800231A4619461846FCF7FDFF00216D
:103C20000846FDF725FADEE05C49C86801F005F9B1
:103C30005A49098A084404B25849486903F0E4FF24
:103C40005649898C084405B221462846FDF7A4F858
:103C5000584CE36CA26C616C206CFDF7C9F8534CB6
:103C600094ED130ABDEEC00A10EE104A23B24F4C79
:103C700094ED120ABDEEC00A10EE104A22B24B4C6F
:103C800094ED110ABDEEC00A10EE104A21B2474C65
:103C900094ED100ABDEEC00A10EE104A20B2FCF7F7
:103CA000BBFF00210846FDF7E3F99CE03B49C868EB
:103CB00001F0C3F83949098A084404B23749486910
:103CC00003F0A2FF3549898C084405B221462846F5
:103CD000FDF762F8374CE36CA26C616C206CFDF769
:103CE00087F8324C94ED130ABDEEC00A10EE104A6C
:103CF00023B22E4C94ED120ABDEEC00A10EE104A0B
:103D000022B22A4C94ED110ABDEEC00A10EE104A00
:103D100021B2264C94ED100ABDEEC00A10EE104AF6
:103D200020B2FCF779FF00210846FDF7A1F95AE01F
:103D30001A4A128A11B2194A928C10B2FDF72CF865
:103D40001C4CE36CA26C616C206CFDF751F8174CB5
:103D500094ED130ABDEEC00A10EE104A23B2134CC4
:103D600094ED120ABDEEC00A10EE104A22B20F4CBA
:103D700094ED110ABDEEC00A10EE104A21B20B4CB0
:103D800094ED100ABDEEC00A10EE104A20B2FCF706
:103D900043FF00210846FDF76BF924E000060020F0
:103DA000240B0020400400203C040040880A00202E
:103DB000D80A0020280A0020600B002000210846B5
:103DC000FCF7EAFF00231A4619461846FDF710F8DB
:103DD00000231A4619461846FCF71EFF0021084624
:103DE000FDF746F900BF00BF70BD704770B50021F8
:103DF00000230F22C4781CB3174C246804F4E06439
:103E0000C4F5E064C4F30721C1F10404E3B20A413C
:103E100044789C40E1B28478144021430C07210E81
:103E20000E4C05786155047804F01F050124AC4060
:103E300005786D11AD0005F1E025C5F8004109E0F8
:103E4000047804F01F050124AC40054D0678761176
:103E500045F8264070BD00000CED00E000E400E0F5
:103E600080E100E002490143024A1160704700000E
:103E70000000FA050CED00E070B506460024351D83
:103E8000A3E0285DC02840D012DCA52829D008DC9A
:103E900090281ED0A02821D0A12820D0A22877D1F8
:103EA0001EE0B02826D0B12825D0B228F7D123E0D3
:103EB000D1287BD006DCC12828D0C22827D0D02822
:103EC000EDD12DE0D92865D0E02879D0F02879D13E
:103ED00074E0687840490870A41C75E000BF00BF1A
:103EE00000BF29193D4851F8012F0260898881805F
:103EF000E41D69E000BF00BF2919394851F8012FBE
:103F0000026089888180E41D5EE000BF00BF29193E
:103F1000344851F8012F026089888180E41D53E004
:103F2000601C295CA01C285C01EB002000B200EEA4
:103F3000100AB8EEC00ADFED2C0A80EE201A2B48DA
:103F400080ED001AE01C295C201D285C01EB00209C
:103F500000B200EE100AB8EEC00ADFED230A80EED0
:103F6000201A224880ED011A601D295CA01D285CE2
:103F700001EB002000B200EE100AB8EEC00AF2EE2B
:103F8000040A80EE201A194880ED021AE41D1BE095
:103F900018E00BE02919154851F8012F02604A6812
:103FA0004260896881600D340EE009E02819411CE7
:103FB00010220F48FCF779F9113405E0641D03E085
:103FC000641D01E0641C00BF00BFB6F88400A0427D
:103FD0003FF757AF70BD00002208002010080020F6
:103FE000160800201C0800200000C842680E0020AF
:103FF000740E00200021F7EE000AB0EE600AD0E94E
:1040000004239A4201DD026900E042691146826997
:104010008A4201DA0A4600E082691146C2698A4290
:1040200001DA0A4600E0C269114600EE901AF8EE85
:10403000E00A9FED1D1AF4EEC10AF1EE10FA31DD2F
:1040400000EE901AF8EEE00A9FED171AC1EE201A62
:10405000B0EE610AD0ED040AF8EEE00A60EE800AE4
:10406000FDEEE00AC0ED040AD0ED050AF8EEE00A24
:1040700060EE800AFDEEE00AC0ED050AD0ED060A0A
:10408000F8EEE00A60EE800AFDEEE00AC0ED060AF6
:10409000D0ED070AF8EEE00A60EE800AFDEEE00AD5
:1040A000C0ED070A7047000000D0044670B5054611
:1040B0000C46FEF7B1FB042803D0FEF7ADFB052844
:1040C00076D14648007800F001000028F8D1444835
:1040D0008078D0B14348B0F90000B0F5257F0BDA05
:1040E0004048B0F90000002806DB3E480088401C2C
:1040F00000B23C49088029E03A48B0F900000028A5
:1041000024DA00203749088020E03548007AD0B111
:104110003448B0F9000010F5257F0BDD3148B0F9C7
:104120000000002806DC2F480088401E00B22D4900
:1041300008800BE02B48B0F90000002806DD0020C5
:104140002849088002E00020264908802448007D94
:10415000C8B12548B0F90000B0F5257F0BDA224838
:10416000B0F90000002806DB1F480088401C00B2A0
:104170001D49088029E0B4F90000002825DA002054
:104180001949088021E01648807BD8B11648B0F95B
:10419000000010F5257F0CDD1348B0F90000002861
:1041A00007DC11480088401E00B20F4908800CE06F
:1041B00013E00D48B0F90000002806DD00200A4990
:1041C000088002E00020084908800648B0F9000095
:1041D00028800548B0F90000208070BD240400202C
:1041E000FC0C0020F2010020F401002010B5044670
:1041F0001C48007C01280ED11B48007858B91B4888
:104200000088401C00B21949088019480088401CE9
:1042100000B2174908801748007830B9164890F85E
:104220004A00012801D1207006E0134890F84C00A4
:10423000022801D100202070207820B920210F48C9
:10424000FEF7D8FA03E020210C48FEF7D5FA05481E
:10425000007C05490870084890F84A000549087034
:1042600010BD0000D8070020F1050020080B002039
:10427000440B0020F2050020FC0C00200008024046
:1042800010B5AC4A12784AB990ED000AB8EEC00AEF
:10429000A94A82ED000A0122A64B1A70A74A127899
:1042A000A2BBA74A92F82620012A4CD1A54A92ED3A
:1042B000000AB5EEC00AF1EE10FA02DD92ED000A36
:1042C00004E0A04A92ED000AB1EE400ADFED9E0A3A
:1042D000B4EEE00AF1EE10FA35D2974A92ED000AF8
:1042E000DFED9A0A30EE200A82ED000A92ED000A14
:1042F000DFED970AB4EEE00AF1EE10FA07DD92ED79
:10430000000ADFED940A30EE600A03E01BE08A4AFF
:1043100092ED000A884A82ED000A92ED000ADFED74
:104320008E0AB4EEE00AF1EE10FA06D292ED000A1F
:10433000DFED880A30EE200A02E07F4A92ED000AA3
:104340007D4A82ED000A7E4A92F826207B4B1A7045
:10435000824A1278A2BB7A4A92F82C20012A4CD1C8
:10436000784A92ED000AB5EEC00AF1EE10FA02DDCD
:1043700092ED000A04E0734A92ED000AB1EE400AA1
:10438000DFED710AB4EEE00AF1EE10FA35D26A4AB6
:1043900092ED000ADFED6D0A30EE600A82ED000A50
:1043A00092ED000ADFED6A0AB4EEE00AF1EE10FACF
:1043B00007DD92ED000ADFED670A30EE600A03E0E8
:1043C0001BE05D4A92ED000A5B4A82ED000A92ED25
:1043D000000ADFED610AB4EEE00AF1EE10FA06D24F
:1043E00092ED000ADFED5B0A30EE200A02E0524A4D
:1043F00092ED000A504A82ED000A514A92F82C20B0
:10440000564B1A70564A12680A23B2FBF3F403FBA8
:104410001422002A77D1534AB2F90A2000EE102A5A
:10442000B8EEC00AF2EE0E0A20EE200A9FED4E1AF8
:10443000C0EE010A404A92ED000A30EE600A82EDB9
:10444000000A484AB2F90C2000EE102AB8EEC00A61
:10445000F0EE000A20EE200AF0EE080A80EE201AA4
:10446000424A92ED000A31EE000A82ED000A324A19
:1044700092ED000ADFED360AB4EEE00AF1EE10FA32
:1044800006DD92ED000ADFED330A30EE600A02E04D
:10449000294A92ED000A284A82ED000A92ED000AAC
:1044A000DFED2D0AB4EEE00AF1EE10FA06D292ED3D
:1044B000000ADFED280A30EE200A02E01E4A92EDE3
:1044C000000A1D4A82ED000A284A92ED000ADFED3B
:1044D000280AB4EEE00AF1EE10FA02DD9FED240A9C
:1044E00002E0224A92ED000A204A82ED000A92ED93
:1044F000000ADFED200AB4EEE00AF1EE10FA03D272
:104500009FED1C0A03E013E0184A92ED000A174AD7
:1045100082ED000A084A92ED000ABDEEC00A80ED65
:10452000000A124A92ED000ABDEEC00A81ED000AAF
:1045300010BD0000440700203C0700204507002074
:10454000FC0C0020D40100207BD9A03E0000614477
:104550000000E144000061450000E1C4460700207E
:1045600024040020D807002000002042400700203B
:104570000080544500A00C4500B5F0EE402AB0EE96
:10458000603A416900EE101AB8EEC00AB4EEE20AD1
:10459000F1EE10FA06D2416900EE101AB8EEC00A28
:1045A000F0EE402A016900EE101AB8EEC00AB4EE2F
:1045B000E20AF1EE10FA06DD016900EE101AB8EE1B
:1045C000C00AF0EE402A816A416232EEC30A10EE60
:1045D000101A816272EEC30AC16800EE101AF4EE7E
:1045E000C00AF1EE10FA02DDC168816213E072EEDA
:1045F000C30AC16800EE101AB1EE400AF4EEC00A18
:10460000F1EE10FA07D2C16800EE101AB1EE400ABE
:1046100010EE101A816232EEC30AB5EEC00AF1EE56
:1046200010FA02DD32EEC30A03E032EEC30AB1EE45
:10463000400A816B00EE901AF8EEE00AB4EEE00A50
:10464000F1EE10FA04D89FED5B0A10EE101A8162A9
:10465000816A00EE101AC16A00EE901A9FED561A98
:1046600001EE200A10EE101AC162816A00EE101AE3
:10467000416A00EE901A70EE600A816800EE101A2E
:1046800020EE800A10EE101A0163C16A00EE101AC3
:10469000016A00EE901AB4EEE00AF1EE10FA01DDC4
:1046A000016AC162C16A00EE101A016A00EE901A36
:1046B000F1EE600AB4EEE00AF1EE10FA07D2016AF8
:1046C00000EE101AB1EE400A10EE101AC162816AB3
:1046D00000EE101A016800EE901A20EE200ABDEEDE
:1046E000C00A10EE101A09B28187016B00EE101A91
:1046F000BDEEC00A10EE101A09B2C187C16A00EE01
:10470000101A416800EE901A20EE200ABDEEC00A91
:1047100010EE101A09B2A0F84010816A00EE101ACB
:1047200000F04CF8816A00EE901A016801EE101A50
:1047300060EE810A20EE201AC16A00EE101A41686C
:1047400000EE901A00EE201A016B00EE101A31EE06
:10475000000A10EE101A4163416B00EE101AC16995
:1047600000EE901AF8EEE00AB4EEE00AF1EE10FA6C
:1047700007DDC16900EE101AB8EEC00A10EE101A7B
:104780004163416B00EE101A816900EE901AF8EE59
:10479000E00AB4EEE00AF1EE10FA07D2816900EE09
:1047A000101AB8EEC00A10EE101A4163416B00EE09
:1047B000101A00BD0000000077BE7F3FF0EE400AF7
:1047C000B7EE001AB0EE410AF5EEC00AF1EE10FAAB
:1047D00002DDB0EE601A01E0B1EE601ADFED1A1AE8
:1047E000B4EEE11AF1EE10FA2DD2F5EEC00AF1EEB8
:1047F00010FA02DDB0EE601A01E0B1EE601A9FED32
:10480000122AC1EE021A9FED111A31EE811AB0EE92
:10481000410AB7EE001AB4EEC10AF1EE10FA02DD59
:10482000B7EE001A01E0B0EE401AB0EE410AB5EE64
:10483000C00AF1EE10FA02D29FED051A01E0B0EEC7
:10484000401AB0EE410A70470000C843CDCCCC3EC0
:1048500000000000B0EE401A416900EE101AB8EEF8
:10486000C00AB4EEC10AF1EE10FA06D2416900EEB8
:10487000101AB8EEC00AB0EE401A016900EE101A24
:10488000B8EEC00AB4EEC10AF1EE10FA06DD016915
:1048900000EE101AB8EEC00AB0EE401A816A41620A
:1048A00031EE600A10EE101A816271EE601AC16872
:1048B00000EE101AF4EEC01AF1EE10FA02DDC16833
:1048C000816213E071EE601AC16800EE101AB1EE59
:1048D000400AF4EEC01AF1EE10FA07D2C16800EEF9
:1048E000101AB1EE400A10EE101A816231EE600A21
:1048F000B5EEC00AF1EE10FA02DD31EE600A03E017
:1049000031EE600AB1EE400A816B01EE901AF8EECA
:10491000E11AB4EEE10AF1EE10FA04D89FED570A5D
:1049200010EE101A8162816A00EE101AC16A01EE5F
:10493000901A9FED532A02EE210A10EE101AC1625E
:10494000816A00EE101A416A01EE901A70EE611A47
:10495000816800EE101A21EE800A10EE101A016331
:10496000C16A00EE101A016A01EE901AB4EEE10A73
:10497000F1EE10FA01DD016AC162C16A00EE101A9F
:10498000016A01EE901AF1EE611AB4EEE10AF1EE5D
:1049900010FA07D2016A00EE101AB1EE400A10EECA
:1049A000101AC162816A00EE101A016801EE901AB5
:1049B00020EE210ABDEEC00A10EE101A09B281875E
:1049C000016B00EE101ABDEEC00A10EE101A09B20B
:1049D000C187C16A00EE101A416801EE901A20EEFC
:1049E000210ABDEEC00A10EE101A09B2A0F840105C
:1049F000816A00EE101A016801EE901A20EE212A59
:104A0000C16A01EE901A416800EE101A01EE802A88
:104A1000016B00EE101A32EE000A10EE101A41631C
:104A2000416B00EE101AC16901EE901AF8EEE11A1E
:104A3000B4EEE10AF1EE10FA07DDC16900EE101ADA
:104A4000B8EEC00A10EE101A4163416B00EE101A66
:104A5000816901EE901AF8EEE11AB4EEE10AF1EE86
:104A600010FA07D2816900EE101AB8EEC00A10EEF3
:104A7000101A4163416B00EE101A704700000000ED
:104A800077BE7F3F00B58BB00121022000F0AEFA67
:104A90000121084600F0AAFA0121022000F0B6FA2E
:104AA0000121082000F0B2FA0320099002208DF8BD
:104AB000280003208DF8290009A96A48FDF726FE81
:104AC000CF20099002208DF8280003208DF82900BE
:104AD00009A96548FDF71AFE022200216148FDF789
:104AE0005DFE022201215F48FDF758FE02220621E9
:104AF0005D48FDF753FE022207215B48FDF74EFE9D
:104B0000022200215848FDF749FE022201215648A1
:104B1000FDF744FE022211465348FDF73FFE0222F4
:104B200003215148FDF73AFE5320ADF8180000204C
:104B3000ADF81A0044F6206007900020ADF8200080
:104B400006A94A4802F024F85320ADF818000020C6
:104B5000ADF81A0044F6206007900020ADF8200060
:104B600006A9434802F014F87020ADF804000120B3
:104B7000ADF806000020ADF808004FF47A700390FD
:104B80000220ADF810000020ADF81200ADF81400BE
:104B90004FF48070ADF8160001A9344801F0ACFE66
:104BA00001A9324801F0F0FE01A9304801F04CFFA4
:104BB00001A92E4801F0A2FF4FF47A70039001A9D9
:104BC0002B4801F099FE01A9294801F0DDFE01A959
:104BD000274801F039FF01A9254801F08FFF08217E
:104BE000224801F0C7FE0821204801F01FFF0821DC
:104BF0001E4801F079FF08211C4801F0BBFF082185
:104C00001B4801F0B7FE0821194801F00FFF0821E9
:104C1000174801F069FF0821154801F0ABFF012199
:104C2000124801F031FE0121114801F02DFE012151
:104C30000E4801F03BFE01210D4801F037FE4FF414
:104C4000FA700A493431086040F6C410091D086042
:104C5000C00007493C3108600020091F08600BB004
:104C600000BD0000000402400000024000040040BB
:104C7000000C004010B504466148007807287DD23A
:104C8000DFE800F0040A333D4D5363005A2C02D193
:104C900001205B490870B0E05A48006880F88840FD
:104CA0005848006890F88800A52804D0A62806D0A7
:104CB000A72818D10FE002205149087013E052488C
:104CC000006820B14F4800684F49096888470020B4
:104CD0004B49087007E000204A490968086006202F
:104CE0004749087000BF00BF87E046480068A0F849
:104CF0008440464884700320414908707DE0414863
:104D00000068B0F8840040EA04203E490968A1F830
:104D100084003E48C4700420394908706DE03C4866
:104D2000048005203649087067E03948008840EA69
:104D30000420374908800020324909680860354955
:104D4000088006202E49087057E02E480068016848
:104D50002C4800680068401C2A4A126810602948E4
:104D60000068001D44542748006890F88800A72870
:104D700013D1244800680068082800E039E00CD30B
:104D8000082020490968A1F884001E4800681E49CF
:104D90000968884700201A4908701A4800680068A6
:104DA00018490968B1F88410884221D31548006871
:104DB00090F88800A5281BD104221449154803F057
:104DC000DFFE1048006802680E480168091D11489E
:104DD00003F0D6FE0F4800880D490988884204D1A7
:104DE0000848006808490968884700200449087095
:104DF00003E000200249087000BF00BF002010BD82
:104E00003008002028080020240800203108002055
:104E10002C0800202E08002070B504460D460448DA
:104E200005608C212046FBF785FA0248046070BDBE
:104E30002408002028080020704701460020704701
:104E400070B52DED088B06460C461546287BE97A91
:104E500040EA012000B22082204600F035F8B4F983
:104E6000100004F0CAFA41EC1B0B9FED140B53EC3D
:104E7000102B04F03BF941EC190BB4F9160000EECD
:104E8000100AB8EEC00ADFED0F0A20EE200A10EE7D
:104E9000101A084604F0D0FC41EC1A0B53EC192B05
:104EA00004F07CF841EC180B04F078FAB4F9161011
:104EB00000EBC1003060BDEC088B70BD000000004D
:104EC00000408F405C8F423E818A028A891A09B273
:104ED0004182B0F9121041F25452914204DDC18A6C
:104EE000491C09B2C18208E0B0F91210044A91428B
:104EF00003DAC18A491E09B2C182018A81827047E0
:104F0000ACEAFFFF0B684A69D21A354B1A601A46A1
:104F10001268002A02DD1A46126802E0304A12685E
:104F20005242062A0FDDB1F91020002A02DDB1F944
:104F3000102002E0B1F9102052420A2A03DA8269F5
:104F4000521C826101E0002383618269642A05D9D1
:104F5000027D1AB901220275224B1A70027D012AC4
:104F60003CD1204A1278012A04D0022A11D0032A07
:104F700033D129E00A68503A1B4B1A601A4692ED69
:104F8000000AB8EE400A80ED020A0222154B1A70A0
:104F900023E0154A92ED000AB8EE400A80ED020ABD
:104FA000114B0A681B68D21A04D00F4B0A681B68A1
:104FB000D21A03E00C4B0A681B689A1A282A02D2FC
:104FC0000322084B1A7008E000220275054B1A7084
:104FD000428802800023836100BF00BF7047000049
:104FE000F4050020F8050020E005002029B1064A5C
:104FF00012680243044B1A6004E0034A12688243B9
:10500000014B1A60704700003038024029B1064A4F
:1050100012680243044B1A6004E0034A1268824398
:10502000014B1A60704700004038024029B1064A1F
:1050300012680243044B1A6004E0034A1268824378
:10504000014B1A60704700002038024029B1064A1F
:1050500012680243044B1A6004E0034A1268824358
:10506000014B1A60704700004438024029B1064ADB
:1050700012680243044B1A6004E0034A1268824338
:10508000014B1A607047000024380240F0B500213F
:1050900000220024022500260223324F3F6807F039
:1050A0000C0121B1042905D0082937D105E02E4F84
:1050B000076036E02D4F076033E02A4F3F1F3F68FF
:1050C000C7F38056274F3F1F3F6807F03F036EB17D
:1050D000264FB7FBF3F7DFF88CC0ACF1040CDCF81B
:1050E00000C0CCF3881C07FB0CF40CE01E4FB7FB90
:1050F000F3F7DFF870C0ACF1040CDCF800C0CCF3BF
:10510000881C07FB0CF4174F3F1F3F68C7F301478C
:105110007F1C7D00B4FBF5F7076002E0124F0760CB
:1051200000BF00BF0F4F3F6807F0F0010909104FA3
:105130007A5C0768D74047600A4F3F6807F4E05140
:10514000890A0B4F7A5C4768D7408760054F3F68F4
:1051500007F46041490B064F7A5C4768D740C76047
:10516000F0BD0000083802400024F40000127A006C
:10517000C80700201E4800881D49498808441C496A
:10518000898808441A49C9880844A0F58050002835
:105190000DDD174800881649498808441449898854
:1051A00008441349C9880844A0F580500CE0104811
:1051B00000880F49498808440D49898808440C49EA
:1051C000C9880844C0F58050082810DD00BFBFF32F
:1051D0004F8F0848006800F4E06007490843001D4D
:1051E00004490860BFF34F8F00BF00BFFEE7704760
:1051F000D80700200CED00E00000FA0510B5FDF71F
:105200000BFB042803D0FDF707FB05283DD100BFA9
:1052100054484088A0F580605349B1F90010401A05
:1052200001280CDD4F484088A0F580600A2806DD83
:105230004E480088401C00B24C4908801FE0494895
:105240004088A0F580604849B1F90010401AB0F1DB
:10525000FF3F0DDA43484088A0F5806010F10A0F47
:1052600006DA42480088401E00B24049088006E045
:105270003C484088A0F5806000B23C4908803B482B
:10528000B0F900003849088010E0FDF7C5FA092898
:105290000CD100BF33484088C0F5806000B233496C
:1052A00008800846B0F900002F49088000BFFDF7CC
:1052B000B3FA092837D02B480088A0F580602C4924
:1052C000B1F90010401A01280CDD26480088A0F52D
:1052D00080600A2806DD27480088401C00B2254966
:1052E000088027E01F480088A0F580602049B1F9B8
:1052F0000010401AB0F1FF3F0DDA1A480088A0F5FF
:10530000806010F10A0F06DA1A480088401E00B2C9
:10531000184908800EE013480088A0F5806000B2AC
:105320001449088006E00F480088C0F5806000B28C
:10533000104908800F48B0F900000D490880FDF7BA
:105340006BFA09280DD107488088A0F580604FF4DA
:10535000967148434FF4257190FBF1F000B2064975
:10536000088010BDD8070020EE010020CA010020EF
:10537000F0010020CC010020CE0100201749097A5D
:10538000012913D11649097803290FD11349497A04
:1053900002290BD113490988C91C09B2114A11808D
:1053A00011490988C91C09B20F4A11800B49097AB1
:1053B00001290DD10A490978032909D10749497AF8
:1053C000012905D1017809B9012100E0002101700E
:1053D0000249497A024A117070470000D80700203C
:1053E000F0050020080B0020440B002070B52DEDC7
:1053F000068B04460D46324800680F21B0FBF1F2DF
:1054000001FB1200B0BB2F498988A1F5806003F031
:10541000F4FF41EC1A0B9FED2C0B53EC102B04F016
:1054200017F841EC190B9FED2A0B53EC102B03F0EE
:105430005DFE41EC180B03F0B1FF2749096A081A19
:10544000254908620846006AB0F5E16F04DD0846A8
:10545000006AA0F5616001E01F48006A1E49086209
:105460000846006A10F5E16F05DA0846006A00F5A3
:10547000616002E003E01848006A174908621149B8
:10548000C988C1F5806003F0B8FF41EC1A0B9FEDAD
:10549000130B53EC102B03F0DBFF41EC190B9FEDCA
:1054A0000C0B53EC102B03F021FE41EC180B03F016
:1054B00075FF00F654300849C860BDEC068B70BD1E
:1054C00024040020D8070020000000000000344021
:1054D0000000000000A08440000600200000000042
:1054E00000C07C4000B502462B480088401C2A4979
:1054F000088002B900BD1078517840EA0120C0F35D
:105500000A00264908805078C010917840EA41107E
:10551000C0F30A002149488090788011D17840EA90
:105520008100117940EA8120C0F30A001B4988807C
:1055300010794010517940EAC110C0F30A001749B0
:10554000C88050790011800808725079C0F30110AA
:1055500048729079D17940EA012000B20F49488120
:10556000107A517A40EA012001B20C488181907A88
:10557000D17A40EA012001B20848C181117B01744F
:10558000517B4174907B05498874D17B0348C17479
:10559000FDF73AFB00BFADE7EC070020D80700207D
:1055A00010B52DED0A8BFDF737F9072806D0FDF76A
:1055B00033F9082802D00020FD490870FDF72CF9C6
:1055C000042817D1002013E09FEDFA0A10EE101AFC
:1055D00000EB4012F84B03EB420251609FEDF70ADB
:1055E00010EE101A00EB401203EB42021162401C55
:1055F0000428E9DBFDF710F990B3FDF70DF9022857
:105600002ED0EF48C07C10B9ED48807C18B1012045
:10561000EC49087024E0EA480088A0F58060002882
:1056200004DDE7480088A0F5806003E0E4480088D6
:10563000C0F58060032810DCE1484088A0F5806058
:10564000002804DDDE484088A0F5806003E0DC48E7
:105650004088C0F58060032802DD0020D949087029
:10566000D848007810B9FFF7C9FD07E0D5480078A1
:10567000012803D1D449D548FEF718FDFDF7CCF831
:10568000052845D141F25630D149097811B1012997
:1056900036D11AE0A0F2EE21CE4A1160CE49496916
:1056A0001268511A002905DDCB494969C94A1268B7
:1056B000511A04E0C8494969C64A1268891A16296C
:1056C00002DA0121C24A11701AE000F2EE21C14A49
:1056D0001160C14949691268511A002905DDBE49A6
:1056E0004969BC4A1268511A04E0BB494969B94A80
:1056F0001268891A162902DA0021B54A117000BF12
:1057000000BF9FEDB60A10EE101AB54A116009E00D
:1057100041F25630AF4908609FEDB20A10EE100A10
:10572000AF490860AC4890ED080AB8EEC00AAE4830
:10573000D0ED050AB2EE041A00EEC10ADFEDAB0AA5
:10574000B4EEE00AF1EE10FA24DDA34890ED080A69
:10575000F8EEC00AA44890ED051A9FEDA50AF2EEF6
:10576000041A01EE210A30EEC00ADFEDA20A20EE93
:10577000200A9FED9F1AC0EE010A974890ED050A96
:10578000B8EEC00A30EE800ABDEEC00A9A4880ED3D
:10579000000A57E0904890ED080AB8EEC00A924817
:1057A000D0ED050AB2EE041A00EEC10ADFED930A4D
:1057B000B4EEE00AF1EE10FA24D2874890ED080A20
:1057C000F8EEC00A884890ED051A9FED890AF2EEBE
:1057D000041A11EE210A30EEC00ADFED860A20EE2F
:1057E000200A9FED831AC0EE010A7B4890ED050A5E
:1057F000B8EEC00A30EE800ABDEEC00A7E4880EDE9
:10580000000A1FE0744890ED080AB8EEC00A764816
:10581000D0ED050AB2EE041A00EEC10ADFED750AFA
:1058200020EE200A9FED721AC0EE010A6A4890ED40
:10583000050AB8EEC00A30EE800ABDEEC00A6E4816
:1058400080ED000AFCF7E8FF042803D0FCF7E4FF32
:10585000052803D101206A49087019E0FCF7DCFF34
:10586000072803D0FCF7D8FF082806D16548007840
:1058700018B90120624908700AE0FCF7CDFF092839
:1058800006D161480078012802D100205C490870E7
:105890005B48007801287CD149488088A0F5806069
:1058A000002804DD46488088A0F5806003E0444875
:1058B0008088C0F58060282813DA47484069454948
:1058C0000968081A002805DD43484069414909680C
:1058D000081A04E0404840693E490968401AB42863
:1058E00003DBFCF799FF092861D13B48406939493E
:1058F0000968081AB0F5805F27DD3748406900F570
:10590000005000EE100AB8EEC00AF0EE400A34482B
:10591000304991ED000AB8EEC00AFEF72DFEBDEE4B
:10592000C00A10EE100A00B2384908802A484069BF
:1059300000F5005027490968081A00EE100AB8EE71
:10594000C00A334880ED000A05E123484069214937
:105950000968081A10F5805F5CDA1F484069A0F5F5
:10596000005000EE100AB8EEC00AF0EE400A1C48E3
:10597000184991ED000AB8EEC00AFEF7FDFDBDEE34
:10598000C00A10EE100A00B2204908801A480068C8
:1059900000E0E7E0A0F500500E490968081A00EEA3
:1059A000100AB8EEC00A1A4880ED000AD3E054E0AD
:1059B000F6070020295C0F3D6C00002049828B47D0
:1059C000D8070020EC010020CC010020CA010020F3
:1059D000ED010020FC0500200006002090A7043FF8
:1059E0007401002085EB113FC40D00200000E1444C
:1059F0000000614500000046DC0100200000E1C419
:105A0000D00100204A00002038070020CE010020ED
:105A1000D4010020FE4890ED050AB8EEC00AF0EE71
:105A2000400AFC48FC4991ED000AB8EEC00AFEF7B6
:105A3000A3FDBDEEC00A10EE100A00B2F7490880BF
:105A4000F5480068F6490968401A00EE100AB8EEF9
:105A5000C00AF44880ED000A7DE0EF480068F04994
:105A60000968401AB0F5805F25DDEA48EC4909680D
:105A700001F5005100EE101AF8EEC00AE64991ED6A
:105A8000000AB8EEC00AFEF777FDBDEEC00A10EEC0
:105A9000100A00B2E1490880DF480168E048006868
:105AA00000F50050081A00EE100AB8EEC00ADD48F2
:105AB00080ED000A4FE0D8480068D9490968401ACB
:105AC00010F5805F27DAD6480068A0F5005000EE98
:105AD000100AB8EEC00AF0EE400ACE48CE4991ED69
