:020000040800F2
:10000000D813002069020008753C00088129000807
:100010007D380008C10D00082360000800000000C2
:100020000000000000000000000000000D4F00086C
:100030000D2400080000000041440008C5530008DA
:10004000830200088302000883020008830200087C
:10005000830200088302000883020008830200086C
:100060008302000883020008B12700088302000809
:1000700083020008ED1E000883020008012000082A
:10008000830200088302000883020008830200083C
:100090006910000883020008830200088302000838
:1000A000830200088302000883020008830200081C
:1000B000830200088302000883020008830200080C
:1000C00083020008830200088302000883020008FC
:1000D000830200088302000883020008E15B000835
:1000E00083020008830200088302000883020008DC
:1000F00083020008830200088302000883020008CC
:1001000083020008830200088302000883020008BB
:100110008302000883020008795400088302000863
:1001200083020008830200080520000883020008FB
:10013000830200088302000883020008830200088B
:1001400019130008830200088302000883020008D4
:100150008302000883020008830200088D5C000807
:10016000830200088302000883020008830200085B
:10017000830200088302000883020008830200084B
:10018000830200088302000800F002F800F05CF827
:100190000AA090E8000C82448344AAF10107DA45E2
:1001A00001D100F051F8AFF2090EBAE80F0013F0D8
:1001B000010F18BFFB1A43F001031847EC80000041
:1001C0000C8100000A444FF0000C10F8013B13F0C2
:1001D000070408BF10F8014B1D1108BF10F8015BA0
:1001E000641E05D010F8016B641E01F8016BF9D193
:1001F00013F0080F1EBF10F8014BAD1C0C1B09D1EA
:100200006D1E58BF01F801CBFAD505E014F8016B5B
:1002100001F8016B6D1EF9D59142D6D370470000ED
:100220000023002400250026103A28BF78C1FBD8FF
:10023000520728BF30C148BF0B6070471FB507F099
:10024000BCFD1FBD10B510BD00F0E4F81146FFF76E
:10025000F5FF07F011F800F002F903B4FFF7F2FF21
:1002600003BC06F081FE00000948804709480047AA
:10027000FEE7FEE7FEE7FEE7FEE7FEE7FEE7FEE756
:10028000FEE7FEE704480549054A064B70470000B3
:10029000C953000889010008D80D0020D813002098
:1002A000D80F0020D80F00207047032A40F230807A
:1002B00010F0030C00F0158011F8013BBCF1020FA7
:1002C000624498BF11F801CB00F8013B38BF11F828
:1002D000013BA2F1040298BF00F801CB38BF00F83F
:1002E000013B11F0030300F05B80083AC0F0088086
:1002F00051F8043B083A51F804CBA0E80810F5E7A0
:10030000121D5CBF51F8043B40F8043BAFF3008082
:10031000D20724BF11F8013B11F801CB48BF11F8F7
:10032000012B24BF00F8013B00F801CB48BF00F8C7
:10033000012B70474FF0000200B5134694469646D5
:10034000203922BFA0E80C50A0E80C50B1F12001E8
:10035000BFF4F7AF090728BFA0E80C5048BF0CC096
:100360005DF804EB890028BF40F8042B08BF7047F4
:1003700048BF20F8022B11F0804F18BF00F8012B66
:100380007047704770477047704710B500F03AF8F3
:10039000006810BD10B5044600F034F8046010BDCC
:1003A00010B5203AC0F00B80B1E81850203AA0E810
:1003B0001850B1E81850A0E81850BFF4F5AF5FEA44
:1003C000027C24BFB1E81850A0E8185044BF18C9F7
:1003D00018C0BDE810405FEA827C24BF51F8043B9E
:1003E00040F8043B08BF7047D20728BF31F8023BF2
:1003F00048BF11F8012B28BF20F8023B48BF00F886
:10040000012B704700487047780D00200048704766
:10041000780D00207546FFF7F9FFAE4605006946E6
:10042000534620F00700854618B020B5FFF72AFF95
:10043000BDE820404FF000064FF000074FF00008E5
:100440004FF0000B21F00701AC46ACE8C009ACE866
:10045000C009ACE8C009ACE8C0098D467047044645
:10046000AFF300802046FFF7F8FE000000B5002043
:1004700004F08AFE012004F0BBFD002004F068FDBA
:1004800000203D490880012004F0B2FD012870D110
:10049000002004F05DFD01286BD16FF06D0037493D
:1004A00008800020344908803548007850B9344825
:1004B000407838B96FF009003049088000202E4993
:1004C000088022E02E48007801280ED12C48407880
:1004D00058B9012004F058FE6FF009002749088040
:1004E0006FF01D00244908800FE02548007860B9AE
:1004F00023484078012808D104F046FE6FF0090037
:100500001E4908801E201C4908801D4800790128CA
:100510000CD11B484079012808D16FF031001749F0
:100520000880002014490880012000BD144800798B
:1005300070B91348407901280AD104F025FE6FF004
:1005400031000E4908806FF01D000B49088010E053
:100550000B48007901280CD10948407948B901209D
:1005600004F012FE6FF03100044908801E20024999
:1005700008800020D9E70000CA010020C601002041
:100580001C07002010B5002013E09FED370A10EE85
:10059000101A00EB4012354B03EB420251609FED05
:1005A000340A10EE101A00EB401203EB4202116203
:1005B000401C0428E9DB2F480078062851D2DFE8E8
:1005C00000F0030A121A222A00F0DEF8012801D1F5
:1005D0002849087045E0FFF749FF012802D10220B1
:1005E000244908703DE000F04BF8012802D10320B7
:1005F0002049087035E000F069F9012802D1042093
:100600001C4908702DE0FFF731FF012802D10520B9
:100610001849087025E000F033F8012820D10520A2
:1006200004F0ACFD00201349087000BF13E09FEDFB
:10063000120A10EE101A00EB40120C4B03EB4202B0
:1006400051609FED0E0A10EE101A00EB401203EB02
:1006500042021162401C0428E9DB012004F094FDF1
:1006600000BF00BF10BD00003E0AD73D680000205B
:100670006E43D1474C000020295C0F3D49828B47D7
:1006800000B53B48006818B93A4800683849086026
:100690003848006836490968401AB0F5E17F64D9E6
:1006A000002004F071FD002004F0A2FC002004F002
:1006B0004FFC00203049088004F09AFC012828D122
:1006C000002004F045FC012823D12C48006850B9D3
:1006D00028480068294908606FF09F002849088071
:1006E0000020254908802348006824490968401AE9
:1006F00040F28A21884238D96FF0310020490880C1
:1007000000201D4908801D49086019490860012022
:1007100000BD1C48007850B91A48407838B96FF0CD
:100720003100174908800020134908801DE0154852
:10073000007801280BD11348407840B96FF03100A0
:100740000F4908806FF01D000B4908800DE00D482F
:10075000007850B90B484078012806D16FF031007D
:10076000074908801E20044908800020D0E70000C7
:100770006000002004040020CA0100205C0000206A
:10078000C60100201C07002000B5002004F0FCFC7E
:10079000012004F02DFC012004F0DAFB0020484980
:1007A0000880012004F024FC012803D104F0D0FBD0
:1007B000012807D06FF045004249088000204049D9
:1007C000088006E06FF06D003E49088000203C493B
:1007D0000880012004F00CFC01280DD13A488078F3
:1007E00050B93948C07838B96FF0090035490880E8
:1007F0000020334908802CE0012004F0F9FB012897
:1008000012D13148807801280ED12F48C07858B9CC
:10081000012004F0B9FC6FF009002A4908806FF04C
:100820001D002749088014E0012004F0E1FB0128A5
:100830000FD12548807860B92348C078012808D1B5
:1008400004F0A2FC6FF009001E4908801E201C491C
:1008500008801D48807901280CD11B48C0790128E7
:1008600008D16FF031001749088000201449088032
:10087000012000BD1448807970B91348C07901285F
:100880000AD104F081FC6FF031000E4908806FF04E
:100890001D000B49088010E00B48807901280CD11D
:1008A0000948C07948B9012004F06EFC6FF03100AE
:1008B000044908801E20024908800020D9E7000072
:1008C000CA010020C60100201C07002000B500203E
:1008D00004F05AFC012004F08BFB012004F038FBEB
:1008E000002048490880012004F082FB012803D140
:1008F00004F02EFB012807D06FF03B00424908802E
:1009000000204049088006E06FF06D003E490880F5
:1009100000203C490880012004F06AFB01280DD129
:100920003A48807850B93948C07838B96FF0090032
:10093000354908800020334908802CE0012004F06C
:1009400057FB012812D13148807801280ED12F4859
:10095000C07858B9012004F017FC6FF009002A494B
:1009600008806FF01D002749088014E0012004F082
:100970003FFB01280FD12548807860B92348C07813
:10098000012808D104F000FC6FF009001E4908801E
:100990001E201C4908801D48807901280CD11B4865
:1009A000C079012808D16FF0310017490880002074
:1009B00014490880012000BD1448807970B913489B
:1009C000C07901280AD104F0DFFB6FF031000E4935
:1009D00008806FF01D000B49088010E00B488079FB
:1009E00001280CD10948C07948B9012004F0CCFB9A
:1009F0006FF03100044908801E2002490880002061
:100A0000D9E70000CA010020C60100201C07002011
:100A100010B52DED028BB0EE408AC94890ED000A6A
:100A2000F7EE000A30EEC00AC648D0ED000A20EE0C
:100A3000200AC348D0ED000A08EE200AC14880ED24
:100A4000000A01F06BFF052876D1BF48007820B17D
:100A5000012839D0022836D1D0E01E20BB490863D6
:100A600048638863C863B74890ED000AB5EEC00AD2
:100A7000F1EE10FA02DD90ED000A04E0B14890EDCD
:100A8000000AB1EE400AF2EE000AB4EEE00AF1EE1E
:100A900010FA0BDDAE4800884FF6FE71884205DA89
:100AA000AB480088401CAA49088002E00020A84901
:100AB0000880A7480088642805DD0120A249087045
:100AC0000020A3490880DEE09E4890ED000AB5EEC4
:100AD000C00AF1EE10FA30DD9C48006B1E2814DCD1
:100AE0009A4890ED0A0AB8EEC00A9648D0ED000A7E
:100AF000B2EE081A00EE810ABDEEC00A934880EDFE
:100B00000E0A806B9149C86346E0904890ED080A50
:100B1000B8EEC00A8B48D0ED000AF1EE600AB2EEE2
:100B2000081A00EE810ABDEEC00A884880ED0C0A62
:100B3000006B864948632FE0A6E08448806B1E283E
:100B400016DC824890ED080AB8EEC00A7D48D0ED68
:100B5000000AF1EE600AB2EE081A00EE810ABDEE5C
:100B6000C00A7A4880ED0C0A006B7849486313E0AC
:100B7000764890ED0A0AB8EEC00A7248D0ED000A35
:100B8000B2EE081A00EE810ABDEEC00A6F4880ED91
:100B90000E0A806B6D49C8636A4890ED000AB5EE95
:100BA000C00AF1EE10FA02DD90ED000A04E065489B
:100BB00090ED000AB1EE400ADFED660AB4EEE00AFD
:100BC000F1EE10FA0BD2644800884FF6FE718842AD
:100BD00005DA61480088401C5F49088002E0002077
:100BE0005D4908805C480088B0F5967F05DD0220ED
:100BF0005549087000205849088044E0514890ED5C
:100C0000000AB5EEC00AF1EE10FA02DD90ED000A1E
:100C100004E04C4890ED000AB1EE400AF1EE000A03
:100C2000B4EEE00AF1EE10FA03DD01204649087047
:100C30001FE04648006B4549896B401A002805DDD6
:100C40004248006B4149896B401A04E03F48806B81
:100C50003E49096B401AB0F5967F0ADA3F48008892
:100C60004FF6FE71884204DA3C480088401C3B493C
:100C700008803A480088962804DD00203249087030
:100C80003649088000BF00BF3048006B1E2801DADB
:100C90001E2001E02D48006B2C4908630846006BBC
:100CA00040F29341884201DD084601E02748006B8D
:100CB000264908630846406B1E2801DA1E2001E021
:100CC0002248406B214948630846406B40F29341FB
:100CD000884201DD084601E01C48406B1B4948631F
:100CE0000846806B1E2801DA1E2001E01748806B41
:100CF000164988630846806B40F29341884201DDC3
:100D0000084601E01148806B104988630846C06BB3
:100D10001E2801DA1E2001E00C48C06B0B49C86395
:100D20000846C06B40F29341884201DD084601E06D
:100D30000648C06B0549C863BDEC028B10BD0000BE
:100D4000A8060020A406002094060020A009002088
:100D5000AC060020CDCC0C40AE060020B006002032
:100D600010B54FF4A06002F0C3FF01F0EFFF03F0F5
:100D7000B9F902F0BBF8114804F0FCFD4FF4E13082
:100D800004F08EFE4FF4E13004F0A2FF06F0C2FA48
:100D900006F0B8F906F040F94FF47A7006F02EF933
:100DA00004F046FB00F0E4F800F03AFA4FF4C860B3
:100DB00006F024F904F074FB10BD0000A0860100C9
:100DC00000BFFEE7C178012903D10188491C0180D9
:100DD00001E000210180018801290DDD01886429DD
:100DE00007DAC178012909D1817839B90121017166
:100DF00004E00221017101E0002101718178C170DC
:100E00007047000010B50446224600213A4800F021
:100E1000D8FC2068A0F20120062869D2DFE800F0A3
:100E20000311223344562146344804F0C3FA2246C3
:100E300033493248203003F007FB324802F045FCCA
:100E400057E021462D48001D04F0B4FA22462C49F3
:100E500018312A48243003F0F7FA2A48801C02F09F
:100E600034FC46E021462548083004F0A3FA224627
:100E7000234930312148283003F0E6FA2148001D8B
:100E800002F023FC35E021461C480C3004F092FAB5
:100E900022461B49483119482C3003F0D5FA19482D
:100EA000801D02F012FC24E0207BE17A40EA012060
:100EB00015494861A17B607B41EA002000B21249DC
:100EC00088611048001F02F000FC12E0207BE17AEC
:100ED00040EA01200C490860A17B607B41EA0020C8
:100EE00000B2094948600748801E02F0EEFB00E0AE
:100EF00000BF00BF10BD000000640040A00900203A
:100F0000240B00208004002058050020F0B585B097
:100F100004460D4616461F464FF400700090002010
:100F20008DF808008DF8090008208DF80A00200AC5
:100F30008DF80B00E1B28DF80C10290A8DF80D1018
:100F4000E9B28DF80E10310A8DF80F10F1B28DF85C
:100F50001010390A8DF81110F9B28DF81210694687
:100F6000024800F0B6FC05B0F0BD0000006400408F
:100F700000B58BB00121084603F03CFB0121480677
:100F800003F048FB09220B21354801F089FC0922B6
:100F90000C21334801F084FC4FF4C0500290022031
:100FA0008DF80C0002A92E4801F032FC14208DF8B7
:100FB000040001208DF8050000208DF806000120B6
:100FC0008DF8070001A802F057FE264800F036FA17
:100FD00008A800F06EFC00208DF826008DF8270090
:100FE0008DF828008DF829008DF82A0001208DF851
:100FF0002B0000208DF822008DF8230008208DF8AA
:10100000240003208DF82500ADF8200008A915481C
:1010100000F04DFB01208DF81A0000208DF81B0018
:1010200001208DF81C000020ADF81000ADF8120072
:10103000ADF81400ADF81600ADF8180001208DF8D9
:101040001D0004A800F016FA01220221054800F054
:1010500025FB01221146034800F020FB0BB000BD28
:10106000000002400064004000B585B0022106483F
:1010700000F084FA30B10221034800F08BF9684691
:10108000FFF7C0FE05B000BD0064004030B585B07C
:1010900004460D4640F2FF10009000208DF8080035
:1010A0008DF8090008208DF80A00200A8DF80B0041
:1010B000E1B28DF80C10290A8DF80D10E9B28DF807
:1010C0000E1000218DF80F108DF810108DF81110F2
:1010D0008DF812106946024800F0FBFB05B030BDE8
:1010E00000640040F0B585B004460D4616461F4624
:1010F0004FF40070009000208DF808008DF8090072
:1011000008208DF80A00200A8DF80B00E1B28DF856
:101110000C10290A8DF80D10E9B28DF80E10310A65
:101120008DF80F10F1B28DF81010390A8DF81110EA
:10113000F9B28DF812106946024800F0CAFB05B0FA
:10114000F0BD00000068004010B5044622460021B2
:101150002D4800F036FB2068A0F2012005284FD270
:10116000DFE800F00311223344002146274804F051
:1011700021F9224626492548203003F065F9254803
:1011800002F0A3FA3DE021462048001D04F012F9C8
:1011900022461F4918311D48243003F055F91D48D7
:1011A000801C02F092FA2CE021461848083004F026
:1011B00001F92246164930311448283003F044F929
:1011C0001448001D02F081FA1BE021460F480C3044
:1011D00004F0F0F822460E4948310C482C3003F058
:1011E00033F90C48801D02F070FA0AE022460A49E1
:1011F0000A4803F0CFFF0748143002F066FA00E017
:1012000000BF00BF10BD0000006800405009002072
:10121000840B0020740400203C0A0020200A0020D7
:1012200000B58BB00121022003F0E4F9012188060A
:1012300003F0F0F909220C21354801F031FB0922B5
:101240000D21334801F02CFB4FF440500290022056
:101250008DF80C0002A92E4801F0DAFA40208DF832
:10126000040001208DF8050000208DF80600012003
:101270008DF8070001A802F0FFFC264800F0DEF818
:1012800008A800F016FB00208DF826008DF8270036
:101290008DF828008DF829008DF82A0001208DF89E
:1012A0002B0000208DF822008DF8230008208DF8F7
:1012B000240003208DF82500ADF8200008A915486A
:1012C00000F0F5F90E208DF81A0000208DF81B00B3
:1012D00001208DF81C000020ADF81000ADF81200C0
:1012E000ADF81400ADF81600ADF8180001208DF827
:1012F0001D0004A800F0BEF801220221054800F0FC
:10130000CDF901221146034800F0C8F90BB000BD29
:10131000000402400068004000B585B00221064884
:1013200000F02CF930B10221034800F033F8684690
:10133000FFF70AFF05B000BD0068004030B585B07A
:1013400004460D4640F2FF10009000208DF8080082
:101350008DF8090008208DF80A00200A8DF80B008E
:10136000E1B28DF80C10290A8DF80D10E9B28DF854
:101370000E1000218DF80F108DF810108DF811103F
:101380008DF812106946024800F0A3FA05B030BD8E
:1013900000680040B1F5007F3AD00FDC202928D04A
:1013A00006DC01291CD004291DD0082940D11DE0EC
:1013B000402921D0B1F5807F3AD126E0B1F5004F28
:1013C00031D006DCB1F5806F25D0B1F5006F2FD19B
:1013D00024E0B1F5803F12D0B1F5003F28D111E0F3
:1013E000154A826025E00822C26022E01022C26015
:1013F0001FE0082202611CE01022026119E00822AD
:10140000426016E01022426013E00422426010E0C5
:10141000042242600DE0042242600AE00022826160
:101420000422426005E0002282610422426000E062
:1014300000BF00BF704700000101010010B5044665
:101440000B48844209D10121480603F0F3F800213A
:101450004FF0007003F0EEF808E00121880603F079
:10146000E9F800214FF0806003F0E4F810BD0000BF
:101470000064004010B50021837A012202FA03F1D2
:101480003D4A126842F001023B4B1A603A4A1C3254
:1014900012688A43384B1C331A60027BCAB9364A39
:1014A0000C3212688A43344B0C331A604288C3886A
:1014B00042EA0343304A4032847A42F834300288A8
:1014C000838842EA03432C4A4032847A02EBC40206
:1014D0005360027B012A19D1274A0C3212680A4351
:1014E000254B0C331A604288038842EA0343224AA0
:1014F0004032847A42F83430C288838842EA034317
:101500001D4A4032847A02EBC4025360C27A3AB96F
:10151000194A121D12688A43174B1B1D1A6006E0F8
:10152000154A121D12680A43134B1B1D1A600289CB
:1015300032B9114A143212688A430F4B14331A60BD
:101540000289012A06D10C4A143212680A430A4B56
:1015500014331A60427B012A06D1074A1C321268F2
:101560000A43054B1C331A60034A126822F0010239
:10157000014B1A6010BD00000066004070B50446C3
:101580000D46002660692840002871D0B5F5807F9F
:101590005CD010DC082D35D006DC012D20D0022DCA
:1015A00024D0042D72D127E0102D31D0202D35D03C
:1015B000402D6BD138E0B5F5004F60D009DCB5F5B2
:1015C000007F49D0B5F5806F4CD0B5F5006F5DD187
:1015D0004FE0B5F5803F2DD0B5F5003F56D12FE057
:1015E000A0682D4900F00CFB064651E0E06803219D
:1015F00000F006FB06464BE0E068082100F000FB27
:10160000064645E0E068102100F0FAFA06463FE0A1
:101610002069032100F0F4FA064639E02069082128
:1016200000F0EEFA064633E02069102100F0E8FAF7
:1016300006462DE06068082100F0E2FA064627E041
:101640006068102100F0DCFA064621E0A069012163
:1016500000F0D6FA06461BE0A069022100F0D0FA9D
:10166000064615E0A069042100F0CAFA06460FE01C
:101670000FE0A069702100F0C3FA064608E0606838
:10168000042100F0BDFA064602E0FFE7002600BF95
:1016900000E00026304670BD010101001AB1436927
:1016A0000B43436102E043698B434361704730B5AC
:1016B000024600200023146824F002041460146819
:1016C00044F00104146000E05B1C546804F0010461
:1016D0001CB94FF6FF74A342F6D1546804F001041C
:1016E0000CB900206CE08C79012C04D1146844F012
:1016F0008004146003E0146824F080041460CC7942
:10170000012C04D1146844F04004146003E0146810
:1017100024F0400414600C7A012C04D1146844F0C5
:101720002004146003E0146824F0200414604C7A50
:10173000012C04D1146844F01004146003E0146810
:1017400024F0100414608C7A012C04D1146844F045
:101750000804146003E0146824F008041460CC7AD0
:10176000012C04D1146844F00404146003E01468EC
:1017700024F0040414608C78A407CD7844EA05644E
:101780000D7944EA05444D7944EA05540D886D1EEF
:101790002C43D461146824F001041460002300E099
:1017A0005B1C546804F001041CB14FF6FF74A342A3
:1017B000F6D1546804F001040CB1002000E00120CF
:1017C00030BD10B500F5D87303EB01131B6803F0AF
:1017D00004031372137A53B900F5D87303EB0113A2
:1017E0001B6840F2FF7404EA5353136009E000F5EC
:1017F000D87303EB01131B686FF0604404EAD30352
:10180000536000F5D87303EB01131B6803F0020368
:10181000537200F5D87303EB01135B6803F00F03F9
:10182000937200F5D87303EB01135B681B0AD37442
:1018300000F5D87303EB01139B68D37200F5D873DE
:1018400003EB01139B681C0A147300F5D87303EBB8
:1018500001139B681C0C547300F5D87303EB011340
:101860009B681B0E937300F5D87303EB0113DB68C1
:10187000D37300F5D87303EB0113DB681C0A1474EF
:1018800000F5D87303EB0113DB681C0C547400F5EE
:10189000D87303EB0113DB681B0E937421B9C36883
:1018A00043F02003C36003E0036943F020030361B6
:1018B00010BD00218171C171017241728172C172CA
:1018C0008170C170032101710221417101210180E8
:1018D000704710B502460020936803F08063B3F1AF
:1018E000806F00D110E0936803F00063B3F1006FE4
:1018F00001D1012008E0936803F08053B3F1805FC9
:1019000001D1022000E00420042874D002F5C07345
:1019100003EB00131B6803F0010402F5C07303EB33
:1019200000131C600B7A7BB94B7A0C8843EA445352
:1019300002F5C07404EB00142468234302F5C0745C
:1019400004EB0014236010E00B7A4C6843EAC403F4
:101950004C7A234302F5C07404EB0014246823433B
:1019600002F5C07404EB001423608B7A03F00F03BC
:101970008B7202F5C07303EB00135B6823F00F0456
:1019800002F5C07303EB00135C6002F5C07303EB58
:1019900000135B688C7A234302F5C07404EB0014D7
:1019A00063608B7B1C064B7B44EA03440B7B44EA5D
:1019B0000323CC7A234302F5C07404EB0014A36024
:1019C0008B7C1C064B7C44EA03440B7C44EA0323D7
:1019D000CC7B234302F5C07404EB0014E36002F5F2
:1019E000C07303EB00131B6843F0010402F5C073DE
:1019F00003EB00131C6010BDDFED0D0AB4EEE00A2E
:101A0000F1EE10FA04DDDFED0A0AC0ED000A0DE088
:101A1000DFED080AB4EEE00AF1EE10FA04D2DFEDD1
:101A2000050AC0ED000A01E080ED000A70470000E1
:101A30000020B2450080D4C43648006841F6FA114F
:101A4000081A01EE100AB8EEC11AB0EE410A314888
:101A50004069C0F5617001EE100AB8EEC11AF0EEEF
:101A6000410A9FED2D1A20EE011A9FED2C2AC1EE9E
:101A7000021A2B4890ED031AB1EE411A31EE611AA9
:101A8000284880ED001A264890ED041AF0EE001A5E
:101A900031EE211A234880ED011A9FED1F1A20EE26
:101AA000811ADFED1E1A81EE212A1D4890ED051ADC
:101AB00032EE011A1B4880ED021A90ED021ADFED9A
:101AC0001A1AB4EEE11AF1EE10FA06DD90ED021AE0
:101AD000DFED111A31EE611A02E0124890ED021AA0
:101AE000104880ED021A90ED021ADFED101AB4EEE4
:101AF000E11AF1EE10FA06D290ED021ADFED061AA5
:101B000031EE211A02E0074890ED021A054880EDF7
:101B1000021A7047580500200000B4430000004638
:101B2000B80C0020000A002000003443000034C339
:101B300002462C49D1ED000A70EE600A2A49C1ED37
:101B4000000A0020D1ED000A9FED281AF4EEC10A28
:101B5000F1EE10FA06DDD1ED000A9FED251A70EEC8
:101B6000C10A13E02049D1ED000A9FED221AF4EEDC
:101B7000C10AF1EE10FA06D2D1ED000A9FED1C1A4F
:101B800070EE810A02E01849D1ED000A1649C1ED54
:101B9000000A1949097831B1012910D1114981EDA3
:101BA000000A00200BE01049D1ED000AFDEEE00A2A
:101BB00010EE901A01EB8101490008B200BF00BF8E
:101BC000642801DD642100E00146084610F1640F3D
:101BD00002DA6FF0630100E0014608460749088019
:101BE00070470000500000205400002000003443E3
:101BF0000000B443000034C34E0000205800002011
:101C00000246002002EA01030BB1012000E000209F
:101C10007047000010B5002410E01C4901EB44009F
:101C200001F03EFD194B203B33F8142040331919C5
:101C3000203B33F8140001F03CFD641C102CECDB5D
:101C40001248203890F84000012802D1042003F007
:101C500095FA0E48203890F84100012807D10C4829
:101C60000088401C0A490880092003F087FA0424F0
:101C700008E006482030005D012802D1042003F06E
:101C80007DFA641C0F2CF4DB10BD00006C040020F6
:101C90009C04002010B58A480068401C88490860F0
:101CA000884801F0A9FCFFF7B5FF8548006832219C
:101CB000B0FBF1F201FB120008B900F0A9FB824968
:101CC0004989891C08B28149D1ED020AB0EE600A47
:101CD000FFF72EFF7E4908807E4800880988084467
:101CE00000B27C49088004F0D7F900F017FE0A28FA
:101CF0002FD2DFE800F02F05A6D9D8B4DAC6CFDBA3
:101D00006F480068B0F5967F23D902F037FD0020B8
:101D100003F034FA41F6FA106F49C8604969C1F519
:101D200061714FF4616201FB02F0C11700EBD14118
:101D3000491300EE101AB8EEC00A6349D1ED050A46
:101D4000B2EE041A00EE810ABDEEC00A624981EDCE
:101D5000080AACE004F00EFC5B48B0F9060000286D
:101D600003DD5948B0F9060003E05748B0F9060012
:101D70004042142862DA5448B0F90A00002803DD12
:101D80005148B0F90A0003E04F48B0F90A00404258
:101D9000142853DA4C4890ED030ADFED500A20EE88
:101DA000200ADFED4F0A80EE201A9FED4E0A71EEF9
:101DB000000A494890ED030AB8EEC00A30EE600A06
:101DC000B5EEC00AF1EE10FA16DD3F4890ED030AB9
:101DD000DFED420A60EE200A9FED411A80EE810A93
:101DE000DFED400A70EE200A3B4890ED030AB8EEA2
:101DF000C00A30EE600A17E0334890ED030ADFEDC9
:101E0000370A20EE200ADFED360A80EE201A9FED19
:101E1000350A71EE000A304890ED030AB8EEC00AA8
:101E200030EE600AB1EE400ADFED2F0AB4EEE00AB0
:101E3000F1EE10FA02D2022003F0A0F903F046FA04
:101E400035E001F06FF8012802D1052003F096F982
:101E500004F090FB01F0DAF903F038FA27E003F020
:101E6000F7FC04F087FB02F02BFD1848D0ED000AC8
:101E7000B0EE600AFEF7CCFD01F0C8F903F026FAD7
:101E800015E0FEF77FFB04F075FB02F019FD01F091
:101E9000BDF90CE000F02EFB04F06CFB02F010FD2D
:101EA00001F0B4F903E002E001E000E000BF00BF90
:101EB00000F06CFFFFF7C0FD01F0E2FC10BD000078
:101EC0000404002000040020B80C0020000A0020B8
:101ED00002040020CA01002058050020000000462E
:101EE0000000B44300D0CF45000048422DE9F04146
:101EF0003C493D4800F0B6F9002871D04FF08151BF
:101F0000394800F09DF83749374800F0B3F83748B2
:101F100001F0DBFB364800785A280DD13448407870
:101F2000A52809D1002404E03149085D02F0A6F992
:101F3000641C222CF8DB48E02E4890F821005A2837
:101F400005D12B480078A52801D121260EE00025D7
:101F50000AE02848405D5A2805D12649681C085CDB
:101F6000A52800D12E466D1C222DF2DB002405E0B1
:101F7000A0192049085C20490855641CC6F12200BC
:101F8000A042F5DC002707E01948C15D07F12200F7
:101F9000801B194A11547F1CB742F5DB002404E072
:101FA0001348005D13490855641C222CF8DB4FF0E0
:101FB000000806E0104911F8080002F05FF908F186
:101FC0000108B8F1220FF5DB00BF0C4805F086F8D8
:101FD0000A48801D05F08CF808480C3005F074F8AC
:101FE000BDE8F08100802010406002406C040020B9
:101FF000500C0020720C0020940C0020B80C002023
:102000007047000010B50A490A4800F02BF970B17A
:102010004FF08151074800F013F80549054800F0DA
:1020200029F8054802F0EEFB044801F04EFB10BD14
:102030000080201040640240600700206E040020F1
:102040000246094B9A4201D2084801E0064810387E
:1020500001F000531BB1064B0B40C36002E0044B80
:102060000B40836070470000106402400060024033
:102070007D0F7D0F0246094B9A4201D2084801E0CC
:102080000648103801F000531BB1064B0B40C360EB
:1020900002E0044B0B408360704700001064024074
:1020A000006002407D0F7D0F21B1026842F0010205
:1020B000026003E0026822F0010202607047000043
:1020C000016821F00101016000210160416081602F
:1020D000C1600161212141614A49884204D13D2109
:1020E000484A103A91608CE046491831884205D13F
:1020F0004FF47461434A103A916082E041493031B3
:10210000884205D14FF474113E4A103A916078E04C
:102110003C494831884205D14FF07461394A103A40
:1021200091606EE037496031884204D13649354AC2
:10213000103AD16065E033497831884204D133499F
:10214000304A103AD1605CE02E499031884204D187
:102150002F492C4A103AD16053E02A49A8318842CD
:1021600005D14FF03D51274A103AD16049E0294945
:10217000884204D13D21274A083A116041E02549AF
:102180001831884205D14FF47461224A083A11602F
:1021900037E020493031884205D14FF474111D4A8F
:1021A000083A11602DE01B494831884205D14FF0B3
:1021B0007461184A083A116023E016496031884278
:1021C00004D11149134A121F11601AE011497831E4
:1021D000884204D10D490F4A121F116011E00D49C8
:1021E0009031884204D10A490A4A121F116008E05E
:1021F0000849A831884204D14FF03D51054A121FC9
:1022000011607047106002403D000020400F002028
:1022100000003D201064024021B1026842F4802297
:10222000026003E0026822F480220260704722B15B
:10223000036843F40023036003E0036823F40023EE
:102240000360016170470146486880B270470146EB
:1022500000200A6802F400220AB1012000E00020F8
:102260007047000070B50246002000240025124E81
:10227000B24201D2114B01E00F4B103B104E0E4009
:1022800036B11E2606EAD124166806EA040502E0E5
:10229000566906F0800501F000560EB15C6800E05A
:1022A0001C68084E344004EA010616B10DB1012045
:1022B00000E0002070BD0000106402400060024099
:1022C0003C0F3C0F7D0F7D0F10B501F080034BB12B
:1022D00022B1436943F08003436103E0436923F083
:1022E0008003436180290BD02AB1036801F01E04EA
:1022F0002343036004E0036801F01E04A34303606A
:1023000010BD000010B500220268134B1A40CC68C3
:102310000B6823434C6923438C692343CC692343D3
:102320000C6A23434C6A23438C6A23434C6B23433C
:102330008C6B23431A430260426922F00702D1E901
:102340000B3423431A4342610B6943604B6883603B
:102350008B68C36010BD00003F801CF0002101604D
:1023600041608160C160016141618161C16101625F
:1023700041628162C1620163416381637047000011
:1023800010B504461F480088401C1E4908805A2C7E
:1023900009D11D48007830B900201B494870012040
:1023A00008700020C87118480078012824D1164808
:1023B000C179801C4454801EC079401C1249C871E8
:1023C000A52C03D10846C079052803D10E48C07951
:1023D000052805DD00200C4948700870C8710BE025
:1023E000A52C09D10848C079052805D10120064946
:1023F000487000200870C8710348801C02F088FDF6
:1024000010BD0000340700202B070020704700009B
:1024100010B52D4890ED000ABDEEC00A10EE100A6E
:1024200000B22A4908802A4890ED000ABDEEC00A91
:1024300010EE100A00B227490880274890ED050ADF
:10244000BDEEC00A10EE100A00B2082801DD01201E
:1024500000E00020214908701F4890ED050ABDEEFC
:10246000C00A10EE100A487000208870C870087109
:1024700048711B480088000A887119480078C871A3
:10248000184800780872CC2048720020164908705D
:1024900012E01248144A1278815C144803F0B1FD2E
:1024A00000BF4021114803F0E1FC0128F9D10E489A
:1024B0000078401C0C4908700B4800780C490978DA
:1024C0008842E6DB10BD0000500000201807002005
:1024D000540000201A070020B80C0020440C0020F3
:1024E000CA010020E8010020170700200014014065
:1024F0001607002010B5002013E09FED350A10EEFE
:10250000101A00EB4012334B03EB420251609FED77
:10251000320A10EE101A00EB401203EB4202116275
:10252000401C0428E9DB2D48007806284ED2DFE85D
:1025300000F0030A121A222A00F0A6F8012801D19D
:102540002649087042E000F04FF8012802D102202D
:10255000224908703AE000F0E1F8012802D1032096
:102560001E49087032E000F08FF8012802D10420E3
:102570001A4908702AE000F037F8012802D1052036
:102580001649087022E000F0C9F801281DD100208A
:102590001249087000BF13E09FED110A10EE101AE7
:1025A00000EB40120B4B03EB420251609FED0D0A12
:1025B00010EE101A00EB401203EB42021162401CB5
:1025C0000428E9DB052002F0D9FD00BF00BF10BDE3
:1025D0003E0AD73D680000206E43D1474D000020E1
:1025E000295C0F3D49828B4700B5002023490880B4
:1025F00023490880012002F0FBFC002002F0A8FC27
:10260000012002F0F5FC012835D1002002F0A0FCE9
:10261000012830D12320194908800020184908805A
:102620001848807801280AD11648C078012806D1B8
:1026300000201249088012490880012000BD11487D
:10264000807850B90F48C078012806D100200B4986
:1026500008801E200A4908800DE00A488078012879
:1026600009D10848C07830B90020044908806FF0CB
:102670001D00034908800020E0E70000C60100209B
:10268000CA0100201C07002000B500202049088056
:102690002049088002F0ACFC002002F059FC002028
:1026A00002F0A6FC012831D1002002F051FC0128E3
:1026B0002CD128201649088017480078012809D114
:1026C00015484078012805D100200880114908806C
:1026D000012000BD1048007850B90F48407801280B
:1026E00006D100200A4908801E200A4908800DE012
:1026F00009480078012809D10748407830B90020FE
:10270000034908806FF01D00024908800020E0E7BF
:10271000C6010020CA0100201C07002000B50020CF
:102720001F4908801F490880012002F061FC012038
:1027300002F00EFC012002F05BFC01282ED102F019
:1027400007FC01282AD11848006818B91748006802
:10275000154908605A201249088000201149088054
:102760001248006810490968401A642805D90020F9
:1027700002F03EFC002002F0EBFB0C4800680A4926
:102780000968401AB0F5966F08D9002004490880FE
:102790000449088004490860012000BD0020FCE7CE
:1027A000C6010020CA0100206400002004040020AB
:1027B00010B5102000F018F8012807D100F088FFAC
:1027C000102000F005F8102000F008F810BD0000FF
:1027D0000149086070470000143C0140014908604D
:1027E00070470000143C0140014600200022074BC6
:1027F0001B6803EA0102054B14331B680B4013B13D
:102800000AB1012000E0002070470000003C0140B8
:10281000F0B50A4600210023002400BF3DE0012559
:1028200005FA01F3156805EA03049C4234D10568F2
:102830004F000326BE40B543056015794E00B540F4
:102840000668354305601579012D02D01579022DF2
:1028500016D185684F000326BE40B5438560557983
:102860004E00B540866835438560456801268E4038
:10287000B5434560456896798E40B6B235434560AC
:10288000C5684F000326BE40B543C560D5794E00EC
:10289000B540C6683543C560491C1029BFD3F0BD9B
:1028A000F0B5002300244D07ED0E02FA05F3CE101B
:1028B00000F1200555F826504E07F70E0F26BE40B2
:1028C000B543CF1000F1200646F82750CE1000F196
:1028D000200555F8265045EA0304CE1000F12005E6
:1028E00045F82640F0BD0246002013690B400BB1AD
:1028F000012000E00020704741837047018370474A
:102900004FF6FF7101600021017141718171C17148
:10291000704742694A4042617047000001480078B0
:1029200070470000E801002030B5034613B94FF6A8
:10293000FF7030BD09E013F8014B82EA0400C0B219
:10294000054D35F8100080EA22220800A1F10101AE
:10295000F1D11046EDE70000D07E000830B5034607
:1029600005E013F8010B80EA02040448025D080048
:10297000A1F10105A9B2F4D1104630BDCF7D000808
:1029800000BFFEE710B5044600F0B0F82CB14FF4DC
:1029900000710D48FFF7B2FF04E04FF400710A48E0
:1029A000FFF7AAFF4FF480710748FFF7A7FF012048
:1029B00000F00CF84FF480710348FFF79DFF0120F1
:1029C00000F004F810BD00000004024010B5002122
:1029D00006E0062200BF1300A2F10102FBD1491C50
:1029E0008142F6D310BD000070B5002400F068F8F5
:1029F00000251BE04FF480711148FFF77DFF012097
:102A0000FFF7E4FF4FF480710D48FFF777FF600692
:102A1000040E4FF400710A48FFF765FF08B1601C0F
:102A2000C4B20120FFF7D2FF681CC5B2082DE1DB5C
:102A30004FF480710248FFF75FFF204670BD000031
:102A4000000402402DE9F04106460F461446984620
:102A500000F060F8304600F0CBF800F09BF8FF285B
:102A600001D1BDE8F081384600F0C2F800F092F8DC
:102A7000FF2800D1F5E700F04DF8711CC8B200F056
:102A8000B7F800F087F8FF2800D1EAE7002508E052
:102A9000FFF7AAFF20700020FFF774FF641C681C7A
:102AA000C5B2A8F10100A842F2DCFFF79DFF20703B
:102AB0000120FFF767FF00F04DF80020D1E700008C
:102AC0001CB54FF40070009000208DF804008DF8C4
:102AD00006008DF8070002208DF8050069460248BF
:102AE000FFF796FE1CBD0000000402401CB54FF429
:102AF0000070009001208DF804008DF8060003207E
:102B00008DF8050069460248FFF782FE1CBD0000F3
:102B10000004024010B5FFF7E9FF4FF400710C48C4
:102B2000FFF7ECFE4FF480710948FFF7E7FE012044
:102B3000FFF74CFF4FF400710548FFF7DDFE012061
:102B4000FFF744FF4FF480710148FFF7D5FE10BD39
:102B50000004024010B5FFF7C9FF4FF480710C4824
:102B6000FFF7CAFE4FF400710948FFF7C5FE0120C8
:102B7000FFF72CFF4FF480710548FFF7BFFE4FF4BD
:102B800000710348FFF7BAFE0120FFF71FFF10BDD9
:102B90000004024010B54FF47A744FF400711348EA
:102BA000FFF7ACFEFFF78CFF0120FFF70FFF4FF49C
:102BB00080710E48FFF7A2FE0120FFF707FF07E034
:102BC000601E80B2040003D0FFF7C4FFFF2010BDD9
:102BD0004FF400710548FFF786FE0028F0D14FF44E
:102BE00080710248FFF788FE0020F0E700040240F1
:102BF00070B50446FFF77AFF4FF480711448FFF771
:102C00007BFE002521E004F0800028B14FF4007124
:102C10000F48FFF773FE04E04FF400710C48FFF714
:102C20006BFE6006040E0120FFF7D0FE4FF48071AA
:102C30000748FFF763FE0120FFF7C8FE4FF48071DD
:102C40000348FFF759FE681CC5B2082DDBDB70BDD9
:102C50000004024000B53B48807C00F001003A4986
:102C600088703848807CC0F340013748017235488D
:102C7000807CC0F38001344881733248807CC0F38B
:102C8000C001314801752F48807CC0F300112E48E7
:102C900081762C48807CC0F340112B4880F82010AE
:102CA0002848807CC0F38011274880F826102548EA
:102CB000807CC109244880F82C102248C07C00F098
:102CC0000101214880F832101E48C07CC0F3400149
:102CD0001D4880F838101B48C07CC0F380011A489A
:102CE00080F83E101748C07CC0F3C001164880F839
:102CF00044101448C07CC0F30011134880F84A10F7
:102D00001048C07CC0F340110F4880F850100D48A7
:102D1000C07CC0F380110C4880F856100948C07C74
:102D2000C109094880F85C10002207E002EB42016B
:102D3000054B03EB4100FEF745F8521C102AF5DB6A
:102D400000BD000000070020E40B00201CB501219D
:102D5000042001F04FFC0320009001208DF80400B6
:102D600000208DF8060003208DF80500694606480E
:102D7000FFF74EFD02210448FFF7C0FD0121024884
:102D8000FFF7BCFD1CBD00000008024010B5FFF7B6
:102D9000C5FD53490880FFF7C1FD0A280ED2DFE8C0
:102DA00000F00E051F7766307842548A01214D48A5
:102DB000FFF7A2FD02214B48FFF7A0FD8DE04A4836
:102DC00000686421B0FBF1F201FB120018B9012187
:102DD0004448FFF79EFD02214248FFF78FFD7CE04B
:102DE00001214048FFF788FD3F480068C821B0FB3B
:102DF000F1F201FB120018B902213A48FFF789FDF0
:102E00006BE001213748FFF779FD374800684FF440
:102E1000FA71B0FBF1F201FB120018B9022131483E
:102E2000FFF777FD59E001212E48FFF767FD2E4897
:102E300000684FF4FA71B0FBF1F201FB120018B90F
:102E400002212848FFF765FD47E001212548FFF7EB
:102E500055FD254800684FF4FA71B0FBF1F201FB13
:102E6000120018B902211F48FFF753FD35E01E4834
:102E700000686421B0FBF1F201FB120038B90121B6
:102E80001848FFF746FD02211648FFF742FD24E0EF
:102E900023E0154800684FF4FA71B0FBF1F201FB32
:102EA000120018B901210F48FFF733FD02210D4828
:102EB000FFF724FD11E00C4800684FF4FA71B0FBF5
:102EC000F1F201FB120038B901210648FFF721FD9C
:102ED00002210448FFF71DFD00BF00BF10BD000028
:102EE0000804002000080240040400201CB5012151
:102EF000042001F07FFB2020009001208DF80400C9
:102F000000208DF8060003208DF80500694604486E
:102F1000FFF77EFC20210248FFF7EEFC1CBD0000FD
:102F2000000802406148007820B1012836D002280C
:102F300033D162E09FED5E0A10EE100A5D494860F1
:102F40009FED5B0A10EE100AC1F846009FED580A8B
:102F500010EE100AC1F888009FED550A10EE100A15
:102F6000C1F8CA0046205449086348638863C863AF
:102F70000846006A1E2810DD0846406A1E280CDD3F
:102F80000846806A1E2808DD0846C06A1E2804DD3F
:102F90000120464908704949087083E09FED480ABE
:102FA00010EE100A434948609FED460A10EE100AE1
:102FB000C1F846009FED430A10EE100AC1F88800E0
:102FC0009FED400A10EE100AC1F8CA003E483A4987
:102FD000086348638863C863084600684968084412
:102FE0003549896808443449C968084410F1190F03
:102FF00002DA02202D49087054E02F4800682E495B
:10300000496808442C49896808442B49C968084420
:1030100000280BDD284800682749496808442649EC
:10302000896808442449C96808440BE022480068BC
:103030002149496808442049896808441E49C968EB
:10304000084440420A282CDA00202049C882002186
:103050001E48C185A0F84610A0F85E100020164951
:10306000086348638863C8639FED150A10EE100A71
:10307000104948609FED120A10EE100AC1F8460090
:103080009FED0F0A10EE100AC1F888009FED0C0AA0
:1030900010EE100AC1F8CA0000200849087001208B
:1030A000704700BF00BF0020FAE700000C040020BA
:1030B000CDCCCC3DF1020020A00900200D04002061
:1030C000CDCC4C3D00000000F0D8FFFF240B0020C9
:1030D0004749097801297DD1464991ED000AB1EEB1
:1030E000400AD1ED010A70EE600A90ED000A9FEDF2
:1030F000421A01EE200A80ED000A91ED000AB1EEBD
:10310000400AD1ED010A70EE200A90ED010A9FED10
:103110003A1A01EE200A80ED010A91ED000AD1ED84
:10312000010A70EE600A90ED020A9FED331A01EE7B
:10313000200A80ED020A91ED000AD1ED010A70EE3D
:10314000200A90ED030A9FED2C1A01EE200A80ED73
:10315000030A91ED000AB1EE400AD1ED010A30EE0A
:10316000600ADFED250A20EE200ABDEEC00A10EE4F
:10317000101A09B2214A11801E4991ED000AB1EEE0
:10318000400AD1ED010A30EE200ADFED1B0A20EEE5
:10319000200ABDEEC00A10EE101A09B2184A1180BA
:1031A000144991ED000AD1ED010A30EE600ADFED1D
:1031B000120A20EE200ABDEEC00A10EE101A09B263
:1031C000104A11800B4991ED000AD1ED010A30EE51
:1031D000200A00E00AE0DFED080A20EE200ABDEE3A
:1031E000C00A10EE101A09B2074A11807047000099
:1031F0000D040020000A002000008242400400204C
:1032000042040020440400204604002010B52DEDA7
:10321000048BFFF783FB052872D1F048007A03285E
:103220006ED0EF4800680A21B0FBF1F201FB1200FA
:103230000028F1D1E948407A012804D0022860D062
:1032400003285CD1C6E0E549C988A1F5806101EB9E
:103250004101880004F021FB9FEDE20B53EC102BA1
:1032600004F094F904F0EAFA00B2E049096B08446A
:10327000DE490863D949C988A1F5806101EB4101A4
:10328000880004F00AFB9FEDD70B53EC102B04F0E1
:103290007DF904F0D3FA00B2D449496B0844D3490C
:1032A0004863CE49C988A1F5806101EB41018800DE
:1032B00004F0F3FA9FEDCB0B53EC102B04F066F9FE
:1032C00004F0BCFA00B2C949896B0844C749886355
:1032D000C249C988A1F5806101EB4101880004F071
:1032E000DCFA9FEDC00B53EC102B04F04FF904F007
:1032F000A5FA00B2BD49C96B0844BC49C8636AE07D
:103300006AE0B649C988A1F58061C1EBC10004F04B
:10331000C4FA41EC190B9FEDB30B53EC102B04F0E6
:1033200035F941EC180B04F089FA00B2AF49096B8A
:103330000844AE490863A949C988A1F58061C1EB79
:10334000C10004F0AAFA41EC190B9FEDA60B53EC57
:10335000102B04F01BF941EC180B04F06FFA00B2CB
:10336000A249496B0844A14948639C49C988A1F511
:103370008061C1EBC10004F090FA41EC190B9FEDA4
:10338000990B53EC102B04F001F941EC180B04F0ED
:1033900055FA00B29549896B081A944988638F4998
:1033A000C988A1F58061C1EBC10004F076FA41EC57
:1033B000190B9FED8C0B53EC102B04F0E7F841EC4C
:1033C000180B04F03BFA00B28849C96B081A874908
:1033D000C86300E000BF00BFFFF7A0FA022857D083
:1033E0008248006B1E2801DA1E2001E07F48006B36
:1033F0007E4908630846006B40F29341884201DD34
:10340000084601E07948006B784908630846406B3C
:103410001E2801DA1E2001E07448406B734948639E
:103420000846406B40F29341884201DD084601E0C6
:103430006E48406B6D4948630846806B1E2801DA70
:103440001E2001E06948806B684988630846806BEC
:1034500040F29341884201DD084601E06348806BF9
:10346000624988630846C06B1E2801DA1E2001E00D
:103470005E48C06B5D49C8630846C06B40F293412B
:10348000884201DD084601E05848C06B5749C863CF
:10349000564890ED081AB8EEC11AF0EE410A90EDC8
:1034A0000C1AB8EEC11AB0EE410A514800F0E8FC1F
:1034B000BDEEC00A4D4880ED040A90ED091AB8EE41
:1034C000C11AF0EE410A90ED0D1AB8EEC11AB0EE35
:1034D000410A4748423000F0D3FCBDEEC00A4348E1
:1034E00080ED050A90ED0A1AB8EEC11AF0EE410A15
:1034F000806B0D3001EE100AB8EEC11AB0EE410A31
:103500003B48843000F0BCFCBDEEC00A374880ED7B
:10351000060A90ED0B1AB8EEC11AF0EE410AC06B24
:10352000401F01EE100AB8EEC11AB0EE410A304851
:10353000C63000F0A5FCBDEEC00A2C4880ED070A9D
:1035400090ED001AB8EEC11AF0EE410A90ED041A9F
:10355000B8EEC11AB0EE410A264800F091FC2348AB
:1035600080ED100A90ED011AB8EEC11AF0EE410A92
:1035700090ED051AB8EEC11AB0EE410A1D4842306E
:1035800000F07EFC194880ED110A90ED021AB8EEA9
:10359000C11AF0EE410A90ED061AB8EEC11AB0EE6B
:1035A000410A1448843000F06BFC104880ED120A88
:1035B00090ED031AB8EEC11AF0EE410A90ED071A29
:1035C000B8EEC11AB0EE410A0A48C63000F058FC05
:1035D000064880ED130ABDEC048B10BD00070020E7
:1035E000040400200000000000A08440A009002086
:1035F000E9010020F102002010B5044620780128DE
:1036000015D10B480088401C09490880012001F0B1
:10361000EFFC012804D0012001F09AFC012806D11A
:103620000020207001F0E4FC002001F091FC10BDAE
:1036300048040020B0EE401AF7EE001AB0EE610A1E
:10364000F0EE081A60EEA11ADFED132A81EEA22A2D
:10365000DFED121A72EE211AB0EE610AF7EE001ACF
:10366000B4EEE10AF1EE10FA02DDF7EE001A01E025
:10367000F0EE401AB0EE610ADFED081AB4EEE10A8E
:10368000F1EE10FA02D2DFED051A01E0F0EE401A79
:10369000B0EE610A7047000000004843CDCCCC3D3D
:1036A00001884FF6FE72914202DA0188491C0180BE
:1036B0007047034602EB8200984202DA012008704C
:1036C00001E00020087008787047002101807047F1
:1036D0001FB50E236A463B21D020FFF7B3F9FF2820
:1036E00001D104B010BD9DF801009DF8001040EA22
:1036F000012000B2584908809DF803009DF802108F
:1037000040EA012000B2544948809DF805009DF828
:10371000041040EA012000B24F4988809DF807005C
:103720009DF8061040EA012000B24B49C8809DF880
:1037300009009DF8081040EA012000B246490881BE
:103740009DF80B009DF80A1040EA012000B24249A2
:1037500048819DF80D009DF80C1040EA012000B250
:103760003D4988810846B0F9000000EE100AB8EE25
:10377000C00AB1EE400ADFED390A80EE201A38485F
:1037800080ED001A0846B0F9020000EE100AB8EE0B
:10379000C00AB1EE400ADFED310A80EE201A30484F
:1037A00080ED011A0846B0F9040000EE100AB8EEE8
:1037B000C00ADFED2A0A80EE201A294880ED021A9D
:1037C0000846B0F9060000EE100AB8EEC00A9FEDF8
:1037D000251AC0EE010A9FED240A30EE800A204827
:1037E00080ED030A0846B0F9080020490968401A2C
:1037F00000EE100AB8EEC00ADFED1D0A80EE201AB6
:10380000174880ED041A1448B0F90A0019490968EC
:10381000401A00EE100AB8EEC00AB1EE400ADFED21
:10382000140A80EE201A0E4880ED051A0A48B0F9F5
:103830000C0011490968401A00EE100AB8EEC00ADF
:10384000B1EE400ADFED0A0A80EE201A044880ED4E
:10385000061A002045E70000BC0A002000000046D0
:10386000CC0A00200000AA43B81E1242B406002071
:1038700000008342B8060020BC06002000BFFEE71F
:1038800070B5FFF74BF80A287ED2DFE800F021057B
:103890004D7DFCBCFBFAF9F800210846FDF7F6FB6C
:1038A00000231A4619461846FDF71CFC00231A4649
:1038B00019461846FDF72AFBE74991ED070ABDEEC8
:1038C000C00A10EE101A08B20021FDF737FDC1E161
:1038D000E249C86800F0B5FDE049098A084404B22D
:1038E000DE49486902F06AFCDC49898C084405B26B
:1038F00021462846FDF7CAFB00231A4619461846FA
:10390000FDF7F0FB00231A4619461846FDF7FEFAAC
:10391000D14991ED070ABDEEC00A10EE101A08B2A7
:103920000021FDF70BFD95E1CD480068401CCC4916
:1039300008604FF44870CB490860091D0860CA4808
:10394000D0ED100AB0EE600AC848FEF755F8C64838
:10395000D0ED110AB0EE600AC448001DFEF74CF825
:10396000C148D0ED120AB0EE600AC0480830FEF738
:1039700043F8BD48D0ED130AB0EE600ABB480C30E6
:10398000FEF73AF8B94800E04FE1FFF7A1FBB34A70
:10399000128A11B2B14A928C10B2FDF777FB002364
:1039A0001A4619461846FDF79DFBB04C94ED030AE4
:1039B000BDEEC00A10EE104A23B2AC4C94ED020AE0
:1039C000BDEEC00A10EE104A22B2A84C94ED010AD6
:1039D000BDEEC00A10EE104A21B2A44C94ED000ACC
:1039E000BDEEC00A10EE104A20B2FDF78FFA9A49D8
:1039F00091ED070ABDEEC00A10EE101A08B20021C0
:103A0000FDF79CFC26E19549C86800F01AFD934932
:103A1000098A084404B29149486902F0CFFB8F49F2
:103A2000898C084405B221462846FDF72FFB904CAF
:103A3000E36CA26C616C206CFDF754FB8A4C94ED36
:103A4000130ABDEEC00A10EE104A23B2864C94ED64
:103A5000120ABDEEC00A10EE104A22B2824C94ED5A
:103A6000110ABDEEC00A10EE104A21B27E4C94ED50
:103A7000100ABDEEC00A10EE104A20B204E03BE08E
:103A800091E04EE023E00DE0FDF740FA724991ED40
:103A9000070ABDEEC00A10EE101A08B20021FDF7A9
:103AA0004DFCD7E000210846FDF7F0FA00231A4646
:103AB00019461846FDF716FB00231A461946184604
:103AC000FDF724FA00210846FDF738FCC2E000218A
:103AD0000846FDF7DBFA00231A4619461846FDF79B
:103AE00001FB00231A4619461846FDF70FFA00217C
:103AF0000846FDF723FCADE000210846FDF7C6FAB5
:103B000000231A4619461846FDF7ECFA00231A4618
:103B100019461846FDF7FAF900210846FDF70EFC94
:103B200098E04E49C86800F08CFC4C49098A08446A
:103B300004B24A49486902F041FB4849898C08446B
:103B400005B221462846FDF7A1FA494CE36CA26C68
:103B5000616C206CFDF7C6FA434C94ED130ABDEE80
:103B6000C00A10EE104A23B23F4C94ED120ABDEE8B
:103B7000C00A10EE104A22B23B4C94ED110ABDEE81
:103B8000C00A10EE104A21B2374C94ED100ABDEE77
:103B9000C00A10EE104A20B2FDF7B8F9002108461D
:103BA000FDF7CCFB56E02D49C86800F04AFC2B49D4
:103BB000098A084404B22949486902F0FFFA2749F2
:103BC000898C084405B221462846FDF75FFA284C47
:103BD000E36CA26C616C206CFDF784FA224C94EDCE
:103BE000130ABDEEC00A10EE104A23B21E4C94ED2B
:103BF000120ABDEEC00A10EE104A22B21A4C94ED21
:103C0000110ABDEEC00A10EE104A21B2164C94ED16
:103C1000100ABDEEC00A10EE104A20B2FDF776F988
:103C200000210846FDF78AFB14E000210846FDF755
:103C30002DFA00231A4619461846FDF753FA0023B9
:103C40001A4619461846FDF761F900210846FDF7A6
:103C500075FB00BF00BF70BD3C0A00205805002066
:103C60001C0400203C040040A0090020F0090020B2
:103C7000500900207047000070B5002100230F227A
:103C8000C4781CB3174C246804F4E064C4F5E06401
:103C9000C4F30721C1F10404E3B20A4144789C4013
:103CA000E1B28478144021430C07210E0E4C0578B4
:103CB0006155047804F01F050124AC4005786D11AE
:103CC000AD0005F1E025C5F8004109E0047804F0F5
:103CD0001F050124AC40054D0678761145F82640B5
:103CE00070BD00000CED00E000E400E080E100E0C9
:103CF00002490143024A1160704700000000FA05C2
:103D00000CED00E070B506460024351DA3E0285DEB
:103D1000C02840D012DCA52829D008DC90281ED06D
:103D2000A02821D0A12820D0A22877D11EE0B02839
:103D300026D0B12825D0B228F7D123E0D1287BD0D6
:103D400006DCC12828D0C22827D0D028EDD12DE00C
:103D5000D92865D0E02879D0F02879D174E0687846
:103D600040490870A41C75E000BF00BF00BF2919BE
:103D70003D4851F8012F026089888180E41D69E087
:103D800000BF00BF2919394851F8012F0260898806
:103D90008180E41D5EE000BF00BF2919344851F85E
:103DA000012F026089888180E41D53E0601C295C3A
:103DB000A01C285C01EB002000B200EE100AB8EE57
:103DC000C00ADFED2C0A80EE201A2B4880ED001A85
:103DD000E01C295C201D285C01EB002000B200EEF5
:103DE000100AB8EEC00ADFED230A80EE201A22483E
:103DF00080ED011A601D295CA01D285C01EB0020EC
:103E000000B200EE100AB8EEC00AF2EE040A80EE2C
:103E1000201A194880ED021AE41D1BE018E00BE09F
:103E20002919154851F8012F02604A6842608968D3
:103E300081600D340EE009E02819411C10220F4862
:103E4000FCF733FA113405E0641D03E0641D01E062
:103E5000641C00BF00BFB6F88400A0423FF757AF14
:103E600070BD000048070020360700203C070020F6
:103E7000420700200000C8425C0D0020680D0020B1
:103E800010B52DED0A8BB0EE408AF0EE608A044644
:103E9000606900EE100AB8EEC00AB4EEC80AF1EE8E
:103EA00010FA06D2606900EE100AB8EEC00AB0EE51
:103EB000408A206900EE100AB8EEC00AB4EEC80AC3
:103EC000F1EE10FA06DD206900EE100AB8EEC00A25
:103ED000B0EE408AA06A606238EE680A10EE100AFE
:103EE000A06278EE680AE06800EE100AF4EEC00AFC
:103EF000F1EE10FA02DDE068A06213E078EE680AE5
:103F0000E06800EE100AB1EE400AF4EEC00AF1EEED
:103F100010FA07D2E06800EE100AB1EE400A10EE87
:103F2000100AA06238EE680AB5EEC00AF1EE10FA87
:103F300002DD38EE680A03E038EE680AB1EE400AA6
:103F4000A06B00EE900AF8EEE00AB4EEE00AF1EEA3
:103F500010FA04D89FED600A10EE100AA062A16A60
:103F6000084603F0B9FE41EC1A0BE16A084603F07B
:103F7000B3FE41EC1C0B9FED590B53EC102B03F0DF
:103F8000B7FC41EC1B0B53EC1A2B03F057FA41EC36
:103F9000190B03F021FAE062A06A00EE100A606AD1
:103FA00000EE900A70EE600AA06800EE100A20EEA3
:103FB000800A10EE100A2063E06A00EE100A206A00
:103FC00000EE900AB4EEE00AF1EE10FA01DD206A8C
:103FD000E062E06A00EE100A206A00EE900AF1EE5C
:103FE000600AB4EEE00AF1EE10FA07D2206A00EEA1
:103FF000100AB1EE400A10EE100AE062A06A00EE6C
:10400000100A206800EE900A20EE200ABDEEC00AD9
:1040100010EE100A00B2A087206B00EE100ABDEE71
:10402000C00A10EE100A00B2E087E06A00EE100A43
:10403000606800EE900A20EE200ABDEEC00A10EE85
:10404000100A00B2A4F84000A06A00EE100A20682E
:1040500000EE900A20EE201AE06A00EE100A606876
:1040600000EE900A00EE201A206B00EE100A31EEEE
:10407000000A10EE100A6063606B00EE100AE0693F
:1040800000EE900AF8EEE00AB4EEE00AF1EE10FA63
:1040900007DDE06900EE100AB8EEC00A10EE100A63
:1040A0006063606B00EE100AA06900EE900AF8EE03
:1040B000E00AB4EEE00AF1EE10FA07D2A06900EED1
:1040C000100AB8EEC00A10EE100A6063606B00EED2
:1040D000100ABDEC0A8B10BD000000002B8716D91A
:1040E000CEF7EF3F00B58BB00121022000F082FA3D
:1040F0000121084600F07EFA0121022000F08AFA30
:104100000121082000F086FA0320099002208DF892
:10411000280003208DF8290009A95448FEF778FBF0
:10412000CC20099002208DF8280003208DF829006A
:1041300009A94F48FEF76CFB022200214B48FEF70D
:10414000AFFB022201214948FEF7AAFB0222062109
:104150004748FEF7A5FB022207214548FEF7A0FBD2
:10416000022211464248FEF79BFB022203214048EF
:10417000FEF796FB5320ADF818000020ADF81A00AA
:1041800044F6206007900020ADF8200006A93948C9
:1041900001F01CFB5320ADF818000020ADF81A0008
:1041A000642007900020ADF8200006A9324801F0F5
:1041B0000DFB7020ADF804000120ADF806000020D2
:1041C000ADF808004FF47A7003900220ADF81000AB
:1041D0000020ADF81200ADF814004FF48070ADF877
:1041E000160001A9234801F0A5F901A9214801F011
:1041F000E9F901A91F4801F045FA01A91D4801F09C
:104200009BFA0020039001A91B4801F03BFA01A989
:10421000194801F091FA0821164801F0C9F908215E
:10422000144801F021FA0821124801F07BFA082114
:10423000104801F0BDFA08210F4801F073FA082177
:104240000D4801F0B5FA01210A4801F03BF90121BE
:10425000094801F037F90121064801F045F901212B
:10426000054801F041F90BB000BD00000004024018
:104270000000024000040040000C004010B504465D
:104280006148007807287DD2DFE800F0040A333D5A
:104290004D5363005A2C02D101205B490870B0E0F5
:1042A0005A48006880F888405848006890F88800AC
:1042B000A52804D0A62806D0A72818D10FE00220F0
:1042C0005149087013E05248006820B14F48006817
:1042D0004F490968884700204B49087007E00020D3
:1042E0004A490968086006204749087000BF00BFB6
:1042F00087E046480068A0F8844046488470032060
:10430000414908707DE041480068B0F8840040EA07
:1043100004203E490968A1F884003E48C470042086
:10432000394908706DE03C48048005203649087022
:1043300067E03948008840EA0420374908800020B7
:104340003249096808603549088006202E490870FE
:1043500057E02E48006801682C4800680068401C3F
:104360002A4A1268106029480068001D44542748F2
:10437000006890F88800A72813D1244800680068D6
:10438000082800E039E00CD3082020490968A1F88A
:1043900084001E4800681E490968884700201A49A1
:1043A00008701A480068006818490968B1F8841054
:1043B000884221D31548006890F88800A5281BD1B1
:1043C00004221449154802F0FBFD104800680268F9
:1043D0000E480168091D114802F0F2FD0F480088DF
:1043E0000D490988884204D10848006808490968CD
:1043F000884700200449087003E000200249087043
:1044000000BF00BF002010BD58070020500700204B
:104410004C070020590700205407002056070020B1
:1044200070B504460D46044805608C212046FBF714
:1044300081FF0248046070BD4C0700205007002037
:10444000704701460020704770B52DED088B064679
:104450000C461546287BE97A40EA012000B220820A
:10446000204600F035F8B4F9100003F016FA41ECDC
:104470001B0B9FED140B53EC102B03F087F841EC52
:10448000190BB4F9160000EE100AB8EEC00ADFED01
:104490000F0A20EE200A10EE101A084603F01CFC4A
:1044A00041EC1A0B53EC192B02F0C8FF41EC180B2E
:1044B00003F0C4F9B4F9161000EBC1003060BDEC94
:1044C000088B70BD0000000000408F405C8F423EB2
:1044D000818A028A891A09B24182B0F9121041F226
:1044E0005452914204DDC18A491C09B2C18208E0DC
:1044F000B0F91210044A914203DAC18A491E09B286
:10450000C182018A81827047ACEAFFFF0B684A6969
:10451000D21A354B1A601A461268002A02DD1A4672
:10452000126802E0304A12685242062A0FDDB1F9E1
:104530001020002A02DDB1F9102002E0B1F91020AC
:1045400052420A2A03DA8269521C826101E0002386
:1045500083618269642A05D9027D1AB90122027534
:10456000224B1A70027D012A3CD1204A1278012A7E
:1045700004D0022A11D0032A33D129E00A68503A24
:104580001B4B1A601A4692ED000AB8EE400A80ED05
:10459000020A0222154B1A7023E0154A92ED000A16
:1045A000B8EE400A80ED020A114B0A681B68D21A65
:1045B00004D00F4B0A681B68D21A03E00C4B0A6840
:1045C0001B689A1A282A02D20322084B1A7008E0A4
:1045D00000220275054B1A70428802800023836115
:1045E00000BF00BF704700005005002054050020A8
:1045F0003C05002029B1064A12680243044B1A60A8
:1046000004E0034A12688243014B1A6070470000BD
:104610003038024029B1064A12680243044B1A603E
:1046200004E0034A12688243014B1A60704700009D
:104630004038024029B1064A12680243044B1A600E
:1046400004E0034A12688243014B1A60704700007D
:104650002038024029B1064A12680243044B1A600E
:1046600004E0034A12688243014B1A60704700005D
:104670004438024029B1064A12680243044B1A60CA
:1046800004E0034A12688243014B1A60704700003D
:1046900024380240F0B50021002200240225002623
:1046A0000223324F3F6807F00C0121B1042905D0E5
:1046B000082937D105E02E4F076036E02D4F0760FF
:1046C00033E02A4F3F1F3F68C7F38056274F3F1FF5
:1046D0003F6807F03F036EB1264FB7FBF3F7DFF8F3
:1046E0008CC0ACF1040CDCF800C0CCF3881C07FBD8
:1046F0000CF40CE01E4FB7FBF3F7DFF870C0ACF121
:10470000040CDCF800C0CCF3881C07FB0CF4174F3A
:104710003F1F3F68C7F301477F1C7D00B4FBF5F7DF
:10472000076002E0124F076000BF00BF0F4F3F68F5
:1047300007F0F0010909104F7A5C0768D74047601D
:104740000A4F3F6807F4E051890A0B4F7A5C4768CB
:10475000D7408760054F3F6807F46041490B064F1B
:104760007A5C4768D740C760F0BD00000838024057
:104770000024F40000127A00F00600201E48008891
:104780001D49498808441C49898808441A49C98830
:104790000844A0F5805000280DDD17480088164910
:1047A000498808441449898808441349C988084439
:1047B000A0F580500CE0104800880F494988084453
:1047C0000D49898808440C49C9880844C0F58050BF
:1047D000082810DD00BFBFF34F8F0848006800F4C1
:1047E000E06007490843001D04490860BFF34F8F8C
:1047F00000BF00BFFEE77047000700200CED00E09F
:104800000000FA0510B504462B480088401C2A49D0
:10481000088004B910BD2078617840EA0120C0F317
:104820000A00264908806078C010A17840EA41104B
:10483000C0F30A0021494880A0788011E17840EA5D
:104840008100217940EA8120C0F30A001B49888059
:1048500020794010617940EAC110C0F30A0017497D
:10486000C88060790011800808726079C0F3011077
:104870004872A079E17940EA012000B20F494881ED
:10488000207A617A40EA012001B20C488181A07A45
:10489000E17A40EA012001B20848C181217B01741C
:1048A000617B4174A07B05498874E17B0348C17436
:1048B000FEF7D0F900BFADE7140700200007002085
:1048C00070B52DED088BFE4890ED080AB8EEC00AD1
:1048D000FC48D0ED050AB2EE041A00EEC10ADFED85
:1048E000FA0AB4EEE00AF1EE10FA24DDF44890ED95
:1048F000080AF8EEC00AF34890ED051A9FEDF30A96
:10490000F2EE041A01EE210A30EEC00ADFEDF00AE1
:1049100020EE200A9FEDED1AC0EE010AE84890ED66
:10492000050AB8EEC00A30EE800ABDEEC00AE948BA
:1049300080ED000A57E0E24890ED080AB8EEC00AA0
:10494000E048D0ED050AB2EE041A00EEC10ADFED30
:10495000E20AB4EEE00AF1EE10FA24D2D84890ED63
:10496000080AF8EEC00AD74890ED051A9FEDD70A5D
:10497000F2EE041A11EE210A30EEC00ADFEDD40A7D
:1049800020EE200A9FEDD11AC0EE010ACC4890ED2E
:10499000050AB8EEC00A30EE800ABDEEC00ACD4866
:1049A00080ED000A1FE0C64890ED080AB8EEC00A84
:1049B000C448D0ED050AB2EE041A00EEC10ADFEDDC
:1049C000C40A20EE200A9FEDC11AC0EE010ABC48BD
:1049D00090ED050AB8EEC00A30EE800ABDEEC00ABE
:1049E000BC4880ED000AFDF799FF05281DD100BFE6
:1049F000BA484088A0F58060B949B1F90010401A62
:104A0000012806DDB7480088401C00B2B54908807F
:104A100006E0B2484088A0F5806000B2B149088045
:104A2000B048B0F90000AE490880FDF777FF0528CF
:104A300003D0FDF773FF07287ED1A8488088A0F532
:104A40008060002804DDA5488088A0F5806003E030
:104A5000A2488088C0F58060282879DA98484069A3
:104A6000C0F56170002804DD95484069C0F56170AB
:104A700003E093484069A0F56170C82868DA90485F
:104A80004069C0F56170B0F5805F1EDD8C484069FB
:104A900000F5005000EE100AB8EEC00AF0EE400A31
:104AA00091489FED920AFFF7EBF9BDEEC00A10EEB8
:104AB000100A00B28E4908808148406900F5005014
:104AC000C0F561708B490860A3E07D484069C0F57E
:104AD000617010F5805F1EDA79484069A0F50050DA
:104AE00000EE100AB8EEC00AF0EE400A7E489FEDD4
:104AF0007F0AFFF7C5F9BDEEC00A10EE100A00B23A
:104B00007B49088073480068A0F50050C0F56170CB
:104B1000784908607DE06A4890ED050AB8EEC00A61
:104B2000F0EE400A70489FED710AFFF7A9F9BDEE5B
:104B3000C00A10EE100A01E072E009E000B26C4910
:104B4000088064480068C0F561706A49086060E0E8
:104B500060480068C0F56170B0F5805F1CDD624898
:104B60005C49096801F5005100EE101AF8EEC00A20
:104B70009FED5E0AFFF784F9BDEEC00A10EE100A41
:104B800000B25B4908805348006800F50050C0F54A
:104B90006170584908603CE04E480068C0F561709B
:104BA00010F5805F1EDA4B480068A0F5005000EE5B
:104BB000100AB8EEC00AF0EE400A4B489FED4B0ACF
:104BC000FFF75EF9BDEEC00A10EE100A00B24849C8
:104BD000088040480068A0F50050C0F56170454964
:104BE000086016E040483B4991ED000AF8EEC00A23
:104BF0009FED3E0AFFF744F9BDEEC00A10EE100A21
:104C000000B23B49088033480068C0F561703949FB
:104C100008603748B0F9000002F0A8F9344908806C
:104C20002E480088A0F5806000B233490880FDF767
:104C300075FE052866D12B48B0F90050002029499F
:104C400008802C490C68E11704EBD1414913480056
:104C500002F023FE41EC190B9FED280B53EC102BB7
:104C600002F046FE41EC180B02F0E8FD2149086015
:104C70000846006802F011FE41EC1B0BB0EE4B0A37
:104C8000F0EE6B0A01F094FCB0EE409AF0EE609A00
:104C9000284602F002FE41EC1A0B53EC192B02F0ED
:104CA00027FE41EC180B02F0C9FD0E4909880844A3
:104CB00000B20C4908800F48006802F0EEFD22E0C7
:104CC00058050020B80C00200000E14400006145B8
:104CD00000000046D00100200000E1C400070020D1
:104CE000D8010020C60100207001002000006144AE
:104CF000CA010020D4010020C80100204AD8124D6A
:104D0000FB2109401FE041EC1B0BB0EE4B0AF0EE1B
:104D10006B0A01F0B1FCB0EE409AF0EE609A2846C2
:104D200002F0BBFD41EC1A0B53EC192B02F0E0FD35
:104D300041EC180B02F082FD6E490988084400B26C
:104D40006C49088000BF6C48B0F900006949B1F9AE
:104D5000001008446949B1F90010084400EB8000D4
:104D60004000674908616448B0F900004042614969
:104D7000B1F9001008446149B1F90010084400EB92
:104D8000800040005E4948615B48B0F90000594925
:104D9000B1F90010401A5949B1F90010084400EB6C
:104DA00080004000564988615348B0F900004042F5
:104DB0005049B1F90010401A5049B1F900100844A7
:104DC00000EB800040004E49C861084690ED001A93
:104DD000B8EEC11AF0EE410A90ED041AB8EEC11A0D
:104DE000B0EE410A4748FFF74BF8BDEEC00A444811
:104DF00080ED100A90ED011AB8EEC11AF0EE410AEA
:104E000090ED051AB8EEC11AB0EE410A3D484230A5
:104E1000FFF736F8BDEEC00A394880ED110A90ED73
:104E2000021AB8EEC11AF0EE410A90ED061AB8EE79
:104E3000C11AB0EE410A33488430FFF721F8BDEEC5
:104E4000C00A2F4880ED120A90ED031AB8EEC11A7D
:104E5000F0EE410A90ED071AB8EEC11AB0EE410A21
:104E60002848C630FFF70CF8BDEEC00A244880ED94
:104E7000130A2548C06800EE900A2348806800EEB7
:104E8000100AFEF7D7FBB0EE403A1D4890ED100A2D
:104E9000B8EEC00A20EE030AB0EE405A90ED110AB7
:104EA000B8EEC00A20EE030AF0EE403A90ED120A86
:104EB000B8EEC00A20EE030AF0EE404A90ED130A65
:104EC000B8EEC00A20EE030AB0EE404ABDEEC50AB5
:104ED00080ED100ABDEEE30A80ED110ABDEEE40A92
:104EE00080ED120ABDEEC40A80ED130ABDEC088BFA
:104EF00070BD0000C8010020C6010020CA010020CA
:104F000050090020680000201E09002070470000A2
:104F10000146002008E04A78C0F107031A4102F078
:104F200001030A4A1354401C0428F4DB002009E062
:104F30004A78C0F103031A4102F00102034B1B1F20
:104F40001A54401C0428F3DB70470000200700209F
:104F5000014609B1012000E00020234A5043C0F17E
:104F60001E00224A906309B1012000E000201E4A81
:104F70005043C0F11E001D4AD0631046806AD26AB9
:104F8000024409B1012000E00020174B5843C0F152
:104F90001E00022303FB1020002810DD1348806A46
:104FA000124AD26A024409B1012000E000200E4BEF
:104FB0005843C0F11E00022303FB10200EE00B48F3
:104FC000806A0A4AD26A024409B1012000E0002046
:104FD000054B5843C0F11E00C2EB40001E2801DA09
:104FE000012070470020FCE78BFBFFFFA009002099
:104FF000014609B1012000E00020234A5043C0F1DE
:105000001E00224A106309B1012000E000201E4A60
:105010005043C0F11E001D4A50631046006A526A98
:10502000024409B1012000E00020174B5843C0F1B1
:105030001E00022303FB1020002810DD1348006A25
:10504000124A526A024409B1012000E000200E4BCE
:105050005843C0F11E00022303FB10200EE00B4852
:10506000006A0A4A526A024409B1012000E00020A5
:10507000054B5843C0F11E00C2EB40001E2801DA68
:10508000012070470020FCE78BFBFFFFA0090020F8
:105090000CB50020019000903448006840F4803046
:1050A0003249086000BF3148006800F400300090C9
:1050B0000198401C0190009818B90198B0F5A06FB4
:1050C000F1D12A48006800F4003010B101200090AE
:1050D00001E0002000900098012846D1234840308C
:1050E000006840F080502149403108602048006845
:1050F00040F480401E4908601C48083000681B4985
:10510000083108600846006840F40040086008461E
:10511000006840F4A05008601648091F0860081F86
:10512000006840F08070091F086000BF0F480068E9
:1051300000F000700028F9D040F205600E490860C8
:105140000A480830006820F0030008490831086068
:105150000846006840F00200086000BF03480830BD
:10516000006800F00C000828F8D10CBD003802409F
:105170000070004008544007003C0240014908709C
:1051800070470000E80100200149087070470000E6
:105190004E00002010B5224B1B685B1C204C236086
:1051A000137BD47A43EA04231BB28B80947B537B1A
:1051B00044EA03231BB20B828B898C881B1B1BB216
:1051C000CB81B1F90E3041F25454A34204DD8B6817
:1051D00003F500538B6008E0B1F90E30114CA34287
:1051E00003DA8B68A3F500538B60B1F904408B6838
:1051F00023444FF47A7493FBF4F30B608B888B8118
:1052000091ED000AB8EEC00ADFED070A80EE201A21
:10521000BCEEC10A10EE103A1BB2438010BD000074
:1052200040050020ACEAFFFFA69B444300B52048A0
:10523000007C012808D11F48007828B91E48008842
:10524000401C00B21C4908801C480078032809D182
:105250001748407A022805D117480088C01C00B2C0
:1052600015490880144AB2F90210B2F90000114A37
:10527000127802F017F8124908800D48007C0D4999
:1052800008700B48407A0D4908700B48B0F90000CF
:1052900000EE100AB8EEC00ADFED0A0A20EE200A7E
:1052A000054880ED020A0849FFF730F900BD00000B
:1052B000000700204F050020200A00204E05002096
:1052C00038050020A69B44433C0A002010B5FFF798
:1052D000ADFF2F4890ED020ABDEEC00A2D4880EDCB
:1052E000050A90ED001AB8EEC11AF0EE410A90EDF1
:1052F000051AB8EEC11AB0EE410A2748FEF7C0FD04
:10530000BDEEC00A10EE100A00B2224908832348FD
:105310000078032816D12248407A012812D121486A
:10532000007808B9012000E000201E4908700846F6
:105330000078A0EB001000EB80000001C0F5487081
:10534000194908801348B0F9100001EE100AB8EEB0
:10535000C11AF0EE410A0F48B0F9180001EE100A28
:10536000B8EEC11AB0EE410A1048FEF789FD0948AF
:1053700080ED070A0C4800880D4908600A4800883B
:10538000091D08600648407A0449087010BD0000F5
:10539000200A00203C0A0020A00400204405002030
:1053A000000700204505002026050020E20400201B
:1053B0003C04004010B58C7B4B7B44EA03231AB2BB
:1053C000026010BD7047000010B51548006840F439
:1053D0007000134908601348006840F0010011494B
:1053E000086000200F49083108600E4800680E4927
:1053F00008400C4908600D48091D0860081F006836
:1054000020F48020091F0860002006490C31086044
:10541000FFF73EFE4FF0006001498039086010BD83
:1054200088ED00E000380240FFFFF6FE1030002457
:105430001FB501211020FFF7EDF836208DF8000090
:1054400001208DF801008DF802008DF803006846F8
:10545000FEF712FC5320ADF804000020ADF8060062
:10546000ADF80C004FF47A70029001A9014800F0E9
:10547000ADF91FBD0010004010B50121074800F034
:105480003FF848B10121054800F02BF801210348FD
:1054900000F024F8FCF7FEFB10BD000000100040F7
:1054A00010B50121064800F01FF8012211460448FA
:1054B00000F037F80121024800F010F810BD00009C
:1054C0000010004021B1028842F08002028004E016
:1054D00002884FF67F731A4002807047CA430282E7
:1054E0007047CA430282704721B1028842F001022C
:1054F000028004E002884FF6FE731A400280704773
:1055000030B50246002000230024158A05EA010375
:10551000958905EA010413B10CB1012000E00020D7
:1055200030BD1AB183890B43838102E083898B43A9
:105530008381704770B5002400220023058C4FF64C
:10554000FE7635400584028C8388048B4FF68F7578
:105550002C40B51E2C400D882C43751E2A408D8989
:105560002A434D882A43104DA84202D00F4DA8422D
:1055700013D14FF6F7752A40CD892A434FF6FB75B4
:105580002A408D882A434FF6FF652B404FF6FF5582
:105590002B400D8A2B434D8A2B43838004838D68D7
:1055A0004563028470BD000000000140000401401A
:1055B0000A460021018B4FF6F7731940114301830E
:1055C0007047000070B5002400220023058C4FF6C0
:1055D000EF7635400584028C8388048B48F6FF758E
:1055E0002C404FF6FF452C400D884FF6FF7606EA1B
:1055F00005252C434FF6DF752A408D8906EA0515EF
:105600002A434D8806EA05152A43154DA84202D0C3
:10561000144DA8421DD14FF67F752A40CD894FF613
:10562000FF7606EA05152A434FF6BF752A408D8896
:1056300006EA05152A434FF6FF352B404FF2FF755A
:105640002B400D8A06EA85052B434D8A06EA85051F
:105650002B43838004838D688563028470BD0000C2
:1056600000000140000401400A460021018B4FF276
:10567000FF7319404FF6FF7303EA022319430183B6
:105680007047000070B5002400220023058C4FF6FF
:10569000FF6635400584028C8388848B4FF68F75B6
:1056A0002C404FF6FC752C400D882C434FF6FF55CF
:1056B0002A408D894FF6FF7606EA05252A434D8854
:1056C00006EA05252A43154DA84202D0144DA842EA
:1056D0001DD14FF2FF752A40CD894FF6FF7606EABD
:1056E00005252A434FF6FF352A408D8806EA052511
:1056F0002A434EF6FF752B404DF6FF752B400D8A61
:1057000006EA05152B434D8A06EA05152B438380CF
:1057100084838D68C563028470BD00000000014071
:10572000000401400A460021818B4FF6F7731940AF
:10573000114381837047000070B5002200230024CC
:10574000058C4EF6FF7635400584038C8488828B69
:1057500048F6FF752A404FF6FF452A400D884FF660
:10576000FF7606EA05252A434DF6FF752B408D8905
:1057700006EA05352B434D8806EA05352B430A4DCD
:10578000A84202D0094DA84208D14BF6FF752C4023
:105790000D8A4FF6FF7606EA85152C4384808283B6
:1057A0008D680564038470BD000001400004014061
:1057B0000A460021818B4FF2FF7319404FF6FF73A9
:1057C00003EA022319438183704700000022028804
:1057D000184B98420ED0184B98420BD0B0F1804F26
:1057E00008D0164B984205D0154B984202D0154B65
:1057F000984204D14FF68F731A404B881A43124BCC
:10580000984207D0114B984204D04FF6FF431A40FC
:105810000B891A4302804B68C3620B880385054BD2
:10582000984202D0044B984201D18B7A038601231F
:1058300083827047000001400004014000040040E2
:1058400000080040000C0040001000400014004020
:1058500010B5C02445480088A0F58060002804DD0C
:1058600042480088A0F5806003E040480088C0F509
:10587000806040F29621884201DC012000E0002097
:1058800004433A484088A0F58060002804DD37488A
:105890004088A0F5806003E034484088C0F580600F
:1058A00040F29621884201DC012000E0002044EA19
:1058B00040042E488088A0F58060002804DD2B4835
:1058C0008088A0F5806003E028488088C0F580606B
:1058D00040F29621884201DC012000E0002044EAE9
:1058E00080042248C088A0F58060002804DD1F489D
:1058F000C088A0F5806003E01C48C088C0F58060C7
:1059000040F29621884201DC012000E0002044EAB8
:10591000C0041648007A012807D01448007A0228EB
:1059200003D01248007A032801D1012000E00020B2
:1059300044EA00140D48407A012807D00B48407A09
:10594000022803D00948407A032801D1012000E051
:10595000002044EA4014FF2C07D00920FFF70EFC7A
:10596000142202490248FAF7A0FC10BD00070020EB
:105970000C0A002010B596B0044601210220FEF763
:1059800039FE01211020FEF765FE072211463F482F
:10599000FCF786FF14A8FCF7B3FF802014900220C8
:1059A0008DF8540001208DF8570002208DF8550025
:1059B00000208DF8560014A93448FCF729FF34481C
:1059C00000F0FAF910A800F020FB324810900020F7
:1059D000ADF84400ADF846004FF48060ADF84800E3
:1059E0000420ADF84A000020ADF84C0010A928486A
:1059F00000F098FA0121264800F0C8F90122402160
:105A0000234800F0CFF92448FCF75AFB0121880510
:105A1000FEF7F0FD4FF0006000901D48001D019062
:105A20001E48029000200390122004900020059050
:105A30004FF4806006900020079008904FF480702B
:105A400009904FF440300A9000200B900C900D907C
:105A50000E9069461048FCF755FC012210210E48B3
:105A6000FCF732FC01210C48FCF71EFB3A208DF8B4
:105A70003C0000208DF83D008DF83E0001208DF89F
:105A80003F000FA8FEF7F8F816B010BD0004024062
:105A900000100140A0860100406402406007002021
:105AA00010B596B0044601210220FEF7A3FD0121A6
:105AB0004805FEF79FFD01218804FEF7ABFD072294
:105AC0000A214348FCF7ECFE07220B214048FCF773
:105AD000E7FE4FF44060149002208DF8540000203F
