:020000040800F2
:1000000090150020690200088F5C00083943000841
:10001000F1570008F5110008639000080000000087
:10002000000000000000000000000000257700082C
:10003000053A000800000000D96D0008E17F0008C3
:10004000830200088302000883020008830200087C
:10005000830200088302000883020008830200086C
:100060008302000883020008B13D000883020008F3
:100070008302000883020008830200088536000816
:10008000830200088302000883020008830200083C
:100090009D14000883020008830200088302000800
:1000A000830200088302000883020008830200081C
:1000B000830200088302000883020008830200080C
:1000C00083020008830200088302000883020008FC
:1000D000830200088302000883020008318C0008B4
:1000E00083020008830200088302000883020008DC
:1000F00083020008830200088302000883020008CC
:1001000083020008830200088302000883020008BB
:100110009189000883020008958000088302000886
:100120008302000883020008893600088302000861
:10013000830200088302000883020008830200088B
:100140007517000883020008830200088302000874
:10015000830200088302000883020008DD8C000887
:10016000830200088302000883020008830200085B
:10017000830200088302000883020008830200084B
:10018000830200088302000800F002F800F05CF827
:100190000AA090E8000C82448344AAF10107DA45E2
:1001A00001D100F051F8AFF2090EBAE80F0013F0D8
:1001B000010F18BFFB1A43F001031847DCCC000005
:1001C000FCCC00000A444FF0000C10F8013B13F087
:1001D000070408BF10F8014B1D1108BF10F8015BA0
:1001E000641E05D010F8016B641E01F8016BF9D193
:1001F00013F0080F1EBF10F8014BAD1C0C1B09D1EA
:100200006D1E58BF01F801CBFAD505E014F8016B5B
:1002100001F8016B6D1EF9D59142D6D370470000ED
:100220000023002400250026103A28BF78C1FBD8FF
:10023000520728BF30C148BF0B6070471FB50CF094
:10024000C8FA1FBD10B510BD00F0E4F81146FFF765
:10025000F5FF0BF057FB00F002F903B4FFF7F2FFD4
:1002600003BC0BF0C9F90000094880470948004762
:10027000FEE7FEE7FEE7FEE7FEE7FEE7FEE7FEE756
:10028000FEE7FEE704480549054A064B70470000B3
:10029000E57F000889010008900F002090150020DC
:1002A00090110020901100207047032A40F2308006
:1002B00010F0030C00F0158011F8013BBCF1020FA7
:1002C000624498BF11F801CB00F8013B38BF11F828
:1002D000013BA2F1040298BF00F801CB38BF00F83F
:1002E000013B11F0030300F05B80083AC0F0088086
:1002F00051F8043B083A51F804CBA0E80810F5E7A0
:10030000121D5CBF51F8043B40F8043BAFF3008082
:10031000D20724BF11F8013B11F801CB48BF11F8F7
:10032000012B24BF00F8013B00F801CB48BF00F8C7
:10033000012B70474FF0000200B5134694469646D5
:10034000203922BFA0E80C50A0E80C50B1F12001E8
:10035000BFF4F7AF090728BFA0E80C5048BF0CC096
:100360005DF804EB890028BF40F8042B08BF7047F4
:1003700048BF20F8022B11F0804F18BF00F8012B66
:100380007047704770477047704710B500F03AF8F3
:10039000006810BD10B5044600F034F8046010BDCC
:1003A00010B5203AC0F00B80B1E81850203AA0E810
:1003B0001850B1E81850A0E81850BFF4F5AF5FEA44
:1003C000027C24BFB1E81850A0E8185044BF18C9F7
:1003D00018C0BDE810405FEA827C24BF51F8043B9E
:1003E00040F8043B08BF7047D20728BF31F8023BF2
:1003F00048BF11F8012B28BF20F8023B48BF00F886
:10040000012B7047004870472C0F002000487047B0
:100410002C0F00207546FFF7F9FFAE460500694630
:10042000534620F00700854618B020B5FFF72AFF95
:10043000BDE820404FF000064FF000074FF00008E5
:100440004FF0000B21F00701AC46ACE8C009ACE866
:10045000C009ACE8C009ACE8C0098D467047044645
:10046000AFF300802046FFF7F8FE000070B50546A8
:100470000C4600260DB1022C00D870BDA11E064806
:100480000288284603F02CFF0646A01E2E54310A8F
:10049000601E295400BFF0E75000002070B50546EB
:1004A0000C4600260DB1022C00DC70BD601E81B22E
:1004B000FF22284603F02EFF0646601E2E5400BF82
:1004C000F3E7000000B5002007F09CFB012007F0D7
:1004D000DFF9002007F084F900204F49088001204F
:1004E00007F0D6F9012871D1002007F079F9012829
:1004F000F9D14A48006818B9494800684749086076
:100500004748006845490968401AB0F5C87F07D2D6
:100510006FF09F004349088000203F49088011E0A8
:100520003F4800683D490968401AB0F5C87F09D9BD
:100530003A48006830B16FF059003A49088000200D
:10054000354908803848007850B93748407838B97C
:100550006FF009003349088000202F49088022E00D
:100560003148007801280ED12F48407858B9012031
:1005700007F048FB6FF009002A4908806FF01D0062
:10058000254908800FE02848007860B9264840785F
:10059000012808D107F036FB6FF0090021490880D7
:1005A0001E201D4908802048807901280FD11E484F
:1005B000C07901280BD16FF027001A49088000206C
:1005C0001549088015490860012000BD22E0164841
:1005D000807970B91448C07901280AD107F012FB5C
:1005E0006FF027000F4908806FF01D000A4908804E
:1005F00010E00D48807901280CD10B48C07948B92A
:10060000012007F0FFFA6FF02700064908801E203E
:10061000014908800020D8E7FE0100208800002062
:1006200058040020FA010020580E002010B50120C7
:100630003D4908723D490870002013E09FED3C0AD7
:1006400010EE101A00EB40123A4B03EB42025160DD
:100650009FED390A10EE101A00EB401203EB420234
:100660001162401C0428E9DB01202F49087033483F
:100670000078062856D2DFE800F0030A121A222A70
:1006800000F0E6F8012801D12C4908704AE0FFF794
:1006900019FF012802D102202849087042E000F029
:1006A00053F8012802D10320244908703AE000F0F1
:1006B00071F9012802D104202049087032E0FFF7C7
:1006C00001FF012802D105201C4908702AE000F032
:1006D0003BF8012825D1002013490872042007F0B7
:1006E0008BFA0020154908700F49087000BF13E00D
:1006F0009FED130A10EE101A00EB40120D4B03EBA6
:10070000420251609FED0F0A10EE101A00EB4012EA
:1007100003EB42021162401C0428E9DB012007F0D0
:1007200071FA00BF00BF10BD620E0020000800205B
:100730003E0AD73D9C0000206E43D1477000002048
:10074000295C0F3D49828B4700B53B48006818B9CA
:100750003A480068384908603848006836490968EE
:10076000401AB0F5E17F64D9002007F04BFA002071
:1007700007F08EF8002007F033F800203049088099
:1007800007F086F8012828D1002007F029F8012871
:1007900023D12C48006850B92848006829490860CE
:1007A0006FF06D0028490880002025490880234803
:1007B000006824490968401A40F27621884238D9F5
:1007C0006FF027002049088000201D4908801D493E
:1007D000086019490860012000BD1C48007850B924
:1007E0001A48407838B96FF0270017490880002070
:1007F000134908801DE01548007801280BD11348E3
:10080000407840B96FF027000F4908806FF01D0055
:100810000B4908800DE00D48007850B90B4840782E
:10082000012806D16FF02700074908801E200449DF
:1008300008800020D0E7000090000020580400202D
:10084000FE0100208C000020FA010020580E00203C
:1008500000B5002007F0D6F9012007F019F80120B3
:1008600006F0BEFF002048490880012007F010F87C
:10087000012803D106F0B4FF012807D06FF045002E
:100880004249088000204049088006E06FF06D0072
:100890003E49088000203C490880012006F0F8FF0E
:1008A00001280DD13A48807850B93948C07838B914
:1008B0006FF00900354908800020334908802CE09A
:1008C000012006F0E5FF012812D131488078012887
:1008D0000ED12F48C07858B9012007F093F96FF076
:1008E00009002A4908806FF01D002749088014E09C
:1008F000012006F0CDFF01280FD12548807860B98E
:100900002348C078012808D107F07CF96FF009006E
:100910001E4908801E201C4908801D48007A0128B5
:100920000CD11B48407A012808D16FF027001749E5
:100930000880002014490880012000BD1448007A76
:1009400070B91348407A01280AD107F05BF96FF0BB
:1009500027000E4908806FF01D000B49088010E049
:100960000B48007A01280CD10948407A48B9012087
:1009700007F048F96FF02700044908801E2002495B
:1009800008800020D9E70000FE010020FA010020C5
:10099000580E002000B5002007F034F9012006F0C1
:1009A00077FF012006F01CFF002048490880012045
:1009B00006F06EFF012803D106F012FF012807D0D0
:1009C0006FF045004249088000204049088006E059
:1009D0006FF06D003E49088000203C4908800120EE
:1009E00006F056FF01280DD13A48807850B93948B1
:1009F000C07838B96FF009003549088000203349C4
:100A000008802CE0012006F043FF012812D1314874
:100A1000807801280ED12F48C07858B9012007F0FE
:100A2000F1F86FF009002A4908806FF01D0027498E
:100A3000088014E0012006F02BFF01280FD1254883
:100A4000807860B92348C078012808D107F0DAF827
:100A50006FF009001E4908801E201C4908801D48AF
:100A6000007A01280CD11B48407A012808D16FF088
:100A7000270017490880002014490880012000BD84
:100A80001448007A70B91348407A01280AD107F057
:100A9000B9F86FF027000E4908806FF01D000B4970
:100AA000088010E00B48007A01280CD10948407AF0
:100AB00048B9012007F0A6F86FF027000449088024
:100AC0001E20024908800020D9E70000FE01002016
:100AD000FA010020580E002010B52DED028BB0EE6B
:100AE000408AD24890ED000AF7EE000A30EEC00AC4
:100AF000CF48D0ED000A20EE200ACC48D0ED000A05
:100B000008EE200ACA4880ED000A03F0E3FB04283F
:100B100071D1C84890F820000128F9D1C648007862
:100B20000028F5D1C548007820B1012842D002281C
:100B30003FD1D9E01E20C249086348638863C86377
:100B4000BB4890ED000AF2EE000AB4EEE00AF1EEC6
:100B500010FA0BDDBB4800884FF6FE71884205DABB
:100B6000B8480088401CB749088018E0B04890EDAC
:100B7000000AFAEE000AB4EEE00AF1EE10FA0BD227
:100B8000B04800884FF6FE71884205DAAD4800880B
:100B9000401CAC49088002E00020AA490880A9480E
:100BA0000088642805DD0120A44908700020A549BB
:100BB0000880DEE09E4890ED000AB5EEC00AF1EE36
:100BC00010FA30DD9E48006B1E2815DC9C4890ED25
:100BD0000A0AB8EEC00A9648D0ED000AB2EE081A2A
:100BE00000EE810ABDEEC00A954880ED0E0A806BCA
:100BF0009349C86346E0BDE0914890ED080AB8EE1D
:100C0000C00A8B48D0ED000AF1EE600AB2EE081A75
:100C100000EE810ABDEEC00A894880ED0C0A006B27
:100C2000874948632EE08648806B1E2816DC84487E
:100C300090ED080AB8EEC00A7D48D0ED000AF1EE4A
:100C4000600AB2EE081A00EE810ABDEEC00A7C48C6
:100C500080ED0C0A006B7A49486313E0784890ED08
:100C60000A0AB8EEC00A7248D0ED000AB2EE081ABD
:100C700000EE810ABDEEC00A714880ED0E0A806B5D
:100C80006F49C8636A4890ED000AB5EEC00AF1EEFC
:100C900010FA02DD90ED000A04E0654890ED000ACC
:100CA000B1EE400ADFED680AB4EEE00AF1EE10FAA8
:100CB0000BD2664800884FF6FE71884205DA634819
:100CC0000088401C6149088002E000205F490880DC
:100CD0005E480088B0F5967F05DD02205749087010
:100CE00000205A49088044E0514890ED000AB5EED2
:100CF000C00AF1EE10FA02DD90ED000A04E04C4863
:100D000090ED000AB1EE400AF1EE000AB4EEE00AFE
:100D1000F1EE10FA03DD0120484908701FE0484851
:100D2000006B4749896B401A002805DD4448006B79
:100D30004349896B401A04E04148806B4049096B84
:100D4000401AB0F5967F0ADA414800884FF6FE71E6
:100D5000884204DA3E480088401C3D4908803C48EF
:100D60000088962804DD002034490870384908803E
:100D700000BF00BF3248006B1E2801DA1E2001E0D0
:100D80002F48006B2E4908630846006B40F29241E1
:100D9000884201DD084601E02948006B28490863C4
:100DA0000846406B1E2801DA1E2001E02448406BF3
:100DB000234948630846406B40F29241884201DD76
:100DC000084601E01E48406B1D4948630846806B99
:100DD0001E2801DA1E2001E01948806B184988633B
:100DE0000846806B40F29241884201DD084601E0EE
:100DF0001348806B124988630846C06B1E2801DACD
:100E00001E2001E00E48C06B0D49C8630846C06B48
:100E100040F29241884201DD084601E00848C06B7B
:100E20000749C863BDEC028B10BD0000C407002059
:100E3000C0070020F80D002004050020B0070020A6
:100E40007C0B0020C8070020CDCC0C40CA07002036
:100E5000CC07002010B54FF4A06004F055FF03F05C
:100E600019FF05F0DFFD03F0F3FF104807F0ACFDBC
:100E70004FF4E13007F04CFF4FF4E13007F03AFE59
:100E80000AF002FE0AF03AFC4FF47A700AF0FEFB18
:100E900007F0DCF800F086FA00F0F0FB4FF4C860D1
:100EA0000AF0F4FB07F00AF910BD0000A08601006B
:100EB00000B5C6480068401CC44908600846006880
:100EC000142855D100200860C148C288C149C248D1
:100ED00003F034FAC1484078C0490870C048807CAB
:100EE0004870084640780978401A002840DDBB4821
:100EF0004078BA490978401A00EE100AB8EEC00AE4
:100F0000B84880ED000A90ED000ADFEDB70A80EEE8
:100F1000201AB64880ED001A90ED000AF7EE000A9C
:100F200030EE600AB5EEC00AF1EE10FA06DD90ED83
:100F3000000AF7EE000A30EE600A08E0AB4890EDD8
:100F4000000AF7EE000A30EE600AB1EE400AF6EE53
:100F5000000AB4EEE00AF1EE10FA0AD2A14890EDD0
:100F6000000A80ED000AA2480068401CA049086001
:100F70002AE19E4890ED000AF0EE000A30EE600A89
:100F8000B5EEC00AF1EE10FA06DD90ED000AF0EEC3
:100F9000000A30EE600A08E0944890ED000AF0EE96
:100FA000000A30EE600AB1EE400AF6EE000AB4EE36
:100FB000E00AF1EE10FA0ED28A4890ED000AF0EE47
:100FC000000A80EE201A80ED001A89480068801C13
:100FD00087490860F8E0854890ED000AF0EE080ABD
:100FE00030EE600AB5EEC00AF1EE10FA06DD90EDC3
:100FF000000AF0EE080A30EE600A08E07B4890ED47
:10100000000AF0EE080A30EE600AB1EE400AF6EE91
:10101000000AB4EEE00AF1EE10FA0ED2714890ED3B
:10102000000AF0EE080A80EE201A80ED001A7048DF
:101030000068C01C6E490860C6E06C4890ED000A6C
:10104000F1EE000A30EE600AB5EEC00AF1EE10FAD9
:1010500006DD90ED000AF1EE000A30EE600A08E0CD
:10106000624890ED000AF1EE000A30EE600AB1EE3F
:10107000400AF6EE000AB4EEE00AF1EE10FA0ED2E3
:10108000584890ED000AF1EE000A80EE201A80ED3B
:10109000001A57480068001D5549086094E05348FD
:1010A00090ED000AF1EE040A30EE600AB5EEC00AD7
:1010B000F1EE10FA06DD90ED000AF1EE040A30EED2
:1010C000600A08E0494890ED000AF1EE040A30EEAB
:1010D000600AB1EE400AF6EE000AB4EEE00AF1EE64
:1010E00010FA0ED23F4890ED000AF1EE040A80EEAD
:1010F000201A80ED001A3E480068401D3C490860F7
:1011000062E03A4890ED000AF1EE080A30EE600A1B
:10111000B5EEC00AF1EE10FA06DD90ED000AF1EE30
:10112000080A30EE600A08E0304890ED000AF1EE5F
:10113000080A30EE600AB1EE400AF6EE000AB4EE9C
:10114000E00AF1EE10FA0ED2264890ED000AF1EE18
:10115000040A80EE201A80ED001A25480068801DE0
:101160002349086030E0214890ED000AF1EE0C0AB6
:1011700030EE600AB5EEC00AF1EE10FA06DD90ED31
:10118000000AF1EE0C0A30EE600A08E0174890ED14
:10119000000AF1EE0C0A30EE600AB1EE400AF6EEFB
:1011A000000AB4EEE00AF1EE10FA0DD20D4890ED0F
:1011B000000AF1EE040A80EE201A80ED001A0C48B5
:1011C0000068C01D0A49086000BD000088080020B2
:1011D0002700002098080020940800209C08002088
:1011E000EB0A00208C08002000002042900800201C
:1011F0008408002000BFFEE7C178012903D10188DF
:10120000491C018001E00021018001880A290EDDCE
:101210000188B1F57A7F07DAC178012909D181788F
:1012200039B90121017104E00221017101E00021BD
:1012300001718178C170704710B5044622460021C3
:101240003A4800F0ECFC2068A0F20120062869D2A0
:10125000DFE800F00311223344562146344806F0FB
:10126000B7FE224633493248203005F0B9FD3248F6
:1012700004F0E5F957E021462D48001D06F0A8FED0
:1012800022462C4918312A48243005F0A9FD2A4865
:10129000801C04F0D4F946E021462548083006F0C9
:1012A00097FE2246234930312148283005F098FD29
:1012B0002148001D04F0C3F935E021461C480C30DC
:1012C00006F086FE22461B49483119482C3005F0AD
:1012D00087FD1948801D04F0B2F924E0207BE17AF3
:1012E00040EA012015494861A17B607B41EA00206A
:1012F00000B2124988611048001F04F0A0F912E002
:10130000207BE17A40EA01200C490860A17B607BE8
:1013100041EA002000B2094948600748801E04F0F5
:101320008EF900E000BF00BF10BD00000064004067
:101330007C0B0020380D0020E00400205006002027
:10134000F0B585B004460D4616461F464FF40070B2
:10135000009000208DF808008DF8090008208DF815
:101360000A00200A8DF80B00E1B28DF80C10290A52
:101370008DF80D10E9B28DF80E10310A8DF80F10AE
:10138000F1B28DF81010390A8DF81110F9B28DF8FC
:1013900012106946024800F0CAFC05B0F0BD00001A
:1013A0000064004000B58BB00121084605F062FEE4
:1013B0000121480605F06EFE09220B21354802F096
:1013C0004BFF09220C21334802F046FF4FF4C05076
:1013D000029002208DF80C0002A92E4802F0F4FEC3
:1013E00014208DF8040001208DF8050000208DF8F0
:1013F000060001208DF8070001A804F049FC2648EA
:1014000000F04AFA08A800F082FC00208DF82600BF
:101410008DF827008DF828008DF829008DF82A0016
:1014200001208DF82B0000208DF822008DF823007C
:1014300008208DF8240003208DF82500ADF8200049
:1014400008A9154800F061FB01208DF81A00002062
:101450008DF81B0001208DF81C000020ADF8100055
:10146000ADF81200ADF81400ADF81600ADF8180094
:1014700001208DF81D0004A800F02AFA01220221A3
:10148000054800F039FB01221146034800F034FB07
:101490000BB000BD000002400064004000B585B004
:1014A0000221064800F098FA30B10221034800F00A
:1014B0009FF96846FFF7C0FE05B000BD006400401C
:1014C00030B585B004460D4640F2FF100090002074
:1014D0008DF808008DF8090008208DF80A00200A10
:1014E0008DF80B00E1B28DF80C10290A8DF80D1063
:1014F000E9B28DF80E1000218DF80F108DF8101044
:101500008DF811108DF812106946024800F00FFC9A
:1015100005B030BD00640040F0B585B004460D460E
:1015200016461F464FF40070009000208DF808000A
:101530008DF8090008208DF80A00200A8DF80B00AC
:10154000E1B28DF80C10290A8DF80D10E9B28DF872
:101550000E10310A8DF80F10F1B28DF81010390A03
:101560008DF81110F9B28DF812106946024800F09A
:10157000DEFB05B0F0BD00000068004010B5044679
:1015800022460021344800F04AFB2068A0F20120E6
:1015900006285ED2DFE800F003112233444E2146D4
:1015A0002E4806F015FD22462D492C48203005F026
:1015B00017FC2C4804F043F84CE021462748001D56
:1015C00006F006FD2246264918312448243005F04D
:1015D00007FC2448801C04F032F83BE021461F48F9
:1015E000083006F0F5FC22461D4930311B482830F2
:1015F00005F0F6FB1B48001D04F021F82AE0214607
:1016000016480C3006F0E4FC2246154948311348D0
:101610002C3005F0E5FB1348801D04F010F819E0AC
:1016200022461149114806F0F3FA0E48143004F02E
:1016300006F80FE00E480088401C0D49088022463D
:101640000C490D4806F0E4FA0648163003F0F7FF9F
:1016500000E000BF00BF10BD006800401C0B002070
:10166000980D0020D40400201C0C0020FC0B00204E
:101670003A0200205C0C00203C0C002000B58BB02E
:101680000121022005F0F6FC0121880605F002FD8B
:1016900009220C21354802F0DFFD09220D213348D3
:1016A00002F0DAFD4FF44050029002208DF80C0059
:1016B00002A92E4802F088FD40208DF80400012088
:1016C0008DF8050000208DF8060001208DF8070038
:1016D00001A804F0DDFA264800F0DEF808A800F0C2
:1016E00016FB00208DF826008DF827008DF82800C5
:1016F0008DF829008DF82A0001208DF82B0000209C
:101700008DF822008DF8230008208DF82400032096
:101710008DF82500ADF8200008A9154800F0F5F96E
:101720000E208DF81A0000208DF81B0001208DF886
:101730001C000020ADF81000ADF81200ADF8140048
:10174000ADF81600ADF8180001208DF81D0004A8B2
:1017500000F0BEF801220221054800F0CDF9012277
:101760001146034800F0C8F90BB000BD0004024068
:101770000068004000B585B00221064800F02CF951
:1017800030B10221034800F033F86846FFF7F6FE57
:1017900005B000BD0068004030B585B004460D4678
:1017A00040F2FF10009000208DF808008DF809002D
:1017B00008208DF80A00200A8DF80B00E1B28DF8A0
:1017C0000C10290A8DF80D10E9B28DF80E100021C9
:1017D0008DF80F108DF810108DF811108DF8121073
:1017E0006946024800F0A3FA05B030BD0068004029
:1017F000B1F5007F3AD00FDC202928D006DC012982
:101800001CD004291DD0082940D11DE0402921D039
:10181000B1F5807F3AD126E0B1F5004F31D006DC3A
:10182000B1F5806F25D0B1F5006F2FD124E0B1F56F
:10183000803F12D0B1F5003F28D111E0154A8260F7
:1018400025E00822C26022E01022C2601FE00822C8
:1018500002611CE01022026119E00822426016E0D9
:101860001022426013E00422426010E00422426031
:101870000DE0042242600AE00022826104224260FC
:1018800005E0002282610422426000E000BF00BF48
:10189000704700000101010010B504460B48844266
:1018A00009D10121480605F005FC00214FF0007028
:1018B00005F000FC08E00121880605F0FBFB002193
:1018C0004FF0806005F0F6FB10BD000000640040A2
:1018D00010B50021837A012202FA03F13D4A126811
:1018E00042F001023B4B1A603A4A1C3212688A43AA
:1018F000384B1C331A60027BCAB9364A0C32126864
:101900008A43344B0C331A604288C38842EA03434B
:10191000304A4032847A42F834300288838842EA7E
:1019200003432C4A4032847A02EBC4025360027BA8
:10193000012A19D1274A0C3212680A43254B0C336D
:101940001A604288038842EA0343224A4032847A7A
:1019500042F83430C288838842EA03431D4A403249
:10196000847A02EBC4025360C27A3AB9194A121D52
:1019700012688A43174B1B1D1A6006E0154A121D98
:1019800012680A43134B1B1D1A60028932B9114AAF
:10199000143212688A430F4B14331A600289012AE9
:1019A00006D10C4A143212680A430A4B14331A60E7
:1019B000427B012A06D1074A1C3212680A43054BB2
:1019C0001C331A60034A126822F00102014B1A60AC
:1019D00010BD00000066004070B504460D460026AC
:1019E00060692840002871D0B5F5807F5CD010DC9C
:1019F000082D35D006DC012D20D0022D24D0042D59
:101A000072D127E0102D31D0202D35D0402D6BD153
:101A100038E0B5F5004F60D009DCB5F5007F49D05E
:101A2000B5F5806F4CD0B5F5006F5DD14FE0B5F5E1
:101A3000803F2DD0B5F5003F56D12FE0A0682D494D
:101A400001F04CFC064651E0E068032101F046FC41
:101A500006464BE0E068082101F040FC064645E000
:101A6000E068102101F03AFC06463FE020690321BE
:101A700001F034FC064639E02069082101F02EFC13
:101A8000064633E02069102101F028FC06462DE0CF
:101A90006068082101F022FC064627E060681021FA
:101AA00001F01CFC064621E0A069012101F016FCB2
:101AB00006461BE0A069022101F010FC064615E075
:101AC000A069042101F00AFC06460FE00FE0A069BE
:101AD000702101F003FC064608E06068042101F073
:101AE000FDFB064602E0FFE7002600BF00E00026FF
:101AF000304670BD010101001AB143690B434361D7
:101B000002E043698B434361704730B502460020D1
:101B10000023146824F002041460146844F00104E3
:101B2000146000E05B1C546804F001041CB94FF61B
:101B3000FF74A342F6D1546804F001040CB90020EC
:101B40006CE08C79012C04D1146844F0800414609A
:101B500003E0146824F080041460CC79012C04D1D3
:101B6000146844F04004146003E0146824F0400456
:101B700014600C7A012C04D1146844F02004146021
:101B800003E0146824F0200414604C7A012C04D182
:101B9000146844F01004146003E0146824F0100486
:101BA00014608C7A012C04D1146844F00804146089
:101BB00003E0146824F008041460CC7A012C04D1EA
:101BC000146844F00404146003E0146824F004046E
:101BD00014608C78A407CD7844EA05640D7944EA52
:101BE00005444D7944EA05540D886D1E2C43D4619B
:101BF000146824F001041460002300E05B1C5468A6
:101C000004F001041CB14FF6FF74A342F6D15468EE
:101C100004F001040CB1002000E0012030BD10B53B
:101C200000F5D87303EB01131B6803F00403137270
:101C3000137A53B900F5D87303EB01131B6840F214
:101C4000FF7404EA5353136009E000F5D87303EB03
:101C500001131B686FF0604404EAD303536000F57E
:101C6000D87303EB01131B6803F00203537200F5F2
:101C7000D87303EB01135B6803F00F03937200F555
:101C8000D87303EB01135B681B0AD37400F5D87398
:101C900003EB01139B68D37200F5D87303EB0113B8
:101CA0009B681C0A147300F5D87303EB01139B683F
:101CB0001C0C547300F5D87303EB01139B681B0EC7
:101CC000937300F5D87303EB0113DB68D37300F54E
:101CD000D87303EB0113DB681C0A147400F5D87386
:101CE00003EB0113DB681C0C547400F5D87303EB91
:101CF0000113DB681B0E937421B9C36843F0200302
:101D0000C36003E0036943F02003036110BD0021B9
:101D10008171C171017241728172C1728170C17031
:101D2000032101710221417101210180704710B529
:101D300002460020936803F08063B3F1806F00D106
:101D400010E0936803F00063B3F1006F01D101204C
:101D500008E0936803F08053B3F1805F01D1022063
:101D600000E00420042874D002F5C07303EB0013D4
:101D70001B6803F0010402F5C07303EB00131C6041
:101D80000B7A7BB94B7A0C8843EA445302F5C07452
:101D900004EB00142468234302F5C07404EB001420
:101DA000236010E00B7A4C6843EAC4034C7A234367
:101DB00002F5C07404EB00142468234302F5C074D8
:101DC00004EB001423608B7A03F00F038B7202F58F
:101DD000C07303EB00135B6823F00F0402F5C073BC
:101DE00003EB00135C6002F5C07303EB00135B6848
:101DF0008C7A234302F5C07404EB001463608B7B80
:101E00001C064B7B44EA03440B7B44EA0323CC7A55
:101E1000234302F5C07404EB0014A3608B7C1C0602
:101E20004B7C44EA03440B7C44EA0323CC7B2343EE
:101E300002F5C07404EB0014E36002F5C07303EB19
:101E400000131B6843F0010402F5C07303EB001399
:101E50001C6010BDDFED0D0AB4EEE00AF1EE10FAE1
:101E600004DDDFED0A0AC0ED000A0DE0DFED080A2F
:101E7000B4EEE00AF1EE10FA04D2DFED050AC0ED8F
:101E8000000A01E080ED000A704700000000AF4545
:101E90000000C8C436480068C0F52A6001EE100A88
:101EA000B8EEC11AB0EE410A3148406931490968BB
:101EB000081A01EE100AB8EEC11AF0EE410A9FEDC1
:101EC0002E1A20EE011A9FED2D2AC1EE021A2C487F
:101ED00090ED031AB1EE411A31EE611A294880EDF6
:101EE000001A274890ED041AF0EE081A31EE611A34
:101EF000244880ED011A9FED201A20EE811ADFEDB3
:101F00001F1A81EE212A1E4890ED051A32EE011AA1
:101F10001C4880ED021A90ED021ADFED1B1AB4EE98
:101F2000E11AF1EE10FA06DD90ED021ADFED121A59
:101F300031EE611A02E0134890ED021A114880ED6B
:101F4000021A90ED021ADFED111AB4EEE11AF1EE69
:101F500010FA06D290ED021ADFED071A31EE211ABF
:101F600002E0084890ED021A064880ED021A704718
:101F7000500600204C0600200000B443000000463C
:101F8000140F0020DC0B002000003443000034C399
:101F900070B52DED0A8B02F09DF9072806D002F0EE
:101FA00099F9082802D00020FE49087002F092F941
:101FB000042817D1002013E09FEDFB0A10EE101A41
:101FC00000EB4012F94B03EB420251609FEDF80A1F
:101FD00010EE101A00EB401203EB42021162401C9B
:101FE0000428E9DB02F076F9002843D002F072F908
:101FF00002283FD0EF48C07C10B9EE48807C18B171
:102000000120ED49087035E0EA480088A0F58060BD
:10201000002804DDE7480088A0F5806003E0E5487B
:102020000088C0F58060032821DCE2484088A0F5E4
:102030008060002804DDDF484088A0F5806003E070
:10204000DC484088C0F58060032810DCD9488088CF
:10205000A0F58060002804DDD6488088A0F5806067
:1020600003E0D4488088C0F58060032802DD0020AA
:10207000D1490870D048007810B905F0F1F807E0B0
:10208000CD480078012803D1CC49CD4803F074FF36
:1020900002F020F9052845D140F6F610C949097823
:1020A00011B1012936D11AE0A0F54371C64A116079
:1020B000C64949691268511A002905DDC3494969B1
:1020C000C14A1268511A04E0C0494969BE4A1268FF
:1020D000891A372902DA0121BA4A11701AE000F58B
:1020E0004371B94A1160B94949691268511A002906
:1020F00005DDB6494969B44A1268511A04E0B3498A
:102100004969B14A1268891A372902DA0021AD4AB1
:10211000117000BF00BF9FEDAE0A10EE101AAD4A5D
:10212000116009E040F6F610A74908609FEDA80A83
:1021300010EE100AA7490860A44890ED080AA648C6
:10214000D0ED050AB2EE041A00EEC10ADFEDA30AD3
:10215000B4EEE00AF1EE10FA22DD9C48D0ED080A58
:102160009D4890ED051A9FED9E0AF2EE041A01EECD
:10217000210A30EEC00ADFED9B0A20EE200A9FED17
:10218000981AC0EE010A914890ED050AB8EEC00A0F
:1021900030EE800ABDEEC00A934880ED000A51E09F
:1021A0008A4890ED080A8C48D0ED050AB2EE041A70
:1021B00000EEC10ADFED8D0AB4EEE00AF1EE10FA8E
:1021C00022D28248D0ED080A834890ED051A9FED8F
:1021D000840AF2EE041A11EE210A30EEC00ADFED95
:1021E000810A20EE200A9FED7E1AC0EE010A774890
:1021F00090ED050AB8EEC00A30EE800ABDEEC00AC6
:10220000794880ED000A1DE0704890ED080A724898
:10221000D0ED050AB2EE041A00EEC10ADFED710A34
:1022200020EE200A9FED6E1AC0EE010A674890ED7D
:10223000050AB8EEC00A30EE800ABDEEC00A6A4850
:1022400080ED000A02F046F8042803D002F042F8BC
:10225000052806D16648007818B90120654908703C
:102260001DE002F037F8072803D002F033F8082801
:1022700006D16148007818B901205E4908700EE067
:1022800002F028F8092803D15C480078012803D01F
:1022900057480078012802D1002056490870584854
:1022A000007854490978884204D0002055490880B4
:1022B000414908704F480078514908704D480078EE
:1022C00001286DD13B488088A0F58060002804DD9E
:1022D00038488088A0F5806003E036488088C0F5E3
:1022E0008060282813DA3948406937490968081A94
:1022F000002805DD3548406933490968081A04E0BB
:102300003248406930490968401AB42803DB01F0BB
:10231000E1FF092845D12D4840692B490968081A71
:10232000B0F5805F27DD2948406900F5005000EED8
:10233000100AB8EEC00AF0EE400A2648224991ED94
:10234000000AB8EEC00A04F0E7F8BDEEC00A10EECD
:10235000100A00B22B4908801C48406900F5005063
:1023600019490968081A00EE100AB8EEC00A264892
:1023700080ED000A07E11548406913490968081A09
:1023800010F5805F5EDA11484069A0F5005000EE5C
:10239000100AB8EEC00AF0EE400A0E480A4935E0CD
:1023A000F8E072E0620E0020295C0F3D9C000020E6
:1023B00049828B47580800201C020020FC010020A5
:1023C000FA0100201E0200204C06002050060020CA
:1023D00085EB113FA4010020140F00200000E14410
:1023E00000006145000000460C0200200000E1C42E
:1023F0000708002000020020780000208807002045
:102400001D020020FE0100200402002091ED000AC0
:10241000B8EEC00A04F080F8BDEEC00A10EE100A53
:1024200000B2FE490880FE484069A0F50050FD4911
:102430000968081A00EE100AB8EEC00AFA4880EDE2
:10244000000AA0E0F64890ED050AB8EEC00AF0EEEA
:10245000400AF648F34991ED000AB8EEC00A04F0CC
:102460005BF8BDEEC00A10EE100A00B2EB4908801E
:10247000EB484069EB490968081A00EE100AB8EE0B
:10248000C00AE94880ED000A7DE0E6480068E849B6
:102490000968401AB0F5805F25DDE448E449096821
:1024A00001F5005100EE101AF8EEC00ADD4991ED79
:1024B000000AB8EEC00A04F02FF8BDEEC00A10EE14
:1024C000100A00B2D5490880D6480168D84800688B
:1024D00000F50050081A00EE100AB8EEC00AD24803
:1024E00080ED000A4FE0CF480068D1490968401AE2
:1024F00010F5805F27DACE480068A0F5005000EEA6
:10250000100AB8EEC00AF0EE400AC848C54991ED7D
:10251000000AB8EEC00A03F0FFFFBDEEC00A10EEDD
:10252000100A00B2BD490880C1480068A0F50050FB
:10253000BC490968081A00EE100AB8EEC00ABA4889
:1025400080ED000A1FE0B948B94991ED000AF8EEA4
:10255000C00AB44991ED000AB8EEC00A03F0DCFFEE
:10256000BDEEC00A10EE100A00B2AC490880AD48BA
:102570000068AF490968401A00EE100AB8EEC00AB8
:10258000A94880ED000AA548B0F9000009F036F826
:10259000A249088001F09EFE042803D001F09AFEB3
:1025A000092810D1A048D0ED000A1FED721A80EE64
:1025B000810AF0EE000A20EE200ADFED9E0A20EEEE
:1025C000200A80ED000A01F085FE042873D19448AA
:1025D000406994490968081A002805DD9048406957
:1025E00090490968081A04E08D4840698D490968D6
:1025F000401AC8285FDD9048B0F900509FED8F0A5F
:1026000010EE104A00208C490880874890ED000A9F
:10261000DFED8B0A20EE200A10EE104A20460AF069
:1026200067F841EC1B0BB0EE4B0AF0EE6B0A07F0BB
:10263000BBFCB0EE409AF0EE609A284609F0FBFC35
:1026400041EC1A0B53EC192B09F05CFD41EC180B13
:1026500009F0C2FC78490988084400B2764908802C
:1026600020460AF045F841EC1C0BB0EE4C0AF0EEA7
:102670006C0A08F019FBB0EE40AAF0EE60AA2846FA
:1026800009F0D9FC41EC1B0B53EC1A2B09F03AFD75
:1026900041EC190B9FED6B0B53EC102B09F032FD45
:1026A00041EC180B09F098FC68490988084400B20D
:1026B0006649088000BF01F00DFE05287DD15E4807
:1026C000B0F900405A48006840F6F611081AB0F513
:1026D000805F0CDD5648006800F50050081A00EED7
:1026E000100AB8EEC00A5A4880ED000A20E05048AF
:1026F000006840F6F611081A10F5805F0CDA4C48B5
:102700000068A0F50050081A00EE100AB8EEC00AE2
:102710004F4880ED000A0BE04548006840F6F6118E
:10272000081A00EE100AB8EEC00A494880ED000A07
:102730000020414908804648D0ED000A1FEDD71A15
:1027400080EE810AF0EE000A20EE200ADFED390A61
:1027500020EE200A80ED000A90ED000A10EE100A2B
:1027600009F0C6FF41EC180BB0EE480AF0EE680A1B
:1027700007F01AFCB0EE40AAF0EE60AA204609F07D
:102780005AFC41EC1B0B53EC1A2B09F0BBFC41EC3F
:10279000190B09F021FC28490988084400B2264990
:1027A00008802B4890ED000A10EE100A09F0A0FFF7
:1027B00041EC1C0BB0EE4C0A00E023E0F0EE6C0A9A
:1027C00008F072FAB0EE40AAF0EE60AA204609F0D6
:1027D00032FC41EC1B0B53EC1A2B09F093FC41EC3F
:1027E000190B9FED180B53EC102B09F08BFC41ECEF
:1027F000180B09F0F1FB15490988084400B2134988
:10280000088000BF01F066FD052842D1114890F80C
:10281000200001283DD101481EE00000FE010020FB
:10282000500600204C06002004020020A4010020D5
:102830000C020020DA0F4940FA01002000000000DD
:10284000CDCC4C3F000000000000F03FFC01002018
:1028500010020020F80D0020B0F9000000EE900AF0
:10286000F8EEE00AB0EE600ADFED7E0A80EE201A94
:10287000FDEEC10A10EE900A7B490988081A00B2E1
:102880007949088079480088153000B27749088076
:1028900000BF7648B0F900007349B1F90010084450
:1028A0007349B1F90010084400EB80004000714901
:1028B00008616E48B0F9000040426B49B1F9001060
:1028C00008446B49B1F90010084400EB8000400057
:1028D000684948616548B0F900006349B1F90010E2
:1028E000401A6349B1F90010084400EB8000400031
:1028F000604988615D48B0F9000040425A49B1F929
:102900000010401A5A49B1F90010084400EB800049
:1029100040005849C861084603F0D2FA554890ED86
:10292000001AB8EEC11AF0EE410A90ED041AB8EEA2
:10293000C11AB0EE410A504803F05CFFBDEEC00A78
:102940004C4880ED100A90ED011AB8EEC11AF0EE75
:10295000410A90ED051AB8EEC11AB0EE410A464898
:10296000423003F047FFBDEEC00A424880ED110A35
:1029700090ED021AB8EEC11AF0EE410A90ED061A77
:10298000B8EEC11AB0EE410A3B48843003F032FF82
:10299000BDEEC00A374880ED120A90ED031AB8EE7A
:1029A000C11AF0EE410A90ED071AB8EEC11AB0EE66
:1029B000410A3148C63003F01DFFBDEEC00A2D4864
:1029C00080ED130A01F086FC042803D001F082FC9C
:1029D000072806D12948007A012802D1254801F0AC
:1029E00017FA2748C06800EE900A2548806800EE74
:1029F000100A02F0CDFDB0EE403A1E4890ED100AEC
:102A0000B8EEC00A20EE030AB0EE404A90ED110A7B
:102A1000B8EEC00A20EE030AF0EE404A90ED120A2A
:102A2000B8EEC00A20EE030AB0EE405A90ED130A49
:102A3000B8EEC00A20EE030AF0EE403ABDEEC40A3A
:102A400080ED100ABDEEE40A80ED110ABDEEC50A64
:102A500080ED120ABDEEE30A80ED130ABDEC0A8B8D
:102A600070BD00009A99D93FFC010020FA010020B6
:102A7000FE0100201C0B00209C00002058080020B4
:102A8000EB0A002070B52DED0A8B01F023FC07281E
:102A900006D001F01FFC082802D00020FD49087074
:102AA00001F018FC042817D1002013E09FEDFA0A6A
:102AB00010EE101A00EB4012F84B03EB420251608B
:102AC0009FEDF70A10EE101A00EB401203EB4202E2
:102AD0001162401C0428E9DB01F0FCFB002843D014
:102AE00001F0F8FB02283FD0EE48C07C10B9ED4859
:102AF000807C18B10120EC49087035E0E948008875
:102B0000A0F58060002804DDE6480088A0F580601C
:102B100003E0E4480088C0F58060032821DCE14838
:102B20004088A0F58060002804DDDE484088A0F5DC
:102B3000806003E0DB484088C0F58060032810DC3B
:102B4000D8488088A0F58060002804DDD5488088BA
:102B5000A0F5806003E0D3488088C0F5806003283A
:102B600002DD0020D0490870CF48007810B904F089
:102B700077FB07E0CC480078012803D1CB49CC484B
:102B800003F0FAF901F0A6FB052845D140F6F6104E
:102B9000C849097811B1012936D11AE0A0F543716D
:102BA000C54A1160C54949691268511A002905DDF5
:102BB000C2494969C04A1268511A04E0BF494969CB
:102BC000BD4A1268891A372902DA0121B94A1170FF
:102BD0001AE000F54371B84A1160B84949691268B2
:102BE000511A002905DDB5494969B34A1268511ADD
:102BF00004E0B2494969B04A1268891A372902DAF1
:102C00000021AC4A117000BF00BF9FEDAD0A10EE6D
:102C1000101AAC4A116009E040F6F610A6490860A7
:102C20009FEDA70A10EE100AA649086001F052FBBA
:102C3000042803D001F04EFB052806D1A2480078F5
:102C400018B90120A149087019E001F043FB0728D9
:102C500003D001F03FFB082806D19D48007818B941
:102C600001209A4908700AE001F034FB092803D0DA
:102C700095480078012802D10120944908709548B0
:102C8000007892490978884204D00020924908804F
:102C9000854908708D4800788E4908708B48007807
:102CA00001287DD18548406983490968081AB0F533
:102CB000805F27DD8148406900F5005000EE100A72
:102CC000B8EEC00AF0EE400A7E487B4991ED000A5A
:102CD000B8EEC00A03F020FCBDEEC00A10EE100AE8
:102CE00000B27D4908807548406900F5005072497E
:102CF0000968081A00EE100AB8EEC00A774880ED9D
:102D0000000A53E06D4840696B490968081A10F5DC
:102D1000805F27DA69484069A0F5005000EE100A8C
:102D2000B8EEC00AF0EE400A6648634991ED000A29
:102D3000B8EEC00A03F0F0FBBDEEC00A10EE100AB8
:102D400000B2654908805D484069A0F500505A49C5
:102D50000968081A00EE100AB8EEC00A5F4880ED54
:102D6000000A23E0554890ED050AB8EEC00AF0EEDF
:102D7000400A5448504991ED000AB8EEC00A03F0E9
:102D8000CBFBBDEEC00A10EE100A00B2524908801B
:102D90004A48406948490968081A00EE100A00E0EC
:102DA0000BE0B8EEC00A4D4880ED000A4A48B0F981
:102DB000000008F023FC4849088001F08BFA042841
:102DC00003D001F087FA092810D1444890ED000A99
:102DD000DFED430A80EE201AB0EE000A21EE000A71
:102DE000DFED400A20EE200A80ED000A01F072FAC1
:102DF00004284ED1314840692F490968081A002833
:102E000005DD2E4840692C490968081A04E02B4862
:102E1000406929490968401AC8283ADD2448B0F9B0
:102E200000509FED310A10EE104A00202049088022
:102E30002A4890ED000ADFED2D0A20EE200A10EE60
:102E4000104A204609F054FC41EC1B0BB0EE4B0A33
:102E5000F0EE6B0A07F0A8F8B0EE409AF0EE609A38
:102E6000284609F0E8F841EC1A0B53EC192B09F04D
:102E700049F941EC180B09F0AFF80D4909880844ED
:102E800000B20B490880204609F032FC41EC1C0BD3
:102E90002EE053E0620E0020295C0F3D9C000020D4
:102EA00049828B47580800201C020020FC010020AA
:102EB000FA010020200200204C06002050060020CD
:102EC00085EB113FA401002007080020000200202C
:102ED000780000201F020020FE01002004020020D4
:102EE00000000046DA0F494000000000CDCC4C3F06
:102EF000B0EE4C0AF0EE6C0A07F0D6FEB0EE40AA37
:102F0000F0EE60AA284609F096F841EC1B0B53EC52
:102F10001A2B09F0F7F841EC190B9FEDE30B53EC7A
:102F2000102B09F0EFF841EC180B09F055F8E049C7
:102F30000988084400B2DE49088000BF01F0CAF9E0
:102F400005287DD1DB48B0F90040DB48406940F6F8
:102F5000F611081AB0F5805F0CDDD748406900F51E
:102F60000050081A00EE100AB8EEC00AD34880EDEF
:102F7000000A20E0D048406940F6F611081A10F522
:102F8000805F0CDACC484069A0F50050081A00EECA
:102F9000100AB8EEC00AC94880ED000A0BE0C64826
:102FA000406940F6F611081A00EE100AB8EEC00AA1
:102FB000C24880ED000A0020BE490880BF48D0ED1D
:102FC000000A1FED391A80EE810AF0EE000A20EEA9
:102FD000200A5FED3C0A20EE200A80ED000A90ED09
:102FE000000A10EE100A09F083FB41EC1B0BB0EE57
:102FF0004B0AF0EE6B0A06F0D7FFB0EE409AF0EE07
:10300000609A204609F017F841EC1A0B53EC192B83
:1030100009F078F841EC180B08F0DEFFA5490988A3
:10302000084400B2A3490880A44890ED000A10EEBD
:10303000100A09F05DFB41EC1C0BB0EE4C0A00E0FD
:1030400023E0F0EE6C0A07F02FFEB0EE40AAF0EE9F
:1030500060AA204608F0EFFF41EC1B0B53EC1A2B43
:1030600009F050F841EC190B9FED8F0B53EC102B2E
:1030700009F048F841EC180B08F0AEFF8C490988BC
:10308000084400B28A49088000BF01F023F90528EE
:1030900022D18B4890F8200001281DD18948B0F931
:1030A000000000EE900AF8EEE00AB0EE600ADFEDF4
:1030B000860A80EE201AFDEEC10A10EE900A7C49C5
:1030C0000988081A00B27A4908807A4800881530C1
:1030D00000B27849088000BF7648B0F90000744912
:1030E000B1F9001008447749B1F90010084400EB29
:1030F00080004000754908616E48B0F90000404208
:103100006B49B1F9001008446E49B1F90010084448
:1031100000EB800040006D4948616648B0F900004E
:103120006349B1F90010401A6649B1F9001008442A
:1031300000EB80004000654988615E48B0F90000FE
:1031400040425B49B1F90010401A5E49B1F90010E4
:10315000084400EB800040005C49C861084602F06A
:10316000AFFE5A4890ED001AB8EEC11AF0EE410ACF
:1031700090ED041AB8EEC11AB0EE410A544803F0BB
:1031800039FBBDEEC00A514880ED100A90ED011ADE
:10319000B8EEC11AF0EE410A90ED051AB8EEC11A68
:1031A000B0EE410A4A48423003F024FBBDEEC00AAB
:1031B000464880ED110A90ED021AB8EEC11AF0EE01
:1031C000410A90ED061AB8EEC11AB0EE410A404825
:1031D000843003F00FFBBDEEC00A3C4880ED120ABC
:1031E00090ED031AB8EEC11AF0EE410A90ED071AFD
:1031F000B8EEC11AB0EE410A3548C63003F0FAFA0B
:10320000BDEEC00A314880ED130A01F063F80428CE
:1032100003D001F05FF8072806D12E48007A012874
:1032200002D12A4800F0F4FD2B48C06800EE900A55
:103230002948806800EE100A02F0AAF9B0EE403A80
:10324000224890ED100AB8EEC00A20EE030AB0EE54
:10325000405A90ED110AB8EEC00A20EE030AF0EED3
:10326000403A90ED120AB8EEC00A20EE030AB0EE22
:10327000404A90ED130AB8EEC00A20EE030AF0EEC1
:10328000404ABDEEC50A80ED100ABDEEE30A80EDAE
:10329000110ABDEEC40A80ED120ABDEEE40A80ED0B
:1032A000130ABDEC0A8B70BD000000000000F03F67
:1032B000FC010020FA01002050060020100200202E
:1032C000F80D0020FE0100209A99D93F1C0B002028
:1032D0009C00002058080020EB0A00200246002035
:1032E00002EA01030BB1012000E00020704700005A
:1032F00001211F48006A1E4A526A024409B1012096
:1033000000E000206FF48E7358431E23A3EB80006F
:10331000022303FB1020002812DD1548006A144A1E
:10332000526A024409B1012000E000206FF48E735C
:1033300058431E23A3EB8000022303FB102010E060
:103340000B48006A0A4A526A024409B1012000E0AF
:1033500000206FF48E7358431E23A3EB8000C2EB52
:103360004000B0F5FA7F01DA012070470020FCE749
:103370007C0B002010B5002410E0314901EB440023
:1033800002F048F92E4B203B33F814204033191932
:10339000203B33F8140002F046F9641C102CECDBDF
:1033A00028480078012820D12548203890F840008E
:1033B000012807D1244908600020244908800B20F7
:1033C00004F01AFC04240EE01D482030005D0128A2
:1033D00008D1801E1C49086020B21C4908800B20BF
:1033E00004F00AFC641C0E2CEEDB1548203890F823
:1033F000410001280AD100F06DFF012803D103200C
:1034000004F0FAFB02E00A2004F0F6FB1048C07C4E
:1034100088B90F48807C70B90D48B0F90A000028BF
:1034200003DD0B48B0F90A0003E00948B0F90A00CF
:103430004042032802DD00200249087010BD000050
:10344000CC040020FC04002000050020FE04002025
:103450005808002010B57F480068401C7D4908606E
:10346000084600684FF47A71B0FBF1F201FB1200DC
:1034700030B9794800887949088000207649088069
:10348000744800686421B0FBF1F201FB120010B92E
:10349000012073490870FDF70BFD724802F05AF8DD
:1034A000FFF768FF01F0EEF801F030FB00BF0024E9
:1034B00007E004EB44016C4A02EB4100FDF79CFE7F
:1034C000641C102CF5DB05F0B1FE06F00DF801F0E0
:1034D00053F900F0FFFE0C2831D2DFE800F031068E
:1034E00048A55871A67E8997A9A45A480068B0F5E6
:1034F000967F24D903F082FE002004F07DFB9FED2F
:103500005B0A5B4880ED030A01464969594A126823
:10351000511A4FF4616201FB02F0C11700EBD14177
:10352000491300EE101AB8EEC00A5349D1ED050A4E
:10353000B2EE041A00EE810A4D4981ED080A78E0E6
:1035400006F01AFC4C48B0F90600002803DD4A4892
:10355000B0F9060003E04848B0F9060040421428DC
:1035600002DA022004F048FB04F080FC61E001F084
:103570008BFC012802D1042004F03EFB06F0FCFB8A
:1035800001F0F6FD04F072FC04F070FF51E03649E2
:1035900091F8320004F0ACF805F068F906F0ECFBA5
:1035A00004F09AF83548D0ED000AB0EE600AFDF755
:1035B00093FA04F05BFF01F0DBFD04F057FC38E008
:1035C00005F054F906F0D8FB04F086F801F0D0FDC0
:1035D00004F04CFC04F04AFF2BE0FDF727F806F05E
:1035E000CBFB04F079F801F0C3FD04F03FFF20E0CD
:1035F00001202349087200F007FA06F0BDFB04F031
:103600006BF801F0B5FD04F031FF12E005F02EF982
:1036100004F02CFF06F0B0FB04F05EF801F0A8FD0A
:1036200004F024FC05E004E003E004F01FFF00E0E8
:1036300000BF00BF01F04EFBFEF72CFC02F0DAF8F1
:103640000448007800F0010018B905F045FD05F0C8
:1036500079FD10BD580400203A0200203C020020F1
:103660000C00002052040020F80D002000002A4524
:10367000500600204C060020140F0020DC0B002018
:10368000620E00207047000010B50A490A4800F099
:103690002BF970B14FF08151074800F013F805493C
:1036A000054800F029F8054803F0B8FF044801F088
:1036B000C6FF10BD0080201040640240C8080020F2
:1036C000CE0400200246094B9A4201D2084801E08C
:1036D0000648103801F000531BB1064B0B40C36085
:1036E00002E0044B0B40836070470000106402400E
:1036F000006002407D0F7D0F0246094B9A4201D2C5
:10370000084801E00648103801F000531BB1064B91
:103710000B40C36002E0044B0B4083607047000025
:1037200010640240006002407D0F7D0F21B10268ED
:1037300042F00102026003E0026822F0010202602E
:1037400070470000016821F0010101600021016063
:1037500041608160C1600161212141614A49884223
:1037600004D13D21484A103A91608CE04649183115
:10377000884205D14FF47461434A103A916082E067
:1037800041493031884205D14FF474113E4A103A14
:10379000916078E03C494831884205D14FF074612E
:1037A000394A103A91606EE037496031884204D15D
:1037B0003649354A103AD16065E03349783188425C
:1037C00004D13349304A103AD1605CE02E4990313F
:1037D000884204D12F492C4A103AD16053E02A493B
:1037E000A831884205D14FF03D51274A103AD160A7
:1037F00049E02949884204D13D21274A083A11600D
:1038000041E025491831884205D14FF47461224ABC
:10381000083A116037E020493031884205D14FF431
:1038200074111D4A083A11602DE01B494831884245
:1038300005D14FF07461184A083A116023E0164927
:103840006031884204D11149134A121F11601AE0F5
:1038500011497831884204D10D490F4A121F116075
:1038600011E00D499031884204D10A490A4A121FD9
:10387000116008E00849A831884204D14FF03D5159
:10388000054A121F11607047106002403D00002081
:10389000400F002000003D201064024021B102686A
:1038A00042F48022026003E0026822F48022026077
:1038B000704722B1036843F40023036003E0036808
:1038C00023F400230360016170470146486880B219
:1038D0007047014600200A6802F400220AB1012064
:1038E00000E000207047000070B502460020002470
:1038F0000025124EB24201D2114B01E00F4B103B9A
:10390000104E0E4036B11E2606EAD124166806EA8D
:10391000040502E0566906F0800501F000560EB17C
:103920005C6800E01C68084E344004EA010616B1E9
:103930000DB1012000E0002070BD000010640240C5
:10394000006002403C0F3C0F7D0F7D0F10B501F071
:1039500080034BB122B1436943F08003436103E02C
:10396000436923F08003436180290BD02AB10368A7
:1039700001F01E042343036004E0036801F01E0409
:10398000A343036010BD000010B500220268134B72
:103990001A40CC680B6823434C6923438C6923434A
:1039A000CC6923430C6A23434C6A23438C6A234328
:1039B0004C6B23438C6B23431A430260426922F011
:1039C0000702D1E90B3423431A4342610B69436078
:1039D0004B6883608B68C36010BD00003F801CF0A3
:1039E0004FF480600549088048808880C8800320A3
:1039F0000872487200200249086070475808002089
:103A0000580400207047000010B501205A49087280
:103A1000002013E09FED590A10EE101A00EB40123F
:103A2000574B03EB420251609FED560A10EE101AFD
:103A300000EB401203EB42021162401C0428E9DB58
:103A400051480078A8B9FFF753FC20B94F480068E7
:103A5000B0F52F7F02D901204B490870012003F0F7
:103A600017FF012003F0BCFE48480068401C47498E
:103A7000086001204049087043480078012879D146
:103A800043480078062874D2DFE800F0030A121ACF
:103A9000222A00F0DDF8012801D13D49087068E0D4
:103AA00000F07EF8012802D102203949087060E058
:103AB00000F022F9012802D103203549087058E0AE
:103AC00000F0C6F8012802D104203149087050E006
:103AD00000F066F8012802D105202D49087048E061
:103AE0000020254908722B48806A2A49C96A08447F
:103AF000A0F62410002807DD2648806A2549C96AF7
:103B00000844A0F6241007E02248806A2149C96AC7
:103B1000084440F62411081A642802DA00201649E5
:103B2000087000F0E9F8012822D10020124908703D
:103B30001749087000BF13E09FED170A10EE101A26
:103B400000EB40120E4B03EB420251609FED130A53
:103B500010EE101A00EB401203EB42021162401CFF
:103B60000428E9DB042004F047F8002004F04AF8B8
:103B700000BF00BF10BD0000620E00203E0AD73D0E
:103B80009C0000206E43D14772000020740000208A
:103B9000710000207C0B0020295C0F3D49828B477F
:103BA00000B5002004F02EF80020264908802649A0
:103BB0000880012003F06CFE002003F011FE0120BC
:103BC00003F066FE01283BD1002003F009FE012826
:103BD00036D148201B49088000201B4908801B481B
:103BE000807801280AD11948C078012806D1002020
:103BF0001449088014490880012000BD13488078CA
:103C000068B91248C078012809D100200D49088000
:103C10001E200D490880012003F0F4FF10E00B483E
:103C2000807801280CD10948C07848B9002005499E
:103C300008806FF01D0004490880012003F0E2FFB6
:103C40000020DAE7FA010020FE010020580E0020D3
:103C500000B5002003F0D6FF002024490880244945
:103C6000088003F015FE002003F0BAFD002003F0E9
:103C70000FFE012837D1002003F0B2FD012832D118
:103C800028201A4908801B480078012809D11948C2
:103C90004078012805D100200880154908800120BE
:103CA00000BD1448007868B912484078012809D14D
:103CB00000200E4908801E200D490880012003F0D5
:103CC000A1FF10E00B48007801280CD1094840788A
:103CD00048B90020054908806FF01D00044908809C
:103CE000012003F08FFF0020DAE70000FA01002036
:103CF000FE010020580E002000B5002003F082FFD6
:103D000000202649088026490880012003F0C0FDD4
:103D1000012809D103F064FD012805D1214800786C
:103D200010B901201F4908701E480078012832D1BF
:103D30001D48006818B91D4800681B4908604620E6
:103D4000164908800020164908801848006816495E
:103D50000968401AC82808D91348006828B100200B
:103D600003F096FD002003F03BFD104800680E496B
:103D70000968401AB0F5966F0DD90B48006850B12C
:103D8000002006490880064908800749086005495F
:103D90000870012000BD0020FCE70000FA010020AF
:103DA000FE0100209800002094000020580400200C
:103DB00010B5102000F018F8012807D101F042FCDE
:103DC000102000F005F8102000F008F810BD0000E9
:103DD0000149086070470000143C01400149086037
:103DE00070470000143C0140014600200022074BB0
:103DF0001B6803EA0102054B14331B680B4013B127
:103E00000AB1012000E0002070470000003C0140A2
:103E10008CB00169002901DD016901E001694942B5
:103E20004269002A01DD426901E0426952420A44C6
:103E30008169002901DD816901E0816949420A4403
:103E4000C169002901DDC16901E0C169494211442C
:103E500001EE101AB8EEC10A0168002901DD0168FF
:103E600001E0016849424268002A01DD426801E040
:103E7000426852420A448168002901DD816801E0FC
:103E8000816849420A44C168002901DDC16801E036
:103E9000C1684942114401EE101AF8EEC10A00212E
:103EA000089109910A910B9104910591069107914E
:103EB000B5EEC00AF1EE10FA02DDB0EE401A01E0F4
:103EC000B1EE401ADFED931AB4EEE11AF1EE10FAFA
:103ED00010D29FED911A8DED081A9FED8F1A8DED7E
:103EE000091A9FED8D1A8DED0A1A9FED8B1A8DED33
:103EF0000B1A27E090ED041AB8EEC11A21EE201A31
:103F0000C1EE001ACDED081A90ED051AB8EEC11AEF
:103F100021EE201AC1EE001ACDED091A90ED061A15
:103F2000B8EEC11A21EE201AC1EE001ACDED0A1A20
:103F300090ED071AB8EEC11A21EE201AC1EE001A50
:103F4000CDED0B1ADDED081A90ED001AB8EEC11A8E
:103F500031EEC11A8DED041ADDED091A90ED011A4A
:103F6000B8EEC11A31EEC11A8DED051ADDED0A1A4F
:103F700090ED021AB8EEC11A31EEC11A8DED061A93
:103F8000DDED0B1A90ED031AB8EEC11A31EEC11A2D
:103F90008DED071A614991ED001ADDED041A9FEDD0
:103FA000602A01EE821A81ED001A91ED001ADDED12
:103FB000041A9FED5B2A01EE821A81ED001A91ED41
:103FC000001ADDED041A9FED562A01EE821A81EDEA
:103FD000001A91ED001ADDED041A9FED512A01EE51
:103FE000821A81ED001A002132E04C4A02EB810274
:103FF00092ED001ADFED4B1AB4EEE11AF1EE10FA71
:1040000002DD9FED481A04E0444A02EB810292ED82
:10401000001A424A02EB810282ED001A3F4A02EB8B
:10402000810292ED001ADFED401AB4EEE11AF1EED2
:1040300010FA02D29FED3C1A04E0384A02EB8102EA
:1040400092ED001A354A02EB810282ED001A491CFA
:104050000429CADB314991ED001ADDED041AB0EEF6
:10406000082A01EE821ABDEEC11A8DED001A91EDFB
:10407000011ADDED051AB0EE082A01EE821ABDEE36
:10408000C11A8DED011A91ED021ADDED061AB0EE9E
:10409000082A01EE821ABDEEC11A8DED021A91EDC9
:1040A000031ADDED071AB0EE082A01EE821ABDEE02
:1040B000C11A8DED031A002117E05DF82120B2F539
:1040C0007A6F02DD4FF47A6201E05DF821204DF84D
:1040D00021205DF8212012F57A6F01DA134A01E000
:1040E0005DF821204DF82120491C0429E5DB016CF5
:1040F000009A11440164416C019A11444164816C3D
:10410000029A11448164C16C039A1144C1640CB0D9
:1041100070470000CDCCCC3D000000006C0B0020AF
:104120000AD7233C00007A4400007AC460F0FFFF05
:104130004FF448709FED1F1AF0EE410A1E4991EDB1
:10414000001ADFED1E1A21EE211ADFED1D1A01EE15
:10415000801A81ED001A1B4991ED021AD1ED001A67
:1041600031EE611AD1ED001A134991ED002A72EE79
:10417000611A81EE812AF0EE420A124991ED031A8A
:10418000D1ED011A71EE611A91ED011A01EEA01A3A
:10419000BCEEC11A11EE101A88B240F21C718842AE
:1041A00000DA084640F24971884200DD084640F2D4
:1041B0001C70704700000000380600208FC2753F59
:1041C0000AD7233DD8CB0008F0B50A4600210023CA
:1041D000002400BF3DE0012505FA01F3156805EA5A
:1041E00003049C4234D105684F000326BE40B5430A
:1041F000056015794E00B5400668354305601579B0
:10420000012D02D01579022D16D185684F000326A5
:10421000BE40B543856055794E00B540866835434C
:104220008560456801268E40B543456045689679AE
:104230008E40B6B235434560C5684F000326BE4088
:10424000B543C560D5794E00B540C6683543C560F5
:10425000491C1029BFD3F0BDF0B5002300244D0741
:10426000ED0E02FA05F3CE1000F1200555F82650A8
:104270004E07F70E0F26BE40B543CF1000F12006C3
:1042800046F82750CE1000F1200555F8265045EA93
:104290000304CE1000F1200545F82640F0BD02468B
:1042A000002013690B400BB1012000E00020704793
:1042B00041837047018370474FF6FF710160002111
:1042C000017141718171C171704742694A40426117
:1042D0007047000001480078704700003802002055
:1042E00030B5034613B94FF6FF7030BD09E013F83F
:1042F000014B82EA0400C0B2054D35F8100080EA97
:1043000022220800A1F10101F1D11046EDE70000E1
:10431000D8C9000830B5034605E013F8010B80EA60
:1043200002040448025D0800A1F10105A9B2F4D11C
:10433000104630BDD7C8000800BFFEE710B540F2F8
:10434000DC539A4209D150230360B3EE040A81ED95
:10435000000A0123144C237025E040F6C4139A424E
:1043600009D1A02303609FED110A81ED000A022309
:104370000D4C237017E040F6AC539A420AD14FF42B
:10438000A07303609FED0A0A81ED000A0323064C27
:10439000237008E050230360B3EE040A81ED000AA5
:1043A0000123014C237010BD800800200000204232
:1043B0000000A04210B5044600F0B0F82CB14FF454
:1043C00000710D48FFF776FF04E04FF400710A48D2
:1043D000FFF76EFF4FF480710748FFF76BFF012076
:1043E00000F00CF84FF480710348FFF761FF0120E3
:1043F00000F004F810BD00000004024010B50021D8
:1044000006E0062200BF1300A2F10102FBD1491C05
:104410008142F6D310BD000070B5002400F068F8AA
:1044200000251BE04FF480711148FFF741FF012088
:10443000FFF7E4FF4FF480710D48FFF73BFF600684
:10444000040E4FF400710A48FFF729FF08B1601C01
:10445000C4B20120FFF7D2FF681CC5B2082DE1DB12
:104460004FF480710248FFF723FF204670BD000023
:10447000000402402DE9F04106460F4614469846D6
:1044800000F060F8304600F0CBF800F09BF8FF2811
:1044900001D1BDE8F081384600F0C2F800F092F892
:1044A000FF2800D1F5E700F04DF8711CC8B200F00C
:1044B000B7F800F087F8FF2800D1EAE7002508E008
:1044C000FFF7AAFF20700020FFF774FF641C681C30
:1044D000C5B2A8F10100A842F2DCFFF79DFF2070F1
:1044E0000120FFF767FF00F04DF80020D1E7000042
:1044F0001CB54FF40070009000208DF804008DF87A
:1045000006008DF8070002208DF805006946024874
:10451000FFF75AFE1CBD0000000402401CB54FF41A
:104520000070009001208DF804008DF80600032033
:104530008DF8050069460248FFF746FE1CBD0000E5
:104540000004024010B5FFF7E9FF4FF400710C487A
:10455000FFF7B0FE4FF480710948FFF7ABFE012072
:10456000FFF74CFF4FF400710548FFF7A1FE012053
:10457000FFF744FF4FF480710148FFF799FE10BD2B
:104580000004024010B5FFF7C9FF4FF480710C48DA
:10459000FFF78EFE4FF400710948FFF789FE0120F6
:1045A000FFF72CFF4FF480710548FFF783FE4FF4AF
:1045B00000710348FFF77EFE0120FFF71FFF10BDCB
:1045C0000004024010B54FF47A744FF400711348A0
:1045D000FFF770FEFFF78CFF0120FFF70FFF4FF48E
:1045E00080710E48FFF766FE0120FFF707FF07E026
:1045F000601E80B2040003D0FFF7C4FFFF2010BD8F
:104600004FF400710548FFF74AFE0028F0D14FF43F
:1046100080710248FFF74CFE0020F0E700040240E2
:1046200070B50446FFF77AFF4FF480711448FFF726
:104630003FFE002521E004F0800028B14FF4007116
:104640000F48FFF737FE04E04FF400710C48FFF706
:104650002FFE6006040E0120FFF7D0FE4FF480719C
:104660000748FFF727FE0120FFF7C8FE4FF48071CF
:104670000348FFF71DFE681CC5B2082DDBDB70BDCB
:10468000000402402B4890ED030AB5EEC00AF1EE9B
:1046900010FA02DD90ED030A04E0264890ED030ACB
:1046A000B1EE400ADFED240AB4EEE00AF1EE10FAB2
:1046B0003AD2204890ED040AB5EEC00AF1EE10FAA5
:1046C00002DD90ED040A04E01A4890ED040AB1EE10
:1046D000400ADFED190AB4EEE00AF1EE10FA23D237
:1046E000144890ED050AB5EEC00AF1EE10FA02DDAD
:1046F00090ED050A04E00F4890ED050AB1EE400A7E
:10470000DFED0D0AB4EEE00AF1EE10FA0CD20B4820
:104710000088401C0949088008460088C82808DD30
:1047200001200749087004E000200549087003498A
:1047300008807047140F00200AD7233C060500208C
:104740000405002050B1012810D109498978094A8F
:1047500011720749CA7807494A7200BF04490978AB
:10476000044A117202494A7802494A7270470000AD
:10477000E0CC0008620E002010B54E4800780928F1
:104780000AD0FFF7A7FD092806D10020FFF7DAFFBE
:104790000120494908700DE046480078092809D1F0
:1047A000FFF798FD092805D00020FFF7CBFF002078
:1047B000414908703F480078042809D0FFF78AFD76
:1047C000042805D10020FFF7BDFF00203A490870FA
:1047D0003A48007850B93A480078012806D10020BC
:1047E000FFF7B0FF0120344908700CE0334800782F
:1047F000012808D13248007828B90020FFF7A2FF2D
:1048000000202D4908702B480078072803D0FFF7B7
:1048100061FD072807D02748007808280AD0FFF74D
:1048200059FD082806D10120FFF78CFF01202249FD
:10483000087015E01F480078072803D1FFF74AFDEC
:10484000072807D11B480078082809D1FFF742FD47
:10485000082805D00120FFF775FF002016490870D1
:104860001848007860B9184890F85000012807D11E
:104870001148007808B9012000E000200E490870B6
:104880000D48007800EB801000EB400040F2C26160
:10489000A1EB80000D490860FFF71CFD0549087079
:1048A0000748007805490870074890F85000054906
:1048B000087010BD05080020000800200608002030
:1048C0000708002004080020F80D0020400C0040DC
:1048D000F0B50446DDE9055644EA410040EA8200AD
:1048E00040EAC30040EA051040EA4610024F387023
:1048F00038460078F0BD00006C00002070B52DED4A
:10490000048BB0EE408AF0EE608AB0EE419A044625
:10491000002540480079401C3E49087118EE100AF5
:10492000C1F8060018EE900AC1F80A0019EE100A44
:10493000C1F80E0008468474A52037490870354830
:104940008078487033484088001288703148407938
:10495000C87005213048FBF7A1FD00202E494871A1
:10496000012088712B48D0F806002C4908600846C1
:1049700000782949C871294840780872274880780A
:1049800048722648C07888722248D0F80A00244924
:104990000860084600782049C872214840780873AA
:1049A0001F48807848731E48C07888731948D0F82B
:1049B0000E001C490860084600781749C87319485A
:1049C000407808741748807848741648C07888740E
:1049D0001048807C00EE100AB8EE400A124880EDC4
:1049E000000A0846C4741621FBF740FD00BF0CE026
:1049F0000948415D0D4804F024FB00BF40210B48ED
:104A000004F054FA0028F9D06D1C162DF0DBBDEC33
:104A1000048B70BD3B000020D50A0020540000200C
:104A2000580000205C00002060000020004800408A
:104A30003448807C00F00100334988703148807C24
:104A4000C0F34001304801722E48807CC0F38001E1
:104A50002D4881732B48807CC0F3C0012A48017522
:104A60002848807CC0F30011274881762548807C47
:104A7000C0F34011244880F820102248807CC0F305
:104A80008011214880F826101E48807CC1091E48EC
:104A900080F82C101B48C07C00F001011A4880F8F7
:104AA00032101848C07CC0F34001174880F8381015
:104AB0001448C07CC0F38001134880F83E101148B0
:104AC000C07CC0F3C001104880F844100D48C07C81
:104AD000C0F300110C4880F84A100A48C07CC0F3AB
:104AE0004011094880F850100648C07CC0F380117E
:104AF000054880F856100348C07CC109024880F878
:104B00005C10704758080020F80D002010B50F48C1
:104B100090F82000012817D10C48807E012813D17D
:104B20000A4890F8440078B9084890F84A0058B903
:104B3000064890F85000012806D1044890F8560025
:104B4000012801D101F0EAF810BD0000F80D0020A5
:104B500010B5424800780A2830DA4048007800282A
:104B60002CDD3F4800684FF41661B0FBF1F201FB09
:104B700012003A4909784900C1EB011101EB8101AA
:104B8000B0EB410F27D8364800684FF41661B0FBF0
:104B9000F1F201FB120020B902213248FFF78AFB33
:104BA00019E02F4800689621B0FBF1F201FB1200DA
:104BB00088B902212B48FFF788FB0CE027480078D2
:104BC0000A2804DB02212748FFF772FB03E00221D9
:104BD0002448FFF76FFB244800780A2830DA22487F
:104BE000007800282CDD1E4800684FF41661B0FBE9
:104BF000F1F201FB12001C4909784900C1EB0111D7
:104C000001EB8101B0EB410F27D8154800684FF444
:104C10001661B0FBF1F201FB120020B9012111482D
:104C2000FFF748FB19E00E4800689621B0FBF1F24F
:104C300001FB120088B901210A48FFF746FB0CE08E
:104C4000094800780A2804DB01210648FFF730FBF9
:104C500003E001210348FFF72DFB10BD08050020EC
:104C60005804002000080240090500200A2801DD40
:104C70000A2200E00246054B1A700A2901DD0A22C9
:104C800000E00A46024B1A70704700000805002039
:104C9000090500201CB50121042002F0EBF90320D6
:104CA000009001208DF8040000208DF806000320FC
:104CB0008DF8050069460648FFF786FA0221044888
:104CC000FFF7F8FA01210248FFF7F4FA1CBD0000D3
:104CD0000008024010B55C4800689621B0FBF1F274
:104CE00001FB120000286FD1FFF7F4FA0C280BD259
:104CF000DFE800F00B06107D151A821F2429A02E74
:104D00000A210846FFF7B2FF99E009210846FFF79C
:104D1000ADFF94E009210846FFF7A8FF8FE00021CE
:104D20000120FFF7A3FF8AE000210120FFF79EFF8B
:104D300085E000210120FFF799FF80E0002101209C
:104D4000FFF794FF7BE000210120FFF78FFF76E063
:104D50003E4800880E2804D10A210320FFF786FF71
:104D600044E03A4800880F2804D10A210420FFF7C4
:104D70007DFF3BE03548008804280BD0334800888D
:104D8000052807D031480088062803D02F4800881E
:104D9000072804D10A210220FFF768FF26E02B48EC
:104DA00000880A280BD0294800880B2807D02748FC
:104DB00000880C2803D0254800880D2805D10A2139
:104DC0000120FFF753FF11E03CE02048008809284C
:104DD00003D01E480088082804D10A210520FFF7C7
:104DE00045FF03E00A210620FFF740FF27E00121ED
:104DF0000846FFF73BFF22E0134800684FF41661B6
:104E0000B0FBF1F201FB120020B90A210020FFF7EC
:104E10002DFF0EE00C48006800F596604FF4166117
:104E2000B0FBF1F201FB120018B900210A20FFF7D4
:104E30001DFF04E001210846FFF718FF00BF00BF77
:104E4000FFF786FE10BD000058040020FE0400207D
:104E50001CB50121042002F00DF920200090012052
:104E60008DF8040000208DF8060003208DF8050061
:104E700069460448FFF7A8F920210248FFF718FA0D
:104E80001CBD0000000802406148007820B10128E4
:104E900036D0022833D162E09FED5E0A10EE100A90
:104EA0005D4948609FED5B0A10EE100AC1F84600AC
:104EB0009FED580A10EE100AC1F888009FED550AC0
:104EC00010EE100AC1F8CA0046205449086348632E
:104ED0008863C8630846006A1E2810DD0846406AD9
:104EE0001E280CDD0846806A1E2808DD0846C06AB8
:104EF0001E2804DD0120464908704949087083E0F6
:104F00009FED480A10EE100A434948609FED460A9B
:104F100010EE100AC1F846009FED430A10EE100A89
:104F2000C1F888009FED400A10EE100AC1F8CA00CF
:104F30003E483A49086348638863C8630846006886
:104F4000496808443549896808443449C9680844AF
:104F500010F1190F02DA02202D49087054E02F4891
:104F600000682E49496808442C49896808442B493F
:104F7000C968084400280BDD2848006827494968AB
:104F800008442649896808442449C96808440BE054
:104F90002248006821494968084420498968084432
:104FA0001E49C968084440420A282CDA00202049DA
:104FB000C88200211E48C185A0F84610A0F85E10E6
:104FC00000201649086348638863C8639FED150A8B
:104FD00010EE100A104948609FED120A10EE100AF8
:104FE000C1F846009FED0F0A10EE100AC1F88800C4
:104FF0009FED0C0A10EE100AC1F8CA000020084903
:1050000008700120704700BF00BF0020FAE70000D1
:1050100060040020CDCCCC3D460300207C0B00205A
:1050200061040020CDCC4C3D00000000F0D8FFFF13
:10503000380D00204749097801297DD1464991ED75
:10504000000AB1EE400AD1ED010A70EE600A90ED5F
:10505000000A9FED421A01EE200A80ED000A91ED50
:10506000000AB1EE400AD1ED010A70EE200A90ED7F
:10507000010A9FED3A1A01EE200A80ED010A91ED36
:10508000000AD1ED010A70EE600A90ED020A9FED70
:10509000331A01EE200A80ED020A91ED000AD1EDEB
:1050A000010A70EE200A90ED030A9FED2C1A01EE22
:1050B000200A80ED030A91ED000AB1EE400AD1ED1D
:1050C000010A30EE600ADFED250A20EE200ABDEE6F
:1050D000C00A10EE101A09B2214A11801E4991ED42
:1050E000000AB1EE400AD1ED010A30EE200ADFEDF0
:1050F0001B0A20EE200ABDEEC00A10EE101A09B2FB
:10510000184A1180144991ED000AD1ED010A30EEE0
:10511000600ADFED120A20EE200ABDEEC00A10EE92
:10512000101A09B2104A11800B4991ED000AD1ED15
:10513000010A30EE200A00E00AE0DFED080A20EE66
:10514000200ABDEEC00A10EE101A09B2074A1180FB
:105150007047000061040020DC0B00200000824248
:10516000980400209A0400209C0400209E04002043
:1051700010B52DED048BFFF7ADF8042872D1EE4881
:10518000007A0128FAD1ED4800680A21B0FBF1F25B
:1051900001FB12000028F1D1E748407A012804D031
:1051A000022860D003285CD1C6E0E349C988A1F594
:1051B000806101EB4101880006F03DFF9FEDE00BAF
:1051C00053EC102B06F0B0FD06F006FF00B2DE49EE
:1051D000096B0844DC490863D749C988A1F5806197
:1051E00001EB4101880006F026FF9FEDD50B53EC43
:1051F000102B06F099FD06F0EFFE00B2D249496B84
:105200000844D1494863CC49C988A1F5806101EBC4
:105210004101880006F00FFF9FEDC90B53EC102BE6
:1052200006F082FD06F0D8FE00B2C749896B08443B
:10523000C5498863C049C988A1F5806101EB410176
:10524000880006F0F8FE9FEDBE0B53EC102B06F025
:105250006BFD06F0C1FE00B2BB49C96B0844BA49F8
:10526000C8636AE06AE0B449C988A1F58061C1EB0E
:10527000C10006F0E0FE41EC190B9FEDB10B53ECC1
:10528000102B06F051FD41EC180B06F0A5FE00B204
:10529000AD49096B0844AC490863A749C988A1F521
:1052A0008061C1EBC10006F0C6FE41EC190B9FED19
:1052B000A40B53EC102B06F037FD41EC180B06F055
:1052C0008BFE00B2A049496B08449F4948639A4944
:1052D000C988A1F58061C1EBC10006F0ACFE41ECCC
:1052E000190B9FED970B53EC102B06F01DFD41ECB5
:1052F000180B06F071FE00B29349896B081A9249A7
:1053000088638D49C988A1F58061C1EBC10006F0B1
:1053100092FE41EC190B9FED8A0B53EC102B06F01B
:1053200003FD41EC180B06F057FE00B28649C96B2D
:10533000081A8549C86300E000BF00BFFEF7CAFF36
:10534000022857D08048006B1E2801DA1E2001E099
:105350007D48006B7C4908630846006BB0F5AF6F71
:1053600002DD4FF4AF6001E07748006B76490863D7
:105370000846406B1E2801DA1E2001E07248406B8F
:10538000714948630846406BB0F5AF6F02DD4FF4DA
:10539000AF6001E06C48406B6B4948630846806B26
:1053A0001E2801DA1E2001E06748806B6649886389
:1053B0000846806BB0F5AF6F02DD4FF4AF6001E0DF
:1053C0006148806B604988630846C06B1E2801DA1B
:1053D0001E2001E05C48C06B5B49C8630846C06B97
:1053E000B0F5AF6F02DD4FF4AF6001E05648C06B1F
:1053F0005549C863544890ED081AB8EEC11AF0EE4A
:10540000410A90ED0C1AB8EEC11AB0EE410A4F48AD
:1054100001F0F0F9BDEEC00A4B4880ED040A90EDB2
:10542000091AB8EEC11AF0EE410A90ED0D1AB8EE65
:10543000C11AB0EE410A4548423001F0DBF9BDEE39
:10544000C00A414880ED050A90ED0A1AB8EEC11A6B
:10545000F0EE410A90ED0E1AB8EEC11AB0EE410A14
:105460003A48843001F0C6F9BDEEC00A364880EDF6
:10547000060A90ED0B1AB8EEC11AF0EE410A90ED53
:105480000F1AB8EEC11AB0EE410A3048C63001F02A
:10549000B1F9BDEEC00A2C4880ED070A90ED001A64
:1054A000B8EEC11AF0EE410A90ED041AB8EEC11A36
:1054B000B0EE410A264801F09DF9234880ED100A1C
:1054C00090ED011AB8EEC11AF0EE410A90ED051AFE
:1054D000B8EEC11AB0EE410A1D48423001F08AF917
:1054E000194880ED110A90ED021AB8EEC11AF0EEDB
:1054F000410A90ED061AB8EEC11AB0EE410A1448FE
:10550000843001F077F9104880ED120A90ED031A0B
:10551000B8EEC11AF0EE410A90ED071AB8EEC11AC2
:10552000B0EE410A0A48C63001F064F9064880ED41
:10553000130ABDEC048B10BD58080020580400204D
:105540000000000000A084407C0B00203E020020F0
:105550004603002010B504462078012815D10B48D9
:105560000088401C09490880012002F091F90128B7
:1055700004D0012002F034F9012806D10020207067
:1055800002F086F9002002F02BF910BDA0040020E3
:10559000B0EE401AF7EE001AB0EE610AF0EE081A0B
:1055A00060EEA11ADFED172A81EEA22ADFED161AAE
:1055B00072EE211AB0EE610AF7EE001AB4EEE10ABB
:1055C000F1EE10FA02DDF7EE001A01E0F0EE401AFB
:1055D000B0EE610ADFED0C1AB4EEE10AF1EE10FA5A
:1055E00002D2DFED091A01E0F0EE401AB0EE610AD6
:1055F000064890F84300012803D1DFED051AB0EE0C
:10560000610A704700004843CDCCCC3DAC0400207B
:10561000CDCC4C3F01884FF6FE72914202DA0188F0
:10562000491C01807047034602EB8200984202DA6F
:105630000120087001E00020087008787047002100
:10564000018070471FB50E236A463B21D020FEF72C
:1056500011FFFF2801D104B010BD9DF801009DF895
:10566000001040EA012000B2584908809DF803006C
:105670009DF8021040EA012000B2544948809DF88C
:1056800005009DF8041040EA012000B24F498880CF
:105690009DF807009DF8061040EA012000B24B4932
:1056A000C8809DF809009DF8081040EA012000B26A
:1056B000464908819DF80B009DF80A1040EA012038
:1056C00000B2424948819DF80D009DF80C1040EA57
:1056D000012000B23D4988810846B0F9000000EE83
:1056E000100AB8EEC00AB1EE400ADFED390A80EECA
:1056F000201A384880ED001A0846B0F9020000EE82
:10570000100AB8EEC00AB1EE400ADFED310A80EEB1
:10571000201A304880ED011A0846B0F9040000EE66
:10572000100AB8EEC00ADFED2A0A80EE201A2948D6
:1057300080ED021A0846B0F9060000EE100AB8EE35
:10574000C00A9FED251AC0EE010A9FED240A30EE33
:10575000800A204880ED030A0846B0F90800204975
:105760000968401A00EE100AB8EEC00ADFED1D0A03
:1057700080EE201A174880ED041A1448B0F90A0088
:1057800019490968401A00EE100AB8EEC00AB1EED5
:10579000400ADFED140A80EE201A0E4880ED051A4B
:1057A0000A48B0F90C0011490968401A00EE100AC5
:1057B000B8EEC00AB1EE400ADFED0A0A80EE201A08
:1057C000044880ED061A002045E70000D00C0020B8
:1057D00000000046E00C00200000AA43B81E124260
:1057E0000C0800200000834210080020140800204C
:1057F00000BFFEE770B5FEF76DFD0C287DD2DFE837
:1058000000F01B063B7CADF8F6F5F4F3F2F1002155
:105810000846FBF755FE00231A4619461846FBF7C3
:105820007BFE00231A4619461846FBF789FD002126
:105830000846FBF7B1FF28E2FE4A128A11B2FD4A80
:10584000928C10B2FBF73CFE00231A46194618460C
:10585000FBF762FE00231A4619461846FBF770FD57
:10586000F54991ED070ABDEEC00A10EE101A08B214
:105870000021FBF791FF08E2F0480068401CEF4967
:1058800008604FF44870EE490860091D0860ED4853
:10589000D0ED100AB0EE600AEB48FCF7DBFAE948FD
:1058A000D0ED110AB0EE600AE748001DFCF7D2FA0D
:1058B000E448D0ED120AB0EE600AE3480830FCF785
:1058C000C9FAE048D0ED130AB0EE600ADE480C30A9
:1058D000FCF7C0FADD48007810B9DB48FFF7AAFBF7
:1058E000D44A128A11B2D34A928C10B2FBF7E8FD67
:1058F00000231A461946184600E0B1E1FBF70CFEFA
:10590000D14C94ED030ABDEEC00A10EE104A23B24A
:10591000CD4C94ED020ABDEEC00A10EE104A22B240
:10592000C94C94ED010ABDEEC00A10EE104A21B236
:10593000C54C94ED000ABDEEC00A10EE104A20B22C
:10594000FBF7FEFCBC4991ED070ABDEEC00A10EE64
:10595000101A08B20021FBF71FFF96E1B54A128A20
:1059600011B2B44A928C10B2FBF7AAFDB84CE36CAA
:10597000A26C616C206CFBF7CFFDB24C94ED130A66
:10598000BDEEC00A10EE104A23B2AE4C94ED120ADE
:10599000BDEEC00A10EE104A22B2AA4C94ED110AD4
:1059A000BDEEC00A10EE104A21B2A64C94ED100ACA
:1059B000BDEEC00A10EE104A20B2FBF7C1FCA54AAA
:1059C00092ED070ABDEEC00A10EE102A11B29A4AF3
:1059D00092ED070ABDEEC00A10EE102A10B2FBF7D6
:1059E000DBFE52E126E04FE0F1E0A9E061E036E0C5
:1059F000FFE7904A128A11B28E4A928C10B2FBF7DE
:105A00005FFD934CE36CA26C616C206CFBF784FD32
:105A100000231A4619461846FBF792FC864991ED79
:105A2000070ABDEEC00A10EE101A08B20021FBF7FB
:105A3000B3FE2AE100210846FBF742FD00231A4687
:105A400019461846FBF768FD00231A461946184602
:105A5000FBF776FC00210846FBF79EFE15E10021CE
:105A60000846FBF72DFD00231A4619461846FBF79A
:105A700053FD00231A4619461846FBF761FC002126
:105A80000846FBF789FE00E100210846FBF718FDF8
:105A900000231A4619461846FBF73EFD00231A4616
:105AA00019461846FBF74CFC00210846FBF774FE2C
:105AB000EBE0604991ED030ABDEEC00A10EE100A5A
:105AC00001F08BF95B49098A084404B259494869D5
:105AD00003F042FD5749898C084405B22146284607
