:020000040800F2
:10000000F0140020690200087B400008A12B0008C2
:10001000FD3B0008350E00086F7900080000000065
:1000200000000000000000000000000075620008F1
:10003000D72300080000000071500008356900084F
:10004000830200088302000883020008830200087C
:10005000830200088302000883020008830200086C
:100060008302000883020008B1260008830200080A
:1000700083020008451F0008830200085920000879
:10008000830200088302000883020008830200083C
:10009000DD100008830200088302000883020008C4
:1000A000830200088302000883020008830200081C
:1000B000830200088302000883020008830200080C
:1000C00083020008830200088302000883020008FC
:1000D0008302000883020008830200083D750008BF
:1000E00083020008830200088302000883020008DC
:1000F00083020008830200088302000883020008CC
:1001000083020008830200088302000883020008BB
:100110008302000883020008E969000883020008DE
:1001200083020008830200085D20000883020008A3
:10013000830200088302000883020008830200088B
:10014000B513000883020008830200088302000838
:10015000830200088302000883020008E975000892
:10016000830200088302000883020008830200085B
:10017000830200088302000883020008830200084B
:10018000830200088302000800F002F800F05CF827
:100190000AA090E8000C82448344AAF10107DA45E2
:1001A00001D100F051F8AFF2090EBAE80F0013F0D8
:1001B000010F18BFFB1A43F001031847949C00007D
:1001C000B49C00000A444FF0000C10F8013B13F0FF
:1001D000070408BF10F8014B1D1108BF10F8015BA0
:1001E000641E05D010F8016B641E01F8016BF9D193
:1001F00013F0080F1EBF10F8014BAD1C0C1B09D1EA
:100200006D1E58BF01F801CBFAD505E014F8016B5B
:1002100001F8016B6D1EF9D59142D6D370470000ED
:100220000023002400250026103A28BF78C1FBD8FF
:10023000520728BF30C148BF0B6070471FB509F097
:100240006AFB1FBD10B510BD00F0E4F81146FFF7C2
:10025000F5FF08F0F7FD00F002F903B4FFF7F2FF35
:1002600003BC08F061FC00000948804709480047CA
:10027000FEE7FEE7FEE7FEE7FEE7FEE7FEE7FEE756
:10028000FEE7FEE704480549054A064B70470000B3
:100290003969000889010008F00E0020F0140020E0
:1002A000F0100020F01000207047032A40F2308048
:1002B00010F0030C00F0158011F8013BBCF1020FA7
:1002C000624498BF11F801CB00F8013B38BF11F828
:1002D000013BA2F1040298BF00F801CB38BF00F83F
:1002E000013B11F0030300F05B80083AC0F0088086
:1002F00051F8043B083A51F804CBA0E80810F5E7A0
:10030000121D5CBF51F8043B40F8043BAFF3008082
:10031000D20724BF11F8013B11F801CB48BF11F8F7
:10032000012B24BF00F8013B00F801CB48BF00F8C7
:10033000012B70474FF0000200B5134694469646D5
:10034000203922BFA0E80C50A0E80C50B1F12001E8
:10035000BFF4F7AF090728BFA0E80C5048BF0CC096
:100360005DF804EB890028BF40F8042B08BF7047F4
:1003700048BF20F8022B11F0804F18BF00F8012B66
:100380007047704770477047704710B500F03AF8F3
:10039000006810BD10B5044600F034F8046010BDCC
:1003A00010B5203AC0F00B80B1E81850203AA0E810
:1003B0001850B1E81850A0E81850BFF4F5AF5FEA44
:1003C000027C24BFB1E81850A0E8185044BF18C9F7
:1003D00018C0BDE810405FEA827C24BF51F8043B9E
:1003E00040F8043B08BF7047D20728BF31F8023BF2
:1003F00048BF11F8012B28BF20F8023B48BF00F886
:10040000012B704700487047900E0020004870474D
:10041000900E00207546FFF7F9FFAE4605006946CD
:10042000534620F00700854618B020B5FFF72AFF95
:10043000BDE820404FF000064FF000074FF00008E5
:100440004FF0000B21F00701AC46ACE8C009ACE866
:10045000C009ACE8C009ACE8C0098D467047044645
:10046000AFF300802046FFF7F8FE000000B5002043
:1004700006F038F9012005F077FF002005F01CFF99
:1004800000203D490880012005F06EFF012870D151
:10049000002005F011FF01286BD16FF06D00374986
:1004A00008800020344908803548007850B9344825
:1004B000407838B96FF009003049088000202E4993
:1004C000088022E02E48007801280ED12C48407880
:1004D00058B9012006F006F96FF009002749088095
:1004E0006FF01D00244908800FE02548007860B9AE
:1004F00023484078012808D106F0F4F86FF009008D
:100500001E4908801E201C4908801D4800790128CA
:100510000CD11B484079012808D16FF031001749F0
:100520000880002014490880012000BD144800798B
:1005300070B91348407901280AD106F0D3F86FF05A
:1005400031000E4908806FF01D000B49088010E053
:100550000B48007901280CD10948407948B901209D
:1005600006F0C0F86FF03100044908801E200249EF
:1005700008800020D9E70000C6010020C201002049
:10058000FA07002010B5002013E09FED390A10EEA5
:10059000101A00EB4012374B03EB420251609FED03
:1005A000360A10EE101A00EB401203EB4202116201
:1005B000401C0428E9DB01203049087030480078ED
:1005C000062853D2DFE800F0030A121A222A00F0AC
:1005D000E5F8012801D12A49087047E0FFF746FFF6
:1005E000012802D10220264908703FE000F04EF8B1
:1005F000012802D103202249087037E000F070F989
:10060000012802D104201E4908702FE0FFF72EFFB9
:10061000012802D105201A49087027E000F036F8B9
:10062000012822D1042006F057F800201449087050
:100630001249087000BF13E09FED120A10EE101A65
:1006400000EB40120B4B03EB420251609FED0E0A90
:1006500010EE101A00EB401203EB42021162401C34
:100660000428E9DB012006F03DF800BF00BF10BD03
:100670003E0AD73D640000206E43D14702080020A7
:1006800048000020295C0F3D49828B4700B53D485A
:10069000006818B93C4800683A4908603A48006860
:1006A00038490968401AB0F5E17F69D9002006F0A1
:1006B00019F8002005F058FE002005F0FDFD00208F
:1006C0003249088005F050FE012828D1002005F0AD
:1006D000F3FD012823D12E48006850B92A4800684C
:1006E0002B4908606FF09F002A49088000202749A5
:1006F00008802548006826490968401A40F28A2186
:1007000088423DD96FF031002249088000201F49FE
:1007100008801F4908601B490860012000BD1E4871
:10072000007850B91C48407838B96FF03100194949
:10073000088000201549088022E017480078012829
:100740000ED11548407858B9012005F0CBFF6FF065
:100750003100104908806FF01D000C4908800FE03F
:100760000D48007860B90C484078012808D105F0A0
:10077000B9FF6FF03100074908801E200349088047
:100780000020CBE75C0000201C040020C6010020F4
:1007900058000020C2010020FA07002000B5002008
:1007A00005F0A0FF012005F0DFFD012005F084FD2C
:1007B000002048490880012005F0D6FD012803D11A
:1007C00005F07AFD012807D06FF045004249088006
:1007D00000204049088006E06FF06D003E49088027
:1007E00000203C490880012005F0BEFD01280DD104
:1007F0003A48807850B93948C07838B96FF0090064
:10080000354908800020334908802CE0012005F09C
:10081000ABFD012812D13148807801280ED12F4834
:10082000C07858B9012005F05DFF6FF009002A4932
:1008300008806FF01D002749088014E0012005F0B2
:1008400093FD01280FD12548807860B92348C078EE
:10085000012808D105F046FF6FF009001E49088005
:100860001E201C4908801D48807901280CD11B4896
:10087000C079012808D16FF03100174908800020A5
:1008800014490880012000BD1448807970B91348CC
:10089000C07901280AD105F025FF6FF031000E491B
:1008A00008806FF01D000B49088010E00B4880792C
:1008B00001280CD10948C07948B9012005F012FF80
:1008C0006FF03100044908801E2002490880002092
:1008D000D9E70000C6010020C2010020FA0700206D
:1008E00000B5002005F0FEFE012005F03DFD0120D1
:1008F00005F0E2FC002048490880012005F034FDA5
:10090000012803D105F0D8FC012807D06FF03B0087
:100910004249088000204049088006E06FF06D00E1
:100920003E49088000203C490880012005F01CFD5C
:1009300001280DD13A48807850B93948C07838B983
:100940006FF00900354908800020334908802CE009
:10095000012005F009FD012812D1314880780128D5
:100960000ED12F48C07858B9012005F0BBFE6FF0BA
:1009700009002A4908806FF01D002749088014E00B
:10098000012005F0F1FC01280FD12548807860B9DD
:100990002348C078012808D105F0A4FE6FF00900B3
:1009A0001E4908801E201C4908801D4880790128A6
:1009B0000CD11B48C079012808D16FF031001749CC
:1009C0000880002014490880012000BD1448807967
:1009D00070B91348C07901280AD105F083FE6FF081
:1009E00031000E4908806FF01D000B49088010E0AF
:1009F0000B48807901280CD10948C07948B90120F9
:100A000005F070FE6FF03100044908801E20024995
:100A100008800020D9E70000C6010020C2010020A4
:100A2000FA07002010B52DED028BB0EE408ADF48AA
:100A300090ED000AF7EE000A30EEC00ADC48D0ED77
:100A4000000A20EE200AD948D0ED000A08EE200A5C
:100A5000D74880ED000A02F071F804287ED1D5480D
:100A6000007820B1012864D0022861D1FCE01E206A
:100A7000D149086348638863C863D048B0F900006F
:100A800000EE100AB8EEC00AF1EE000A20EE200ACD
:100A9000DFEDCB0A80EE201AB2EE000A31EE000A3A
:100AA000C348D0ED000AB4EEE00AF1EE10FA0BD222
:100AB000C44800884FF6FE71884205DAC1480088B4
:100AC000401CC049088029E0BC48B0F9000000EE95
:100AD000100AB8EEC00AF1EE000A60EE200A9FED9F
:100AE000B81A80EE810AFAEE000A30EE200AB04809
:100AF000D0ED000AB4EEE00AF1EE10FA0BDDB148D9
:100B000000884FF6FE71884205DAAE480088401C26
:100B1000AC49088002E00020AA490880A948008862
:100B2000642805DD0120A34908700020A54908803C
:100B3000DFE09F4890ED000AB5EEC00AF1EE10FA32
:100B400031DD9D48006B1E2816DC9B4890ED0A0A9B
:100B5000B8EEC00A9648D0ED000A00E0CAE0B2EE56
:100B6000081A00EE810ABDEEC00A934880ED0E0A15
:100B7000806B9149C86345E08F4890ED080AB8EE54
:100B8000C00A8B48D0ED000AF1EE600AB2EE081AF6
:100B900000EE810ABDEEC00A874880ED0C0A006BAA
:100BA000854948632EE08448806B1E2816DC824805
:100BB00090ED080AB8EEC00A7D48D0ED000AF1EECB
:100BC000600AB2EE081A00EE810ABDEEC00A7A4849
:100BD00080ED0C0A006B7849486313E0764890ED8D
:100BE0000A0AB8EEC00A7248D0ED000AB2EE081A3E
:100BF00000EE810ABDEEC00A6F4880ED0E0A806BE0
:100C00006D49C8636A4890ED000AB5EEC00AF1EE7E
:100C100010FA02DD90ED000A04E0654890ED000A4C
:100C2000B1EE400ADFED680AB4EEE00AF1EE10FA28
:100C30000BD2664800884FF6FE71884205DA634899
:100C40000088401C6149088002E000205F4908805C
:100C50005E480088B0F5967F05DD02205549087092
:100C600000205A49088044E0514890ED000AB5EE52
:100C7000C00AF1EE10FA02DD90ED000A04E04C48E3
:100C800090ED000AB1EE400AF1EE000AB4EEE00A7F
:100C9000F1EE10FA03DD0120464908701FE04648D6
:100CA000006B4549896B401A002805DD4248006BFE
:100CB0004149896B401A04E03F48806B3E49096B0B
:100CC000401AB0F5967F0ADA414800884FF6FE7167
:100CD000884204DA3E480088401C3D4908803C4870
:100CE0000088962804DD00203249087038490880C1
:100CF00000BF00BF3048006B1E2801DA1E2001E053
:100D00002D48006B2C4908630846006BB0F5966FC0
:100D100002DD4FF4966001E02748006B2649086326
:100D20000846406B1E2801DA1E2001E02248406B75
:100D3000214948630846406BB0F5966F02DD4FF4D9
:100D4000966001E01C48406B1B4948630846806B75
:100D50001E2801DA1E2001E01748806B16498863BF
:100D60000846806BB0F5966F02DD4FF4966001E0A7
:100D70001148806B104988630846C06B1E2801DA51
:100D80001E2001E00C48C06B0B49C8630846C06BCD
:100D9000B0F5966F02DD4FF4966001E00648C06B37
:100DA0000549C863BDEC028B10BD00005C07002044
:100DB0005807002048070020940A0020D00D00208A
:100DC0000000484360070020CDCC0C4062070020A3
:100DD0006407002010B54FF4A06003F08BF902F017
:100DE00059F903F097FF02F033FA114806F070FA50
:100DF0004FF4E13006F012FC4FF4E13006F0FEFA59
:100E000008F036F807F05EFF07F0E6FE4FF47A7060
:100E100007F0D4FE05F0C4FD00F0E4F800F04EFA4F
:100E20004FF4C86007F0CAFE05F0F2FD10BD0000E7
:100E3000A086010000BFFEE7C178012903D1018827
:100E4000491C018001E00021018001880A290EDD92
:100E50000188B1F57A7F07DAC178012909D1817853
:100E600039B90121017104E00221017101E0002181
:100E700001718178C170704710B504462246002187
:100E80003A4800F0ECFC2068A0F20120062869D264
:100E9000DFE800F00311223344562146344805F0C0
:100EA00041FD224633493248203004F0E5F832480B
:100EB00002F0CBFD57E021462D48001D05F032FD24
:100EC00022462C4918312A48243004F0D5F82A4803
:100ED000801C02F0BAFD46E021462548083005F0A6
:100EE00021FD2246234930312148283004F0C4F83E
:100EF0002148001D02F0A9FD35E021461C480C30B8
:100F000005F010FD22461B49483119482C3004F0E9
:100F1000B3F81948801D02F098FD24E0207BE17AA7
:100F200040EA012015494861A17B607B41EA00202D
:100F300000B2124988611048001F02F086FD12E0DD
:100F4000207BE17A40EA01200C490860A17B607BAC
:100F500041EA002000B2094948600748801E02F0BB
:100F600074FD00E000BF00BF10BD00000064004041
:100F7000940A0020480C00209C040020F405002066
:100F8000F0B585B004460D4616461F464FF4007076
:100F9000009000208DF808008DF8090008208DF8D9
:100FA0000A00200A8DF80B00E1B28DF80C10290A16
:100FB0008DF80D10E9B28DF80E10310A8DF80F1072
:100FC000F1B28DF81010390A8DF81110F9B28DF8C0
:100FD00012106946024800F0CAFC05B0F0BD0000DE
:100FE0000064004000B58BB00121084604F01AF9F6
:100FF0000121480604F026F909220B21354801F0A9
:101000005FFD09220C21334801F05AFD4FF4C05016
:10101000029002208DF80C0002A92E4801F008FD74
:1010200014208DF8040001208DF8050000208DF8B3
:10103000060001208DF8070001A803F01FF82648DC
:1010400000F04AFA08A800F082FC00208DF8260083
:101050008DF827008DF828008DF829008DF82A00DA
:1010600001208DF82B0000208DF822008DF8230040
:1010700008208DF8240003208DF82500ADF820000D
:1010800008A9154800F061FB01208DF81A00002026
:101090008DF81B0001208DF81C000020ADF8100019
:1010A000ADF81200ADF81400ADF81600ADF8180058
:1010B00001208DF81D0004A800F02AFA0122022167
:1010C000054800F039FB01221146034800F034FBCB
:1010D0000BB000BD000002400064004000B585B0C8
:1010E0000221064800F098FA30B10221034800F0CE
:1010F0009FF96846FFF7C0FE05B000BD00640040E0
:1011000030B585B004460D4640F2FF100090002037
:101110008DF808008DF8090008208DF80A00200AD3
:101120008DF80B00E1B28DF80C10290A8DF80D1026
:10113000E9B28DF80E1000218DF80F108DF8101007
:101140008DF811108DF812106946024800F00FFC5E
:1011500005B030BD00640040F0B585B004460D46D2
:1011600016461F464FF40070009000208DF80800CE
:101170008DF8090008208DF80A00200A8DF80B0070
:10118000E1B28DF80C10290A8DF80D10E9B28DF836
:101190000E10310A8DF80F10F1B28DF81010390AC7
:1011A0008DF81110F9B28DF812106946024800F05E
:1011B000DEFB05B0F0BD00000068004010B504463D
:1011C00022460021344800F04AFB2068A0F20120AA
:1011D00006285ED2DFE800F003112233444E214698
:1011E0002E4805F09FFB22462D492C48203003F065
:1011F00043FF2C4802F029FC4CE021462748001D03
:1012000005F090FB2246264918312448243003F08B
:1012100033FF2448801C02F018FC3BE021461F48A5
:10122000083005F07FFB22461D4930311B4828302D
:1012300003F022FF1B48001D02F007FC2AE02146B4
:1012400016480C3005F06EFB22461549483113480C
:101250002C3003F011FF1348801D02F0F6FB19E05B
:1012600022461149114805F043FA0E48143002F0A5
:10127000ECFB0FE00E480088401C0D490880224618
:101280000C490D4805F034FA0648163002F0DDFB33
:1012900000E000BF00BF10BD00680040340A00201D
:1012A000A80C002090040020300B0020140B00201C
:1012B000FE0100206C0B0020500B002000B58BB00D
:1012C0000121022003F0AEFF0121880603F0BAFFDE
:1012D00009220C21354801F0F3FB09220D21334886
:1012E00001F0EEFB4FF44050029002208DF80C000C
:1012F00002A92E4801F09CFB40208DF8040001203B
:101300008DF8050000208DF8060001208DF80700FB
:1013100001A802F0B3FE264800F0DEF808A800F0AD
:1013200016FB00208DF826008DF827008DF8280088
:101330008DF829008DF82A0001208DF82B0000205F
:101340008DF822008DF8230008208DF8240003205A
:101350008DF82500ADF8200008A9154800F0F5F932
:101360000E208DF81A0000208DF81B0001208DF84A
:101370001C000020ADF81000ADF81200ADF814000C
:10138000ADF81600ADF8180001208DF81D0004A876
:1013900000F0BEF801220221054800F0CDF901223B
:1013A0001146034800F0C8F90BB000BD000402402C
:1013B0000068004000B585B00221064800F02CF915
:1013C00030B10221034800F033F86846FFF7F6FE1B
:1013D00005B000BD0068004030B585B004460D463C
:1013E00040F2FF10009000208DF808008DF80900F1
:1013F00008208DF80A00200A8DF80B00E1B28DF864
:101400000C10290A8DF80D10E9B28DF80E1000218C
:101410008DF80F108DF810108DF811108DF8121036
:101420006946024800F0A3FA05B030BD00680040EC
:10143000B1F5007F3AD00FDC202928D006DC012945
:101440001CD004291DD0082940D11DE0402921D0FD
:10145000B1F5807F3AD126E0B1F5004F31D006DCFE
:10146000B1F5806F25D0B1F5006F2FD124E0B1F533
:10147000803F12D0B1F5003F28D111E0154A8260BB
:1014800025E00822C26022E01022C2601FE008228C
:1014900002611CE01022026119E00822426016E09D
:1014A0001022426013E00422426010E004224260F5
:1014B0000DE0042242600AE00022826104224260C0
:1014C00005E0002282610422426000E000BF00BF0C
:1014D000704700000101010010B504460B4884422A
:1014E00009D10121480603F0BDFE00214FF0007034
:1014F00003F0B8FE08E00121880603F0B3FE0021E6
:101500004FF0806003F0AEFE10BD000000640040AC
:1015100010B50021837A012202FA03F13D4A1268D4
:1015200042F001023B4B1A603A4A1C3212688A436D
:10153000384B1C331A60027BCAB9364A0C32126827
:101540008A43344B0C331A604288C38842EA03430F
:10155000304A4032847A42F834300288838842EA42
:1015600003432C4A4032847A02EBC4025360027B6C
:10157000012A19D1274A0C3212680A43254B0C3331
:101580001A604288038842EA0343224A4032847A3E
:1015900042F83430C288838842EA03431D4A40320D
:1015A000847A02EBC4025360C27A3AB9194A121D16
:1015B00012688A43174B1B1D1A6006E0154A121D5C
:1015C00012680A43134B1B1D1A60028932B9114A73
:1015D000143212688A430F4B14331A600289012AAD
:1015E00006D10C4A143212680A430A4B14331A60AB
:1015F000427B012A06D1074A1C3212680A43054B76
:101600001C331A60034A126822F00102014B1A606F
:1016100010BD00000066004070B504460D4600266F
:1016200060692840002871D0B5F5807F5CD010DC5F
:10163000082D35D006DC012D20D0022D24D0042D1C
:1016400072D127E0102D31D0202D35D0402D6BD117
:1016500038E0B5F5004F60D009DCB5F5007F49D022
:10166000B5F5806F4CD0B5F5006F5DD14FE0B5F5A5
:10167000803F2DD0B5F5003F56D12FE0A0682D4911
:1016800000F0ACFA064651E0E068032100F0A6FA4B
:1016900006464BE0E068082100F0A0FA064645E067
:1016A000E068102100F09AFA06463FE02069032125
:1016B00000F094FA064639E02069082100F08EFA1D
:1016C000064633E02069102100F088FA06462DE036
:1016D0006068082100F082FA064627E06068102161
:1016E00000F07CFA064621E0A069012100F076FABC
:1016F00006461BE0A069022100F070FA064615E0DC
:10170000A069042100F06AFA06460FE00FE0A06924
:10171000702100F063FA064608E06068042100F0DA
:101720005DFA064602E0FFE7002600BF00E0002663
:10173000304670BD010101001AB143690B4343619A
:1017400002E043698B434361704730B50246002095
:101750000023146824F002041460146844F00104A7
:10176000146000E05B1C546804F001041CB94FF6DF
:10177000FF74A342F6D1546804F001040CB90020B0
:101780006CE08C79012C04D1146844F0800414605E
:1017900003E0146824F080041460CC79012C04D197
:1017A000146844F04004146003E0146824F040041A
:1017B00014600C7A012C04D1146844F020041460E5
:1017C00003E0146824F0200414604C7A012C04D146
:1017D000146844F01004146003E0146824F010044A
:1017E00014608C7A012C04D1146844F0080414604D
:1017F00003E0146824F008041460CC7A012C04D1AE
:10180000146844F00404146003E0146824F0040431
:1018100014608C78A407CD7844EA05640D7944EA15
:1018200005444D7944EA05540D886D1E2C43D4615E
:10183000146824F001041460002300E05B1C546869
:1018400004F001041CB14FF6FF74A342F6D15468B2
:1018500004F001040CB1002000E0012030BD10B5FF
:1018600000F5D87303EB01131B6803F00403137234
:10187000137A53B900F5D87303EB01131B6840F2D8
:10188000FF7404EA5353136009E000F5D87303EBC7
:1018900001131B686FF0604404EAD303536000F542
:1018A000D87303EB01131B6803F00203537200F5B6
:1018B000D87303EB01135B6803F00F03937200F519
:1018C000D87303EB01135B681B0AD37400F5D8735C
:1018D00003EB01139B68D37200F5D87303EB01137C
:1018E0009B681C0A147300F5D87303EB01139B6803
:1018F0001C0C547300F5D87303EB01139B681B0E8B
:10190000937300F5D87303EB0113DB68D37300F511
:10191000D87303EB0113DB681C0A147400F5D87349
:1019200003EB0113DB681C0C547400F5D87303EB54
:101930000113DB681B0E937421B9C36843F02003C5
:10194000C36003E0036943F02003036110BD00217D
:101950008171C171017241728172C1728170C170F5
:10196000032101710221417101210180704710B5ED
:1019700002460020936803F08063B3F1806F00D1CA
:1019800010E0936803F00063B3F1006F01D1012010
:1019900008E0936803F08053B3F1805F01D1022027
:1019A00000E00420042874D002F5C07303EB001398
:1019B0001B6803F0010402F5C07303EB00131C6005
:1019C0000B7A7BB94B7A0C8843EA445302F5C07416
:1019D00004EB00142468234302F5C07404EB0014E4
:1019E000236010E00B7A4C6843EAC4034C7A23432B
:1019F00002F5C07404EB00142468234302F5C0749C
:101A000004EB001423608B7A03F00F038B7202F552
:101A1000C07303EB00135B6823F00F0402F5C0737F
:101A200003EB00135C6002F5C07303EB00135B680B
:101A30008C7A234302F5C07404EB001463608B7B43
:101A40001C064B7B44EA03440B7B44EA0323CC7A19
:101A5000234302F5C07404EB0014A3608B7C1C06C6
:101A60004B7C44EA03440B7C44EA0323CC7B2343B2
:101A700002F5C07404EB0014E36002F5C07303EBDD
:101A800000131B6843F0010402F5C07303EB00135D
:101A90001C6010BDDFED0D0AB4EEE00AF1EE10FAA5
:101AA00004DDDFED0A0AC0ED000A0DE0DFED080AF3
:101AB000B4EEE00AF1EE10FA04D2DFED050AC0ED53
:101AC000000A01E080ED000A704700000020B245E6
:101AD0000080D4C43948006840F65431081A01EE39
:101AE000100AB8EEC11AB0EE410A344840693449D0
:101AF0000968081A01EE100AB8EEC11AF0EE410AA0
:101B00009FED301A60EE011A9FED2F2A81EE821AA6
:101B10002E48D0ED031AF1EE611A31EEC11AF7EE3C
:101B2000001A31EE211A2A4880ED001A274890ED5C
:101B3000041AF0EE081A31EE611A254880ED011AF8
:101B40009FED201A60EE811A9FED1F2A81EE821A06
:101B50001E48D0ED051A31EE211A1D4880ED021AFB
:101B600090ED021ADFED1B1AB4EEE11AF1EE10FA55
:101B700006DD90ED021ADFED131A31EE611A02E074
:101B8000134890ED021A124880ED021A90ED021AE5
:101B9000DFED111AB4EEE11AF1EE10FA06D290ED73
:101BA000021ADFED081A31EE211A02E0084890ED22
:101BB000021A074880ED021A70470000F405002061
:101BC000F00500200000B44300000046D00D0020C6
:101BD000F40A002000003443000034C30246002011
:101BE00002EA01030BB1012000E000207047000071
:101BF00010B5002410E0234901EB440001F010FF70
:101C0000204B203B33F8142040331919203B33F884
:101C1000140001F00EFF641C102CECDB1948203876
:101C200090F84000012807D11749086000201749A3
:101C300008800B2004F050FD04240EE011482030F1
:101C4000005D012808D1801E0F49086020B20F49AD
:101C500008800B2004F040FD641C0E2CEEDB0948CC
:101C6000203890F8410001280AD100F067FF0128D0
:101C700003D1032004F030FD02E00A2004F02CFD23
:101C800010BD000088040020BC040020B80400201F
:101C900010B59F480068401C9D49086008460068D0
:101CA0004FF47A71B0FBF1F201FB120030B99948A0
:101CB000008899490880002096490880974801F0DB
:101CC00055FEFFF795FF00BF002407E004EB440139
:101CD000934A02EB4100FFF7AFF8641C102CF5DBD0
:101CE00005F020FF00F02AFF0C2831D2DFE800F0D9
:101CF0003106A8FBB8C5FCD7E0E9FDFA84480068C6
:101D0000B0F5967F24D903F051FB002004F0E4FCE9
:101D100040F654308349C8604969834A1268511AB1
:101D20004FF4616201FB02F0C11700EBD14149138E
:101D300000EE101AB8EEC00A7C49D1ED050AB2EEE9
:101D4000041A00EE810ABDEEC00A764981ED080A48
:101D5000CCE006F0F1F97548B0F90600002803DD83
:101D60007248B0F9060003E07048B0F9060040423E
:101D7000142862DA6D48B0F90A00002803DD6B48C8
:101D8000B0F90A0003E06948B0F90A00404214289B
:101D900053DA664890ED030ADFED650A60EE200A2B
:101DA0009FED641A80EE810ADFED630A70EE200A6F
:101DB0005C4890ED030AB8EEC00A30EE600AB5EE5A
:101DC000C00AF1EE10FA16DD584890ED030ADFED77
:101DD000580A20EE200ADFED570A80EE201A9FED08
:101DE000560A71EE000A4F4890ED030AB8EEC00A99
:101DF00030EE600A17E04D4890ED030ADFED4C0A23
:101E000060EE200A9FED4B1A80EE810ADFED4A0A50
:101E100070EE200A434890ED030AB8EEC00A30EE97
:101E2000600AB1EE400ADFED450AB4EEE00AF1EED9
:101E300010FA02D2022004F04FFC04F0D9FC55E065
:101E400001F022FA012802D1042004F045FC06F03A
:101E500073F901F08DFB04F0CBFC04F0B1FF45E019
:101E600005F0A4F906F068F903F096FC01F080FB98
:101E700004F0BEFC04F0A4FF38E005F097F906F08A
:101E80005BF903F089FC2E48D0ED000AB0EE600A41
:101E9000FEF7C8FD01F06CFB04F0AAFC26E0FEF79B
:101EA00071FB06F049F903F077FC01F061FB1DE0DE
:101EB00000F092FA06F040F903F06EFC01F058FBD6
:101EC00014E005F073F904F07BFF06F035F903F038
:101ED00063FC01F04DFB04F08BFC07E002E004E042
:101EE00002E000E002E001E000E000BF00BF01F01E
:101EF000F1F8FFF7EFFD01F083FE0548007800F0F0
:101F0000010018B905F06EFD05F098FD10BD000048
:101F10001C040020FE010020000200201804002004
:101F2000080D0020F4050020F0050020D00D002051
:101F3000000000460000B443004035450000484220
:101F4000F40A00202DE9F0413C493D4800F0B6F983
:101F5000002871D04FF08151394800F09DF8374981
:101F6000374800F0B3F8374801F06FFD3648007885
:101F70005A280DD134484078A52809D1002404E01E
:101F80003149085D02F092FF641C222CF8DB48E026
:101F90002E4890F821005A2805D12B480078A52812
:101FA00001D121260EE000250AE02848405D5A288C
:101FB00005D12649681C085CA52800D12E466D1C59
:101FC000222DF2DB002405E0A0192049085C2049FD
:101FD0000855641CC6F12200A042F5DC002707E08A
:101FE0001948C15D07F12200801B194A11547F1C5A
:101FF000B742F5DB002404E01348005D134908559F
:10200000641C222CF8DB4FF0000806E0104911F8A0
:10201000080002F04BFF08F10108B8F1220FF5DBD0
:1020200000BF0C4806F03AFE0A48801D06F040FE4C
:1020300008480C3006F028FEBDE8F0810080201032
:102040004060024088040020680D00208A0D0020B6
:10205000AC0D0020D00D00207047000010B50A49DB
:102060000A4800F02BF970B14FF08151074800F099
:1020700013F80549054800F029F8054803F02EFB40
:10208000044801F0E2FC10BD0080201040640240D2
:10209000440800208A0400200246094B9A4201D2DB
:1020A000084801E00648103801F000531BB1064B08
:1020B0000B40C36002E0044B0B408360704700009C
:1020C00010640240006002407D0F7D0F0246094B04
:1020D0009A4201D2084801E00648103801F0005346
:1020E0001BB1064B0B40C36002E0044B0B40836006
:1020F0007047000010640240006002407D0F7D0FB9
:1021000021B1026842F00102026003E0026822F09D
:102110000102026070470000016821F001010160C6
:102120000021016041608160C16001612121416144
:102130004A49884204D13D21484A103A91608CE0D6
:1021400046491831884205D14FF47461434A103A28
:10215000916082E041493031884205D14FF47411D9
:102160003E4A103A916078E03C494831884205D1B6
:102170004FF07461394A103A91606EE0374960312E
:10218000884204D13649354A103AD16065E0334976
:102190007831884204D13349304A103AD1605CE04A
:1021A0002E499031884204D12F492C4A103AD160EF
:1021B00053E02A49A831884205D14FF03D51274AC2
:1021C000103AD16049E02949884204D13D21274A8B
:1021D000083A116041E025491831884205D14FF491
:1021E0007461224A083A116037E020493031884250
:1021F00005D14FF474111D4A083A11602DE01B49B6
:102200004831884205D14FF07461184A083A11608C
:1022100023E016496031884204D11149134A121F44
:1022200011601AE011497831884204D10D490F4AF2
:10223000121F116011E00D499031884204D10A4902
:102240000A4A121F116008E00849A831884204D1E7
:102250004FF03D51054A121F116070471060024057
:102260003D000020400F002000003D20106402408F
:1022700021B1026842F48022026003E0026822F485
:1022800080220260704722B1036843F40023036098
:1022900003E0036823F400230360016170470146F3
:1022A000486880B27047014600200A6802F40022A4
:1022B0000AB1012000E000207047000070B502461E
:1022C000002000240025124EB24201D2114B01E041
:1022D0000F4B103B104E0E4036B11E2606EAD1249D
:1022E000166806EA040502E0566906F0800501F06A
:1022F00000560EB15C6800E01C68084E344004EAE9
:10230000010616B10DB1012000E0002070BD0000F3
:1023100010640240006002403C0F3C0F7D0F7D0FB7
:1023200010B501F080034BB122B1436943F0800343
:10233000436103E0436923F08003436180290BD0AC
:102340002AB1036801F01E042343036004E003681C
:1023500001F01E04A343036010BD000010B500226D
:102360000268134B1A40CC680B6823434C69234323
:102370008C692343CC6923430C6A23434C6A23436F
:102380008C6A23434C6B23438C6B23431A430260B8
:10239000426922F00702D1E90B3423431A43426118
:1023A0000B6943604B6883608B68C36010BD00009D
:1023B0003F801CF00021016041608160C1600161CB
:1023C00041618161C161016241628162C1620163F7
:1023D000416381637047704710B5012004F082F9B2
:1023E000002013E09FED390A10EE101A00EB4012A6
:1023F000374B03EB420251609FED360A10EE101A84
:1024000000EB401203EB42021162401C0428E9DB9E
:1024100001203149087031480078062853D2DFE89E
:1024200000F0030A121A222A00F0AEF8012801D1A6
:102430002A49087047E000F057F8012802D102202D
:10244000264908703FE000F0E9F8012802D1032096
:102450002249087037E000F097F8012802D10420E3
:102460001E4908702FE000F03FF8012802D1052036
:102470001A49087027E000F0D1F8012822D1002085
:10248000154908701549087000BF13E09FED140A44
:1024900010EE101A00EB40120D4B03EB420251609C
:1024A0009FED100A10EE101A00EB401203EB4202EF
:1024B0001162401C0428E9DB042004F00DF900201F
:1024C00004F010F900BF00BF10BD00003E0AD73D68
:1024D000640000206E43D14702080020490000201C
:1024E000295C0F3D49828B4700B5002023490880B5
:1024F00023490880012003F037FF002003F0DCFEB1
:10250000012003F031FF012835D1002003F0D4FE73
:10251000012830D12320194908800020184908805B
:102520001848807801280AD11648C078012806D1B9
:1025300000201249088012490880012000BD11487E
:10254000807850B90F48C078012806D100200B4987
:1025500008801E200A4908800DE00A48807801287A
:1025600009D10848C07830B90020044908806FF0CC
:102570001D00034908800020E0E70000C2010020A0
:10258000C6010020FA07002000B50020204908807D
:102590002049088003F0E8FE002003F08DFE0020B3
:1025A00003F0E2FE012831D1002003F085FE01286E
:1025B0002CD128201649088017480078012809D115
:1025C00015484078012805D100200880114908806D
:1025D000012000BD1048007850B90F48407801280C
:1025E00006D100200A4908801E200A4908800DE013
:1025F00009480078012809D10748407830B90020FF
:10260000034908806FF01D00024908800020E0E7C0
:10261000C2010020C6010020FA07002000B50020FA
:102620001F4908801F490880012003F09DFE0120FA
:1026300003F042FE012003F097FE01282ED103F0A3
:102640003BFE01282AD11848006818B917480068CD
:10265000154908605A201249088000201149088055
:102660001248006810490968401A642805D90020FA
:1026700003F07AFE002003F01FFE0C4800680A49B0
:102680000968401AB0F5966F08D9002004490880FF
:102690000449088004490860012000BD0020FCE7CF
:1026A000C2010020C6010020600000201C040020A0
:1026B00010B5102000F018F8012807D101F0C8F972
:1026C000102000F005F8102000F008F810BD000000
:1026D0000149086070470000143C0140014908604E
:1026E00070470000143C0140014600200022074BC7
:1026F0001B6803EA0102054B14331B680B4013B13E
:102700000AB1012000E0002070470000003C0140B9
:102710008CB00169002901DD016901E001694942CC
:102720004269002A01DD426901E0426952420A44DD
:102730008169002901DD816901E0816949420A441A
:10274000C169002901DDC16901E0C1694942114443
:1027500001EE101AB8EEC10A0168002901DD016816
:1027600001E0016849424268002A01DD426801E057
:10277000426852420A448168002901DD816801E013
:10278000816849420A44C168002901DDC16801E04D
:10279000C1684942114401EE101AF8EEC10A002145
:1027A000089109910A910B91049105910691079165
:1027B000B5EEC00AF1EE10FA02DDB0EE401A01E00B
:1027C000B1EE401ADFED931AB4EEE11AF1EE10FA11
:1027D00010D29FED911A8DED081A9FED8F1A8DED95
:1027E000091A9FED8D1A8DED0A1A9FED8B1A8DED4A
:1027F0000B1A27E090ED041AB8EEC11A21EE201A48
:10280000C1EE001ACDED081A90ED051AB8EEC11A06
:1028100021EE201AC1EE001ACDED091A90ED061A2C
:10282000B8EEC11A21EE201AC1EE001ACDED0A1A37
:1028300090ED071AB8EEC11A21EE201AC1EE001A67
:10284000CDED0B1ADDED081A90ED001AB8EEC11AA5
:1028500031EEC11A8DED041ADDED091A90ED011A61
:10286000B8EEC11A31EEC11A8DED051ADDED0A1A66
:1028700090ED021AB8EEC11A31EEC11A8DED061AAA
:10288000DDED0B1A90ED031AB8EEC11A31EEC11A44
:102890008DED071A614991ED001ADDED041A9FEDE7
:1028A000602A01EE821A81ED001A91ED001ADDED29
:1028B000041A9FED5B2A01EE821A81ED001A91ED58
:1028C000001ADDED041A9FED562A01EE821A81ED01
:1028D000001A91ED001ADDED041A9FED512A01EE68
:1028E000821A81ED001A002132E04C4A02EB81028B
:1028F00092ED001ADFED4B1AB4EEE11AF1EE10FA88
:1029000002DD9FED481A04E0444A02EB810292ED99
:10291000001A424A02EB810282ED001A3F4A02EBA2
:10292000810292ED001ADFED401AB4EEE11AF1EEE9
:1029300010FA02D29FED3C1A04E0384A02EB810201
:1029400092ED001A354A02EB810282ED001A491C11
:102950000429CADB314991ED001ADDED041AB0EE0D
:10296000082A01EE821ABDEEC11A8DED001A91ED12
:10297000011ADDED051AB0EE082A01EE821ABDEE4D
:10298000C11A8DED011A91ED021ADDED061AB0EEB5
:10299000082A01EE821ABDEEC11A8DED021A91EDE0
:1029A000031ADDED071AB0EE082A01EE821ABDEE19
:1029B000C11A8DED031A002117E05DF82120B2F550
:1029C0007A6F02DD4FF47A6201E05DF821204DF864
:1029D00021205DF8212012F57A6F01DA134A01E017
:1029E0005DF821204DF82120491C0429E5DB016C0C
:1029F000009A11440164416C019A11444164816C54
:102A0000029A11448164C16C039A1144C1640CB0F0
:102A100070470000CDCCCC3D00000000840A0020AF
:102A20000AD7233C00007A4400007AC460F0FFFF1C
:102A3000F0B50A4600210023002400BF3DE0012537
:102A400005FA01F3156805EA03049C4234D10568D0
:102A50004F000326BE40B543056015794E00B540D2
:102A60000668354305601579012D02D01579022DD0
:102A700016D185684F000326BE40B5438560557961
:102A80004E00B540866835438560456801268E4016
:102A9000B5434560456896798E40B6B2354345608A
:102AA000C5684F000326BE40B543C560D5794E00CA
:102AB000B540C6683543C560491C1029BFD3F0BD79
:102AC000F0B5002300244D07ED0E02FA05F3CE10F9
:102AD00000F1200555F826504E07F70E0F26BE4090
:102AE000B543CF1000F1200646F82750CE1000F174
:102AF000200555F8265045EA0304CE1000F12005C4
:102B000045F82640F0BD0246002013690B400BB18A
:102B1000012000E000207047418370470183704727
:102B20004FF6FF7101600021017141718171C17126
:102B3000704742694A40426170470000014800788E
:102B400070470000FC01002030B5034613B94FF672
:102B5000FF7030BD09E013F8014B82EA0400C0B2F7
:102B6000054D35F8100080EA22220800A1F101018C
:102B7000F1D11046EDE700002C9A000830B503466D
:102B800005E013F8010B80EA02040448025D080026
:102B9000A1F10105A9B2F4D1104630BD2B9900086E
:102BA00000BFFEE710B5044600F0B0F82CB14FF4BA
:102BB00000710D48FFF7B2FF04E04FF400710A48BE
:102BC000FFF7AAFF4FF480710748FFF7A7FF012026
:102BD00000F00CF84FF480710348FFF79DFF0120CF
:102BE00000F004F810BD00000004024010B5002100
:102BF00006E0062200BF1300A2F10102FBD1491C2E
:102C00008142F6D310BD000070B5002400F068F8D2
:102C100000251BE04FF480711148FFF77DFF012074
:102C2000FFF7E4FF4FF480710D48FFF777FF600670
:102C3000040E4FF400710A48FFF765FF08B1601CED
:102C4000C4B20120FFF7D2FF681CC5B2082DE1DB3A
:102C50004FF480710248FFF75FFF204670BD00000F
:102C6000000402402DE9F04106460F4614469846FE
:102C700000F060F8304600F0CBF800F09BF8FF2839
:102C800001D1BDE8F081384600F0C2F800F092F8BA
:102C9000FF2800D1F5E700F04DF8711CC8B200F034
:102CA000B7F800F087F8FF2800D1EAE7002508E030
:102CB000FFF7AAFF20700020FFF774FF641C681C58
:102CC000C5B2A8F10100A842F2DCFFF79DFF207019
:102CD0000120FFF767FF00F04DF80020D1E700006A
:102CE0001CB54FF40070009000208DF804008DF8A2
:102CF00006008DF8070002208DF80500694602489D
:102D0000FFF796FE1CBD0000000402401CB54FF406
:102D10000070009001208DF804008DF8060003205B
:102D20008DF8050069460248FFF782FE1CBD0000D1
:102D30000004024010B5FFF7E9FF4FF400710C48A2
:102D4000FFF7ECFE4FF480710948FFF7E7FE012022
:102D5000FFF74CFF4FF400710548FFF7DDFE01203F
:102D6000FFF744FF4FF480710148FFF7D5FE10BD17
:102D70000004024010B5FFF7C9FF4FF480710C4802
:102D8000FFF7CAFE4FF400710948FFF7C5FE0120A6
:102D9000FFF72CFF4FF480710548FFF7BFFE4FF49B
:102DA00000710348FFF7BAFE0120FFF71FFF10BDB7
:102DB0000004024010B54FF47A744FF400711348C8
:102DC000FFF7ACFEFFF78CFF0120FFF70FFF4FF47A
:102DD00080710E48FFF7A2FE0120FFF707FF07E012
:102DE000601E80B2040003D0FFF7C4FFFF2010BDB7
:102DF0004FF400710548FFF786FE0028F0D14FF42C
:102E000080710248FFF788FE0020F0E700040240CE
:102E100070B50446FFF77AFF4FF480711448FFF74E
:102E20007BFE002521E004F0800028B14FF4007102
:102E30000F48FFF773FE04E04FF400710C48FFF7F2
:102E40006BFE6006040E0120FFF7D0FE4FF4807188
:102E50000748FFF763FE0120FFF7C8FE4FF48071BB
:102E60000348FFF759FE681CC5B2082DDBDB70BDB7
:102E7000000402403448807C00F00100334988702F
:102E80003148807CC0F34001304801722E48807C7C
:102E9000C0F380012D4881732B48807CC0F3C001B2
:102EA0002A4801752848807CC0F3001127488176A4
:102EB0002548807CC0F34011244880F82010224827
:102EC000807CC0F38011214880F826101E48807C49
:102ED000C1091E4880F82C101B48C07C00F001017D
:102EE0001A4880F832101848C07CC0F340011748D7
:102EF00080F838101448C07CC0F38001134880F873
:102F00003E101148C07CC0F3C001104880F8441046
:102F10000D48C07CC0F300110C4880F84A100A48E4
:102F2000C07CC0F34011094880F850100648C07CAE
:102F3000C0F38011054880F856100348C07CC109D1
:102F4000024880F85C107047E4070020080D00205C
:102F500010B5424800780A2830DA40480078002846
:102F60002CDD3F4800684FF41661B0FBF1F201FB25
:102F700012003A4909784900C1EB011101EB8101C6
:102F8000B0EB410F27D8364800684FF41661B0FB0C
:102F9000F1F201FB120020B902213248FFF7BEFD19
:102FA00019E02F4800689621B0FBF1F201FB1200F6
:102FB00088B902212B48FFF7BCFD0CE027480078B8
:102FC0000A2804DB02212748FFF7A6FD03E00221BF
:102FD0002448FFF7A3FD244800780A2830DA224865
:102FE000007800282CDD1E4800684FF41661B0FB05
:102FF000F1F201FB12001C4909784900C1EB0111F3
:1030000001EB8101B0EB410F27D8154800684FF460
:103010001661B0FBF1F201FB120020B90121114849
:10302000FFF77CFD19E00E4800689621B0FBF1F235
:1030300001FB120088B901210A48FFF77AFD0CE074
:10304000094800780A2804DB01210648FFF764FDDF
:1030500003E001210348FFF761FD10BDC00400201B
:103060001C04002000080240C10400200A2801DDE1
:103070000A2200E00246054B1A700A2901DD0A22E5
:1030800000E00A46024B1A7070470000C00400209E
:10309000C10400201CB50121042002F0C3F8032064
:1030A000009001208DF8040000208DF80600032018
:1030B0008DF8050069460648FFF7BAFC022104486E
:1030C000FFF72CFD01210248FFF728FD1CBD000081
:1030D0000008024010B55C4800689621B0FBF1F290
:1030E00001FB120000286FD1FFF728FD0C280BD23E
:1030F000DFE800F00B06107D151A821F2429A02E90
:103100000A210846FFF7B2FF99E009210846FFF7B8
:10311000ADFF94E009210846FFF7A8FF8FE00021EA
:103120000120FFF7A3FF8AE000210120FFF79EFFA7
:1031300085E000210120FFF799FF80E000210120B8
:10314000FFF794FF7BE000210120FFF78FFF76E07F
:103150003E4800880E2804D10A210320FFF786FF8D
:1031600044E03A4800880F2804D10A210420FFF7E0
:103170007DFF3BE03548008804280BD033480088A9
:10318000052807D031480088062803D02F4800883A
:10319000072804D10A210220FFF768FF26E02B4808
:1031A00000880A280BD0294800880B2807D0274818
:1031B00000880C2803D0254800880D2805D10A2155
:1031C0000120FFF753FF11E03CE020480088092868
:1031D00003D01E480088082804D10A210520FFF7E3
:1031E00045FF03E00A210620FFF740FF27E0012109
:1031F0000846FFF73BFF22E0134800684FF41661D2
:10320000B0FBF1F201FB120020B90A210020FFF708
:103210002DFF0EE00C48006800F596604FF4166133
:10322000B0FBF1F201FB120018B900210A20FFF7F0
:103230001DFF04E001210846FFF718FF00BF00BF93
:10324000FFF786FE10BD00001C040020B80400201B
:103250001CB50121042001F0E5FF20200090012091
:103260008DF8040000208DF8060003208DF805007D
:1032700069460448FFF7DCFB20210248FFF74CFCBD
:103280001CBD0000000802406148007820B1012800
:1032900036D0022833D162E09FED5E0A10EE100AAC
:1032A0005D4948609FED5B0A10EE100AC1F84600C8
:1032B0009FED580A10EE100AC1F888009FED550ADC
:1032C00010EE100AC1F8CA0046205449086348634A
:1032D0008863C8630846006A1E2810DD0846406AF5
:1032E0001E280CDD0846806A1E2808DD0846C06AD4
:1032F0001E2804DD0120464908704949087083E012
:103300009FED480A10EE100A434948609FED460AB7
:1033100010EE100AC1F846009FED430A10EE100AA5
:10332000C1F888009FED400A10EE100AC1F8CA00EB
:103330003E483A49086348638863C86308460068A2
:10334000496808443549896808443449C9680844CB
:1033500010F1190F02DA02202D49087054E02F48AD
:1033600000682E49496808442C49896808442B495B
:10337000C968084400280BDD2848006827494968C7
:1033800008442649896808442449C96808440BE070
:10339000224800682149496808442049896808444E
:1033A0001E49C968084440420A282CDA00202049F6
:1033B000C88200211E48C185A0F84610A0F85E1002
:1033C00000201649086348638863C8639FED150AA7
:1033D00010EE100A104948609FED120A10EE100A14
:1033E000C1F846009FED0F0A10EE100AC1F88800E0
:1033F0009FED0C0A10EE100AC1F8CA00002008491F
:1034000008700120704700BF00BF0020FAE70000ED
:1034100024040020CDCCCC3D0A030020940A0020D7
:1034200025040020CDCC4C3D00000000F0D8FFFF6B
:10343000480C00204749097801297DD1464991ED82
:10344000000AB1EE400AD1ED010A70EE600A90ED7B
:10345000000A9FED421A01EE200A80ED000A91ED6C
:10346000000AB1EE400AD1ED010A70EE200A90ED9B
:10347000010A9FED3A1A01EE200A80ED010A91ED52
:10348000000AD1ED010A70EE600A90ED020A9FED8C
:10349000331A01EE200A80ED020A91ED000AD1ED07
:1034A000010A70EE200A90ED030A9FED2C1A01EE3E
:1034B000200A80ED030A91ED000AB1EE400AD1ED39
:1034C000010A30EE600ADFED250A20EE200ABDEE8B
:1034D000C00A10EE101A09B2214A11801E4991ED5E
:1034E000000AB1EE400AD1ED010A30EE200ADFED0C
:1034F0001B0A20EE200ABDEEC00A10EE101A09B217
:10350000184A1180144991ED000AD1ED010A30EEFC
:10351000600ADFED120A20EE200ABDEEC00A10EEAE
:10352000101A09B2104A11800B4991ED000AD1ED31
:10353000010A30EE200A00E00AE0DFED080A20EE82
:10354000200ABDEEC00A10EE101A09B2074A118017
:103550007047000025040020F40A00200000824289
:103560005C0400205E04002060040020620400204F
:1035700010B52DED048BFFF7E1FA042872D1F34862
:10358000007A0128FAD1F24800680A21B0FBF1F272
:1035900001FB120000287DD1EC48407A012804D0BC
:1035A000022860D003285CD1C8E0E849C988A1F5A9
:1035B000806101EB4101880005F01DFF9FEDE50BE7
:1035C00053EC102B05F090FD05F0E6FE00B2E34948
:1035D000096B0844E1490863DC49C988A1F58061A9
:1035E00001EB4101880005F006FF9FEDDA0B53EC7B
:1035F000102B05F079FD05F0CFFE00B2D749496BDD
:103600000844D6494863D149C988A1F5806101EBD6
:103610004101880005F0EFFE9FEDCE0B53EC102B1F
:1036200005F062FD05F0B8FE00B2CC49896B084494
:10363000CA498863C549C988A1F5806101EB410188
:10364000880005F0D8FE9FEDC30B53EC102B05F05E
:103650004BFD05F0A1FE00B2C049C96B0844BF494B
:10366000C8636CE074E0B949C988A1F58061C1EB19
:10367000C10005F0C0FE41EC190B9FEDB60B53ECF9
:10368000102B05F031FD41EC180B05F085FE00B262
:10369000B24900E054E0096B0844B0490863AB4903
:1036A000C988A1F58061C1EBC10005F0A4FE41EC21
:1036B000190B9FEDA80B53EC102B05F015FD41ECF9
:1036C000180B05F069FE00B2A449496B0844A349F0
:1036D00048639E49C988A1F58061C1EBC10005F02E
:1036E0008AFE41EC190B9FED9B0B53EC102B05F060
:1036F000FBFC41EC180B05F04FFE00B29749896BBB
:10370000081A964988639149C988A1F58061C1EB7F
:10371000C10005F070FE41EC190B9FED8E0B53ECD0
:10372000102B05F0E1FC41EC180B05F035FE00B262
:103730008A49C96B081A8949C86300E000BF00BF05
:103740008748007802F010FE8548007802F0B4FD4A
:10375000FFF7F4F9022857D08048006B1E2801DAE1
:103760001E2001E07D48006B7C4908630846006B21
:10377000B0F5966F02DD4FF4966001E07748006B7C
:10378000764908630846406B1E2801DA1E2001E0D6
:103790007248406B714948630846406BB0F5966FBC
:1037A00002DD4FF4966001E06C48406B6B49486362
:1037B0000846806B1E2801DA1E2001E06748806BF6
:1037C000664988630846806BB0F5966F02DD4FF45A
:1037D000966001E06148806B604988630846C06B71
:1037E0001E2801DA1E2001E05C48C06B5B49C863FB
:1037F0000846C06BB0F5966F02DD4FF4966001E0AD
:103800005648C06B5549C863544890ED081AB8EE45
:10381000C11AF0EE410A90ED0C1AB8EEC11AB0EEE2
:10382000410A504801F05EF9BDEEC00A4B4880EDF8
:10383000040A90ED091AB8EEC11AF0EE410A90EDB3
:103840000D1AB8EEC11AB0EE410A4648423001F0F6
:1038500049F9BDEEC00A414880ED050A90ED0A1A0B
:10386000B8EEC11AF0EE410A90ED0E1AB8EEC11A88
:10387000B0EE410A3B48843001F034F9BDEEC00A95
:10388000364880ED060A90ED0B1AB8EEC11AF0EE3C
:10389000410A90ED0F1AB8EEC11AB0EE410A314854
:1038A000C63001F01FF9BDEEC00A2C4880ED070AB2
:1038B00090ED001AB8EEC11AF0EE410A90ED041A2C
:1038C000B8EEC11AB0EE410A274801F00BF92348BF
:1038D00080ED100A90ED011AB8EEC11AF0EE410A1F
:1038E00090ED051AB8EEC11AB0EE410A1E484230FA
:1038F00001F0F8F8194880ED110A90ED021AB8EEBF
:10390000C11AF0EE410A90ED061AB8EEC11AB0EEF7
:10391000410A1548843001F0E5F8104880ED120A9C
:1039200090ED031AB8EEC11AF0EE410A90ED071AB5
:10393000B8EEC11AB0EE410A0B48C63001F0D2F819
:10394000064880ED130ABDEC048B10BDE40700208F
:103950001C0400200000000000A08440940A002005
:1039600020040020020200200A03002010B50446B3
:103970002078012815D10B480088401C094908808F
:10398000012002F0F1FC012804D0012002F094FC97
:10399000012806D10020207002F0E6FC002002F091
:1039A0008BFC10BD64040020B0EE401AF7EE001A44
:1039B000B0EE610AF0EE081A60EEA11ADFED152AEA
:1039C00081EEA22ADFED141A72EE211AB0EE610A1E
:1039D000F7EE001AB4EEE10AF1EE10FA02DDF7EEAE
:1039E000001A01E0F0EE401AB0EE610ADFED0A1AAB
:1039F000B4EEE10AF1EE10FA02D2DFED071A01E0AF
:103A0000F0EE401AB0EE610ADFED041AB0EE610A82
:103A10007047000000004843CDCCCC3D6666663F51
:103A200001884FF6FE72914202DA0188491C01803A
:103A30007047034602EB8200984202DA01200870C8
:103A400001E000200870087870470021018070476D
:103A50001FB50E236A463B21D020FFF703F9FF284C
:103A600001D104B010BD9DF801009DF8001040EA9E
:103A7000012000B2584908809DF803009DF802100B
:103A800040EA012000B2544948809DF805009DF8A5
:103A9000041040EA012000B24F4988809DF80700D9
:103AA0009DF8061040EA012000B24B49C8809DF8FD
:103AB00009009DF8081040EA012000B2464908813B
:103AC0009DF80B009DF80A1040EA012000B242491F
:103AD00048819DF80D009DF80C1040EA012000B2CD
:103AE0003D4988810846B0F9000000EE100AB8EEA2
:103AF000C00AB1EE400ADFED390A80EE201A3848DC
:103B000080ED001A0846B0F9020000EE100AB8EE87
:103B1000C00AB1EE400ADFED310A80EE201A3048CB
:103B200080ED011A0846B0F9040000EE100AB8EE64
:103B3000C00ADFED2A0A80EE201A294880ED021A19
:103B40000846B0F9060000EE100AB8EEC00A9FED74
:103B5000251AC0EE010A9FED240A30EE800A2048A3
:103B600080ED030A0846B0F9080020490968401AA8
:103B700000EE100AB8EEC00ADFED1D0A80EE201A32
:103B8000174880ED041A1448B0F90A001949096869
:103B9000401A00EE100AB8EEC00AB1EE400ADFED9E
:103BA000140A80EE201A0E4880ED051A0A48B0F972
:103BB0000C0011490968401A00EE100AB8EEC00A5C
:103BC000B1EE400ADFED0A0A80EE201A044880EDCB
:103BD000061A002045E70000E00B00200000004628
:103BE000F00B00200000AA43B81E124298070020E4
:103BF000000083429C070020A007002000BFFEE7D2
:103C000070B5FEF79BFF0C287DD2DFE800F01B06A5
:103C10003B7CAAF5F3F2F1F0EFEE00210846FDF748
:103C20006FFA00231A4619461846FDF795FA002345
:103C30001A4619461846FDF7A3F900210846FDF774
:103C4000CBFB18E2F94A128A11B2F84A928C10B2F0
:103C5000FDF756FA00231A4619461846FDF77CFA76
:103C600000231A4619461846FDF78AF9F04991EDE6
:103C7000070ABDEEC00A10EE101A08B20021FDF7C7
:103C8000ABFBF8E1EB480068401CEA4908604FF4E0
:103C90004870E9490860091D0860E848D0ED100A3D
:103CA000B0EE600AE648FDF7F5FEE448D0ED110AF3
:103CB000B0EE600AE248001DFDF7ECFEDF48D0EDF3
:103CC000120AB0EE600ADE480830FDF7E3FEDB487A
:103CD000D0ED130AB0EE600AD9480C30FDF7DAFED9
:103CE000D748FFF7A7FBD14A128A11B2CF4A928C6C
:103CF00010B2FDF705FA00231A4619461846FDF7DB
:103D00002BFACF4C00E0A1E194ED030ABDEEC00A0E
:103D100010EE104A23B2CA4C94ED020ABDEEC00A5E
:103D200010EE104A22B2C64C94ED010ABDEEC00A54
:103D300010EE104A21B2C24C94ED000ABDEEC00A4A
:103D400010EE104A20B2FDF71BF9B94991ED070AB0
:103D5000BDEEC00A10EE101A08B20021FDF73CFBC0
:103D600089E1B24A128A11B2B04A928C10B2FDF7C0
:103D7000C7F9B44CE36CA26C616C206CFDF7ECF9F4
:103D8000AE4C94ED130ABDEEC00A10EE104A23B2F9
:103D9000AA4C94ED120ABDEEC00A10EE104A22B2EF
:103DA000A64C94ED110ABDEEC00A10EE104A21B2E5
:103DB000A24C94ED100ABDEEC00A10EE104A20B2DB
:103DC000FDF7DEF8A04A92ED070ABDEEC00A10EE3C
:103DD000102A11B2964A92ED070ABDEEC00A10EE03
:103DE000102A10B2FDF7F8FA45E126E04FE0E7E0CF
:103DF000A4E061E036E0FFE78C4A128A11B28B4AF8
:103E0000928C10B2FDF77CF98E4CE36CA26C616C65
:103E1000206CFDF7A1F900231A4619461846FDF754
:103E2000AFF8834991ED070ABDEEC00A10EE101AF3
:103E300008B20021FDF7D0FA1DE100210846FDF788
:103E40005FF900231A4619461846FDF785F9002345
:103E50001A4619461846FDF793F800210846FDF763
:103E6000BBFA08E100210846FDF74AF900231A468B
:103E700019461846FDF770F900231A4619461846E8
:103E8000FDF77EF800210846FDF7A6FAF3E00021D1
:103E90000846FDF735F900231A4619461846FDF77E
:103EA0005BF900231A4619461846FDF769F8002108
:103EB0000846FDF791FADEE05C49C86801F0D9F8E0
:103EC0005A49098A084404B25849486903F01CFF5A
:103ED0005649898C084405B221462846FDF710F959
:103EE000584CE36CA26C616C206CFDF735F9534CB7
:103EF00094ED130ABDEEC00A10EE104A23B24F4CE7
:103F000094ED120ABDEEC00A10EE104A22B24B4CDC
:103F100094ED110ABDEEC00A10EE104A21B2474CD2
:103F200094ED100ABDEEC00A10EE104A20B2FDF763
:103F300027F800210846FDF74FFA9CE03B49C86886
:103F400001F097F83949098A084404B237494869A9
:103F500003F0DAFE3549898C084405B2214628462B
:103F6000FDF7CEF8374CE36CA26C616C206CFDF76A
:103F7000F3F8324C94ED130ABDEEC00A10EE104A6D
:103F800023B22E4C94ED120ABDEEC00A10EE104A78
:103F900022B22A4C94ED110ABDEEC00A10EE104A6E
:103FA00021B2264C94ED100ABDEEC00A10EE104A64
:103FB00020B2FCF7E5FF00210846FDF70DFA5AE0B4
:103FC0001A4A128A11B2194A928C10B2FDF798F867
:103FD0001C4CE36CA26C616C206CFDF7BDF8174CB7
:103FE00094ED130ABDEEC00A10EE104A23B2134C32
:103FF00094ED120ABDEEC00A10EE104A22B20F4C28
:1040000094ED110ABDEEC00A10EE104A21B20B4C1D
:1040100094ED100ABDEEC00A10EE104A20B2FCF773
:10402000AFFF00210846FDF7D7F924E0F405002092
:10403000300B0020380400203C040040940A00208B
:10404000E40A0020340A00206C0B002000210846FE
:10405000FDF756F800231A4619461846FDF77CF876
:1040600000231A4619461846FCF78AFF0021084625
:10407000FDF7B2F900BF00BF70BD704770B50021F9
:1040800000230F22C4781CB3174C246804F4E064A6
:10409000C4F5E064C4F30721C1F10404E3B20A41AA
:1040A00044789C40E1B28478144021430C07210EEF
:1040B0000E4C05786155047804F01F050124AC40CE
:1040C00005786D11AD0005F1E025C5F8004109E066
:1040D000047804F01F050124AC40054D06787611E4
:1040E00045F8264070BD00000CED00E000E400E063
:1040F00080E100E002490143024A1160704700007C
:104100000000FA050CED00E070B506460024351DF0
:10411000A3E0285DC02840D012DCA52829D008DC07
:1041200090281ED0A02821D0A12820D0A22877D165
:104130001EE0B02826D0B12825D0B228F7D123E040
:10414000D1287BD006DCC12828D0C22827D0D0288F
:10415000EDD12DE0D92865D0E02879D0F02879D1AB
:1041600074E0687840490870A41C75E000BF00BF87
:1041700000BF29193D4851F8012F026089888180CC
:10418000E41D69E000BF00BF2919394851F8012F2B
:10419000026089888180E41D5EE000BF00BF2919AC
:1041A000344851F8012F026089888180E41D53E072
:1041B000601C295CA01C285C01EB002000B200EE12
:1041C000100AB8EEC00ADFED2C0A80EE201A2B4848
:1041D00080ED001AE01C295C201D285C01EB00200A
:1041E00000B200EE100AB8EEC00ADFED230A80EE3E
:1041F000201A224880ED011A601D295CA01D285C50
:1042000001EB002000B200EE100AB8EEC00AF2EE98
:10421000040A80EE201A194880ED021AE41D1BE002
:1042200018E00BE02919154851F8012F02604A687F
:104230004260896881600D340EE009E02819411C54
:1042400010220F48FCF731F8113405E0641D03E03B
:10425000641D01E0641C00BF00BFB6F88400A042EA
:104260003FF757AF70BD00002E0800201C0800204B
:1042700022080020280800200000C842740E0020F8
:10428000800E00200021F7EE000AB0EE600AD0E9AF
:1042900004239A4201DD026900E042691146826905
:1042A0008A4201DA0A4600E082691146C2698A42FE
:1042B00001DA0A4600E0C269114600EE901AF8EEF3
:1042C000E00A9FED1D1AF4EEC10AF1EE10FA31DD9D
:1042D00000EE901AF8EEE00A9FED171AC1EE201AD0
:1042E000B0EE610AD0ED040AF8EEE00A60EE800A52
:1042F000FDEEE00AC0ED040AD0ED050AF8EEE00A92
:1043000060EE800AFDEEE00AC0ED050AD0ED060A77
:10431000F8EEE00A60EE800AFDEEE00AC0ED060A63
:10432000D0ED070AF8EEE00A60EE800AFDEEE00A42
:10433000C0ED070A7047000000D0044670B505467E
:104340000C46FEF7FBFB042803D0FEF7F7FB05281D
:1043500076D14648007800F001000028F8D14448A2
:104360008078D0B14348B0F90000B0F5257F0BDA72
:104370004048B0F90000002806DB3E480088401C99
:1043800000B23C49088029E03A48B0F90000002812
:1043900024DA00203749088020E03548007AD0B17F
:1043A0003448B0F9000010F5257F0BDD3148B0F935
:1043B0000000002806DC2F480088401E00B22D496E
:1043C00008800BE02B48B0F90000002806DD002033
:1043D0002849088002E00020264908802448007D02
:1043E000C8B12548B0F90000B0F5257F0BDA2248A6
:1043F000B0F90000002806DB1F480088401C00B20E
:104400001D49088029E0B4F90000002825DA0020C1
:104410001949088021E01648807BD8B11648B0F9C8
:10442000000010F5257F0CDD1348B0F900000028CE
:1044300007DC11480088401E00B20F4908800CE0DC
:1044400013E00D48B0F90000002806DD00200A49FD
:10445000088002E00020084908800648B0F9000002
:1044600028800548B0F90000208070BD1C040020A1
:10447000080D0020EA010020EC01002010B50446E0
:104480001C48007C01280ED11B48007858B91B48F5
:104490000088401C00B21949088019480088401C57
:1044A00000B2174908801748007830B9164890F8CC
:1044B0004A00012801D1207006E0134890F84C0012
:1044C000022801D100202070207820B920210F4837
:1044D000FEF722FB03E020210C48FEF71FFB0548F6
:1044E000007C05490870084890F84A0005490870A2
:1044F00010BD0000E4070020E5050020140B00209B
:10450000500B0020E6050020080D002000080240A6
:1045100010B5AC4A12784AB990ED000AB8EEC00A5C
:10452000A94A82ED000A0122A64B1A70A74A127806
:10453000A2BBA74A92F82620012A4CD1A54A92EDA7
:10454000000AB5EEC00AF1EE10FA02DD92ED000AA3
:1045500004E0A04A92ED000AB1EE400ADFED9E0AA7
:10456000B4EEE00AF1EE10FA35D2974A92ED000A65
:10457000DFED9A0A30EE200A82ED000A92ED000A81
:10458000DFED970AB4EEE00AF1EE10FA07DD92EDE6
:10459000000ADFED940A30EE600A03E01BE08A4A6D
:1045A00092ED000A884A82ED000A92ED000ADFEDE2
:1045B0008E0AB4EEE00AF1EE10FA06D292ED000A8D
:1045C000DFED880A30EE200A02E07F4A92ED000A11
:1045D0007D4A82ED000A7E4A92F826207B4B1A70B3
:1045E000824A1278A2BB7A4A92F82C20012A4CD136
:1045F000784A92ED000AB5EEC00AF1EE10FA02DD3B
:1046000092ED000A04E0734A92ED000AB1EE400A0E
:10461000DFED710AB4EEE00AF1EE10FA35D26A4A23
:1046200092ED000ADFED6D0A30EE600A82ED000ABD
:1046300092ED000ADFED6A0AB4EEE00AF1EE10FA3C
:1046400007DD92ED000ADFED670A30EE600A03E055
:104650001BE05D4A92ED000A5B4A82ED000A92ED92
:10466000000ADFED610AB4EEE00AF1EE10FA06D2BC
:1046700092ED000ADFED5B0A30EE200A02E0524ABA
:1046800092ED000A504A82ED000A514A92F82C201D
:10469000564B1A70564A12680A23B2FBF3F403FB16
:1046A0001422002A77D1534AB2F90A2000EE102AC8
:1046B000B8EEC00AF2EE0E0A20EE200A9FED4E1A66
:1046C000C0EE010A404A92ED000A30EE600A82ED27
:1046D000000A484AB2F90C2000EE102AB8EEC00ACF
:1046E000F0EE000A20EE200AF0EE080A80EE201A12
:1046F000424A92ED000A31EE000A82ED000A324A87
:1047000092ED000ADFED360AB4EEE00AF1EE10FA9F
:1047100006DD92ED000ADFED330A30EE600A02E0BA
:10472000294A92ED000A284A82ED000A92ED000A19
:10473000DFED2D0AB4EEE00AF1EE10FA06D292EDAA
:10474000000ADFED280A30EE200A02E01E4A92ED50
:10475000000A1D4A82ED000A284A92ED000ADFEDA8
:10476000280AB4EEE00AF1EE10FA02DD9FED240A09
:1047700002E0224A92ED000A204A82ED000A92ED00
:10478000000ADFED200AB4EEE00AF1EE10FA03D2DF
:104790009FED1C0A03E013E0184A92ED000A174A45
:1047A00082ED000A084A92ED000ABDEEC00A80EDD3
:1047B000000A124A92ED000ABDEEC00A81ED000A1D
:1047C00010BD000038070020300700203907002006
:1047D000080D0020CC0100207BD9A03E00006144E0
:1047E0000000E144000061450000E1C43A070020F8
:1047F0001C040020E40700200000204234070020B1
:104800000080544500A00C4500B5F0EE402AB0EE03
:10481000603A416900EE101AB8EEC00AB4EEE20A3E
:10482000F1EE10FA06D2416900EE101AB8EEC00A95
:10483000F0EE402A016900EE101AB8EEC00AB4EE9C
:10484000E20AF1EE10FA06DD016900EE101AB8EE88
:10485000C00AF0EE402A816A416232EEC30A10EECD
:10486000101A816272EEC30AC16800EE101AF4EEEB
:10487000C00AF1EE10FA02DDC168816213E072EE47
:10488000C30AC16800EE101AB1EE400AF4EEC00A85
:10489000F1EE10FA07D2C16800EE101AB1EE400A2C
:1048A00010EE101A816232EEC30AB5EEC00AF1EEC4
:1048B00010FA02DD32EEC30A03E032EEC30AB1EEB3
:1048C000400A816B00EE901AF8EEE00AB4EEE00ABE
:1048D000F1EE10FA04D89FED5B0A10EE101A816217
:1048E000816A00EE101AC16A00EE901A9FED561A06
:1048F00001EE200A10EE101AC162816A00EE101A51
:10490000416A00EE901A70EE600A816800EE101A9B
:1049100020EE800A10EE101A0163C16A00EE101A30
:10492000016A00EE901AB4EEE00AF1EE10FA01DD31
:10493000016AC162C16A00EE101A016A00EE901AA3
:10494000F1EE600AB4EEE00AF1EE10FA07D2016A65
:1049500000EE101AB1EE400A10EE101AC162816A20
:1049600000EE101A016800EE901A20EE200ABDEE4B
:10497000C00A10EE101A09B28187016B00EE101AFE
:10498000BDEEC00A10EE101A09B2C187C16A00EE6E
:10499000101A416800EE901A20EE200ABDEEC00AFF
:1049A00010EE101A09B2A0F84010816A00EE101A39
:1049B00000F04CF8816A00EE901A016801EE101ABE
:1049C00060EE810A20EE201AC16A00EE101A4168DA
:1049D00000EE901A00EE201A016B00EE101A31EE74
:1049E000000A10EE101A4163416B00EE101AC16903
:1049F00000EE901AF8EEE00AB4EEE00AF1EE10FADA
:104A000007DDC16900EE101AB8EEC00A10EE101AE8
:104A10004163416B00EE101A816900EE901AF8EEC6
:104A2000E00AB4EEE00AF1EE10FA07D2816900EE76
:104A3000101AB8EEC00A10EE101A4163416B00EE76
:104A4000101A00BD0000000077BE7F3FF0EE400A64
:104A5000B7EE001AB0EE410AF5EEC00AF1EE10FA18
:104A600002DDB0EE601A01E0B1EE601ADFED1A1A55
:104A7000B4EEE11AF1EE10FA2DD2F5EEC00AF1EE25
:104A800010FA02DDB0EE601A01E0B1EE601A9FED9F
:104A9000122AC1EE021A9FED111A31EE811AB0EE00
:104AA000410AB7EE001AB4EEC10AF1EE10FA02DDC7
:104AB000B7EE001A01E0B0EE401AB0EE410AB5EED2
:104AC000C00AF1EE10FA02D29FED051A01E0B0EE35
:104AD000401AB0EE410A70470000C843CDCCCC3E2E
:104AE00000000000B0EE401A416900EE101AB8EE66
:104AF000C00AB4EEC10AF1EE10FA06D2416900EE26
:104B0000101AB8EEC00AB0EE401A016900EE101A91
:104B1000B8EEC00AB4EEC10AF1EE10FA06DD016982
:104B200000EE101AB8EEC00AB0EE401A816A416277
:104B300031EE600A10EE101A816271EE601AC168DF
:104B400000EE101AF4EEC01AF1EE10FA02DDC168A0
:104B5000816213E071EE601AC16800EE101AB1EEC6
:104B6000400AF4EEC01AF1EE10FA07D2C16800EE66
:104B7000101AB1EE400A10EE101A816231EE600A8E
:104B8000B5EEC00AF1EE10FA02DD31EE600A03E084
:104B900031EE600AB1EE400A816B01EE901AF8EE38
:104BA000E11AB4EEE10AF1EE10FA04D89FED570ACB
:104BB00010EE101A8162816A00EE101AC16A01EECD
:104BC000901A9FED532A02EE210A10EE101AC162CC
:104BD000816A00EE101A416A01EE901A70EE611AB5
:104BE000816800EE101A21EE800A10EE101A01639F
:104BF000C16A00EE101A016A01EE901AB4EEE10AE1
:104C0000F1EE10FA01DD016AC162C16A00EE101A0C
:104C1000016A01EE901AF1EE611AB4EEE10AF1EECA
:104C200010FA07D2016A00EE101AB1EE400A10EE37
:104C3000101AC162816A00EE101A016801EE901A22
:104C400020EE210ABDEEC00A10EE101A09B28187CB
:104C5000016B00EE101ABDEEC00A10EE101A09B278
:104C6000C187C16A00EE101A416801EE901A20EE69
:104C7000210ABDEEC00A10EE101A09B2A0F84010C9
:104C8000816A00EE101A016801EE901A20EE212AC6
:104C9000C16A01EE901A416800EE101A01EE802AF6
:104CA000016B00EE101A32EE000A10EE101A41638A
:104CB000416B00EE101AC16901EE901AF8EEE11A8C
:104CC000B4EEE10AF1EE10FA07DDC16900EE101A48
:104CD000B8EEC00A10EE101A4163416B00EE101AD4
:104CE000816901EE901AF8EEE11AB4EEE10AF1EEF4
:104CF00010FA07D2816900EE101AB8EEC00A10EE61
:104D0000101A4163416B00EE101A7047000000005A
:104D100077BE7F3F00B58BB00121022000F082FA00
:104D20000121084600F07EFA0121022000F08AFAF3
:104D30000121082000F086FA0320099002208DF856
:104D4000280003208DF8290009A95448FDF770FEBA
:104D5000CC20099002208DF8280003208DF829002E
:104D600009A94F48FDF764FE022200214B48FDF7D8
:104D7000A7FE022201214948FDF7A2FE02220621D8
:104D80004748FDF79DFE022207214548FDF798FEA2
:104D9000022211464248FDF793FE022203214048B9
:104DA000FDF78EFE5320ADF818000020ADF81A0074
:104DB00044F6206007900020ADF8200006A939488D
:104DC00001F0BCFF5320ADF818000020ADF81A0028
:104DD000642007900020ADF8200006A9324801F0B9
:104DE000ADFF7020ADF804000120ADF806000020F2
:104DF000ADF808004FF47A7003900220ADF810006F
:104E00000020ADF81200ADF814004FF48070ADF83A
:104E1000160001A9234801F045FE01A9214801F02F
:104E200089FE01A91F4801F0E5FE01A91D4801F016
:104E30003BFF0020039001A91B4801F0DBFE01A904
:104E4000194801F031FF0821164801F069FE0821D8
:104E5000144801F0C1FE0821124801F01BFF08218F
:104E6000104801F05DFF08210F4801F013FF0821F1
:104E70000D4801F055FF01210A4801F0DBFD012139
:104E8000094801F0D7FD0121064801F0E5FD0121A7
:104E9000054801F0E1FD0BB000BD00000004024038
:104EA0000000024000040040000C004010B5044621
:104EB0006148007807287DD2DFE800F0040A333D1E
:104EC0004D5363005A2C02D101205B490870B0E0B9
:104ED0005A48006880F888405848006890F8880070
:104EE000A52804D0A62806D0A72818D10FE00220B4
:104EF0005149087013E05248006820B14F480068DB
:104F00004F490968884700204B49087007E0002096
:104F10004A490968086006204749087000BF00BF79
:104F200087E046480068A0F8844046488470032023
:104F3000414908707DE041480068B0F8840040EACB
:104F400004203E490968A1F884003E48C47004204A
:104F5000394908706DE03C480480052036490870E6
:104F600067E03948008840EA04203749088000207B
:104F70003249096808603549088006202E490870C2
:104F800057E02E48006801682C4800680068401C03
:104F90002A4A1268106029480068001D44542748B6
:104FA000006890F88800A72813D12448006800689A
:104FB000082800E039E00CD3082020490968A1F84E
:104FC00084001E4800681E490968884700201A4965
:104FD00008701A480068006818490968B1F8841018
:104FE000884221D31548006890F88800A5281BD175
:104FF00004221449154803F0C3FD104800680268F4
:105000000E480168091D114803F0BAFD0F480088D9
:105010000D490988884204D1084800680849096890
:10502000884700200449087003E000200249087006
:1050300000BF00BF002010BD3C0800203408002045
:10504000300800203D080020380800203A080020E1
:1050500070B504460D46044805608C212046FBF7D8
:1050600069F90248046070BD30080020340800204F
:10507000704701460020704770B52DED088B06463D
:105080000C461546287BE97A40EA012000B22082CE
:10509000204600F035F8B4F9100004F0ACF941EC0A
:1050A0001B0B9FED140B53EC102B04F01DF841EC7F
:1050B000190BB4F9160000EE100AB8EEC00ADFEDC5
:1050C0000F0A20EE200A10EE101A084604F0B2FB78
:1050D00041EC1A0B53EC192B03F05EFF41EC180B5B
:1050E00004F05AF9B4F9161000EBC1003060BDECC1
:1050F000088B70BD0000000000408F405C8F423E76
:10510000818A028A891A09B24182B0F9121041F2E9
:105110005452914204DDC18A491C09B2C18208E09F
:10512000B0F91210044A914203DAC18A491E09B249
:10513000C182018A81827047ACEAFFFF0B684A692D
:10514000D21A354B1A601A461268002A02DD1A4636
:10515000126802E0304A12685242062A0FDDB1F9A5
:105160001020002A02DDB1F9102002E0B1F9102070
:1051700052420A2A03DA8269521C826101E000234A
:1051800083618269642A05D9027D1AB901220275F8
:10519000224B1A70027D012A3CD1204A1278012A42
:1051A00004D0022A11D0032A33D129E00A68503AE8
:1051B0001B4B1A601A4692ED000AB8EE400A80EDC9
:1051C000020A0222154B1A7023E0154A92ED000ADA
:1051D000B8EE400A80ED020A114B0A681B68D21A29
:1051E00004D00F4B0A681B68D21A03E00C4B0A6804
:1051F0001B689A1A282A02D20322084B1A7008E068
:1052000000220275054B1A704288028000238361D8
:1052100000BF00BF70470000E8050020EC0500203B
:10522000D405002029B1064A12680243044B1A60D3
:1052300004E0034A12688243014B1A607047000081
:105240003038024029B1064A12680243044B1A6002
:1052500004E0034A12688243014B1A607047000061
:105260004038024029B1064A12680243044B1A60D2
:1052700004E0034A12688243014B1A607047000041
:105280002038024029B1064A12680243044B1A60D2
:1052900004E0034A12688243014B1A607047000021
:1052A0004438024029B1064A12680243044B1A608E
:1052B00004E0034A12688243014B1A607047000001
:1052C00024380240F0B500210022002402250026E7
:1052D0000223324F3F6807F00C0121B1042905D0A9
:1052E000082937D105E02E4F076036E02D4F0760C3
:1052F00033E02A4F3F1F3F68C7F38056274F3F1FB9
:105300003F6807F03F036EB1264FB7FBF3F7DFF8B6
:105310008CC0ACF1040CDCF800C0CCF3881C07FB9B
:105320000CF40CE01E4FB7FBF3F7DFF870C0ACF1E4
:10533000040CDCF800C0CCF3881C07FB0CF4174FFE
:105340003F1F3F68C7F301477F1C7D00B4FBF5F7A3
:10535000076002E0124F076000BF00BF0F4F3F68B9
:1053600007F0F0010909104F7A5C0768D7404760E1
:105370000A4F3F6807F4E051890A0B4F7A5C47688F
:10538000D7408760054F3F6807F46041490B064FDF
:105390007A5C4768D740C760F0BD0000083802401B
:1053A0000024F40000127A00D40700201E48008870
:1053B0001D49498808441C49898808441A49C988F4
:1053C0000844A0F5805000280DDD174800881649D4
:1053D000498808441449898808441349C9880844FD
:1053E000A0F580500CE0104800880F494988084417
:1053F0000D49898808440C49C9880844C0F5805083
:10540000082810DD00BFBFF34F8F0848006800F484
:10541000E06007490843001D04490860BFF34F8F4F
:1054200000BF00BFFEE77047E40700200CED00E07E
:105430000000FA0510B5FDF781FB042807D0FDF741
:105440007DFB052803D0FDF779FB09283CD100BF7F
:1054500042484088A0F580604149B1F90010401AE7
:1054600001280CDD3D484088A0F580600A2806DD53
:105470003C480088401C00B23A4908801FE0374889
:105480004088A0F580603649B1F90010401AB0F1AB
:10549000FF3F0DDA31484088A0F5806010F10A0F17
:1054A00006DA30480088401E00B22E49088006E027
:1054B0002A484088A0F5806000B22A49088029481F
:1054C000B0F900002649088000BF24480088A0F5F4
:1054D00080602549B1F90010401A01280CDD1F48F1
:1054E0000088A0F580600A2806DD20480088401C5E
:1054F00000B21E4908801FE018480088A0F58060AF
:105500001949B1F90010401AB0F1FF3F0DDA134804
:105510000088A0F5806010F10A0F06DA13480088B1
:10552000401E00B21149088006E00C480088A0F532
:10553000806000B20D4908800C48B0F900000A49AB
:105540000880FDF7FBFA092806D104488088A0F5F9
:10555000806000B20649088010BD0000E40700200A
:10556000E6010020C2010020E8010020C401002063
:10557000C60100201749097A012913D11649097873
:1055800003290FD11349497A02290BD113490988FC
:10559000C91C09B2114A118011490988C91C09B2F4
:1055A0000F4A11800B49097A01290DD10A4909785E
:1055B000032909D10749497A012905D1017809B997
:1055C000012100E0002101700249497A024A11706C
:1055D00070470000E4070020E4050020140B0020C1
:1055E000500B002070B52DED068B04460D46324859
:1055F00000680F21B0FBF1F201FB1200B0BB2F4994
:105600008988A1F5806003F0F6FE41EC1A0B9FED4E
:105610002C0B53EC102B03F019FF41EC190B9FEDF1
:105620002A0B53EC102B03F05FFD41EC180B03F039
:10563000B3FE2749096A081A254908620846006A24
:10564000B0F5E16F04DD0846006AA0F5616001E095
:105650001F48006A1E4908620846006A10F5E16F9B
:1056600005DA0846006A00F5616002E003E01848C8
:10567000006A174908621149C988C1F5806003F0C2
:10568000BAFE41EC1A0B9FED130B53EC102B03F0F9
:10569000DDFE41EC190B9FED0C0B53EC102B03F0CE
:1056A00023FD41EC180B03F077FE00F65430084957
:1056B000C860BDEC068B70BD1C040020E407002010
:1056C00000000000000034400000000000A0844002
:1056D000F40500200000000000C07C4000B5024638
:1056E0002B480088401C2A49088002B900BD107868
:1056F000517840EA0120C0F30A002649088050781A
:10570000C010917840EA4110C0F30A002149488056
:1057100090788011D17840EA8100117940EA8120A7
:10572000C0F30A001B49888010794010517940EA83
:10573000C110C0F30A001749C880507900118008D1
:1057400008725079C0F3011048729079D17940EA1B
:10575000012000B20F494881107A517A40EA0120B5
:1057600001B20C488181907AD17A40EA012001B2DD
:105770000848C181117B0174517B4174907B0549BC
:105780008874D17B0348C174FDF774FB00BFADE79B
:10579000F8070020E407002010B52DED0A8BFDF777
:1057A000CDF9072806D0FDF7C9F9082802D0002056
:1057B000F7490870FDF7C2F9042817D1002013E05B
:1057C0009FEDF40A10EE101A00EB4012F24B03EBBF
:1057D000420251609FEDF10A10EE101A00EB4012E8
:1057E00003EB42021162401C0428E9DBFDF7A6F935
:1057F00090B3FDF7A3F902282ED0E948C07C10B978
:10580000E748807C18B10120E649087024E0E448AC
:105810000088A0F58060002804DDE1480088A0F53C
:10582000806003E0DE480088C0F58060032810DC5B
:10583000DB484088A0F58060002804DDD848408817
:10584000A0F5806003E0D6484088C0F5806003285A
:1058500002DD0020D3490870D248007810B9FFF764
:10586000E9FD07E0CF480078012803D1CE49CF48B1
:10587000FEF764FDFDF762F9052845D141F2563087
:10588000CB49097811B1012936D11AE0A0F2EE21F5
:10589000C84A1160C84949691268511A002905DDD2
:1058A000C5494969C34A1268511A04E0C2494969A5
:1058B000C04A1268891A162902DA0121BC4A1170FD
:1058C0001AE000F2EE21BB4A1160BB494969126837
:1058D000511A002905DDB8494969B64A1268511ABA
:1058E00004E0B5494969B34A1268891A162902DAEF
:1058F0000021AF4A117000BF00BF9FEDB00A10EE4B
:10590000101AAF4A116009E041F25630A949086007
:105910009FEDAC0A10EE100AA9490860A64890ED68
:10592000080AB8EEC00AA848D0ED050AB2EE041A7B
:1059300000EEC10ADFEDA50AB4EEE00AF1EE10FABE
:1059400024DD9D4890ED080AF8EEC00A9E4890EDCF
:10595000051A9FED9F0AF2EE041A01EE210A30EEBD
:10596000C00ADFED9C0A20EE200A9FED991AC0EED6
:10597000010A914890ED050AB8EEC00A30EE800A9F
:10598000BDEEC00A944880ED000A57E08A4890EDC9
:10599000080AB8EEC00A8C48D0ED050AB2EE041A27
:1059A00000EEC10ADFED8D0AB4EEE00AF1EE10FA66
:1059B00024D2814890ED080AF8EEC00A824890EDA2
:1059C000051A9FED830AF2EE041A11EE210A30EE59
:1059D000C00ADFED800A20EE200A9FED7D1AC0EE9E
:1059E000010A754890ED050AB8EEC00A30EE800A4B
:1059F000BDEEC00A784880ED000A1FE06E4890EDC9
:105A0000080AB8EEC00A7048D0ED050AB2EE041AD2
:105A100000EEC10ADFED6F0A20EE200A9FED6C1A3E
:105A2000C0EE010A644890ED050AB8EEC00A30EEF7
:105A3000800ABDEEC00A684880ED000AFDF77EF8D6
:105A4000042803D0FDF77AF8052803D10120644922
:105A5000087011E0FDF772F8072803D0FDF76EF823
:105A6000082806D15F48007818B901205C49087001
:105A700002E000205A4908705948007801287DD179
:105A800047488088A0F58060002804DD444880886D
:105A9000A0F5806003E042488088C0F58060282837
:105AA0006DDA4548406943490968081A002805DD50
:105AB000414840693F490968081A04E03E48406986
:105AC0003C490968401AB42859DA3B4840693949C9
:105AD0000968081AB0F5805F27DD3748406900F58E
