:020000040800F2
:1000000098100020690200080D370008D523000869
:1000100071330008610A00087754000800000000EE
:1000200000000000000000000000000095440008EF
:10003000F91D000800000000D93E00081D49000815
:10004000830200088302000883020008830200087C
:10005000830200088302000883020008830200086C
:10006000830200088302000891210008830200082F
:10007000830200085D19000883020008751A000851
:10008000830200088302000883020008830200083C
:10009000F90B0008830200088302000883020008AD
:1000A000830200088302000883020008830200081C
:1000B000830200088302000883020008830200080C
:1000C00083020008830200088302000883020008FC
:1000D000830200088302000883020008F94F000829
:1000E00083020008830200088302000883020008DC
:1000F00083020008830200088302000883020008CC
:1001000083020008830200088302000883020008BB
:100110008302000883020008D14900088302000816
:100120008302000883020008791A0008830200088D
:10013000830200088302000883020008830200088B
:10014000ED0D000883020008830200088302000806
:10015000830200088302000883020008F9500008A7
:10016000830200088302000883020008830200085B
:10017000830200088302000883020008830200084B
:10018000830200088302000800F002F800F05CF827
:100190000AA090E8000C82448344AAF10107DA45E2
:1001A00001D100F051F8AFF2090EBAE80F0013F0D8
:1001B000010F18BFFB1A43F001031847CC6300007E
:1001C000EC6300000A444FF0000C10F8013B13F000
:1001D000070408BF10F8014B1D1108BF10F8015BA0
:1001E000641E05D010F8016B641E01F8016BF9D193
:1001F00013F0080F1EBF10F8014BAD1C0C1B09D1EA
:100200006D1E58BF01F801CBFAD505E014F8016B5B
:1002100001F8016B6D1EF9D59142D6D370470000ED
:100220000023002400250026103A28BF78C1FBD8FF
:10023000520728BF30C148BF0B6070471FB506F09A
:100240003CF91FBD10B510BD00F0D6F81146FFF700
:10025000F5FF05F0F9FB00F0F4F803B4FFF7F2FF47
:1002600003BC05F04DFB00000948804709480047E2
:10027000FEE7FEE7FEE7FEE7FEE7FEE7FEE7FEE756
:10028000FEE7FEE704480549054A064B70470000B3
:100290002149000889010008980A002098100020D0
:1002A000980C0020980C00207047032A40F2308000
:1002B00010F0030C00F0158011F8013BBCF1020FA7
:1002C000624498BF11F801CB00F8013B38BF11F828
:1002D000013BA2F1040298BF00F801CB38BF00F83F
:1002E000013B11F0030300F05080083AC0F0088091
:1002F00051F8043B083A51F804CBA0E80810F5E7A0
:10030000121D5CBF51F8043B40F8043BAFF3008082
:10031000D20724BF11F8013B11F801CB48BF11F8F7
:10032000012B24BF00F8013B00F801CB48BF00F8C7
:10033000012B70474FF0000200B5134694469646D5
:10034000203922BFA0E80C50A0E80C50B1F12001E8
:10035000BFF4F7AF090728BFA0E80C5048BF0CC096
:100360005DF804EB890028BF40F8042B08BF7047F4
:1003700048BF20F8022B11F0804F18BF00F8012B66
:100380007047704770477047704710B5203AC0F00B
:100390000B80B1E81850203AA0E81850B1E8185086
:1003A000A0E81850BFF4F5AF5FEA027C24BFB1E8C3
:1003B0001850A0E8185044BF18C918C0BDE8104034
:1003C0005FEA827C24BF51F8043B40F8043B08BF3D
:1003D0007047D20728BF31F8023B48BF11F8012B04
:1003E00028BF20F8023B48BF00F8012B70470000EF
:1003F00000487047340A00207546FFF7F9FFAE4603
:1004000005006946534620F00700854618B020B520
:10041000FFF738FFBDE820404FF000064FF000071F
:100420004FF000084FF0000B21F00701AC46ACE89C
:10043000C009ACE8C009ACE8C009ACE8C0098D4609
:1004400070470446AFF300802046FFF706FF000028
:1004500000B5002004F07CF9012004F0ADF8002084
:1004600004F05AF800203D490880012004F0A4F867
:10047000012870D1002004F04FF801286BD16FF0F3
:100480006D003749088000203449088035480078DD
:1004900050B93448407838B96FF0090030490880C5
:1004A00000202E49088022E02E48007801280ED135
:1004B0002C48407858B9012004F04AF96FF009003F
:1004C000274908806FF01D00244908800FE0254867
:1004D000007860B923484078012808D104F038F941
:1004E0006FF009001E4908801E201C4908801D4825
:1004F000007901280CD11B484079012808D16FF000
:10050000310017490880002014490880012000BDEF
:100510001448007970B91348407901280AD104F0D1
:1005200017F96FF031000E4908806FF01D000B497C
:10053000088010E00B48007901280CD10948407967
:1005400048B9012004F004F96FF031000449088033
:100550001E20024908800020D9E700008A010020FF
:10056000860100204806002010B5002013E09FED12
:10057000370A10EE101A00EB4012354B03EB420223
:1005800051609FED340A10EE101A00EB401203EB9D
:1005900042021162401C0428E9DB2F48007806283B
:1005A00051D2DFE800F0030A121A222A00F0DEF826
:1005B000012801D12849087045E0FFF749FF0128CB
:1005C00002D10220244908703DE000F04BF80128D8
:1005D00002D103202049087035E000F069F90128B4
:1005E00002D104201C4908702DE0FFF731FF0128DB
:1005F00002D105201849087025E000F033F80128E1
:1006000020D1052004F09EF800201349087000BF97
:1006100013E09FED120A10EE101A00EB40120C4B83
:1006200003EB420251609FED0E0A10EE101A00EB30
:10063000401203EB42021162401C0428E9DB012056
:1006400004F086F800BF00BF10BD00003E0AD73D91
:10065000280000206E43D1470C000020295C0F3D8C
:1006600049828B4700B53B48006818B93A48006892
:10067000384908603848006836490968401AB0F5BA
:10068000E17F64D9002004F063F8002003F094FFB8
:10069000002003F041FF00203049088003F08CFF68
:1006A000012828D1002003F037FF012823D12C484E
:1006B000006850B928480068294908606FF09F0019
:1006C00028490880002025490880234800682449DB
:1006D0000968401A40F28A21884238D96FF0310007
:1006E0002049088000201D4908801D4908601949DB
:1006F0000860012000BD1C48007850B91A484078B5
:1007000038B96FF03100174908800020134908807C
:100710001DE01548007801280BD11348407840B9F6
:100720006FF031000F4908806FF01D000B49088001
:100730000DE00D48007850B90B484078012806D1EB
:100740006FF03100074908801E200449088000200E
:10075000D0E7000020000020AC0300208A01002028
:100760001C000020860100204806002000B5002063
:1007700003F0EEFF012003F01FFF012003F0CCFE89
:10078000002048490880012003F016FF012803D10A
:1007900003F0C2FE012807D06FF0450042490880EF
:1007A00000204049088006E06FF06D003E49088057
:1007B00000203C490880012003F0FEFE01280DD1F5
:1007C0003A48807850B93948C07838B96FF0090094
:1007D000354908800020334908802CE0012003F0CF
:1007E000EBFE012812D13148807801280ED12F4824
:1007F000C07858B9012003F0ABFF6FF009002A4917
:1008000008806FF01D002749088014E0012003F0E4
:10081000D3FE01280FD12548807860B92348C078DD
:10082000012808D103F094FF6FF009001E490880E9
:100830001E201C4908801D48807901280CD11B48C6
:10084000C079012808D16FF03100174908800020D5
:1008500014490880012000BD1448807970B91348FC
:10086000C07901280AD103F073FF6FF031000E49FF
:1008700008806FF01D000B49088010E00B4880795C
:1008800001280CD10948C07948B9012003F060FF64
:100890006FF03100044908801E20024908800020C2
:1008A000D9E700008A0100208601002048060020C8
:1008B00000B5002003F04CFF012003F07DFE012075
:1008C00003F02AFE002048490880012003F074FE4E
:1008D000012803D103F020FE012807D06FF03B0070
:1008E0004249088000204049088006E06FF06D0012
:1008F0003E49088000203C490880012003F05CFE4E
:1009000001280DD13A48807850B93948C07838B9B3
:100910006FF00900354908800020334908802CE039
:10092000012003F049FE012812D1314880780128C6
:100930000ED12F48C07858B9012003F009FF6FF09D
:1009400009002A4908806FF01D002749088014E03B
:10095000012003F031FE01280FD12548807860B9CD
:100960002348C078012808D103F0F2FE6FF0090097
:100970001E4908801E201C4908801D4880790128D6
:100980000CD11B48C079012808D16FF031001749FC
:100990000880002014490880012000BD1448807997
:1009A00070B91348C07901280AD103F0D1FE6FF065
:1009B00031000E4908806FF01D000B49088010E0DF
:1009C0000B48807901280CD10948C07948B9012029
:1009D00003F0BEFE6FF03100044908801E2002497A
:1009E00008800020D9E700008A010020860100204D
:1009F0004806002010B54FF4A06002F0C5FE01F0DB
:100A00008DFE03F0BBF801F03BFF134804F05EFAE3
:100A10004FF4615004F012FB4FF4E13004F082FB1C
:100A200002F03EFB00B20D49088002F0CDFA02F060
:100A300089FB05F01BF804F0FBFF04F08FFF4FF477
:100A4000FA7004F07DFF03F09FFF00F059F800F00A
:100A500051F903F0D1FF10BDA08601000000002075
:100A600000BFFEE710B5044622460021214800F0F1
:100A70004BFC2068A0F2012030B101280FD00228E1
:100A80001AD0032832D124E021461B4803F03EFF50
:100A900022461A491848203003F06AFA27E0214616
:100AA0001548001D03F032FF224614491831124840
:100AB000243003F05DFA1AE021460F48083003F0B5
:100AC00025FF22460D4930310B48283003F050FAFB
:100AD0000DE0214608480C3003F018FF2246074974
:100AE000483105482C3003F043FA00E000BF00BF56
:100AF00010BD000000640040A8060020400800204F
:100B000000B58BB00121084603F094FA0121480694
:100B100003F0A0FA09220B21354801F0FBFB092262
:100B20000C21334801F0F6FB4FF4C0500290022034
:100B30008DF80C0002A92E4801F0A4FB14208DF8BA
:100B4000040001208DF8050000208DF8060001202A
:100B50008DF8070001A802F0DBFD264800F0DEF961
:100B600008A800F049FC00208DF826008DF8270029
:100B70008DF828008DF829008DF82A0001208DF8C5
:100B80002B0000208DF822008DF8230008208DF81E
:100B9000240003208DF82500ADF8200008A9154891
:100BA00000F0F5FA01208DF81A0000208DF81B00E6
:100BB00001208DF81C000020ADF81000ADF81200E7
:100BC000ADF81400ADF81600ADF8180001208DF84E
:100BD0001D0004A800F0BEF901220221054800F022
:100BE000CDFA01221146034800F0C8FA0BB000BD4F
:100BF000000002400064004000B585B002210648B4
:100C000000F02CFA30B10221034800F033F96846B5
:100C1000FFF728FF05B000BD0064004010B5044692
:100C2000224600212D4800F06FFB2068A0F2012031
:100C300007284FD2DFE800F0040F1C29363D490099
:100C40002146274803F062FE2246264924482030E8
:100C500003F08EF93FE021462148001D03F056FEC7
:100C60002246204918311E48243003F081F932E031
:100C700021461B48083003F049FE2246194930310D
:100C80001748283003F074F925E0214614480C3049
:100C900003F03CFE22461349483111482C3003F042
:100CA00067F918E0207BE17A40EA01200E494861AB
:100CB00011E00E480068401C0C490860207BE17A76
:100CC00040EA01200849086005E02146084803F091
:100CD00045FD00E000BF00BF10BD000000680040FF
:100CE000F8060020A00800209C0400202406002014
:100CF0009407002000B58BB00121022003F09AF97F
:100D00000121880603F0A6F909220C21354801F0DB
:100D100001FB09220D21334801F0FCFA4FF4405049
:100D2000029002208DF80C0002A92E4801F0AAFAC8
:100D300040208DF8040001208DF8050000208DF87A
:100D4000060001208DF8070001A802F0E1FC26480A
:100D500000F0E4F808A800F04FFB00208DF8260012
:100D60008DF827008DF828008DF829008DF82A00CD
:100D700001208DF82B0000208DF822008DF8230033
:100D800008208DF8240003208DF82500ADF8200000
:100D900008A9154800F0FBF90E208DF81A00002074
:100DA0008DF81B0001208DF81C000020ADF810000C
:100DB000ADF81200ADF81400ADF81600ADF818004B
:100DC00001208DF81D0004A800F0C4F801220221C2
:100DD000054800F0D3F901221146034800F0CEF98E
:100DE0000BB000BD000402400068004000B585B0B3
:100DF0000221064800F032F930B10221034800F028
:100E000039F86846FFF70AFF05B000BD00680040EA
:100E1000F0B585B004460D4616461F464FF40070E7
:100E2000009000208DF808008DF8090008208DF84A
:100E30000A00200A8DF80B00E1B28DF80C10290A87
:100E40008DF80D10E9B28DF80E10310A8DF80F10E3
:100E5000F1B28DF81010390A8DF81110F9B28DF831
:100E600012106946024800F0D7FA05B0F0BD000044
:100E700000640040B1F5007F3AD00FDC202928D073
:100E800006DC01291CD004291DD0082940D11DE011
:100E9000402921D0B1F5807F3AD126E0B1F5004F4D
:100EA00031D006DCB1F5806F25D0B1F5006F2FD1C0
:100EB00024E0B1F5803F12D0B1F5003F28D111E018
:100EC000154A826025E00822C26022E01022C2603A
:100ED0001FE0082202611CE01022026119E00822D2
:100EE000426016E01022426013E00422426010E0EB
:100EF000042242600DE0042242600AE00022826186
:100F00000422426005E0002282610422426000E087
:100F100000BF00BF704700000101010010B504468A
:100F20000B48844209D10121480603F0A3F80021AF
:100F30004FF0007003F09EF808E00121880603F0EE
:100F400099F800214FF0806003F094F810BD000084
:100F50000064004010B50021837A012202FA03F1F7
:100F60003D4A126842F001023B4B1A603A4A1C3279
:100F700012688A43384B1C331A60027BCAB9364A5E
:100F80000C3212688A43344B0C331A604288C3888F
:100F900042EA0343304A4032847A42F834300288CD
:100FA000838842EA03432C4A4032847A02EBC4022B
:100FB0005360027B012A19D1274A0C3212680A4376
:100FC000254B0C331A604288038842EA0343224AC5
:100FD0004032847A42F83430C288838842EA03433C
:100FE0001D4A4032847A02EBC4025360C27A3AB995
:100FF000194A121D12688A43174B1B1D1A6006E01E
:10100000154A121D12680A43134B1B1D1A600289F0
:1010100032B9114A143212688A430F4B14331A60E2
:101020000289012A06D10C4A143212680A430A4B7B
:1010300014331A60427B012A06D1074A1C32126817
:101040000A43054B1C331A60034A126822F001025E
:10105000014B1A6010BD00000066004070B50446E8
:101060000D46002660692840002871D0B5F5807FC4
:101070005CD010DC082D35D006DC012D20D0022DEF
:1010800024D0042D72D127E0102D31D0202D35D061
:10109000402D6BD138E0B5F5004F60D009DCB5F5D7
:1010A000007F49D0B5F5806F4CD0B5F5006F5DD1AC
:1010B0004FE0B5F5803F2DD0B5F5003F56D12FE07C
:1010C000A0682D4900F07AFB064651E0E068032154
:1010D00000F074FB06464BE0E068082100F06EFB70
:1010E000064645E0E068102100F068FB06463FE058
:1010F0002069032100F062FB064639E020690821DF
:1011000000F05CFB064633E02069102100F056FB3E
:1011100006462DE06068082100F050FB064627E0F7
:101120006068102100F04AFB064621E0A069012119
:1011300000F044FB06461BE0A069022100F03EFBE4
:10114000064615E0A069042100F038FB06460FE0D2
:101150000FE0A069702100F031FB064608E06068EE
:10116000042100F02BFB064602E0FFE7002600BF4B
:1011700000E00026304670BD010101001AB143694C
:101180000B43436102E043698B434361704730B5D1
:10119000024600200023146824F00204146014683E
:1011A00044F00104146000E05B1C546804F0010486
:1011B0001CB94FF6FF74A342F6D1546804F0010441
:1011C0000CB900206CE08C79012C04D1146844F037
:1011D0008004146003E0146824F080041460CC7967
:1011E000012C04D1146844F04004146003E0146836
:1011F00024F0400414600C7A012C04D1146844F0EB
:101200002004146003E0146824F0200414604C7A75
:10121000012C04D1146844F01004146003E0146835
:1012200024F0100414608C7A012C04D1146844F06A
:101230000804146003E0146824F008041460CC7AF5
:10124000012C04D1146844F00404146003E0146811
:1012500024F0040414608C78A407CD7844EA056473
:101260000D7944EA05444D7944EA05540D886D1E14
:101270002C43D461146824F001041460002300E0BE
:101280005B1C546804F001041CB14FF6FF74A342C8
:10129000F6D1546804F001040CB1002000E00120F4
:1012A00030BD0000F0B585B004460D4616461F4619
:1012B0004FF40070009000208DF808008DF80900B0
:1012C00008208DF80A00200A8DF80B00E1B28DF895
:1012D0000C10290A8DF80D10E9B28DF80E10310AA4
:1012E0008DF80F10F1B28DF81010390A8DF8111029
:1012F000F9B28DF812106946024800F08DF805B079
:10130000F0BD00000068004010B500F5D87303EB95
:1013100001131B6803F004031372137A53B900F529
:10132000D87303EB01131B6840F2FF7404EA5353B4
:10133000136009E000F5D87303EB01131B686FF02D
:10134000604404EAD303536000F5D87303EB011340
:101350001B6803F00203537200F5D87303EB01130B
:101360005B6803F00F03937200F5D87303EB01136E
:101370005B681B0AD37400F5D87303EB01139B68F9
:10138000D37200F5D87303EB01139B681C0A147326
:1013900000F5D87303EB01139B681C0C547300F524
:1013A000D87303EB01139B681B0E937300F5D8737E
:1013B00003EB0113DB68D37300F5D87303EB011360
:1013C000DB681C0A147400F5D87303EB0113DB68A7
:1013D0001C0C547400F5D87303EB0113DB681B0E6F
:1013E000937421B9C36843F02003C36003E0036929
:1013F00043F02003036110BD00218171C1710172AE
:1014000041728172C1728170C17003210171022128
:10141000417101210180704710B502460020936898
:1014200003F08063B3F1806F00D110E0936803F0A4
:101430000063B3F1006F01D1012008E0936803F06D
:101440008053B3F1805F01D1022000E00420042822
:1014500074D002F5C07303EB00131B6803F00104A2
:1014600002F5C07303EB00131C600B7A7BB94B7A57
:101470000C8843EA445302F5C07404EB001424685A
:10148000234302F5C07404EB0014236010E00B7AD0
:101490004C6843EAC4034C7A234302F5C07404EB5E
:1014A00000142468234302F5C07404EB0014236085
:1014B0008B7A03F00F038B7202F5C07303EB0013FA
:1014C0005B6823F00F0402F5C07303EB00135C604C
:1014D00002F5C07303EB00135B688C7A234302F5BB
:1014E000C07404EB001463608B7B1C064B7B44EAE6
:1014F00003440B7B44EA0323CC7A234302F5C074F4
:1015000004EB0014A3608B7C1C064B7C44EA034470
:101510000B7C44EA0323CC7B234302F5C07404EB29
:101520000014E36002F5C07303EB00131B6843F083
:10153000010402F5C07303EB00131C6010BD000032
:1015400070B586B004460D46164640F2FF10019075
:1015500000208DF80C008DF80D0008208DF80E008D
:10156000200A8DF80F008DF81040290A8DF811100F
:101570008DF81250310A8DF813108DF81460002187
:101580008DF815108DF8161001A90548FFF744FFD6
:1015900004480068401C0349086006B070BD0000A4
:1015A0000068004028060020DFED0D0AB4EEE00AD6
:1015B000F1EE10FA04DDDFED0A0AC0ED000A0DE0DD
:1015C000DFED080AB4EEE00AF1EE10FA04D2DFED26
:1015D000050AC0ED000A01E080ED000A7047000036
:1015E00000409C450000FAC43948006841F2A1411E
:1015F000081A01EE100AB8EEC11AB0EE410A3448DA
:10160000406941F22431081A01EE100AB8EEC11AFD
:10161000F0EE410A9FED2F1A20EE011ADFED2E1A8F
:1016200081EE212A2D4890ED031AB1EE411A31EED8
:10163000421AF1EE001A31EE211A294880ED001A03
:10164000264890ED041AF0EE001A31EE211A2448D3
:1016500080ED011A9FED1F1A20EE811A9FED1E2AC0
:10166000C1EE021A1D4890ED051A31EE811A1C4890
:1016700080ED021A90ED021ADFED1A1AB4EEE11AAB
:10168000F1EE10FA06DD90ED021ADFED121A31EEDE
:10169000611A02E0124890ED021A114880ED021A18
:1016A00090ED021ADFED101AB4EEE11AF1EE10FA25
:1016B00006D290ED021ADFED071A31EE211A02E090
:1016C000074890ED021A064880ED021A70470000A4
:1016D0009C0400200000B443000000467409002070
:1016E0005807002000003443000034C302462C4950
:1016F000D1ED000A70EE600A2A49C1ED000A00200F
:10170000D1ED000A9FED281AF4EEC10AF1EE10FAAD
:1017100006DDD1ED000A9FED251A70EEC10A13E037
:101720002049D1ED000A9FED221AF4EEC10AF1EE34
:1017300010FA06D2D1ED000A9FED1C1A70EE810A54
:1017400002E01849D1ED000A1649C1ED000A194915
:10175000097831B1012910D1114981ED000A002029
:101760000BE01049D1ED000AFDEEE00A10EE901AF0
:1017700001EB8101490008B200BF00BF642801DD10
:10178000642100E00146084610F1640F02DA6FF0B0
:10179000630100E0014608460749088070470000E1
:1017A0001000002014000020000034430000B44367
:1017B000000034C30E000020180000200246002064
:1017C00002EA01030BB1012000E000207047000095
:1017D00010B55B480068401C59490860594801F041
:1017E000D5FB574800683221B0FBF1F201FB120033
:1017F00008B900F003FB54494989891C08B25349D0
:10180000D1ED020AB0EE600AFFF770FF5049088080
:10181000504800880988084400B24E49088003F007
:101820002DFE00F0B5FD0A2830D2DFE800F03005CB
:10183000547E7D607F6B748041480068B0F5967F70
:1018400024D902F0BBFC002002F07CFF41F2A27020
:101850004149C860496941F22432511A4FF461622A
:1018600001FB02F0C11700EBD141491300EE101A41
:10187000B8EEC00A3449D1ED050AB2EE041A00EE02
:10188000810ABDEEC00A344981ED080A50E004F037
:1018900033F82D48B0F90600002803DD2A48B0F9D6
:1018A000060003E02848B0F906004042142811DA87
:1018B0002548B0F90A00002803DD2348B0F90A00E2
:1018C00003E02148B0F90A004042142802DA02205D
:1018D00002F038FF2CE000F0EFFF012802D10520D4
:1018E00002F030FF04F008F801F05AF920E003F0AC
:1018F0005BFA04F001F802F0FFFC01F051F902F08C
:10190000A3FF15E0FEF730FE03F0F6FF02F0F4FC53
:1019100001F046F90CE000F0DDFA03F0EDFF02F013
:10192000EBFC01F03DF903E002E001E000E000BF64
:1019300000BF00F013FFFFF757FE01F01BFD10BDC5
:10194000AC030020A80300207409002058070020E1
:10195000AA0300208A0100209C0400202DE9F04108
:101960003D480068401C3C4908603C493C4800F048
:1019700089F900286ED04FF08151394800F096F86F
:101980003649374800F0ACF8364800785A280DD16F
:1019900034484078A52809D1002404E03149085D85
:1019A00002F0B8F9641C222CF8DB48E02E4890F8CD
:1019B00021005A2805D12B480078A52801D12126DD
:1019C0000EE000250AE02848405D5A2805D1264946
:1019D000681C085CA52800D12E466D1C222DF2DB68
:1019E000002405E0A0192049085C20490855641C22
:1019F000C6F12200A042F5DC002707E01948C15DCE
:101A000007F12200801B194A11547F1CB742F5DBF5
:101A1000002404E01348005D13490855641C222C7F
:101A2000F8DB4FF0000806E0104911F8080002F05A
:101A300071F908F10108B8F1220FF5DB00BF0C487D
:101A400003F0E2FF0A48801D03F0E8FF08480C306D
:101A500003F0D0FFBDE8F081600600200080201078
:101A6000406002400C0900202E090020500900208F
:101A7000740900207047000010B50949094800F0BA
:101A800001F958B14FF08151064800F00FF80449B0
:101A9000044800F025F8044802F0D4FB10BD000013
:101AA00000802010406402408C0600200246094B52
:101AB0009A4201D2084801E00648103801F000536C
:101AC0001BB1064B0B40C36002E0044B0B4083602C
:101AD0007047000010640240006002407D0F7D0FDF
:101AE0000246094B9A4201D2084801E006481038E4
:101AF00001F000531BB1064B0B40C36002E0044BE6
:101B00000B40836070470000106402400060024098
:101B10007D0F7D0F21B1026842F00102026003E0F7
:101B2000026822F00102026070470000016821F0A3
:101B3000010101600021016041608160C1600161BB
:101B4000212141614A49884204D13D21484A103A45
:101B500091608CE046491831884205D14FF4746198
:101B6000434A103A916082E041493031884205D1C0
:101B70004FF474113E4A103A916078E03C49483184
:101B8000884205D14FF07461394A103A91606EE095
:101B900037496031884204D13649354A103AD1601C
:101BA00065E033497831884204D13349304A103AEC
:101BB000D1605CE02E499031884204D12F492C4AF3
:101BC000103AD16053E02A49A831884205D14FF03C
:101BD0003D51274A103AD16049E02949884204D151
:101BE0003D21274A083A116041E0254918318842D1
:101BF00005D14FF47461224A083A116037E0204958
:101C00003031884205D14FF474111D4A083A1160F1
:101C10002DE01B494831884205D14FF07461184AC4
:101C2000083A116023E016496031884204D1114915
:101C3000134A121F11601AE011497831884204D109
:101C40000D490F4A121F116011E00D499031884271
:101C500004D10A490A4A121F116008E00849A83154
:101C6000884204D14FF03D51054A121F1160704760
:101C7000106002403D000020400F002000003D2089
:101C80001064024070B50246002000240025124E68
:101C9000B24201D2114B01E00F4B103B104E0E40EF
:101CA00036B11E2606EAD124166806EA040502E0CB
:101CB000566906F0800501F000560EB15C6800E040
:101CC0001C68084E344004EA010616B10DB101202B
:101CD00000E0002070BD000010640240006002407F
:101CE0003C0F3C0F7D0F7D0F10B501F080034BB111
:101CF00022B1436943F08003436103E0436923F069
:101D00008003436180290BD02AB1036801F01E04CF
:101D10002343036004E0036801F01E04A34303604F
:101D200010BD000010B500220268134B1A40CC68A9
:101D30000B6823434C6923438C692343CC692343B9
:101D40000C6A23434C6A23438C6A23434C6B234322
:101D50008C6B23431A430260426922F00702D1E9E7
:101D60000B3423431A4342610B6943604B68836021
:101D70008B68C36010BD00003F801CF010B50446A6
:101D80005A2C09D11B48007830B9002019494870F5
:101D9000012008700020C87116480078012824D15D
:101DA0001448C179801C4454801EC079401C1149DC
:101DB000C871A52C03D10846C079052803D10D4868
:101DC000C079052805DD00200A4948700870C871EF
:101DD0000BE0A52C09D10748C079052805D10120C1
:101DE0000449487000200870C8710248801C02F045
:101DF00073FB10BD570600207047000010B52A483D
:101E000090ED000ABDEEC00A10EE100A00B227499C
:101E10000880274890ED000ABDEEC00A10EE100AB7
:101E200000B22449088021480088000A224908702D
:101E30001E48007848701F480088000A88701D48B6
:101E40000078C8701D480088000A08711B48007897
:101E500048711B480088000A887119480078C871C9
:101E6000184800780872CC20487200201649087083
:101E700012E01148144A1278815C144803F0EBFA1E
:101E800000BF4021114803F01BFA0128F9D10E4888
:101E90000078401C0C4908700B4800780C49097800
:101EA0008842E6DB10BD0000100000204406002040
:101EB0001400002046060020000900201800002021
:101EC0008A010020900100204306002000140140F8
:101ED0004206002010B5002013E09FED350A10EEF9
:101EE000101A00EB4012334B03EB420251609FED9E
:101EF000320A10EE101A00EB401203EB420211629C
:101F0000401C0428E9DB2D48007806284ED2DFE883
:101F100000F0030A121A222A00F0A6F8012801D1C3
:101F20002649087042E000F04FF8012802D1022053
:101F3000224908703AE000F0E1F8012802D10320BC
:101F40001E49087032E000F08FF8012802D1042009
:101F50001A4908702AE000F037F8012802D105205C
:101F60001649087022E000F0C9F801281DD10020B0
:101F70001249087000BF13E09FED110A10EE101A0D
:101F800000EB40120B4B03EB420251609FED0D0A38
:101F900010EE101A00EB401203EB42021162401CDB
:101FA0000428E9DB052002F0CDFB00BF00BF10BD17
:101FB0003E0AD73D280000206E43D1470D00002087
:101FC000295C0F3D49828B4700B5002023490880DA
:101FD00023490880012002F0EFFA002002F09CFA69
:101FE000012002F0E9FA012835D1002002F094FA2C
:101FF000012830D123201949088000201849088081
:102000001848807801280AD11648C078012806D1DE
:1020100000201249088012490880012000BD1148A3
:10202000807850B90F48C078012806D100200B49AC
:1020300008801E200A4908800DE00A48807801289F
:1020400009D10848C07830B90020044908806FF0F1
:102050001D00034908800020E0E700008601002001
:102060008A0100204806002000B500202049088091
:102070002049088002F0A0FA002002F04DFA00206A
:1020800002F09AFA012831D1002002F045FA012825
:102090002CD128201649088017480078012809D13A
:1020A00015484078012805D1002008801149088092
:1020B000012000BD1048007850B90F484078012831
:1020C00006D100200A4908801E200A4908800DE038
:1020D00009480078012809D10748407830B9002024
:1020E000034908806FF01D00024908800020E0E7E6
:1020F000860100208A0100204806002000B500204B
:102100001F4908801F490880012002F055FA01206C
:1021100002F002FA012002F04FFA01282ED102F05B
:10212000FBF901282AD11848006818B91748006837
:10213000154908605A20124908800020114908807A
:102140001248006810490968401A642805D900201F
:1021500002F032FA002002F0DFF90C4800680A4968
:102160000968401AB0F5966F08D900200449088024
:102170000449088004490860012000BD0020FCE7F4
:10218000860100208A01002024000020AC030020EA
:1021900010B5102000F018F8012807D101F012F84E
:1021A000102000F005F8102000F008F810BD000025
:1021B0000149086070470000143C01400149086073
:1021C00070470000143C0140014600200022074BEC
:1021D0001B6803EA0102054B14331B680B4013B163
:1021E0000AB1012000E0002070470000003C0140DF
:1021F000002123498279002A3AD00A4612680368EE
:102200009A430B461A600A1D126803689A430B1D15
:102210001A60027911440A6803681A430A60184A6E
:102220000832126803689A43154B08331A601A1D66
:10223000126803689A43124B0C331A604279102AD1
:102240000ED11A1F126803681A430D4B08331A6027
:102250001A1D126803681A43094B0C331A600DE00B
:102260000749427911440A6803681A430A6005E085
:10227000027911440A6803689A430A6070470000B3
:10228000003C0140F0B50A4600210023002400BFB5
:102290003DE0012505FA01F3156805EA03049C42B7
:1022A00034D105684F000326BE40B543056015795B
:1022B0004E00B5400668354305601579012D02D002
:1022C0001579022D16D185684F000326BE40B5430F
:1022D000856055794E00B540866835438560456810
:1022E00001268E40B5434560456896798E40B6B26A
:1022F00035434560C5684F000326BE40B543C56001
:10230000D5794E00B540C6683543C560491C1029D3
:10231000BFD3F0BDF0B5002300244D07ED0E02FA47
:1023200005F3CE1000F1200555F826504E07F70EA4
:102330000F26BE40B543CF1000F1200646F82750C7
:10234000CE1000F1200555F8265045EA0304CE10C2
:1023500000F1200545F82640F0BD02460020136933
:102360000B400BB1012000E0002070474183704713
:10237000018370474FF6FF710160002101714171C7
:102380008171C171704742694A40426170470000E3
:102390000148007870470000900100201CB5012121
:1023A000022001F047FE1020009001208DF804006B
:1023B00000208DF8060003208DF8050069460448CA
:1023C000FFF760FF10210248FFF7D0FF1CBD00009F
:1023D0000004024000BFFEE710B5044600F0C8F854
:1023E0002CB14FF400710D48FFF7C2FF04E04FF429
:1023F00000710A48FFF7BAFF4FF480710748FFF7F2
:10240000B7FF012000F00CF84FF480710348FFF78C
:10241000ADFF012000F004F810BD000000040240F0
:1024200010B5002106E0062200BF1300A2F1010250
:10243000FBD1491C8142F6D310BD00001CB501211F
:10244000022001F0F7FD4FF44070009001208DF85C
:1024500004008DF8060003208DF805006946024847
:10246000FFF710FF1CBD00000004024070B50024FF
:1024700000F068F800251BE04FF480711148FFF769
:1024800075FF0120FFF7CCFF4FF480710D48FFF777
:102490006FFF6006040E4FF400710A48FFF75DFFFE
:1024A00008B1601CC4B20120FFF7BAFF681CC5B2B6
:1024B000082DE1DB4FF480710248FFF757FF2046FB
:1024C00070BD0000000402402DE9F04106460F46B1
:1024D0001446984600F060F8304600F0CBF800F063
:1024E0009BF8FF2801D1BDE8F081384600F0C2F822
:1024F00000F092F8FF2800D1F5E700F04DF8711CCC
:10250000C8B200F0B7F800F087F8FF2800D1EAE77A
:10251000002508E0FFF7AAFF20700020FFF75CFF0E
:10252000641C681CC5B2A8F10100A842F2DCFFF7E8
:102530009DFF20700120FFF74FFF00F04DF80020B5
:10254000D1E700001CB54FF40070009000208DF81A
:1025500004008DF806008DF8070002208DF80500B4
:1025600069460248FFF78EFE1CBD000000040240D1
:102570001CB54FF40070009001208DF804008DF818
:10258000060003208DF8050069460248FFF77AFE31
:102590001CBD00000004024010B5FFF7E9FF4FF436
:1025A00000710C48FFF7E4FE4FF480710948FFF713
:1025B000DFFE0120FFF734FF4FF400710548FFF7FD
:1025C000D5FE0120FFF72CFF4FF480710148FFF783
:1025D000CDFE10BD0004024010B5FFF7C9FF4FF457
:1025E00080710C48FFF7C2FE4FF400710948FFF7F5
:1025F000BDFE0120FFF714FF4FF480710548FFF77F
:10260000B7FE4FF400710348FFF7B2FE0120FFF759
:1026100007FF10BD0004024010B54FF47A744FF468
:1026200000711348FFF7A4FEFFF78CFF0120FFF7AE
:10263000F7FE4FF480710E48FFF79AFE0120FFF776
:10264000EFFE07E0601E80B2040003D0FFF7C4FF76
:10265000FF2010BD4FF400710548FFF77EFE0028F3
:10266000F0D14FF480710248FFF780FE0020F0E7C0
:102670000004024070B50446FFF77AFF4FF4807102
:102680001448FFF773FE002521E004F0800028B114
:102690004FF400710F48FFF76BFE04E04FF4007138
:1026A0000C48FFF763FE6006040E0120FFF7B8FE3A
:1026B0004FF480710748FFF75BFE0120FFF7B0FE83
:1026C0004FF480710348FFF751FE681CC5B2082D16
:1026D000DBDB70BD0004024070B506460C461546B3
:1026E000FFF75AFF3046FFF7C5FFFFF795FFFF28BA
:1026F00000D170BD2046FFF7BDFFFFF78DFFFF281B
:1027000000D1F6E72846FFF7B5FFFFF785FFFF2862
:1027100000D1EEE7FFF760FF0020EAE71CB50121DA
:10272000042001F087FC0320009001208DF80400B4
:1027300000208DF8060003208DF805006946064844
:10274000FFF7A0FD02210448FFF712FE0121024815
:10275000FFF70EFE1CBD00000008024010B5FFF799
:1027600017FE0A280ED2DFE800F00E05175F5E287C
:10277000603A4C7201214048FFF7F8FD02213E48C3
:10278000FFF7F6FD75E001213B48FFF7EFFD022161
:102790003948FFF7EDFD6CE001213748FFF7E6FD12
:1027A00036480068C821B0FBF1F201FB120018B9ED
:1027B00002213148FFF7E7FD5BE001212E48FFF7DA
:1027C000D7FD2E4800684FF4FA71B0FBF1F201FB1F
:1027D000120018B902212848FFF7D5FD49E0012170
:1027E0002548FFF7C5FD254800684FF4FA71B0FB96
:1027F000F1F201FB120018B902211F48FFF7C3FDD7
:1028000037E001211C48FFF7B3FD1C4800684FF476
:10281000FA71B0FBF1F201FB120018B9022116485F
:10282000FFF7B1FD25E024E023E0144800684FF4F1
:10283000FA71B0FBF1F201FB120018B901210E4848
:10284000FFF7A1FD02210C48FFF792FD11E00B48B4
:1028500000684FF4FA71B0FBF1F201FB120038B9D5
:1028600001210548FFF78FFD02210348FFF78BFD8B
:1028700000BF00BF10BD000000080240AC030020F4
:102880001CB50121042001F0D5FB2020009001207F
:102890008DF8040000208DF8060003208DF8050057
:1028A00069460448FFF7EEFC20210248FFF75EFD71
:1028B0001CBD0000000802406148007820B10128DA
:1028C00036D0022833D162E09FED5E0A10EE100A86
:1028D0005D4948609FED5B0A10EE100AC1F84600A2
:1028E0009FED580A10EE100AC1F888009FED550AB6
:1028F00010EE100AC1F8CA00642054490863486306
:102900008863C8630846006A282810DD0846406AC4
:1029100028280CDD0846806A282808DD0846C06A99
:10292000282804DD0120464908704949087083E0E1
:102930009FED480A10EE100A434948609FED460A91
:1029400010EE100AC1F846009FED430A10EE100A7F
:10295000C1F888009FED400A10EE100AC1F8CA00C5
:102960003E483A49086348638863C863084600687C
:10297000496808443549896808443449C9680844A5
:1029800010F1190F02DA02202D49087054E02F4887
:1029900000682E49496808442C49896808442B4935
:1029A000C968084400280BDD2848006827494968A1
:1029B00008442649896808442449C96808440BE04A
:1029C0002248006821494968084420498968084428
:1029D0001E49C968084440420A282CDA00202049D0
:1029E000C88200211E48C185A0F84610A0F85E10DC
:1029F00000201649086348638863C8639FED150A81
:102A000010EE100A104948609FED120A10EE100AED
:102A1000C1F846009FED0F0A10EE100AC1F88800B9
:102A20009FED0C0A10EE100AC1F8CA0000200849F8
:102A300008700120704700BF00BF0020FAE70000C7
:102A4000B2030020CDCCCC3D99020020F806002036
:102A5000B3030020CDCC4C3D00000000F0D8FFFFB8
:102A6000A00800204749097801297DD1464991ED08
:102A7000000AB1EE400AD1ED010A70EE600A90ED55
:102A8000000A9FED421A01EE200A80ED000A91ED46
:102A9000000AB1EE400AD1ED010A70EE200A90ED75
:102AA000010A9FED3A1A01EE200A80ED010A91ED2C
:102AB000000AD1ED010A70EE600A90ED020A9FED66
:102AC000331A01EE200A80ED020A91ED000AD1EDE1
:102AD000010A70EE200A90ED030A9FED2C1A01EE18
:102AE000200A80ED030A91ED000AB1EE400AD1ED13
:102AF000010A30EE600ADFED250A20EE200ABDEE65
:102B0000C00A10EE101A09B2214A11801E4991ED37
:102B1000000AB1EE400AD1ED010A30EE200ADFEDE5
:102B20001B0A20EE200ABDEEC00A10EE101A09B2F0
:102B3000184A1180144991ED000AD1ED010A30EED6
:102B4000600ADFED120A20EE200ABDEEC00A10EE88
:102B5000101A09B2104A11800B4991ED000AD1ED0B
:102B6000010A30EE200A00E00AE0DFED080A20EE5C
:102B7000200ABDEEC00A10EE101A09B2074A1180F1
:102B800070470000B3030020580700200000824275
:102B9000E4030020E6030020E8030020EA0300200D
:102BA00010B52DED048BFFF7F3FB052872D1F0482B
:102BB000007A03286ED0EF4800680A21B0FBF1F2DA
:102BC00001FB12000028F1D1E948407A012804D025
:102BD000022860D003285CD1C6E0E549C988A1F588
:102BE000806101EB4101880003F0F7F99FEDE20BF2
:102BF00053EC102B03F06AF803F0C0F900B2E0497F
:102C0000096B0844DE490863D949C988A1F5806188
:102C100001EB4101880003F0E0F99FEDD70B53EC85
:102C2000102B03F053F803F0A9F900B2D449496B13
:102C30000844D3494863CE49C988A1F5806101EBB6
:102C40004101880003F0C9F99FEDCB0B53EC102B29
:102C500003F03CF803F092F900B2C949896B0844CB
:102C6000C7498863C249C988A1F5806101EB410168
:102C7000880003F0B2F99FEDC00B53EC102B03F06A
:102C800025F803F07BF900B2BD49C96B0844BC4983
:102C9000C8636AE06AE0B649C988A1F58061C1EB02
:102CA000C10003F09AF941EC190B9FEDB30B53EC03
:102CB000102B03F00BF841EC180B03F05FF900B296
:102CC000AF49096B0844AE490863A949C988A1F511
:102CD0008061C1EBC10003F080F941EC190B9FED5D
:102CE000A60B53EC102B02F0F1FF41EC180B03F094
:102CF00045F900B2A249496B0844A14948639C497F
:102D0000C988A1F58061C1EBC10003F066F941EC0F
:102D1000190B9FED990B53EC102B02F0D7FF41ECF0
:102D2000180B03F02BF900B29549896B081A9449E6
:102D300088638F49C988A1F58061C1EBC10003F0A8
:102D40004CF941EC190B9FED8C0B53EC102B02F05E
:102D5000BDFF41EC180B03F011F900B28849C96BB3
:102D6000081A8749C86300E000BF00BFFFF710FBE7
:102D7000022857D08248006B1E2801DA1E2001E08D
:102D80007F48006B7E4908630846006B40F2934120
:102D9000884201DD084601E07948006B7849086304
:102DA0000846406B1E2801DA1E2001E07448406B83
:102DB000734948630846406B40F29341884201DD05
:102DC000084601E06E48406B6D4948630846806BD9
:102DD0001E2801DA1E2001E06948806B684988637B
:102DE0000846806B40F29341884201DD084601E0CD
:102DF0006348806B624988630846C06B1E2801DA0D
:102E00001E2001E05E48C06B5D49C8630846C06B88
:102E100040F29341884201DD084601E05848C06B0A
:102E20005749C863564890ED081AB8EEC11AF0EE3B
:102E3000410A90ED0C1AB8EEC11AB0EE410A5148A1
:102E400000F06AFDBDEEC00A4D4880ED040A90ED29
:102E5000091AB8EEC11AF0EE410A90ED0D1AB8EE5B
:102E6000C11AB0EE410A4748423000F055FDBDEEB0
:102E7000C00A434880ED050A90ED0A1AB8EEC11A5F
:102E8000F0EE410A806B0D3001EE100AB8EEC11A67
:102E9000B0EE410A3B48843000F03EFDBDEEC00A72
:102EA000374880ED060A90ED0B1AB8EEC11AF0EE25
:102EB000410AC06B401F01EE100AB8EEC11AB0EE15
:102EC000410A3048C63000F027FDBDEEC00A2C484C
:102ED00080ED070A90ED001AB8EEC11AF0EE410A33
:102EE00090ED041AB8EEC11AB0EE410A264800F07F
:102EF00013FD234880ED100A90ED011AB8EEC11AB7
:102F0000F0EE410A90ED051AB8EEC11AB0EE410A92
:102F10001D48423000F000FD194880ED110A90ED87
:102F2000021AB8EEC11AF0EE410A90ED061AB8EE98
:102F3000C11AB0EE410A1448843000F0EDFC10488C
:102F400080ED120A90ED031AB8EEC11AF0EE410AB4
:102F500090ED071AB8EEC11AB0EE410A0A48C63021
:102F600000F0DAFC064880ED130ABDEC048B10BDBE
:102F70002C060020AC0300200000000000A08440CC
:102F8000F8060020910100209902002010B50446A7
:102F90002078012815D10B480088401C0949088079
:102FA000012001F009FB012804D0012001F0B4FA4E
:102FB000012806D10020207001F0FEFA002001F067
:102FC000ABFA10BDEC03002010B52DED048B9FED86
:102FD0002E0AB0EE408A9FED2C0AF0EE408A9FED5B
:102FE0002A0AB0EE409A002427E000F0EBF8012016
:102FF00002F0A6FC2548B0F9080000EE100AB8EE71
:10300000C00A30EE080AB0EE408A2048B0F90A0043
:1030100000EE100AB8EEC00A30EE280AF0EE408A40
:103020001A48B0F90C0000EE100AB8EEC00A30EEF3
:10303000090AB0EE409A601C84B2B4F5FA6FD4DB92
:103040009FED130AC8EE000AB0EE608A9FED100AE9
:10305000C8EE800AF0EE608A9FED0D0AC9EE000A04
:10306000B0EE609ABDEEC80A0A4880ED000ABDEED7
:10307000E80A094880ED000ABDEEC90A074880ED5C
:10308000000ABDEC048B10BD00000000D807002032
:103090000000FA44D8050020DC050020E0050020EF
:1030A00008B500200090FFF7C9F9FFF777F9012371
:1030B0006A467521D020FFF707FA28B99DF800006D
:1030C000682803D0FC2008BDCC20FCE701226B213E
:1030D000D020FFF701FBFF2801D1CF20F3E7072223
:1030E0001921D020FFF7F8FAFF2800D1EBE70022E2
:1030F0001A21D020FFF7F0FAFF2800D1E3E70822D9
:103100001B21D020FFF7E8FAFF2800D1DBE70822D7
:103110001C21D020FFF7E0FAFF2800D1D3E70022DE
:103120003721D020FFF7D8FAFF2800D1CBE70122C2
:103130003821D020FFF7D0FAFF2800D1C3E70020C4
:10314000C1E7000000B585B00121880300F0A2FFAF
:103150000121084600F06EFF1020039000208DF83A
:1031600010008DF8120001208DF8130002208DF858
:10317000110003A91248FFF785F80421002001F08F
:103180008BF91020009000208DF804000C208DF8A1
:10319000050001208DF806006846FFF729F80A208F
:1031A0008DF8080001208DF8090002208DF80A0032
:1031B00001208DF80B0002A800F0AAFA05B000BDAE
:1031C000000002401FB50E236A463B21D020FFF7C6
:1031D0007BF9FF2801D104B010BD9DF801009DF8D6
:1031E000001040EA012000B2584908809DF8030011
:1031F0009DF8021040EA012000B2544948809DF831
:1032000005009DF8041040EA012000B24F49888073
:103210009DF807009DF8061040EA012000B24B49D6
:10322000C8809DF809009DF8081040EA012000B20E
:10323000464908819DF80B009DF80A1040EA0120DC
:1032400000B2424948819DF80D009DF80C1040EAFB
:10325000012000B23D4988810846B0F9000000EE27
:10326000100AB8EEC00AB1EE400ADFED390A80EE6E
:10327000201A384880ED001A0846B0F9020000EE26
:10328000100AB8EEC00AB1EE400ADFED310A80EE56
:10329000201A304880ED011A0846B0F9040000EE0B
:1032A000100AB8EEC00ADFED2A0A80EE201A29487B
:1032B00080ED021A0846B0F9060000EE100AB8EEDA
:1032C000C00A9FED251AC0EE010A9FED240A30EED8
:1032D000800A204880ED030A0846B0F9080020491A
:1032E0000968401A00EE100AB8EEC00ADFED1D0AA8
:1032F00080EE201A174880ED041A1448B0F90A002D
:1033000019490968401A00EE100AB8EEC00AB1EE79
:10331000400ADFED140A80EE201A0E4880ED051AEF
:103320000A48B0F90C0011490968401A00EE100A69
:10333000B8EEC00AB1EE400ADFED0A0A80EE201AAC
:10334000044880ED061A002045E70000D807002059
:1033500000000046E80700200000AA43B81E124201
:10336000D805002000008342DC050020E005002095
:1033700000BFFEE770B5FFF70BF80A287ED2DFE842
:1033800000F01705397DF0A5EEEDECEB00221146BB
:103390001046FEF7D5F800231A4619461846FDF7E1
:1033A00037FD00231A4619461846FDF77BFF9EE1BC
:1033B000D049C86800F092FDCE49098A084404B299
:1033C000CC49486902F0BCF8CA49898C084405B266
:1033D000002221462846FEF7B3F800231A46194674
:1033E0001846FDF715FD00231A4619461846FDF745
:1033F00059FF7CE14FF44870BF490860091D08601F
:10340000BE48D0ED100AB0EE600ABD48FEF7CCF819
:10341000BA48D0ED110AB0EE600AB948001DFEF7B7
:10342000C3F8B648D0ED120AB0EE600AB4480830CE
:10343000FEF7BAF8B148D0ED130AB0EE600AB04812
:103440000C30FEF7B1F8AE48FFF70CFBA949C8688D
:1034500000F044FDA749098A084404B2A549486917
:1034600002F06EF8A349898C084405B20022214677
:103470002846FEF765F800231A4600E025E11946C4
:103480001846FDF7C5FC9E4C94ED030ABDEEC00A3C
:1034900010EE104A23B29A4C94ED020ABDEEC00A17
:1034A00010EE104A22B2964C94ED010ABDEEC00A0D
:1034B00010EE104A21B2924C94ED000ABDEEC00A03
:1034C00010EE104A20B2FDF7EDFE10E18949C86800
:1034D00000F004FD8749098A084404B28549486917
:1034E00002F02EF88349898C084405B2854890ED96
:1034F000070ABDEEC00A10EE100A02B221462846A5
:10350000FEF71EF8804CE36CA26C616C206CFDF73A
:103510007FFC7A4C94ED130ABDEEC00A10EE104AFF
:1035200023B2764C94ED120ABDEEC00A10EE104A9A
:1035300022B2724C94ED110ABDEEC00A10EE104A90
:1035400021B26E4C94ED100ABDEEC00A10EE104A86
:1035500020B2FDF7A7FECAE027E077E037E012E0EF
:10356000FFE7002211461046FDF7EAFF00231A4646
:1035700019461846FDF74CFC00231A461946184612
:10358000FDF790FEB3E0002211461046FDF7D8FF8C
:1035900000231A4619461846FDF73AFC00231A463E
:1035A00019461846FDF77EFEA1E00022114610469E
:1035B000FDF7C6FF00231A4619461846FDF728FCFA
:1035C00000231A4619461846FDF76CFE8FE049495C
:1035D000C86800F083FC4749098A084404B2454999
:1035E000486901F0ADFF4349898C084405B20022C7
:1035F00021462846FDF7A4FF434CE36CA26C616CA6
:10360000206CFDF705FC3D4C94ED130ABDEEC00A9D
:1036100010EE104A23B2394C94ED120ABDEEC00AE6
:1036200010EE104A22B2354C94ED110ABDEEC00ADC
:1036300010EE104A21B2314C94ED100ABDEEC00AD2
:1036400010EE104A20B2FDF72DFE50E02949C8685F
:1036500000F044FC2749098A084404B22549486916
:1036600001F06EFF2349898C084405B200222146EF
:103670002846FDF765FF244CE36CA26C616C206C5E
:10368000FDF7C6FB1D4C94ED130ABDEEC00A10EE0B
:10369000104A23B2194C94ED120ABDEEC00A10EE86
:1036A000104A22B2154C94ED110ABDEEC00A10EE7C
:1036B000104A21B2114C94ED100ABDEEC00A10EE72
:1036C000104A20B2FDF7EEFD11E00022114610462F
:1036D000FDF736FF00231A4619461846FDF798FBFA
:1036E00000231A4619461846FDF7DCFD00BF00BF4F
:1036F00070BD00009C0400203C040040F80600203F
:103700004807002094070020A8060020704700000A
:1037100070B5002100230F22C4781CB3174C246815
:1037200004F4E064C4F5E064C4F30721C1F10404C7
:10373000E3B20A4144789C40E1B2847814402143CA
:103740000C07210E0E4C05786155047804F01F0516
:103750000124AC4005786D11AD0005F1E025C5F8F8
:10376000004109E0047804F01F050124AC40054D38
:103770000678761145F8264070BD00000CED00E09B
:1037800000E400E080E100E002490143024A1160E8
:10379000704700000000FA050CED00E070B5064629
:1037A0000024351DA3E0285DC02840D012DCA528E8
:1037B00029D008DC90281ED0A02821D0A12820D014
:1037C000A22877D11EE0B02826D0B12825D0B22873
:1037D000F7D123E0D1287BD006DCC12828D0C2282D
:1037E00027D0D028EDD12DE0D92865D0E02879D098
:1037F000F02879D174E0687840490870A41C75E01D
:1038000000BF00BF00BF29193D4851F8012F0260D9
:1038100089888180E41D69E000BF00BF291939480B
:1038200051F8012F026089888180E41D5EE000BFAD
:1038300000BF2919344851F8012F0260898881801E
:10384000E41D53E0601C295CA01C285C01EB0020F7
:1038500000B200EE100AB8EEC00ADFED2C0A80EECE
:10386000201A2B4880ED001AE01C295C201D285CE2
:1038700001EB002000B200EE100AB8EEC00ADFED46
:10388000230A80EE201A224880ED011A601D295C6F
:10389000A01D285C01EB002000B200EE100AB8EE7B
:1038A000C00AF2EE040A80EE201A194880ED021ACE
:1038B000E41D1BE018E00BE02919154851F8012F11
:1038C00002604A684260896881600D340EE009E058
:1038D0002819411C10220F48FCF7E7FC113405E0C1
:1038E000641D03E0641D01E0641C00BF00BFB6F866
:1038F0008400A0423FF757AF70BD0000760600205D
:10390000640600206A060020700600200000C842FD
:10391000180A0020240A002010B52DED0A8BB0EE05
:10392000408AF0EE608A0446606900EE100AB8EE44
:10393000C00AB4EEC80AF1EE10FA06D2606900EED1
:10394000100AB8EEC00AB0EE408A206900EE100AF4
:10395000B8EEC00AB4EEC80AF1EE10FA06DD20692E
:1039600000EE100AB8EEC00AB0EE408AA06A6062AB
:1039700038EE680A10EE100AA06278EE680AE06875
:1039800000EE100AF4EEC00AF1EE10FA02DDE06873
:10399000A06213E078EE680AE06800EE100AB1EE6B
:1039A000400AF4EEC00AF1EE10FA07D2E06800EE29
:1039B000100AB1EE400A10EE100AA06238EE680A52
:1039C000B5EEC00AF1EE10FA02DD38EE680A03E047
:1039D00038EE680AB1EE400AA06B00EE900AF8EEED
:1039E000E00AB4EEE00AF1EE10FA04D89FED600AA6
:1039F00010EE100AA062A16A084602F0EDFC41EC4C
:103A00001A0BE16A084602F0E7FC41EC1C0B9FED43
:103A1000590B53EC102B02F0F7FA41EC1B0B53EC53
:103A20001A2B02F0ABF841EC190B02F075F8E062CA
:103A3000A06A00EE100A606A00EE900A70EE600A5A
:103A4000A06800EE100A20EE800A10EE100A206333
:103A5000E06A00EE100A206A00EE900AB4EEE00A76
:103A6000F1EE10FA01DD206AE062E06A00EE100A71
:103A7000206A00EE900AF1EE600AB4EEE00AF1EE80
:103A800010FA07D2206A00EE100AB1EE400A10EEDA
:103A9000100AE062A06A00EE100A206800EE900AA8
:103AA00020EE200ABDEEC00A10EE100A00B2A08778
:103AB000206B00EE100ABDEEC00A10EE100A00B234
:103AC000E087E06A00EE100A606800EE900A20EEDF
:103AD000200ABDEEC00A10EE100A00B2A4F84000A1
:103AE000A06A00EE100A206800EE900A20EE201A6C
:103AF000E06A00EE100A606800EE900A00EE201AFC
:103B0000206B00EE100A31EE000A10EE100A60631E
:103B1000606B00EE100AE06900EE900AF8EEE00A31
:103B2000B4EEE00AF1EE10FA07DDE06900EE100AEB
:103B3000B8EEC00A10EE100A6063606B00EE100A67
:103B4000A06900EE900AF8EEE00AB4EEE00AF1EEA9
:103B500010FA07D2A06900EE100AB8EEC00A10EE03
:103B6000100A6063606B00EE100ABDEC0A8B10BD9A
:103B7000000000002B8716D9CEF7EF3F00B58BB0C1
:103B80000121022000F056FA0121084600F052FA05
:103B90000121022000F05EFA0121082000F05AFA0B
:103BA0000320099002208DF8280003208DF82900B9
:103BB00009A95448FEF766FBCC20099002208DF835
:103BC000280003208DF8290009A94F48FEF75AFB69
:103BD000022200214B48FEF79DFB022201214948A9
:103BE000FEF798FB022206214748FEF793FB0222CC
:103BF00007214548FEF78EFB022211464248FEF798
:103C000089FB022203214048FEF784FB5320ADF8D4
:103C100018000020ADF81A0044F62060079000203C
:103C2000ADF8200006A9394801F07CF85320ADF822
:103C300018000020ADF81A00642007900020ADF8AD
:103C4000200006A9324801F06DF87020ADF804009C
:103C50000120ADF806000020ADF808004FF47A709E
:103C600003900220ADF810000020ADF81200ADF86E
:103C700014004FF48070ADF8160001A9234800F03D
:103C800005FF01A9214800F049FF01A91F4800F0E4
:103C9000A5FF01A91D4800F0FBFF0020039001A92A
:103CA0001B4800F09BFF01A9194800F0F1FF082113
:103CB000164800F029FF0821144800F081FF082170
:103CC000124800F0DBFF0821104801F01DF8082120
:103CD0000F4800F0D3FF08210D4801F015F801212D
:103CE0000A4800F09BFE0121094800F097FE0121DF
:103CF000064800F0A5FE0121054800F0A1FE0BB02A
:103D000000BD00000004024000000240000400402A
:103D1000000C004010B504466148007807287DD2A9
:103D2000DFE800F0040A333D4D5363005A2C02D102
:103D300001205B490870B0E05A48006880F888406C
:103D40005848006890F88800A52804D0A62806D016
:103D5000A72818D10FE002205149087013E05248FB
:103D6000006820B14F4800684F4909688847002023
:103D70004B49087007E000204A490968086006209E
:103D80004749087000BF00BF87E046480068A0F8B8
:103D90008440464884700320414908707DE04148D2
:103DA0000068B0F8840040EA04203E490968A1F8A0
:103DB00084003E48C4700420394908706DE03C48D6
:103DC000048005203649087067E03948008840EAD9
:103DD00004203749088000203249096808603549C5
:103DE000088006202E49087057E02E4800680168B8
:103DF0002C4800680068401C2A4A12681060294854
:103E00000068001D44542748006890F88800A728DF
:103E100013D1244800680068082800E039E00CD37A
:103E2000082020490968A1F884001E4800681E493E
:103E30000968884700201A4908701A480068006815
:103E400018490968B1F88410884221D315480068E0
:103E500090F88800A5281BD104221449154801F0C8
:103E600051FD1048006802680E480168091D11489C
:103E700001F048FD0F4800880D490988884204D1A7
:103E80000848006808490968884700200449087004
:103E900003E000200249087000BF00BF002010BDF1
:103EA000840600207C06002078060020850600207D
:103EB000800600208206002070B504460D460448A6
:103EC00005608C212046FCF735FA0248046070BD7D
:103ED000780600207C0600207047000070B502467E
:103EE00000200021214B1B68934202DA1F4B1B6804
:103EF00000E013461A461D4B9B6D934202DD1B4B9F
:103F00009B6D00E013461A46002106E0174B53F85C
:103F10003130934200DC02E0491C0C29F6DB00BF83
:103F20000A2901DD0A2300E00B4619460F4C4B1C01
:103F300004EBC3035B6804EBC10464681B1B0B4CFC
:103F400054F83140A41A6343084C54F831502646C3
:103F50004C1C56F834402C1B93FBF4F3344604EB12
:103F6000C104A488234418B270BD0000286500086D
:103F700070B52DED088B06460C461546287BE97A70
:103F800040EA012000B22082204600F035F8B4F962
:103F9000100002F022F841EC1B0B9FED140B53ECC8
:103FA000102B01F093FE41EC190BB4F9160000EE52
:103FB000100AB8EEC00ADFED0F0A20EE200A10EE5C
:103FC000101A084602F008FA41EC1A0B53EC192BB0
:103FD00001F0D4FD41EC180B01F0D0FFB4F916103C
:103FE00000EBC1003060BDEC088B70BD000000002C
:103FF00000408F405C8F423E818A028A891A09B252
:104000004182B0F9121041F25452914204DDC18A4A
:10401000491C09B2C18208E0B0F91210044A914269
:1040200003DAC18A491E09B2C182018A81827047BE
:10403000ACEAFFFF29B1064A12680243044B1A603A
:1040400004E0034A12688243014B1A607047000083
:104050003038024029B1064A12680243044B1A6004
:1040600004E0034A12688243014B1A607047000063
:104070004038024029B1064A12680243044B1A60D4
:1040800004E0034A12688243014B1A607047000043
:104090002038024029B1064A12680243044B1A60D4
:1040A00004E0034A12688243014B1A607047000023
:1040B0004438024029B1064A12680243044B1A6090
:1040C00004E0034A12688243014B1A607047000003
:1040D00024380240F0B500210022002402250026E9
:1040E0000223324F3F6807F00C0121B1042905D0AB
:1040F000082937D105E02E4F076036E02D4F0760C5
:1041000033E02A4F3F1F3F68C7F38056274F3F1FBA
:104110003F6807F03F036EB1264FB7FBF3F7DFF8B8
:104120008CC0ACF1040CDCF800C0CCF3881C07FB9D
:104130000CF40CE01E4FB7FBF3F7DFF870C0ACF1E6
:10414000040CDCF800C0CCF3881C07FB0CF4174F00
:104150003F1F3F68C7F301477F1C7D00B4FBF5F7A5
:10416000076002E0124F076000BF00BF0F4F3F68BB
:1041700007F0F0010909104F7A5C0768D7404760E3
:104180000A4F3F6807F4E051890A0B4F7A5C476891
:10419000D7408760054F3F6807F46041490B064FE1
:1041A0007A5C4768D740C760F0BD0000083802401D
:1041B0000024F40000127A00140600201E48008833
:1041C0001D49498808441C49898808441A49C988F6
:1041D0000844A0F5805000280DDD174800881649D6
:1041E000498808441449898808441349C9880844FF
:1041F000A0F580500CE0104800880F494988084419
:104200000D49898808440C49C9880844C0F5805084
:10421000072810DD00BFBFF34F8F0848006800F487
:10422000E06007490843001D04490860BFF34F8F51
:1042300000BF00BFFEE770472C0600200CED00E039
:104240000000FA052A490988491C294A118000B949
:1042500070470178427841EA0221C1F30A01254AF8
:1042600011804178C910827841EA4211C1F30A01F4
:10427000204A518081788911C27841EA820102790D
:1042800041EA8221C1F30A011A4A91800179491059
:10429000427941EAC211C1F30A01164AD18041793B
:1042A0000911890811724179C1F3011151728179A3
:1042B000C27941EA022109B20E4A5181017A427A59
:1042C00041EA02210AB20B498A81817AC27A41EA23
:1042D00002210AB20749CA81027B0A74427B4A74EE
:1042E000817B044A9174C27B0249CA7400BFAFE764
:1042F000400600202C06002010B5FEF749F80528DE
:1043000006D15B484088A0F5806000B2594908801A
:10431000FEF73EF8052803D0FEF73AF8072812D139
:10432000554890ED050AB8EEC00AF0EE400A534831
:104330009FED530AFFF7F0FABDEEC00A10EE100A27
:1043400000B2504908804A480088A0F5806000B259
:104350004D4908804748B0F90000B1F90010084401
:104360004849B1F900100844C00048490861414873
:10437000B0F9000040424449B1F9001008444149F5
:10438000B1F900100844C000404948613948B0F90B
:1043900000003D49B1F90010401A3A49B1F9001046
:1043A0000844C000394988613248B0F900004042F1
:1043B0003549B1F90010401A3249B1F900100844EA
:1043C000C0003249C861084690ED001AB8EEC11A23
:1043D000F0EE410A90ED041AB8EEC11AB0EE410AAF
:1043E0002B48FFF799FABDEEC00A284880ED100A65
:1043F00090ED011AB8EEC11AF0EE410A90ED051ADF
:10440000B8EEC11AB0EE410A21484230FFF784FAF3
:10441000BDEEC00A1D4880ED110A90ED021AB8EEFB
:10442000C11AF0EE410A90ED061AB8EEC11AB0EECC
:10443000410A17488430FFF76FFABDEEC00A1348EF
:1044400080ED120A90ED031AB8EEC11AF0EE410A9F
:1044500090ED071AB8EEC11AB0EE410A0C48C6300A
:10446000FFF75AFABDEEC00A084880ED130A10BDE6
:104470002C060020860100209C0400203001002032
:10448000002099458A01002088010020A80600200C
:10449000280000207047000030B500228B071C0F59
:1044A0000F2303FA04F20B4B8C1053F82430934380
:1044B000084C8D1044F8253023468C1053F82430D6
:1044C0008C07240F00FA04F42343024C8D1044F8A7
:1044D000253030BD083801400146002008E04A7808
:1044E000C0F107031A4102F001030A4A1354401CA9
:1044F0000428F4DB002009E04A78C0F103031A41E4
:1045000002F00102034B1B1F1A54401C0428F3DB6A
:10451000704700004C060020014609B1012000E070
:104520000020234A5043C0F11E00224A906309B183
:10453000012000E000201E4A5043C0F11E001D4A29
:10454000D0631046806AD26A024409B1012000E0BB
:104550000020174B5843C0F11E00022303FB10201C
:10456000002810DD1348806A124AD26A024409B159
:10457000012000E000200E4B5843C0F11E00022332
:1045800003FB10200EE00B48806A0A4AD26A0244FC
:1045900009B1012000E00020054B5843C0F11E0086
:1045A000C2EB40001E2801DA012070470020FCE722
:1045B0008BFBFFFFF8060020014609B1012000E057
:1045C0000020234A5043C0F11E00224A106309B163
:1045D000012000E000201E4A5043C0F11E001D4A89
:1045E00050631046006A526A024409B1012000E09B
:1045F0000020174B5843C0F11E00022303FB10207C
:10460000002810DD1348006A124A526A024409B1B8
:10461000012000E000200E4B5843C0F11E00022391
:1046200003FB10200EE00B48006A0A4A526A02445B
:1046300009B1012000E00020054B5843C0F11E00E5
:10464000C2EB40001E2801DA012070470020FCE781
:104650008BFBFFFFF80600200CB5002001900090B6
:104660003448006840F480303249086000BF314867
:10467000006800F4003000900198401C0190009800
:1046800018B90198B0F5A06FF1D12A48006800F47C
:10469000003010B10120009001E00020009000984F
:1046A000012846D123484030006840F0805021491D
:1046B000403108602048006840F480401E4908608E
:1046C0001C48083000681B4908310860084600682B
:1046D00040F4004008600846006840F4A0500860BC
:1046E0001648091F0860081F006840F08070091F05
:1046F000086000BF0F48006800F000700028F9D083
:1047000040F205600E4908600A480830006820F051
:1047100003000849083108600846006840F00200BC
:10472000086000BF03480830006800F00C0008284B
:10473000F8D10CBD0038024000700040085440071A
:10474000003C0240014908707047000090010020C1
:1047500001490870704700000E000020224A1268CC
:10476000521C214B1A600A7BCB7A42EA032212B216
:1047700082808B7B4A7B43EA022212B202828289C8
:104780008388D21A12B2C281B0F90E2041F254537A
:104790009A4204DD826802F50052826008E0B0F9B6
:1047A0000E20124B9A4203DA8268A2F50052826010
:1047B000B0F9043082681A444FF47A7392FBF3F232
:1047C00002608288828190ED000AB8EEC00ADFEDB7
:1047D000080A80EE201ABCEEC10A10EE102A12B2AE
:1047E000044B5A80704700008C040020ACEAFFFFA5
:1047F000A69B4443780700200F48007C012808D17D
:104800000E48007828B90E480088401C00B20C49B8
:1048100008800948007C094908700948B0F900007F
:1048200000EE100AB8EEC00ADFED060A20EE200AFC
:10483000034880ED020A70472C06002092040020F5
:1048400078070020A69B444310B5FFF7D5FF284802
:104850000078032817D12748407A012813D1264829
:10486000007808B9012000E00020234908700846BC
:104870000078A0EB001000EB80000001C0F548704C
:104880001E4908800FE01B48407A032803D100200E
:104890001B49088307E01748407A022803D14FF4E8
:1048A000FA60174908831648B0F9100001EE100AA3
:1048B000B8EEC11AF0EE410A1148B0F9180001EE45
:1048C000100AB8EEC11AB0EE410A0E48FFF724F8FC
:1048D0000B4880ED070A094800880B490860074823
:1048E0000088091D08600348407A0149087010BD1E
:1048F000900400202C060020910400207604002063
:1049000094070020320400203C04004010B58C7B4A
:104910004B7B44EA03231AB2026010BD70470000CB
:1049200010B51548006840F470001349086013483A
:10493000006840F001001149086000200F4908316B
:1049400008600E4800680E4908400C4908600D4890
:10495000091D0860081F006820F48020091F0860F6
:10496000002006490C310860FFF776FE4FF000602A
:1049700001498039086010BD88ED00E00038024030
:10498000FFFFF6FE103000241FB501211020FFF7B5
:1049900061FB36208DF8000001208DF801008DF8B4
:1049A00002008DF803006846FEF7B2FE5320ADF812
:1049B00004000020ADF80600ADF80C004FF47A704A
:1049C000029001A9014800F0ADF91FBD00100040A0
:1049D00010B50121074800F03FF848B10121054812
:1049E00000F02BF80121034800F024F8FCF7F0FE5A
:1049F00010BD00000010004010B50121064800F075
:104A00001FF801221146044800F037F8012102483E
:104A100000F010F810BD00000010004021B1028825
:104A200042F08002028004E002884FF67F731A4051
:104A300002807047CA4302827047CA4302827047AD
:104A400021B1028842F00102028004E002884FF6A0
:104A5000FE731A400280704730B5024600200023E2
:104A60000024158A05EA0103958905EA010413B1BA
:104A70000CB1012000E0002030BD1AB183890B4346
:104A8000838102E083898B438381704770B5002462
:104A900000220023058C4FF6FE7635400584028CFB
:104AA0008388048B4FF68F752C40B51E2C400D88E3
:104AB0002C43751E2A408D892A434D882A43104D68
:104AC000A84202D00F4DA84213D14FF6F7752A40E5
:104AD000CD892A434FF6FB752A408D882A434FF62D
:104AE000FF652B404FF6FF552B400D8A2B434D8A17
:104AF0002B43838004838D684563028470BD00006E
:104B000000000140000401400A460021018B4FF6DD
:104B1000F7731940114301837047000070B50024FA
:104B200000220023058C4FF6EF7635400584028C79
:104B30008388048B48F6FF752C404FF6FF452C40C8
:104B40000D884FF6FF7606EA05252C434FF6DF75F4
:104B50002A408D8906EA05152A434D8806EA05157F
:104B60002A43154DA84202D0144DA8421DD14FF63C
:104B70007F752A40CD894FF6FF7606EA05152A4350
:104B80004FF6BF752A408D8806EA05152A434FF671
:104B9000FF352B404FF2FF752B400D8A06EA850545
:104BA0002B434D8A06EA85052B43838004838D6859
:104BB0008563028470BD00000000014000040140D4
:104BC0000A460021018B4FF2FF7319404FF6FF7325
:104BD00003EA0223194301837047000070B50024E3
:104BE00000220023058C4FF6FF6635400584028CB9
:104BF0008388848B4FF68F752C404FF6FC752C40C4
:104C00000D882C434FF6FF552A408D894FF6FF76CD
:104C100006EA05252A434D8806EA05252A43154D4F
:104C2000A84202D0144DA8421DD14FF2FF752A4070
:104C3000CD894FF6FF7606EA05252A434FF6FF3564
:104C40002A408D8806EA05252A434EF6FF752B403B
:104C50004DF6FF752B400D8A06EA05152B434D8A4C
:104C600006EA05152B43838084838D68C56302841F
:104C700070BD000000000140000401400A46002110
:104C8000818B4FF6F7731940114381837047000001
:104C900070B5002200230024058C4EF6FF763540C7
:104CA0000584038C8488828B48F6FF752A404FF672
:104CB000FF452A400D884FF6FF7606EA05252A4370
:104CC0004DF6FF752B408D8906EA05352B434D883F
:104CD00006EA05352B430A4DA84202D0094DA842E9
:104CE00008D14BF6FF752C400D8A4FF6FF7606EA89
:104CF00085152C43848082838D680564038470BD90
:104D000000000140000401400A460021818B4FF25F
:104D1000FF7319404FF6FF7303EA0223194381839F
:104D20007047000000220288184B98420ED0184BA2
:104D300098420BD0B0F1804F08D0164B984205D066
:104D4000154B984202D0154B984204D14FF68F7301
:104D50001A404B881A43124B984207D0114B984285
:104D600004D04FF6FF431A400B891A4302804B6868
:104D7000C3620B880385054B984202D0044B9842CE
:104D800001D18B7A038601238382704700000140A2
:104D9000000401400004004000080040000C0040F6
:104DA000001000400014004010B5C02445480088A1
:104DB000A0F58060002804DD42480088A0F58060EE
:104DC00003E040480088C0F5806040F296218842A8
:104DD00001DC012000E0002004433A484088A0F5AF
:104DE0008060002804DD37484088A0F5806003E03B
:104DF00034484088C0F5806040F29621884201DC4A
:104E0000012000E0002044EA40042E488088A0F5FC
:104E10008060002804DD2B488088A0F5806003E0D6
:104E200028488088C0F5806040F29621884201DCE5
:104E3000012000E0002044EA80042248C088A0F558
:104E40008060002804DD1F48C088A0F5806003E072
:104E50001C48C088C0F5806040F29621884201DC81
:104E6000012000E0002044EAC0041648007A01282E
:104E700007D01448007A022803D01248007A032889
:104E800001D1012000E0002044EA00140D48407ADE
:104E9000012807D00B48407A022803D00948407AFD
:104EA000032801D1012000E0002044EA4014FF2C37
:104EB00007D00920FFF746FC142202490248FBF7FD
:104EC000F4F910BD2C0600206407002010B596B040
:104ED000044601210220FFF7ADF801211020FFF761
:104EE000D9F8072211463F48FDF714FA14A8FDF738
:104EF00041FA8020149002208DF8540001208DF892
:104F0000570002208DF8550000208DF8560014A996
:104F10003448FDF7B7F9344800F078F910A800F0EC
:104F20009EFA324810900020ADF84400ADF84600DB
:104F30004FF48060ADF848000420ADF84A0000202E
:104F4000ADF84C0010A9284800F016FA01212648B7
:104F500000F046F901224021234800F04DF9244891
:104F6000FCF7E4FD01218805FFF764F84FF00060CD
:104F700000901D48001D01901E48029000200390E3
:104F800012200490002005904FF4806006900020CD
:104F9000079008904FF4807009904FF440300A90C9
:104FA00000200B900C900D900E9069461048FCF775
:104FB000B9FE012210210E48FCF796FE01210C4893
:104FC000FCF7A8FD3A208DF83C0000208DF83D004C
:104FD0008DF83E0001208DF83F000FA8FEF798FBEA
:104FE00016B010BD0004024000100140A086010070
:104FF000406402408C06002010B50D480068401C3B
:105000000B49086040F225510A4800F066F968B182
:10501000084800F01BFA0849087008460078FCF7B9
:10502000ADFE044800880348001D008810BD000044
:1050300004000020004800400800002010B588B09F
:10504000044601210220FEF7F5FF01218804FFF745
:1050500001F807220A212648FDF75CF907220B21F7
:105060002348FDF757F94FF44060069002208DF871
:105070001C0000208DF81E0003208DF81D0000206C
:105080008DF81F0006A91A48FDF7FCF8194800F032
:10509000BDF802A800F0E3F902940020ADF80C007E
:1050A000ADF80E00ADF810000C20ADF81200002095
:1050B000ADF8140002A90F4800F05EF927208DF822
:1050C000040002208DF8050001208DF806008DF8FF
:1050D000070001A8FEF71CFB012240F225510548FC
:1050E00000F025F90121034800F07AF808B010BD5E
:1050F000000402400048004010B540F22551074826
:1051000000F0EBF848B1054800F0A0F90449087038
:10511000024800880148001D008810BD00140140AD
:105120000900002010B588B0044601210420FEF7D4
:1051300081FF01212020FEF7ADFF0822062126482D
:10514000FDF7E8F8082207212348FDF7E3F8C0201F
:10515000069002208DF81C0000208DF81E00032010
:105160008DF81D0000208DF81F0006A91A48FDF7D4
:1051700089F81A4800F04AF802A800F070F9029481
:105180000020ADF80C00ADF80E00ADF810000C20BA
:10519000ADF812000020ADF8140002A90F4800F08D
:1051A000EBF847208DF8040002208DF8050001205F
:1051B0008DF806008DF8070001A8FEF7A9FA012274
:1051C00040F22551054800F0B2F80121034800F0F3
:1051D00007F808B010BD00000008024000140140AC
:1051E00021B1828942F40052828104E082894DF625
:1051F000FF731A40828170471AB1838A0B438382FE
:1052000002E0838A8B4383827047000010B5044616
:105210002548844208D101211020FEF74BFF0021D0
:105220001020FEF747FF3EE02048844209D10121CB
:105230004804FEF71FFF00214FF40030FEF71AFF6D
:1052400031E01B48844209D101218804FEF712FF96
:1052500000214FF48020FEF70DFF24E01548844222
:1052600009D10121C804FEF705FF00214FF40020F9
:10527000FEF700FF17E01048844209D1012108051C
:10528000FEF7F8FE00214FF48010FEF7F3FE0AE06F
:105290000A48844207D101212020FEF70BFF00219C
:1052A0002020FEF707FF10BD001001400044004021
:1052B00000480040004C00400050004000140140F5
:1052C00002460020B1F5007F00D100BF13880B40DB
:1052D0000BB1012000E00020704770B502460024A9
:1052E00000230025002040F66A16B14200D100BF1D
:1052F000C1F3421501F01F03012606FA03F3012D45
:1053000002D19689334006E0022D02D1168A33403D
:1053100001E0968A33400C12012606FA04F416883E
:10532000344013B10CB1012000E0002070BDF0B595
:105330000346002400260025002040F66A17B942E3
:1053400000D100BF1846C1F3421401F01F06012727
:1053500007FA06F5012C01D10C3004E0022C01D132
:10536000103000E014301AB107682F43076002E0E4
:105370000768AF430760F0BD2DE9FF4705460E46BD
:105380000024A14600BFA046B08900B100BF2C8A0E
:1053900024F44054F08804432C82AC8941F20C6020
:1053A0008443B08831890843718908430443AC8140
:1053B000AC8A24F44074B0890443AC826846FEF79A
:1053C00089FE2048854202D01F48854202D1DDF87F
:1053D0000C9001E0DDF80890A88900F4004040B18D
:1053E00009EBC90000EB091031684900B0FBF1F787
:1053F00007E009EBC90000EB091031688900B0FB38
:10540000F1F76420B7FBF0F004012009642101FBEF
:105410001078A88900F4004040B1322000EBC800A9
:10542000B0FBF1F000F00700044308E0322000EB8D
:1054300008106421B0FBF1F000F00F0004432C8150
:10544000BDE8FF8700100140001401400146888834
:10545000C0F308007047C1F30802828070474FF420
:105460001651016000218180C18001810C214181A0
:1054700000218181704700BFFEE7000000B5FCF706
:1054800087FF2A490870FCF783FF0A2847D2DFE824
:1054900000F006050738370839212C453FE03EE08B
:1054A0003DE02348007A032802D10620FFF74AF99D
:1054B0001F48007A02280BD11E480078032807D124
:1054C0001B48407A022803D10720FFF73BF900E090
:1054D00000BF24E01648007A032805D100201649B1
:1054E00008700620FFF72EF919E01148007A03280A
:1054F00005D10020114908700620FFF723F90EE0BE
:105500000DE00CE00A48007A012803D00848007A30
:10551000022802D10520FFF715F900E000BF00BF07
:105520000348407A0349087000BD0000EF030020E3
:105530002C060020EE0300200C0000200D000020AF
:1055400070B5024600200021204B1B68934202DA0E
:105550001E4B1B6800E013461A461C4B1B6D934202
:1055600002DD1A4B1B6D00E013461A46002106E0CF
:10557000164B53F83130934200DC02E0491C0B29F2
:10558000F6DB00BF092901DD092300E00B461946BF
:105590000E4C4B1C04EBC3035B6804EBC104646852
:1055A0001B1B0A4C54F83140A41A6343074C54F8AF
:1055B000315026464C1C56F834402C1B93FBF4F318
:1055C000344604EBC1046468181970BDD064000847
:1055D00010B52DED088BFCF7DBFE052863D1AE4836
:1055E00000681421B0FBF1F201FB1200B0BBAB4923
:1055F0008988A1F5806000F0F0FC41EC1A0B9FED6A
:10560000A80B53EC102B00F0FFFC41EC190B9FEDA5
:10561000A60B53EC102B00F059FB41EC180B00F0DB
:10562000ADFCA349096A081AA14908620846006A44
:10563000B0F5E16F04DD0846006AA0F5616001E0A5
:105640009B48006A9A4908620846006A10F5E16FB3
:1056500005DA0846006A00F5616002E003E094485C
:10566000006A934908628D49C988C1F5806000F0DD
:10567000B4FC41EC1A0B9FED8F0B53EC102B00F098
:10568000C3FC41EC190B9FED880B53EC102B00F081
:105690001DFB41EC180B00F071FC41F270710844E5
:1056A00032308349C860854890ED030ADFED840AF3
:1056B00020EE200A10EE101A084600F08DFE41EC94
:1056C0001B0B9FED800B53EC102B00F0FFFA41EC0D
:1056D0001A0B9FED7E0B53EC102B00F04FFA41ECB0
:1056E000190B00F019FA08EE100A7148D0ED030A00
:1056F000F8EEE00AB0EE600A7648F0EE480AFEF7EF
:105700000BF9B1EE400ABDEEC00A694880ED020A0D
:1057100090ED080AB8EEC00A6848D0ED050AB2EE6E
:10572000041A00EEC10ADFED6C0AB4EEE00AF1EEF5
:1057300010FA1BDDD0ED051A9FED681AB2EE042AAF
:1057400001EE821AF0EE410A594890ED081AB8EEBF
:10575000C11AB0EE410A6248FEF7DEF8B1EE400A27
:10576000BDEEC00A524880ED070A48E0504890ED6F
:10577000080AB8EEC00A5148D0ED050AB2EE041A84
:1057800000EEC10ADFED570AB4EEE00AF1EE10FABE
:105790001BD2D0ED051A9FED511AB2EE042A11EE7C
:1057A000821AF0EE410A424890ED081AB8EEC11A8A
:1057B000B0EE410A4A48FEF7AFF8B1EE400ABDEE3E
:1057C000C00A3B4880ED070A19E03C4890ED051AF5
:1057D000F2EE041A21EE211AF0EE410A344890ED5F
:1057E000081AB8EEC11AB0EE410A3D48FEF794F827
:1057F000B1EE400ABDEEC00A2D4880ED070A2F49E0
:10580000B1F90810484200F0E8FB41EC1A0B9FED9B
:10581000360B53EC102B00F059FA41EC190B00F049
:105820007BF908EE100A2248D0ED020AF8EEE00AF1
:10583000B0EE600A2E48F0EE480AFEF76DF8BDEEB5
:10584000C00A1B4880ED040A1C49B1F90A104842FD
:1058500000F0C3FB41EC1A0B9FED230B53EC102B14
:1058600000F034FA41EC190B00F056F908EE100A7A
:105870000F48D0ED070AF8EEE00AB0EE600A1D48C6
:10588000F0EE480AFEF748F8BDEEC00A084880ED81
:10589000090ABDEC088B10BDAC0300202C060020CB
:1058A00000000000000034400000000000A0844020
:1058B0009C0400200000000000E07A4074090020F1
:1058C000000000460000000000807640000000005C
:1058D0000070B740C40400200000E14400006145AE
:1058E000480500200000E1C4000000000000244042
:1058F000060500208A05002010B5FFF769FE10BDDF
:1059000000BF7047F0B503460C461888002113E02D
:10591000675C80EA072000250BE0460000F4004C9D
:10592000BCF1000F03D041F2210C86EA0C06304690
:105930006D1C082DF1D3491C9142E9D31880F0BDAC
:1059400010B5002107E04AF2104200BF1300A2F197
:105950000102FBD1491C8142F5D310BD00B591B0C5
:105960002148FCF7E3F801214805FEF763FB4FF0FF
:10597000006001901D4802901D4803900020049093
:1059800022200590002006904FF4806007900020B0
:10599000089009904FF480700A904FF440300B90BB
:1059A00000200C900D900E900F9001A90E48FCF76E
:1059B000B9F9012210210C48FCF796F901210A4897
:1059C000FCF7A8F80D208DF8400001208DF841006B
:1059D00000208DF8420001208DF8430010A8FDF74B
:1059E00097FE11B000BD000040600240044C004032
:1059F0000C0900200146034B0DCB81E80D0000206F
:105A000070470000180A00200146034802680A6037
:105A10008088888000207047640600200146034883
:105A200002680A6080888880002070476A0600202B
:105A300010B503490348FEF73FFA002010BD0000EF
:105A40009D3700088C0900200120FEF77BFE4FF4F3
:105A5000FA70FFF775FFFAF7CDFF0120FEF772FE2F
:105A60006420FFF76DFF00BFFEE7000000B587B0C0
:105A700001210420FEF7DEFA0121C804FEF7EAFA4C
:105A800008220B212248FCF745FC05A8FCF772FC14
:105A90004FF40060059002208DF8180005A91C48FD
:105AA000FCF7F0FB1B48FFF7B1FB01A8FFF7D7FCA1
:105AB0004FF4E13001900020ADF80800ADF80A0085
:105AC0004FF48060ADF80C000420ADF80E0000200B
:105AD000ADF8100001A90F48FFF74EFC01210D4859
