:020000040800F2
:10000000E0150020690200087748000885300008E4
:10001000E5430008E51100083787000800000000EC
:10002000000000000000000000000000316E000829
:10003000E927000800000000C1590008ED7600081B
:10004000830200088302000883020008830200087C
:10005000830200088302000883020008830200086C
:100060008302000883020008952B00088302000821
:1000700083020008052400088302000869240008A0
:10008000830200088302000883020008830200083C
:100090008D14000883020008830200088302000810
:1000A000830200088302000883020008830200081C
:1000B000830200088302000883020008830200080C
:1000C00083020008830200088302000883020008FC
:1000D00083020008830200088302000805830008E9
:1000E00083020008830200088302000883020008DC
:1000F00083020008830200088302000883020008CC
:1001000083020008830200088302000883020008BB
:100110008302000883020008A17700088302000818
:1001200083020008830200086D240008830200088F
:10013000830200088302000883020008830200088B
:100140006517000883020008830200088302000884
:10015000830200088302000883020008B1830008BC
:10016000830200088302000883020008830200085B
:10017000830200088302000883020008830200084B
:10018000830200088302000800F002F800F05CF827
:100190000AA090E8000C82448344AAF10107DA45E2
:1001A00001D100F051F8AFF2090EBAE80F0013F0D8
:1001B000010F18BFFB1A43F00103184794BF00005A
:1001C000B4BF00000A444FF0000C10F8013B13F0DC
:1001D000070408BF10F8014B1D1108BF10F8015BA0
:1001E000641E05D010F8016B641E01F8016BF9D193
:1001F00013F0080F1EBF10F8014BAD1C0C1B09D1EA
:100200006D1E58BF01F801CBFAD505E014F8016B5B
:1002100001F8016B6D1EF9D59142D6D370470000ED
:100220000023002400250026103A28BF78C1FBD8FF
:10023000520728BF30C148BF0B6070471FB50BF095
:100240002CFC1FBD10B510BD00F0E4F81146FFF7FF
:10025000F5FF0AF0F9FC00F002F903B4FFF7F2FF32
:1002600003BC0AF021FB0000094880470948004709
:10027000FEE7FEE7FEE7FEE7FEE7FEE7FEE7FEE756
:10028000FEE7FEE704480549054A064B70470000B3
:10029000F176000889010008E00F0020E015002039
:1002A000E0110020E01100207047032A40F2308066
:1002B00010F0030C00F0158011F8013BBCF1020FA7
:1002C000624498BF11F801CB00F8013B38BF11F828
:1002D000013BA2F1040298BF00F801CB38BF00F83F
:1002E000013B11F0030300F05B80083AC0F0088086
:1002F00051F8043B083A51F804CBA0E80810F5E7A0
:10030000121D5CBF51F8043B40F8043BAFF3008082
:10031000D20724BF11F8013B11F801CB48BF11F8F7
:10032000012B24BF00F8013B00F801CB48BF00F8C7
:10033000012B70474FF0000200B5134694469646D5
:10034000203922BFA0E80C50A0E80C50B1F12001E8
:10035000BFF4F7AF090728BFA0E80C5048BF0CC096
:100360005DF804EB890028BF40F8042B08BF7047F4
:1003700048BF20F8022B11F0804F18BF00F8012B66
:100380007047704770477047704710B500F03AF8F3
:10039000006810BD10B5044600F034F8046010BDCC
:1003A00010B5203AC0F00B80B1E81850203AA0E810
:1003B0001850B1E81850A0E81850BFF4F5AF5FEA44
:1003C000027C24BFB1E81850A0E8185044BF18C9F7
:1003D00018C0BDE810405FEA827C24BF51F8043B9E
:1003E00040F8043B08BF7047D20728BF31F8023BF2
:1003F00048BF11F8012B28BF20F8023B48BF00F886
:10040000012B7047004870477C0F00200048704760
:100410007C0F00207546FFF7F9FFAE4605006946E0
:10042000534620F00700854618B020B5FFF72AFF95
:10043000BDE820404FF000064FF000074FF00008E5
:100440004FF0000B21F00701AC46ACE8C009ACE866
:10045000C009ACE8C009ACE8C0098D467047044645
:10046000AFF300802046FFF7F8FE000070B50546A8
:100470000C4600260DB1022C00D870BDA11E064806
:100480000288284602F0D2FD0646A01E2E54310AEC
:10049000601E295400BFF0E75000002070B50546EB
:1004A0000C4600260DB1022C00DC70BD601E81B22E
:1004B000FF22284602F0D4FD0646601E2E5400BFDF
:1004C000F3E7000000B5002006F042FF012006F02F
:1004D00075FD002006F00AFD00204F49088001202C
:1004E00006F06CFD012871D1002006F0FFFC012808
:1004F000F9D14A48006818B9494800684749086076
:100500004748006845490968401AB0F5C87F07D2D6
:100510006FF09F004349088000203F49088011E0A8
:100520003F4800683D490968401AB0F5C87F09D9BD
:100530003A48006830B16FF059003A49088000200D
:10054000354908803848007850B93748407838B97C
:100550006FF009003349088000202F49088022E00D
:100560003148007801280ED12F48407858B9012031
:1005700006F0EEFE6FF009002A4908806FF01D00BA
:10058000254908800FE02848007860B9264840785F
:10059000012808D106F0DCFE6FF00900214908802F
:1005A0001E201D4908802048807901280FD11E484F
:1005B000C07901280BD16FF027001A49088000206C
:1005C0001549088015490860012000BD22E0164841
:1005D000807970B91448C07901280AD106F0B8FEB4
:1005E0006FF027000F4908806FF01D000A4908804E
:1005F00010E00D48807901280CD10B48C07948B92A
:10060000012006F0A5FE6FF02700064908801E2095
:10061000014908800020D8E7FE0100208800002062
:1006200054040020FA010020400E002010B50120E3
:100630003C490872002013E09FED3B0A10EE101AAF
:1006400000EB4012394B03EB420251609FED380A38
:1006500010EE101A00EB401203EB42021162401C34
:100660000428E9DB01202F49087032480078062869
:1006700056D2DFE800F0030A121A222A00F0E4F84A
:10068000012801D12B4908704AE0FFF71BFF012820
:1006900002D102202749087042E000F051F80128F9
:1006A00002D10320234908703AE000F06FF90128D5
:1006B00002D104201F49087032E0FFF703FF012830
:1006C00002D105201B4908702AE000F039F8012802
:1006D00025D1002013490872042006F033FE0020C3
:1006E000144908700F49087000BF13E09FED120A0B
:1006F00010EE101A00EB40120C4B03EB420251605B
:100700009FED0E0A10EE101A00EB401203EB4202AE
:100710001162401C0428E9DB012006F019FE00BF2D
:1007200000BF10BD4A0E00203E0AD73D9C000020AD
:100730006E43D14770000020295C0F3D49828B47F2
:1007400000B53B48006818B93A4800683849086065
:100750003848006836490968401AB0F5E17F64D925
:10076000002006F0F5FD002006F028FC002006F031
:10077000BDFB00203049088006F020FC012828D16C
:10078000002006F0B3FB012823D12C48006850B9A3
:1007900028480068294908606FF09F0028490880B0
:1007A0000020254908802348006824490968401A28
:1007B00040F27621884238D96FF02700204908801E
:1007C00000201D4908801D49086019490860012062
:1007D00000BD1C48007850B91A48407838B96FF00D
:1007E0002700174908800020134908801DE015489C
:1007F000007801280BD11348407840B96FF02700EA
:100800000F4908806FF01D000B4908800DE00D486E
:10081000007850B90B484078012806D16FF02700C6
:10082000074908801E20044908800020D0E7000006
:100830009000002054040020FE0100208C000020C5
:10084000FA010020400E002000B5002006F080FDD7
:10085000012006F0B3FB012006F048FB00204849C8
:100860000880012006F0AAFB012803D106F03EFB18
:10087000012807D06FF04500424908800020404918
:10088000088006E06FF06D003E49088000203C497A
:100890000880012006F092FB01280DD13A488078AB
:1008A00050B93948C07838B96FF009003549088027
:1008B0000020334908802CE0012006F07FFB01284E
:1008C00012D13148807801280ED12F48C07858B90C
:1008D000012006F03DFD6FF009002A4908806FF005
:1008E0001D002749088014E0012006F067FB01285D
:1008F0000FD12548807860B92348C078012808D1F5
:1009000006F026FD6FF009001E4908801E201C49D4
:1009100008801D48007A01280CD11B48407A012824
:1009200008D16FF02700174908800020144908807B
:10093000012000BD1448007A70B91348407A01289C
:100940000AD106F005FD6FF027000E4908806FF010
:100950001D000B49088010E00B48007A01280CD1DB
:100960000948407A48B9012006F0F2FC6FF02700F0
:10097000044908801E20024908800020D9E70000B1
:10098000FE010020FA010020400E002000B50020EA
:1009900006F0DEFC012006F011FB012006F0A6FAAD
:1009A000002048490880012006F008FB012803D1F7
:1009B00006F09CFA012807D06FF0450042490880F4
:1009C00000204049088006E06FF06D003E49088035
:1009D00000203C490880012006F0F0FA01280DD1E2
:1009E0003A48807850B93948C07838B96FF0090072
:1009F000354908800020334908802CE0012006F0AA
:100A0000DDFA012812D13148807801280ED12F4813
:100A1000C07858B9012006F09BFC6FF009002A4904
:100A200008806FF01D002749088014E0012006F0BF
:100A3000C5FA01280FD12548807860B92348C078CD
:100A4000012808D106F084FC6FF009001E490880D7
:100A50001E201C4908801D48007A01280CD11B4823
:100A6000407A012808D16FF027001749088000203C
:100A700014490880012000BD1448007A70B9134859
:100A8000407A01280AD106F063FC6FF027000E4976
:100A900008806FF01D000B49088010E00B48007AB9
:100AA00001280CD10948407A48B9012006F050FCD1
:100AB0006FF02700044908801E20024908800020AA
:100AC000D9E70000FE010020FA010020400E0020BE
:100AD00010B52DED028BB0EE408AD04890ED000AA3
:100AE000F7EE000A30EEC00ACD48D0ED000A20EE45
:100AF000200ACA48D0ED000A08EE200AC84880ED56
:100B0000000A02F08DFA04287ED1C64890F8200031
:100B10000128F9D1C448007820B1012842D0022828
:100B20003FD1DAE01E20C149086348638863C86387
:100B3000BB4890ED000AF2EE000AB4EEE00AF1EED6
:100B400010FA0BDDBA4800884FF6FE71884205DACC
:100B5000B7480088401CB649088018E0B04890EDBE
:100B6000000AFAEE000AB4EEE00AF1EE10FA0BD237
:100B7000AF4800884FF6FE71884205DAAC4800881D
:100B8000401CAB49088002E00020A9490880A84821
:100B90000088642805DD0120A34908700020A449CD
:100BA0000880DFE09E4890ED000AB5EEC00AF1EE45
:100BB00010FA31DD9D48006B1E2814DC9B4890ED37
:100BC0000A0AB8EEC00A9648D0ED000AB2EE081A3A
:100BD00000EE810ABDEEC00A944880ED0E0A806BDB
:100BE0009249C86347E0914890ED080AB8EEC00A00
:100BF0008B48D0ED000AF1EE600AB2EE081A00EE62
:100C0000810ABDEEC00A00E0ADE0884880ED0C0A24
:100C1000006B864948632EE08448806B1E2816DCF2
:100C2000824890ED080AB8EEC00A7D48D0ED000A6F
:100C3000F1EE600AB2EE081A00EE810ABDEEC00ABB
:100C40007A4880ED0C0A006B7849486313E07748D6
:100C500090ED0A0AB8EEC00A7148D0ED000AB2EE73
:100C6000081A00EE810ABDEEC00A704880ED0E0A37
:100C7000806B6E49C8636A4890ED000AB5EEC00A01
:100C8000F1EE10FA02DD90ED000A04E0644890ED08
:100C9000000AB1EE400ADFED670AB4EEE00AF1EEB9
:100CA00010FA0BD2644800884FF6FE71884205DACC
:100CB00061480088401C6049088002E000205E49CD
:100CC00008805D480088B0F5967F05DD0220564912
:100CD000087000205849088044E0514890ED000A0F
:100CE000B5EEC00AF1EE10FA02DD90ED000A04E064
:100CF0004B4890ED000AB1EE400AF1EE000AB4EE66
:100D0000E00AF1EE10FA03DD0120474908701FE008
:100D10004648006B4549896B401A002805DD434869
:100D2000006B4249896B401A04E04048806B3F49A0
:100D3000096B401AB0F5967F0ADA404800884FF6F2
:100D4000FE71884204DA3D480088401C3B49088017
:100D50003A480088962804DD002033490870374956
:100D6000088000BF00BF3148006B1E2801DA1E203A
:100D700001E02E48006B2D4908630846006B40F2E5
:100D80004C41884201DD084601E02848006B2749B4
:100D900008630846406B1E2801DA1E2001E0234844
:100DA000406B224948630846406B40F24C41884200
:100DB00001DD084601E01D48406B1C4948630846B8
:100DC000806B1E2801DA1E2001E01848806B17494D
:100DD00088630846806B40F24C41884201DD08463A
:100DE00001E01248806B114988630846C06B1E28D9
:100DF00001DA1E2001E00D48C06B0C49C8630846AB
:100E0000C06B40F24C41884201DD084601E00748D2
:100E1000C06B0649C863BDEC028B10BDB007002053
:100E2000AC070020E00D00209C070020640B002090
:100E3000B4070020CDCC0C40B6070020B807002036
:100E400010B54FF4A06003F053FD02F01DFD04F057
:100E5000DDFB02F0F7FD114807F020F94FF4E13017
:100E600007F0C0FA4FF4E13007F0AEF909F070FF77
:100E700009F0E6FD09F070FD4FF47A7009F05EFDAF
:100E800006F06AFC00F086FA00F0F0FB44F2D800AD
:100E900009F054FD06F098FC10BD0000A08601008A
:100EA00000B5C6480068401CC44908600846006890
:100EB000142855D100200860C148C288C149C248E1
:100EC00002F0E2F8C1484078C0490870C048807C10
:100ED0004870084640780978401A002840DDBB4831
:100EE0004078BA490978401A00EE100AB8EEC00AF4
:100EF000B84880ED000A90ED000ADFEDB70A80EEF9
:100F0000201AB64880ED001A90ED000AF7EE000AAC
:100F100030EE600AB5EEC00AF1EE10FA06DD90ED93
:100F2000000AF7EE000A30EE600A08E0AB4890EDE8
:100F3000000AF7EE000A30EE600AB1EE400AF6EE63
:100F4000000AB4EEE00AF1EE10FA0AD2A14890EDE0
:100F5000000A80ED000AA2480068401CA049086011
:100F60002AE19E4890ED000AF0EE000A30EE600A99
:100F7000B5EEC00AF1EE10FA06DD90ED000AF0EED3
:100F8000000A30EE600A08E0944890ED000AF0EEA6
:100F9000000A30EE600AB1EE400AF6EE000AB4EE46
:100FA000E00AF1EE10FA0ED28A4890ED000AF0EE57
:100FB000000A80EE201A80ED001A89480068801C23
:100FC00087490860F8E0854890ED000AF0EE080ACD
:100FD00030EE600AB5EEC00AF1EE10FA06DD90EDD3
:100FE000000AF0EE080A30EE600A08E07B4890ED57
:100FF000000AF0EE080A30EE600AB1EE400AF6EEA2
:10100000000AB4EEE00AF1EE10FA0ED2714890ED4B
:10101000000AF0EE080A80EE201A80ED001A7048EF
:101020000068C01C6E490860C6E06C4890ED000A7C
:10103000F1EE000A30EE600AB5EEC00AF1EE10FAE9
:1010400006DD90ED000AF1EE000A30EE600A08E0DD
:10105000624890ED000AF1EE000A30EE600AB1EE4F
:10106000400AF6EE000AB4EEE00AF1EE10FA0ED2F3
:10107000584890ED000AF1EE000A80EE201A80ED4B
:10108000001A57480068001D5549086094E053480D
:1010900090ED000AF1EE040A30EE600AB5EEC00AE7
:1010A000F1EE10FA06DD90ED000AF1EE040A30EEE2
:1010B000600A08E0494890ED000AF1EE040A30EEBB
:1010C000600AB1EE400AF6EE000AB4EEE00AF1EE74
:1010D00010FA0ED23F4890ED000AF1EE040A80EEBD
:1010E000201A80ED001A3E480068401D3C49086007
:1010F00062E03A4890ED000AF1EE080A30EE600A2C
:10110000B5EEC00AF1EE10FA06DD90ED000AF1EE40
:10111000080A30EE600A08E0304890ED000AF1EE6F
:10112000080A30EE600AB1EE400AF6EE000AB4EEAC
:10113000E00AF1EE10FA0ED2264890ED000AF1EE28
:10114000040A80EE201A80ED001A25480068801DF0
:101150002349086030E0214890ED000AF1EE0C0AC6
:1011600030EE600AB5EEC00AF1EE10FA06DD90ED41
:10117000000AF1EE0C0A30EE600A08E0174890ED24
:10118000000AF1EE0C0A30EE600AB1EE400AF6EE0B
:10119000000AB4EEE00AF1EE10FA0DD20D4890ED1F
:1011A000000AF1EE040A80EE201A80ED001A0C48C5
:1011B0000068C01D0A49086000BD000070080020DA
:1011C00027000020800800207C08002084080020E0
:1011D000D30A002074080020000020427808002074
:1011E0006C08002000BFFEE7C178012903D1018807
:1011F000491C018001E00021018001880A290EDDDF
:101200000188B1F57A7F07DAC178012909D181789F
:1012100039B90121017104E00221017101E00021CD
:1012200001718178C170704710B5044622460021D3
:101230003A4800F0ECFC2068A0F20120062869D2B0
:10124000DFE800F00311223344562146344806F00B
:1012500045FA224633493248203004F0B5FB324883
:1012600002F0E7FF57E021462D48001D06F036FA50
:1012700022462C4918312A48243004F0A5FB2A487C
:10128000801C02F0D6FF46E021462548083006F0D3
:1012900025FA2246234930312148283004F094FBB6
:1012A0002148001D02F0C5FF35E021461C480C30E6
:1012B00006F014FA22461B49483119482C3004F034
:1012C00083FB1948801D02F0B4FF24E0207BE17A03
:1012D00040EA012015494861A17B607B41EA00207A
:1012E00000B2124988611048001F02F0A2FF12E00C
:1012F000207BE17A40EA01200C490860A17B607BF9
:1013000041EA002000B2094948600748801E02F007
:1013100090FF00E000BF00BF10BD0000006400406F
:10132000640B0020200D0020DC0400204406002077
:10133000F0B585B004460D4616461F464FF40070C2
:10134000009000208DF808008DF8090008208DF825
:101350000A00200A8DF80B00E1B28DF80C10290A62
:101360008DF80D10E9B28DF80E10310A8DF80F10BE
:10137000F1B28DF81010390A8DF81110F9B28DF80C
:1013800012106946024800F0CAFC05B0F0BD00002A
:101390000064004000B58BB00121084604F05EFCFB
:1013A0000121480604F06AFC09220B21354801F0AE
:1013B000F9FD09220C21334801F0F4FD4FF4C0502F
:1013C000029002208DF80C0002A92E4801F0A2FD27
:1013D00014208DF8040001208DF8050000208DF800
:1013E000060001208DF8070001A803F045FA264801
:1013F00000F04AFA08A800F082FC00208DF82600D0
:101400008DF827008DF828008DF829008DF82A0026
:1014100001208DF82B0000208DF822008DF823008C
:1014200008208DF8240003208DF82500ADF8200059
:1014300008A9154800F061FB01208DF81A00002072
:101440008DF81B0001208DF81C000020ADF8100065
:10145000ADF81200ADF81400ADF81600ADF81800A4
:1014600001208DF81D0004A800F02AFA01220221B3
:10147000054800F039FB01221146034800F034FB17
:101480000BB000BD000002400064004000B585B014
:101490000221064800F098FA30B10221034800F01A
:1014A0009FF96846FFF7C0FE05B000BD006400402C
:1014B00030B585B004460D4640F2FF100090002084
:1014C0008DF808008DF8090008208DF80A00200A20
:1014D0008DF80B00E1B28DF80C10290A8DF80D1073
:1014E000E9B28DF80E1000218DF80F108DF8101054
:1014F0008DF811108DF812106946024800F00FFCAB
:1015000005B030BD00640040F0B585B004460D461E
:1015100016461F464FF40070009000208DF808001A
:101520008DF8090008208DF80A00200A8DF80B00BC
:10153000E1B28DF80C10290A8DF80D10E9B28DF882
:101540000E10310A8DF80F10F1B28DF81010390A13
:101550008DF81110F9B28DF812106946024800F0AA
:10156000DEFB05B0F0BD00000068004010B5044689
:1015700022460021344800F04AFB2068A0F20120F6
:1015800006285ED2DFE800F003112233444E2146E4
:101590002E4806F0A3F822462D492C48203004F0AE
:1015A00013FA2C4802F045FE4CE021462748001D66
:1015B00006F094F82246264918312448243004F0D5
:1015C00003FA2448801C02F034FE3BE021461F4809
:1015D000083006F083F822461D4930311B48283078
:1015E00004F0F2F91B48001D02F023FE2AE0214618
:1015F00016480C3006F072F8224615494831134857
:101600002C3004F0E1F91348801D02F012FE19E0BD
:1016100022461149114805F0A1FE0E48143002F08F
:1016200008FE0FE00E480088401C0D490880224645
:101630000C490D4805F092FE0648163002F0F9FDFF
:1016400000E000BF00BF10BD00680040040B002098
:10165000800D0020D0040020040C0020E40B0020AA
:1016600036020020440C0020240C002000B58BB072
:101670000121022004F0F2FA0121880604F0FEFAAA
:1016800009220C21354801F08DFC09220D21334837
:1016900001F088FC4FF44050029002208DF80C00BD
:1016A00002A92E4801F036FC40208DF804000120EC
:1016B0008DF8050000208DF8060001208DF8070048
:1016C00001A803F0D9F8264800F0DEF808A800F0D9
:1016D00016FB00208DF826008DF827008DF82800D5
:1016E0008DF829008DF82A0001208DF82B000020AC
:1016F0008DF822008DF8230008208DF824000320A7
:101700008DF82500ADF8200008A9154800F0F5F97E
:101710000E208DF81A0000208DF81B0001208DF896
:101720001C000020ADF81000ADF81200ADF8140058
:10173000ADF81600ADF8180001208DF81D0004A8C2
:1017400000F0BEF801220221054800F0CDF9012287
:101750001146034800F0C8F90BB000BD0004024078
:101760000068004000B585B00221064800F02CF961
:1017700030B10221034800F033F86846FFF7F6FE67
:1017800005B000BD0068004030B585B004460D4688
:1017900040F2FF10009000208DF808008DF809003D
:1017A00008208DF80A00200A8DF80B00E1B28DF8B0
:1017B0000C10290A8DF80D10E9B28DF80E100021D9
:1017C0008DF80F108DF810108DF811108DF8121083
:1017D0006946024800F0A3FA05B030BD0068004039
:1017E000B1F5007F3AD00FDC202928D006DC012992
:1017F0001CD004291DD0082940D11DE0402921D04A
:10180000B1F5807F3AD126E0B1F5004F31D006DC4A
:10181000B1F5806F25D0B1F5006F2FD124E0B1F57F
:10182000803F12D0B1F5003F28D111E0154A826007
:1018300025E00822C26022E01022C2601FE00822D8
:1018400002611CE01022026119E00822426016E0E9
:101850001022426013E00422426010E00422426041
:101860000DE0042242600AE000228261042242600C
:1018700005E0002282610422426000E000BF00BF58
:10188000704700000101010010B504460B48844276
:1018900009D10121480604F001FA00214FF000703F
:1018A00004F0FCF908E00121880604F0F7F90021B2
:1018B0004FF0806004F0F2F910BD000000640040B9
:1018C00010B50021837A012202FA03F13D4A126821
:1018D00042F001023B4B1A603A4A1C3212688A43BA
:1018E000384B1C331A60027BCAB9364A0C32126874
:1018F0008A43344B0C331A604288C38842EA03435C
:10190000304A4032847A42F834300288838842EA8E
:1019100003432C4A4032847A02EBC4025360027BB8
:10192000012A19D1274A0C3212680A43254B0C337D
:101930001A604288038842EA0343224A4032847A8A
:1019400042F83430C288838842EA03431D4A403259
:10195000847A02EBC4025360C27A3AB9194A121D62
:1019600012688A43174B1B1D1A6006E0154A121DA8
:1019700012680A43134B1B1D1A60028932B9114ABF
:10198000143212688A430F4B14331A600289012AF9
:1019900006D10C4A143212680A430A4B14331A60F7
:1019A000427B012A06D1074A1C3212680A43054BC2
:1019B0001C331A60034A126822F00102014B1A60BC
:1019C00010BD00000066004070B504460D460026BC
:1019D00060692840002871D0B5F5807F5CD010DCAC
:1019E000082D35D006DC012D20D0022D24D0042D69
:1019F00072D127E0102D31D0202D35D0402D6BD164
:101A000038E0B5F5004F60D009DCB5F5007F49D06E
:101A1000B5F5806F4CD0B5F5006F5DD14FE0B5F5F1
:101A2000803F2DD0B5F5003F56D12FE0A0682D495D
:101A300000F0A6FA064651E0E068032100F0A0FAA3
:101A400006464BE0E068082100F09AFA064645E0B9
:101A5000E068102100F094FA06463FE02069032177
:101A600000F08EFA064639E02069082100F088FA75
:101A7000064633E02069102100F082FA06462DE088
:101A80006068082100F07CFA064627E060681021B3
:101A900000F076FA064621E0A069012100F070FA14
:101AA00006461BE0A069022100F06AFA064615E02E
:101AB000A069042100F064FA06460FE00FE0A06977
:101AC000702100F05DFA064608E06068042100F02D
:101AD00057FA064602E0FFE7002600BF00E00026B6
:101AE000304670BD010101001AB143690B434361E7
:101AF00002E043698B434361704730B502460020E2
:101B00000023146824F002041460146844F00104F3
:101B1000146000E05B1C546804F001041CB94FF62B
:101B2000FF74A342F6D1546804F001040CB90020FC
:101B30006CE08C79012C04D1146844F080041460AA
:101B400003E0146824F080041460CC79012C04D1E3
:101B5000146844F04004146003E0146824F0400466
:101B600014600C7A012C04D1146844F02004146031
:101B700003E0146824F0200414604C7A012C04D192
:101B8000146844F01004146003E0146824F0100496
:101B900014608C7A012C04D1146844F00804146099
:101BA00003E0146824F008041460CC7A012C04D1FA
:101BB000146844F00404146003E0146824F004047E
:101BC00014608C78A407CD7844EA05640D7944EA62
:101BD00005444D7944EA05540D886D1E2C43D461AB
:101BE000146824F001041460002300E05B1C5468B6
:101BF00004F001041CB14FF6FF74A342F6D15468FF
:101C000004F001040CB1002000E0012030BD10B54B
:101C100000F5D87303EB01131B6803F00403137280
:101C2000137A53B900F5D87303EB01131B6840F224
:101C3000FF7404EA5353136009E000F5D87303EB13
:101C400001131B686FF0604404EAD303536000F58E
:101C5000D87303EB01131B6803F00203537200F502
:101C6000D87303EB01135B6803F00F03937200F565
:101C7000D87303EB01135B681B0AD37400F5D873A8
:101C800003EB01139B68D37200F5D87303EB0113C8
:101C90009B681C0A147300F5D87303EB01139B684F
:101CA0001C0C547300F5D87303EB01139B681B0ED7
:101CB000937300F5D87303EB0113DB68D37300F55E
:101CC000D87303EB0113DB681C0A147400F5D87396
:101CD00003EB0113DB681C0C547400F5D87303EBA1
:101CE0000113DB681B0E937421B9C36843F0200312
:101CF000C36003E0036943F02003036110BD0021CA
:101D00008171C171017241728172C1728170C17041
:101D1000032101710221417101210180704710B539
:101D200002460020936803F08063B3F1806F00D116
:101D300010E0936803F00063B3F1006F01D101205C
:101D400008E0936803F08053B3F1805F01D1022073
:101D500000E00420042874D002F5C07303EB0013E4
:101D60001B6803F0010402F5C07303EB00131C6051
:101D70000B7A7BB94B7A0C8843EA445302F5C07462
:101D800004EB00142468234302F5C07404EB001430
:101D9000236010E00B7A4C6843EAC4034C7A234377
:101DA00002F5C07404EB00142468234302F5C074E8
:101DB00004EB001423608B7A03F00F038B7202F59F
:101DC000C07303EB00135B6823F00F0402F5C073CC
:101DD00003EB00135C6002F5C07303EB00135B6858
:101DE0008C7A234302F5C07404EB001463608B7B90
:101DF0001C064B7B44EA03440B7B44EA0323CC7A66
:101E0000234302F5C07404EB0014A3608B7C1C0612
:101E10004B7C44EA03440B7C44EA0323CC7B2343FE
:101E200002F5C07404EB0014E36002F5C07303EB29
:101E300000131B6843F0010402F5C07303EB0013A9
:101E40001C6010BDDFED0D0AB4EEE00AF1EE10FAF1
:101E500004DDDFED0A0AC0ED000A0DE0DFED080A3F
:101E6000B4EEE00AF1EE10FA04D2DFED050AC0ED9F
:101E7000000A01E080ED000A704700000020B24532
:101E80000080D4C436480068C0F52A6001EE100A0C
:101E9000B8EEC11AB0EE410A3148406931490968CB
:101EA000081A01EE100AB8EEC11AF0EE410A9FEDD1
:101EB0002E1A20EE011A9FED2D2AC1EE021A2C488F
:101EC00090ED031AB1EE411A31EE611A294880ED06
:101ED000001A274890ED041AF0EE081A31EE611A44
:101EE000244880ED011A9FED201A20EE811ADFEDC3
:101EF0001F1A81EE212A1E4890ED051A32EE011AB2
:101F00001C4880ED021A90ED021ADFED1B1AB4EEA8
:101F1000E11AF1EE10FA06DD90ED021ADFED121A69
:101F200031EE611A02E0134890ED021A114880ED7B
:101F3000021A90ED021ADFED111AB4EEE11AF1EE79
:101F400010FA06D290ED021ADFED071A31EE211ACF
:101F500002E0084890ED021A064880ED021A704728
:101F600044060020400600200000B4430000004664
:101F7000BC0E0020C40B002000003443000034C31A
:101F80000246002002EA01030BB1012000E000201C
:101F90007047000001212448006A234A526A104415
:101FA00009B1012200E00022A2EB421303EB03136C
:101FB000A3EBC2021E23A3EB4202022303FB120087
:101FC000002815DD1848006A174A526A104409B102
:101FD000012200E00022A2EB421303EB0313A3EB68
:101FE000C2021E23A3EB4202022303FB120013E0F2
:101FF0000D48006A0C4A526A104409B1012200E0FF
:102000000022A2EB421303EB0313A3EBC2021E2335
:10201000A3EB4202C0EB4200B0F5FA7F01DA0120E7
:1020200070470020FCE70000640B002010B500247E
:1020300010E0314901EB440002F0E6F82E4B203B62
:1020400033F8142040331919203B33F8140002F000
:10205000E4F8641C102CECDB28480078012820D11F
:102060002548203890F84000012807D1244908600D
:102070000020244908800B2005F064F904240EE0B8
:102080001D482030005D012808D1801E1C490860D1
:1020900020B21C4908800B2005F054F9641C0E2C5A
:1020A000EEDB1548203890F8410001280AD100F0F5
:1020B000B7FF012803D1032005F044F902E00A200C
:1020C00005F040F91048C07C88B90F48807C70B991
:1020D0000D48B0F90A00002803DD0B48B0F90A00EA
:1020E00003E00948B0F90A004042032802DD00205D
:1020F0000249087010BD0000C8040020F804002048
:10210000FC040020FA0400204408002010B5AE486A
:102110000068401CAC490860084600684FF47A71BA
:10212000B0FBF1F201FB120030B9A8480088A849C1
:1021300008800020A5490880A34800686421B0FBFE
:10214000F1F201FB120010B90120A2490870FEF75C
:10215000A7FEA14801F0F8FFFFF768FF01F0D0FAF1
:1021600000BF002407E004EB44019C4A02EB41005D
:10217000FFF73AF8641C102CF5DB06F0C1FB06F003
:102180001DFD01F031F900F04BFF0C2831D2DFE8E2
:1021900000F03106A2F5B2CBF4D8E3F6F2F18A48AA
:1021A0000068B0F5967F24D903F01CFE002005F0EE
:1021B000C9F89FED8B0A8B4880ED030A01464969F7
:1021C000894A1268511A4FF4616201FB02F0C1178B
:1021D00000EBD141491300EE101AB8EEC00A834952
:1021E000D1ED050AB2EE041A00EE810A7D4981EDB7
:1021F000080AD7E006F074FF7C48B0F90600002812
:1022000003DD7A48B0F9060003E07848B0F906002B
:10221000404214285CDA7548B0F90A00002803DD52
:102220007248B0F90A0003E07048B0F90A00404271
:1022300014284DDA6D4890ED030ADFED6D0A20EEAB
:10224000200ADFED6C0A80EE201A9FED650A31EE60
:10225000000A6448D0ED030A30EEC00AB5EEC00AA9
:10226000F1EE10FA14DD614890ED030ADFED600A2B
:1022700020EE200ADFED5F0A80EE201A9FED580A5B
:1022800031EE000A5748D0ED030A30EEC00A15E0DF
:10229000564890ED030ADFED560A60EE200A9FEDE6
:1022A000551A80EE810ADFED4E0A30EE200A4D48C5
:1022B000D0ED030A30EEC00AB1EE400ADFED4E0A5F
:1022C000B4EEE00AF1EE10FA02D2022005F03AF87C
:1022D00005F066F966E001F0D1FB012802D1042087
:1022E00005F030F806F0FCFE01F03CFD05F058F971
:1022F00005F042FC56E0394991F8320004F07EFDC9
:1023000005F03AFE06F0ECFE03F0D4FF3B48D0EDBA
:10231000000AB0EE600AFEF7DBFB05F02DFC01F0D1
:1023200021FD05F03DF93DE005F026FE06F0D8FE62
:1023300003F0C0FF01F016FD05F032F905F01CFCBA
:1023400030E0FEF773F906F0CBFE03F0B3FF01F0C7
:1023500009FD05F011FC25E001202949087200F073
:1023600045FA06F0BDFE03F0A5FF01F0FBFC05F009
:1023700003FC17E010E014E001E00FE00DE005F0D1
:10238000FBFD05F0F9FB06F0ABFE03F093FF01F057
:10239000E9FC05F005F905E004E003E005F0ECFBDD
:1023A00000E000BF00BF01F08FFAFFF76BFD02F005
:1023B0001BF80548007800F0010018B906F0F6F99E
:1023C00006F02AFA10BD0000540400203602002056
:1023D000380200200C0000204E040020E00D0020F8
:1023E00000002A454406002040060020BC0E0020C4
:1023F000000000460000B44300004842C40B002027
:102400004A0E002010B51349134800F05FF9F8B1E7
:102410004FF08151104800F047F80E490E4800F087
:102420005DF80E4801F005FF002404E00C49085D4A
:1024300003F0E4F9641C222CF8DB0A4808F0ECFAFB
:102440000848801D08F0F2FA06480C3008F0DAFA65
:1024500010BD00000080201040600240C804002031
:10246000540E0020BC0E00207047000010B50A4931
:102470000A4800F02BF970B14FF08151074800F085
:1024800013F80549054800F029F8054803F0B4FEA3
:10249000044801F0CEFE10BD0080201040640240D0
:1024A000B0080020CA0400200246094B9A4201D21B
:1024B000084801E00648103801F000531BB1064BF4
:1024C0000B40C36002E0044B0B4083607047000088
:1024D00010640240006002407D0F7D0F0246094BF0
:1024E0009A4201D2084801E00648103801F0005332
:1024F0001BB1064B0B40C36002E0044B0B408360F2
:102500007047000010640240006002407D0F7D0FA4
:1025100021B1026842F00102026003E0026822F089
:102520000102026070470000016821F001010160B2
:102530000021016041608160C16001612121416130
:102540004A49884204D13D21484A103A91608CE0C2
:1025500046491831884205D14FF47461434A103A14
:10256000916082E041493031884205D14FF47411C5
:102570003E4A103A916078E03C494831884205D1A2
:102580004FF07461394A103A91606EE0374960311A
:10259000884204D13649354A103AD16065E0334962
:1025A0007831884204D13349304A103AD1605CE036
:1025B0002E499031884204D12F492C4A103AD160DB
:1025C00053E02A49A831884205D14FF03D51274AAE
:1025D000103AD16049E02949884204D13D21274A77
:1025E000083A116041E025491831884205D14FF47D
:1025F0007461224A083A116037E02049303188423C
:1026000005D14FF474111D4A083A11602DE01B49A1
:102610004831884205D14FF07461184A083A116078
:1026200023E016496031884204D11149134A121F30
:1026300011601AE011497831884204D10D490F4ADE
:10264000121F116011E00D499031884204D10A49EE
:102650000A4A121F116008E00849A831884204D1D3
:102660004FF03D51054A121F116070471060024043
:102670003D000020400F002000003D20106402407B
:1026800021B1026842F48022026003E0026822F471
:1026900080220260704722B1036843F40023036084
:1026A00003E0036823F400230360016170470146DF
:1026B000486880B27047014600200A6802F4002290
:1026C0000AB1012000E000207047000070B502460A
:1026D000002000240025124EB24201D2114B01E02D
:1026E0000F4B103B104E0E4036B11E2606EAD12489
:1026F000166806EA040502E0566906F0800501F056
:1027000000560EB15C6800E01C68084E344004EAD4
:10271000010616B10DB1012000E0002070BD0000DF
:1027200010640240006002403C0F3C0F7D0F7D0FA3
:1027300010B501F080034BB122B1436943F080032F
:10274000436103E0436923F08003436180290BD098
:102750002AB1036801F01E042343036004E0036808
:1027600001F01E04A343036010BD000010B5002259
:102770000268134B1A40CC680B6823434C6923430F
:102780008C692343CC6923430C6A23434C6A23435B
:102790008C6A23434C6B23438C6B23431A430260A4
:1027A000426922F00702D1E90B3423431A43426104
:1027B0000B6943604B6883608B68C36010BD000089
:1027C0003F801CF04FF48060054908804880888075
:1027D000C8800320087248720020024908607047D0
:1027E00044080020540400207047000010B5012068
:1027F0005A490872002013E09FED590A10EE101A92
:1028000000EB4012574B03EB420251609FED560A1A
:1028100010EE101A00EB401203EB42021162401C52
:102820000428E9DB51480078A8B9FFF7B3FB20B9C9
:102830004F480068B0F52F7F02D901204B4908703E
:10284000012004F0BBFB012004F050FB4848006865
:10285000401C4749086001204049087043480078FF
:10286000012879D143480078062874D2DFE800F0C7
:10287000030A121A222A00F0DDF8012801D13D498D
:10288000087068E000F07EF8012802D10220394982
:10289000087060E000F022F9012802D103203549D8
:1028A000087058E000F0C6F8012802D10420314930
:1028B000087050E000F066F8012802D105202D498B
:1028C000087048E00020254908722B48806A2A4990
:1028D000C96A0844A0F69800002807DD2648806AE7
:1028E0002549C96A0844A0F6980007E02248806A92
:1028F0002149C96A084440F69801081A642802DA96
:1029000000201649087000F0E9F8012822D10020C3
:10291000124908701749087000BF13E09FED170AAD
:1029200010EE101A00EB40120E4B03EB4202516006
:102930009FED130A10EE101A00EB401203EB420257
:102940001162401C0428E9DB042004F0FBFC002099
:1029500004F0FEFC00BF00BF10BD00004A0E0020C6
:102960003E0AD73D9C0000206E43D14772000020F4
:102970007400002071000020640B0020295C0F3DD2
:1029800049828B4700B5002004F0E2FC0020264974
:10299000088026490880012004F010FB002004F084
:1029A000A5FA012004F00AFB01283BD1002004F025
:1029B0009DFA012836D148201B49088000201B4978
:1029C00008801B48807801280AD11948C07801285E
:1029D00006D100201449088014490880012000BD58
:1029E0001348807868B91248C078012809D10020BE
:1029F0000D4908801E200D490880012004F0A8FC24
:102A000010E00B48807801280CD10948C07848B9FB
:102A10000020054908806FF01D000449088001204E
:102A200004F096FC0020DAE7FA010020FE01002005
:102A3000400E002000B5002004F08AFC002024494C
:102A400008802449088004F0B9FA002004F04EFA06
:102A5000002004F0B3FA012837D1002004F046FA30
:102A6000012832D128201A4908801B480078012803
:102A700009D119484078012805D10020088015495E
:102A80000880012000BD1448007868B912484078D9
:102A9000012809D100200E4908801E200D49088018
:102AA000012004F055FC10E00B48007801280CD1FF
:102AB0000948407848B90020054908806FF01D009A
:102AC00004490880012004F043FC0020DAE70000FC
:102AD000FA010020FE010020400E002000B5002079
:102AE00004F036FC00202649088026490880012091
:102AF00004F064FA012809D104F0F8F9012805D19D
:102B00002148007810B901201F4908701E4800783C
:102B1000012832D11D48006818B91D4800681B49BA
:102B20000860462016490880002016490880184889
:102B3000006816490968401AC82808D9134800686F
:102B400028B1002004F03AFA002004F0CFF9104830
:102B500000680E490968401AB0F5966F0DD90B4808
:102B6000006850B1002006490880064908800749DE
:102B7000086005490870012000BD0020FCE7000046
:102B8000FA010020FE01002098000020940000209F
:102B90005404002010B5102000F018F8012807D1C7
:102BA00001F04AFB102000F005F8102000F008F8B2
:102BB00010BD00000149086070470000143C01404E
:102BC0000149086070470000143C014001460020A4
:102BD0000022074B1B6803EA0102054B14331B68F4
:102BE0000B4013B10AB1012000E000207047000043
:102BF000003C01408CB00169002901DD016901E060
:102C0000016949424269002A01DD426901E04269E5
:102C100052420A448169002901DD816901E081692C
:102C200049420A44C169002901DDC16901E0C16965
:102C30004942114401EE101AB8EEC10A0168002998
:102C400001DD016801E0016849424268002A01DDB6
:102C5000426801E0426852420A448168002901DD6D
:102C6000816801E0816849420A44C168002901DDA8
:102C7000C16801E0C1684942114401EE101AF8EE42
:102C8000C10A0021089109910A910B9104910591C3
:102C900006910791B5EEC00AF1EE10FA02DDB0EE32
:102CA000401A01E0B1EE401ADFED931AB4EEE11ADA
:102CB000F1EE10FA10D29FED911A8DED081A9FEDEA
:102CC0008F1A8DED091A9FED8D1A8DED0A1A9FED61
:102CD0008B1A8DED0B1A27E090ED041AB8EEC11A8D
:102CE00021EE201AC1EE001ACDED081A90ED051A5A
:102CF000B8EEC11A21EE201AC1EE001ACDED091A64
:102D000090ED061AB8EEC11A21EE201AC1EE001A93
:102D1000CDED0A1A90ED071AB8EEC11A21EE201A6D
:102D2000C1EE001ACDED0B1ADDED081A90ED001A78
:102D3000B8EEC11A31EEC11A8DED041ADDED091A93
:102D400090ED011AB8EEC11A31EEC11A8DED051AD7
:102D5000DDED0A1A90ED021AB8EEC11A31EEC11A71
:102D60008DED061ADDED0B1A90ED031AB8EEC11ABF
:102D700031EEC11A8DED071A614991ED001ADDEDB2
:102D8000041A9FED602A01EE821A81ED001A91ED7E
:102D9000001ADDED041A9FED5B2A01EE821A81ED27
:102DA000001A91ED001ADDED041A9FED562A01EE8E
:102DB000821A81ED001A91ED001ADDED041A9FEDE3
:102DC000512A01EE821A81ED001A002132E04C4AAC
:102DD00002EB810292ED001ADFED4B1AB4EEE11A1C
:102DE000F1EE10FA02DD9FED481A04E0444A02EBCE
:102DF000810292ED001A424A02EB810282ED001A32
:102E00003F4A02EB810292ED001ADFED401AB4EE68
:102E1000E11AF1EE10FA02D29FED3C1A04E0384AB2
:102E200002EB810292ED001A354A02EB810282ED3B
:102E3000001A491C0429CADB314991ED001ADDED65
:102E4000041AB0EE082A01EE821ABDEEC11A8DED09
:102E5000001A91ED011ADDED051AB0EE082A01EE17
:102E6000821ABDEEC11A8DED011A91ED021ADDED47
:102E7000061AB0EE082A01EE821ABDEEC11A8DEDD7
:102E8000021A91ED031ADDED071AB0EE082A01EEE1
:102E9000821ABDEEC11A8DED031A002117E05DF80C
:102EA0002120B2F57A6F02DD4FF47A6201E05DF81D
:102EB00021204DF821205DF8212012F57A6F01DAEA
:102EC000134A01E05DF821204DF82120491C042916
:102ED000E5DB016C009A11440164416C019A1144D4
:102EE0004164816C029A11448164C16C039A11445B
:102EF000C1640CB070470000CDCCCC3D0000000098
:102F0000540B00200AD7233C00007A4400007AC406
:102F100060F0FFFFF0B50A4600210023002400BF47
:102F20003DE0012505FA01F3156805EA03049C421A
:102F300034D105684F000326BE40B54305601579BE
:102F40004E00B5400668354305601579012D02D065
:102F50001579022D16D185684F000326BE40B54372
:102F6000856055794E00B540866835438560456873
:102F700001268E40B5434560456896798E40B6B2CD
:102F800035434560C5684F000326BE40B543C56064
:102F9000D5794E00B540C6683543C560491C102937
:102FA000BFD3F0BDF0B5002300244D07ED0E02FAAB
:102FB00005F3CE1000F1200555F826504E07F70E08
:102FC0000F26BE40B543CF1000F1200646F827502B
:102FD000CE1000F1200555F8265045EA0304CE1026
:102FE00000F1200545F82640F0BD02460020136997
:102FF0000B400BB1012000E0002070474183704777
:10300000018370474FF6FF7101600021017141712A
:103010008171C171704742694A4042617047000046
:1030200001480078704700003402002030B50346A4
:1030300013B94FF6FF7030BD09E013F8014B82EA77
:103040000400C0B2054D35F8100080EA22220800C5
:10305000A1F10101F1D11046EDE70000A0BC00088C
:1030600030B5034605E013F8010B80EA020404487A
:10307000025D0800A1F10105A9B2F4D1104630BDEE
:103080009FBB000800BFFEE740F2DC539A4206D126
:1030900050230360B3EE040A81ED000A1CE040F601
:1030A000C4139A4206D1A02303609FED0C0A81ED60
:1030B000000A11E040F6AC539A4207D14FF4A073D6
:1030C00003609FED070A81ED000A05E050230360CD
:1030D000B3EE040A81ED000A7047000000002042B0
:1030E0000000A04210B5044600F0B0F82CB14FF437
:1030F00000710D48FFF784FF04E04FF400710A48A7
:10310000FFF77CFF4FF480710748FFF779FF01203C
:1031100000F00CF84FF480710348FFF76FFF0120B7
:1031200000F004F810BD00000004024010B50021BA
:1031300006E0062200BF1300A2F10102FBD1491CE8
:103140008142F6D310BD000070B5002400F068F88D
:1031500000251BE04FF480711148FFF74FFF01205D
:10316000FFF7E4FF4FF480710D48FFF749FF600659
:10317000040E4FF400710A48FFF737FF08B1601CD6
:10318000C4B20120FFF7D2FF681CC5B2082DE1DBF5
:103190004FF480710248FFF731FF204670BD0000F8
:1031A000000402402DE9F04106460F4614469846B9
:1031B00000F060F8304600F0CBF800F09BF8FF28F4
:1031C00001D1BDE8F081384600F0C2F800F092F875
:1031D000FF2800D1F5E700F04DF8711CC8B200F0EF
:1031E000B7F800F087F8FF2800D1EAE7002508E0EB
:1031F000FFF7AAFF20700020FFF774FF641C681C13
:10320000C5B2A8F10100A842F2DCFFF79DFF2070D3
:103210000120FFF767FF00F04DF80020D1E7000024
:103220001CB54FF40070009000208DF804008DF85C
:1032300006008DF8070002208DF805006946024857
:10324000FFF768FE1CBD0000000402401CB54FF4EF
:103250000070009001208DF804008DF80600032016
:103260008DF8050069460248FFF754FE1CBD0000BA
:103270000004024010B5FFF7E9FF4FF400710C485D
:10328000FFF7BEFE4FF480710948FFF7B9FE012039
:10329000FFF74CFF4FF400710548FFF7AFFE012028
:1032A000FFF744FF4FF480710148FFF7A7FE10BD00
:1032B0000004024010B5FFF7C9FF4FF480710C48BD
:1032C000FFF79CFE4FF400710948FFF797FE0120BD
:1032D000FFF72CFF4FF480710548FFF791FE4FF484
:1032E00000710348FFF78CFE0120FFF71FFF10BDA0
:1032F0000004024010B54FF47A744FF40071134883
:10330000FFF77EFEFFF78CFF0120FFF70FFF4FF462
:1033100080710E48FFF774FE0120FFF707FF07E0FA
:10332000601E80B2040003D0FFF7C4FFFF2010BD71
:103330004FF400710548FFF758FE0028F0D14FF414
:1033400080710248FFF75AFE0020F0E700040240B7
:1033500070B50446FFF77AFF4FF480711448FFF709
:103360004DFE002521E004F0800028B14FF40071EB
:103370000F48FFF745FE04E04FF400710C48FFF7DB
:103380003DFE6006040E0120FFF7D0FE4FF4807171
:103390000748FFF735FE0120FFF7C8FE4FF48071A4
:1033A0000348FFF72BFE681CC5B2082DDBDB70BDA0
:1033B0000004024050B1012810D109498978094A16
:1033C00011720749CA7807494A7200BF044909784F
:1033D000044A117202494A7802494A727047000051
:1033E00098BF00084A0E002010B52F480078092821
:1033F0000AD0FFF715FE092806D10020FFF7DAFFF3
:1034000001202A4908700DE027480078092809D1D1
:10341000FFF706FE092805D00020FFF7CBFF0020AC
:1034200022490870FFF7FCFD042808D120480078E5
:1034300028B90020FFF7BEFF00201C4908701D4876
:10344000007850B91A480078012806D10020FFF70B
:10345000B1FF0120154908700CE0164800780128DA
:1034600008D11348007828B90020FFF7A3FF0020F7
:103470000E4908700D48007800EB801000EB40000A
:1034800040F2C261A1EB80000B490860FFF7C8FD64
:10349000054908700648007806490870074890F802
:1034A00050000749087010BDF1070020EC0700200C
:1034B000F3070020F2070020400C0040E00D002040
:1034C000F0070020F0B50446DDE9055644EA410066
:1034D00040EA820040EAC30040EA051040EA461094
:1034E000024F387038460078F0BD00006C000020B4
:1034F00070B52DED048BB0EE408AF0EE608AB0EE30
:10350000419A0446002540480079401C3E49087114
:1035100018EE100AC1F8060018EE900AC1F80A0069
:1035200019EE100AC1F80E0008468474A520374928
:103530000870354880784870334840880012887099
:1035400031484079C87005213048FCF7A7FF0020BA
:103550002E494871012088712B48D0F806002C496B
:103560000860084600782949C871294840780872DF
:103570002748807848722648C07888722248D0F858
:103580000A0024490860084600782049C87221488A
:10359000407808731F48807848731E48C078887345
:1035A0001948D0F80E001C490860084600781749F1
:1035B000C8731948407808741748807848741648CA
:1035C000C07888741048807C00EE100AB8EE400A7B
:1035D000124880ED000A0846C4741621FCF746FF25
:1035E00000BF0CE00948415D0D4805F094F800BFAC
:1035F00040210B4804F0C4FF0028F9D06D1C162DA3
:10360000F0DBBDEC048B70BD3B000020BD0A002048
:1036100054000020580000205C00002060000020C2
:10362000004800403448807C00F001003349887035
:103630003148807CC0F34001304801722E48807CC4
:10364000C0F380012D4881732B48807CC0F3C001FA
:103650002A4801752848807CC0F3001127488176EC
:103660002548807CC0F34011244880F8201022486F
:10367000807CC0F38011214880F826101E48807C91
:10368000C1091E4880F82C101B48C07C00F00101C5
:103690001A4880F832101848C07CC0F3400117481F
:1036A00080F838101448C07CC0F38001134880F8BB
:1036B0003E101148C07CC0F3C001104880F844108F
:1036C0000D48C07CC0F300110C4880F84A100A482D
:1036D000C07CC0F34011094880F850100648C07CF7
:1036E000C0F38011054880F856100348C07CC1091A
:1036F000024880F85C10704744080020E00D00206C
:1037000010B50F4890F82000012817D10C48807E92
:10371000012813D10A4890F8440078B9084890F875
:103720004A0058B9064890F85000012806D10448CC
:1037300090F85600012801D101F0E4F810BD000016
:10374000E00D002010B5424800780A2830DA4048E1
:10375000007800282CDD3F4800684FF41661B0FB6C
:10376000F1F201FB12003A4909784900C1EB01115D
:1037700001EB8101B0EB410F27D8364800684FF4C8
:103780001661B0FBF1F201FB120020B902213248B0
:10379000FFF736FC19E02F4800689621B0FBF1F2E4
:1037A00001FB120088B902212B48FFF734FC0CE022
:1037B000274800780A2804DB02212748FFF71EFC6F
:1037C00003E002212448FFF71BFC244800780A2864
:1037D00030DA2248007800282CDD1E4800684FF4BB
:1037E0001661B0FBF1F201FB12001C490978490097
:1037F000C1EB011101EB8101B0EB410F27D8154856
:1038000000684FF41661B0FBF1F201FB120020B921
:1038100001211148FFF7F4FB19E00E4800689621DA
:10382000B0FBF1F201FB120088B901210A48FFF751
:10383000F2FB0CE0094800780A2804DB0121064865
:10384000FFF7DCFB03E001210348FFF7D9FB10BDC4
:10385000000500205404002000080240010500205B
:103860000A2801DD0A2200E00246054B1A700A29E7
:1038700001DD0A2200E00A46024B1A707047000080
:1038800000050020010500201CB50121042002F0E4
:10389000E5F90320009001208DF8040000208DF848
:1038A000060003208DF8050069460648FFF732FB45
:1038B00002210448FFF7A4FB01210248FFF7A0FB07
:1038C0001CBD00000008024010B55C48006896214D
:1038D000B0FBF1F201FB120000286FD1FFF7A0FB53
:1038E0000C280BD2DFE800F00B06107D151A821FA2
:1038F0002429A02E0A210846FFF7B2FF99E00921EA
:103900000846FFF7ADFF94E009210846FFF7A8FF3E
:103910008FE000210120FFF7A3FF8AE000210120B2
:10392000FFF79EFF85E000210120FFF799FF80E06F
:1039300000210120FFF794FF7BE000210120FFF729
:103940008FFF76E03E4800880E2804D10A2103202C
:10395000FFF786FF44E03A4800880F2804D10A2187
:103960000420FFF77DFF3BE03548008804280BD09A
:1039700033480088052807D031480088062803D03E
:103980002F480088072804D10A210220FFF768FF8A
:1039900026E02B4800880A280BD0294800880B28ED
:1039A00007D0274800880C2803D0254800880D2818
:1039B00005D10A210120FFF753FF11E03CE0204828
:1039C0000088092803D01E480088082804D10A214D
:1039D0000520FFF745FF03E00A210620FFF740FF1F
:1039E00027E001210846FFF73BFF22E0134800686B
:1039F0004FF41661B0FBF1F201FB120020B90A216D
:103A00000020FFF72DFF0EE00C48006800F59660DF
:103A10004FF41661B0FBF1F201FB120018B900215E
:103A20000A20FFF71DFF04E001210846FFF718FFF9
:103A300000BF00BFFFF786FE10BD00005404002049
:103A4000FA0400201CB50121042002F007F920200F
:103A5000009001208DF8040000208DF8060003205E
:103A60008DF8050069460448FFF754FA2021024802
:103A7000FFF7C4FA1CBD000000080240614800784E
:103A800020B1012836D0022833D162E09FED5E0AD2
:103A900010EE100A5D4948609FED5B0A10EE100AB7
:103AA000C1F846009FED580A10EE100AC1F88800D0
:103AB0009FED550A10EE100AC1F8CA00462054497D
:103AC000086348638863C8630846006A1E2810DDDF
:103AD0000846406A1E280CDD0846806A1E2808DD5C
:103AE0000846C06A1E2804DD01204649087049497D
:103AF000087083E09FED480A10EE100A43494860C1
:103B00009FED460A10EE100AC1F846009FED430AE9
:103B100010EE100AC1F888009FED400A10EE100A5E
:103B2000C1F8CA003E483A49086348638863C863DD
:103B3000084600684968084435498968084434499A
:103B4000C968084410F1190F02DA02202D490870E3
:103B500054E02F4800682E49496808442C49896878
:103B600008442B49C968084400280BDD2848006830
:103B70002749496808442649896808442449C9688E
:103B800008440BE02248006821494968084420495C
:103B9000896808441E49C968084440420A282CDA4A
:103BA00000202049C88200211E48C185A0F8461087
:103BB000A0F85E1000201649086348638863C86354
:103BC0009FED150A10EE100A104948609FED120A89
:103BD00010EE100AC1F846009FED0F0A10EE100A11
:103BE000C1F888009FED0C0A10EE100AC1F8CA0057
:103BF0000020084908700120704700BF00BF002066
:103C0000FAE700005C040020CDCCCC3D420300204C
:103C1000640B00205D040020CDCC4C3D0000000072
:103C2000F0D8FFFF200D00204749097801297DD1F8
:103C3000464991ED000AB1EE400AD1ED010A70EE5D
:103C4000600A90ED000A9FED421A01EE200A80ED15
:103C5000000A91ED000AB1EE400AD1ED010A70EEC2
:103C6000200A90ED010A9FED3A1A01EE200A80ED3C
:103C7000010A91ED000AD1ED010A70EE600A90EDA3
:103C8000020A9FED331A01EE200A80ED020A91ED3F
:103C9000000AD1ED010A70EE200A90ED030A9FEDB3
:103CA0002C1A01EE200A80ED030A91ED000AB1EE14
:103CB000400AD1ED010A30EE600ADFED250A20EE60
:103CC000200ABDEEC00A10EE101A09B2214A118076
:103CD0001E4991ED000AB1EE400AD1ED010A30EE25
:103CE000200ADFED1B0A20EE200ABDEEC00A10EE0E
:103CF000101A09B2184A1180144991ED000AD1ED49
:103D0000010A30EE600ADFED120A20EE200ABDEE55
:103D1000C00A10EE101A09B2104A11800B4991ED39
:103D2000000AD1ED010A30EE200A00E00AE0DFEDE2
:103D3000080A20EE200ABDEEC00A10EE101A09B2E1
:103D4000074A1180704700005D040020C40B00206A
:103D50000000824294040020960400209804002071
:103D60009A04002010B52DED048BFFF759F90428B3
:103D700072D1EE48007A0128FAD1ED4800680A2194
:103D8000B0FBF1F201FB12000028F1D1E748407AC4
:103D9000012804D0022860D003285CD1C6E0E349A2
:103DA000C988A1F5806101EB4101880007F0A7FAFD
:103DB0009FEDE00B53EC102B07F01AF907F070FAA7
:103DC00000B2DE49096B0844DC490863D749C98859
:103DD000A1F5806101EB4101880007F090FA9FEDA9
:103DE000D50B53EC102B07F003F907F059FA00B28A
:103DF000D249496B0844D1494863CC49C988A1F5E7
:103E0000806101EB4101880007F079FA9FEDC90B51
:103E100053EC102B07F0ECF807F042FA00B2C74958
:103E2000896B0844C5498863C049C988A1F5806188
:103E300001EB4101880007F062FA9FEDBE0B53ECE5
:103E4000102B07F0D5F807F02BFA00B2BB49C96B6D
:103E50000844BA49C8636AE06AE0B449C988A1F570
:103E60008061C1EBC10007F04AFA41EC190B9FEDEC
:103E7000B10B53EC102B07F0BBF841EC180B07F01B
:103E80000FFA00B2AD49096B0844AC490863A74971
:103E9000C988A1F58061C1EBC10007F030FA41EC9F
:103EA000190B9FEDA40B53EC102B07F0A1F841EC7C
:103EB000180B07F0F5F900B2A049496B08449F4977
:103EC00048639A49C988A1F58061C1EBC10007F038
:103ED00016FA41EC190B9FED970B53EC102B07F0E2
:103EE00087F841EC180B07F0DBF900B29349896BB6
:103EF000081A924988638D49C988A1F58061C1EB90
:103F0000C10007F0FCF941EC190B9FED8A0B53EC53
:103F1000102B07F06DF841EC180B07F0C1F900B257
:103F20008649C96B081A8549C86300E000BF00BF15
:103F3000FFF776F8022857D08048006B1E2801DA78
:103F40001E2001E07D48006B7C4908630846006B39
:103F5000B0F5AF6F02DD4FF4AF6001E07748006B62
:103F6000764908630846406B1E2801DA1E2001E0EE
:103F70007248406B714948630846406BB0F5AF6FBB
:103F800002DD4FF4AF6001E06C48406B6B49486361
:103F90000846806B1E2801DA1E2001E06748806B0E
:103FA000664988630846806BB0F5AF6F02DD4FF459
:103FB000AF6001E06148806B604988630846C06B70
:103FC0001E2801DA1E2001E05C48C06B5B49C86313
:103FD0000846C06BB0F5AF6F02DD4FF4AF6001E093
:103FE0005648C06B5549C863544890ED081AB8EE5E
:103FF000C11AF0EE410A90ED0C1AB8EEC11AB0EEFB
:10400000410A4F4801F0EAF9BDEEC00A4B4880ED85
:10401000040A90ED091AB8EEC11AF0EE410A90EDCB
:104020000D1AB8EEC11AB0EE410A4548423001F00F
:10403000D5F9BDEEC00A414880ED050A90ED0A1A97
:10404000B8EEC11AF0EE410A90ED0E1AB8EEC11AA0
:10405000B0EE410A3A48843001F0C0F9BDEEC00A22
:10406000364880ED060A90ED0B1AB8EEC11AF0EE54
:10407000410A90ED0F1AB8EEC11AB0EE410A30486D
:10408000C63001F0ABF9BDEEC00A2C4880ED070A3E
:1040900090ED001AB8EEC11AF0EE410A90ED041A44
:1040A000B8EEC11AB0EE410A264801F097F923484C
:1040B00080ED100A90ED011AB8EEC11AF0EE410A37
:1040C00090ED051AB8EEC11AB0EE410A1D48423013
:1040D00001F084F9194880ED110A90ED021AB8EE4A
:1040E000C11AF0EE410A90ED061AB8EEC11AB0EE10
:1040F000410A1448843001F071F9104880ED120A29
:1041000090ED031AB8EEC11AF0EE410A90ED071ACD
:10411000B8EEC11AB0EE410A0A48C63001F05EF9A5
:10412000064880ED130ABDEC048B10BD4408002046
:10413000540400200000000000A08440640B002014
:104140003A0200204203002010B5044620780128DE
:1041500015D10B480088401C09490880012002F055
:104160002DFF012804D0012002F0C0FE012806D155
:104170000020207002F022FF002002F0B7FE10BDE8
:104180009C040020B0EE401AF7EE001AB0EE610A6F
:10419000F0EE081A60EEA11ADFED172A81EEA22ACE
:1041A000DFED161A72EE211AB0EE610AF7EE001A70
:1041B000B4EEE10AF1EE10FA02DDF7EE001A01E0CA
:1041C000F0EE401AB0EE610ADFED0C1AB4EEE10A2F
:1041D000F1EE10FA02D2DFED091A01E0F0EE401A1A
:1041E000B0EE610A064890F84300012803D1DFEDE4
:1041F000051AB0EE610A704700004843CDCCCC3DB3
:10420000A8040020CDCC4C3F01884FF6FE729142AD
:1042100002DA0188491C01807047034602EB8200E4
:10422000984202DA0120087001E000200870087846
:1042300070470021018070471FB50E236A463B215D
:10424000D020FEF7AFFFFF2801D104B010BD9DF8CC
:1042500001009DF8001040EA012000B25849088092
:104260009DF803009DF8021040EA012000B2544975
:1042700048809DF805009DF8041040EA012000B236
:104280004F4988809DF807009DF8061040EA0120FC
:1042900000B24B49C8809DF809009DF8081040EA1B
:1042A000012000B2464908819DF80B009DF80A10D4
:1042B00040EA012000B2424948819DF80D009DF876
:1042C0000C1040EA012000B23D4988810846B0F94F
:1042D000000000EE100AB8EEC00AB1EE400ADFEDB1
:1042E000390A80EE201A384880ED001A0846B0F9E5
:1042F000020000EE100AB8EEC00AB1EE400ADFED8F
:10430000310A80EE201A304880ED011A0846B0F9D3
:10431000040000EE100AB8EEC00ADFED2A0A80EEB3
:10432000201A294880ED021A0846B0F9060000EE6E
:10433000100AB8EEC00A9FED251AC0EE010A9FEDE3
:10434000240A30EE800A204880ED030A0846B0F9BE
:10435000080020490968401A00EE100AB8EEC00AA9
:10436000DFED1D0A80EE201A174880ED041A14486C
:10437000B0F90A0019490968401A00EE100AB8EEAF
:10438000C00AB1EE400ADFED140A80EE201A0E4892
:1043900080ED051A0A48B0F90C0011490968401A65
:1043A00000EE100AB8EEC00AB1EE400ADFED0A0ACC
:1043B00080EE201A044880ED061A002045E7000030
:1043C000B80C002000000046C80C00200000AA43E2
:1043D000B81E1242F807002000008342FC070020AC
:1043E0000008002000BFFEE770B5FEF719FE0C289C
:1043F0007DD2DFE800F01B063B7CAAF5F3F2F1F07A
:10440000EFEE00210846FDF753F800231A4619463F
:104410001846FDF779F800231A4619461846FCF7A6
:1044200087FF00210846FDF7AFF922E2FE4A128A13
:1044300011B2FD4A928C10B2FDF73AF800231A46E9
:1044400019461846FDF760F800231A461946184623
:10445000FCF76EFFF54991ED070ABDEEC00A10EEBC
:10446000101A08B20021FDF78FF902E2F048006847
:10447000401CEF4908604FF44870EE490860091D80
:104480000860ED48D0ED100AB0EE600AEB48FDF789
:10449000D9FCE948D0ED110AB0EE600AE748001DEA
:1044A000FDF7D0FCE448D0ED120AB0EE600AE34814
:1044B0000830FDF7C7FCE048D0ED130AB0EE600A03
:1044C000DE480C30FDF7BEFCDC48FFF7ADFBD64AFA
:1044D000128A11B2D44A928C10B2FCF7E9FF002381
:1044E0001A4619461846FDF70FF8D44C00E0ABE128
:1044F00094ED030ABDEEC00A10EE104A23B2CF4C71
:1045000094ED020ABDEEC00A10EE104A22B2CB4C66
:1045100094ED010ABDEEC00A10EE104A21B2C74C5C
:1045200094ED000ABDEEC00A10EE104A20B2FCF76E
:10453000FFFEBE4991ED070ABDEEC00A10EE101A4B
:1045400008B20021FDF720F993E1B74A128A11B2AF
:10455000B54A928C10B2FCF7ABFFB94CE36CA26C7D
:10456000616C206CFCF7D0FFB34C94ED130ABDEEE8
:10457000C00A10EE104A23B2AF4C94ED120ABDEE01
:10458000C00A10EE104A22B2AB4C94ED110ABDEEF7
:10459000C00A10EE104A21B2A74C94ED100ABDEEED
:1045A000C00A10EE104A20B2FCF7C2FEA54A92EDF6
:1045B000070ABDEEC00A10EE102A11B29B4A92ED16
:1045C000070ABDEEC00A10EE102A10B2FDF7DCF8A3
:1045D0004FE126E04FE0F1E0A9E061E036E0FFE7DF
:1045E000914A128A11B2904A928C10B2FCF760FF85
:1045F000934CE36CA26C616C206CFCF785FF00238C
:104600001A4619461846FCF793FE884991ED070AA9
:10461000BDEEC00A10EE101A08B20021FDF7B4F882
:1046200027E100210846FCF743FF00231A461946FC
:104630001846FCF769FF00231A4619461846FCF78E
:1046400077FE00210846FDF79FF812E10021084699
:10465000FCF72EFF00231A4619461846FCF754FFB4
:1046600000231A4619461846FCF762FE0021084648
:10467000FDF78AF8FDE000210846FCF719FF00234A
:104680001A4619461846FCF73FFF00231A461946FA
:104690001846FCF74DFE00210846FDF775F8E8E0E6
:1046A000614991ED030ABDEEC00A10EE100A01F057
:1046B00088F95D49098A084404B25B49486904F0F5
:1046C000B5FA5949898C084405B221462846FCF7B9
:1046D000EFFE5B4CE36CA26C616C206CFCF714FF8A
:1046E000554C94ED130ABDEEC00A10EE104A23B2E9
:1046F000514C94ED120ABDEEC00A10EE104A22B2DF
:104700004D4C94ED110ABDEEC00A10EE104A21B2D4
:10471000494C94ED100ABDEEC00A10EE104A20B2CA
:10472000FCF706FE00210846FDF72EF8A1E03E4901
:1047300091ED030ABDEEC00A10EE100A01F041F936
:104740003949098A084404B23749486904F06EFAC5
:104750003549898C084405B221462846FCF7A8FE55
:10476000374CE36CA26C616C206CFCF7CDFE324CD4
:1047700094ED130ABDEEC00A10EE104A23B22E4C7F
:1047800094ED120ABDEEC00A10EE104A22B22A4C75
:1047900094ED110ABDEEC00A10EE104A21B2264C6B
:1047A00094ED100ABDEEC00A10EE104A20B2FCF7DC
:1047B000BFFD00210846FCF7E7FF5AE01A4A128ABB
:1047C00011B2194A928C10B2FCF772FE1C4CE36CC9
:1047D000A26C616C206CFCF797FE174C94ED130AE9
:1047E000BDEEC00A10EE104A23B2134C94ED120A2B
:1047F000BDEEC00A10EE104A22B20F4C94ED110A21
:10480000BDEEC00A10EE104A21B20B4C94ED100A16
:10481000BDEEC00A10EE104A20B2FCF789FD00215F
:104820000846FCF7B1FF24E044060020040C0020F9
:10483000700400203C040040640B0020B40B0020F6
:10484000040B0020440C002000210846FCF730FE39
:1048500000231A4619461846FCF756FE00231A464E
:1048600019461846FCF764FD00210846FCF78CFF4A
:1048700000BF00BF70BD704770B5002100230F223C
:10488000C4781CB3174C246804F4E064C4F5E064F5
:10489000C4F30721C1F10404E3B20A4144789C4007
:1048A000E1B28478144021430C07210E0E4C0578A8
:1048B0006155047804F01F050124AC4005786D11A2
:1048C000AD0005F1E025C5F8004109E0047804F0E9
:1048D0001F050124AC40054D0678761145F82640A9
:1048E00070BD00000CED00E000E400E080E100E0BD
:1048F00002490143024A1160704700000000FA05B6
:104900000CED00E0BFF34F8F0648006800F4E06054
:1049100005490843001D03490860BFF34F8F00BFDE
:10492000FEE700000CED00E00000FA0570B5064659
:104930000024351DA3E0285DC02840D012DCA52846
:1049400029D008DC90281ED0A02821D0A12820D072
:10495000A22877D11EE0B02826D0B12825D0B228D1
:10496000F7D123E0D1287BD006DCC12828D0C2288B
:1049700027D0D028EDD12DE0D92865D0E02879D0F6
:10498000F02879D174E0687840490870A41C75E07B
:1049900000BF00BF00BF29193D4851F8012F026038
:1049A00089888180E41D69E000BF00BF291939486A
:1049B00051F8012F026089888180E41D5EE000BF0C
:1049C00000BF2919344851F8012F0260898881807D
:1049D000E41D53E0601C295CA01C285C01EB002056
:1049E00000B200EE100AB8EEC00ADFED2C0A80EE2D
:1049F000201A2B4880ED001AE01C295C201D285C41
:104A000001EB002000B200EE100AB8EEC00ADFEDA4
:104A1000230A80EE201A224880ED011A601D295CCD
:104A2000A01D285C01EB002000B200EE100AB8EED9
:104A3000C00AF2EE040A80EE201A194880ED021A2C
:104A4000E41D1BE018E00BE02919154851F8012F6F
:104A500002604A684260896881600D340EE009E0B6
:104A60002819411C10220F48FBF71FFC113405E0E8
:104A7000641D03E0641D01E0641C00BF00BFB6F8C4
:104A80008400A0423FF757AF70BD00009808002097
:104A9000860800208C080020920800200000C842F0
:104AA000600F00206C0F00200021F7EE000AB0EE2E
:104AB000600AD0E904239A4201DD026900E04269FC
:104AC000114682698A4201DA0A4600E0826911468B
:104AD000C2698A4201DA0A4600E0C269114600EE64
:104AE000901AF8EEE00A9FED1D1AF4EEC10AF1EEFD
:104AF00010FA31DD00EE901AF8EEE00A9FED171A79
:104B0000C1EE201AB0EE610AD0ED040AF8EEE00A18
:104B100060EE800AFDEEE00AC0ED040AD0ED050A61
:104B2000F8EEE00A60EE800AFDEEE00AC0ED050A4C
:104B3000D0ED060AF8EEE00A60EE800AFDEEE00A2B
:104B4000C0ED060AD0ED070AF8EEE00A60EE800A32
:104B5000FDEEE00AC0ED070A7047000000D00446F1
:104B600070B505460C46FEF75BFA042803D0FEF745
:104B700057FA052876D14648007800F00100002851
:104B8000F8D144488078D0B14348B0F90000B0F57E
:104B9000257F0BDA4048B0F90000002806DB3E48CC
:104BA0000088401C00B23C49088029E03A48B0F92E
:104BB0000000002824DA00203749088020E035482A
:104BC000007AD0B13448B0F9000010F5257F0BDD34
:104BD0003148B0F90000002806DC2F480088401E4C
:104BE00000B22D4908800BE02B48B0F900000028E6
:104BF00006DD00202849088002E0002026490880C0
:104C00002448007DC8B12548B0F90000B0F5257FE3
:104C10000BDA2248B0F90000002806DB1F480088A4
:104C2000401C00B21D49088029E0B4F900000028AA
:104C300025DA00201949088021E01648807BD8B188
:104C40001648B0F9000010F5257F0CDD1348B0F9C7
:104C50000000002807DC11480088401E00B20F4900
:104C600008800CE013E00D48B0F90000002806DDD4
:104C700000200A49088002E0002008490880064810
:104C8000B0F9000028800548B0F90000208070BD10
:104C900054040020E00D0020240200202602002001
:104CA00010B504463148007C01280DD02F48407CC7
:104CB000012809D02D48B0F90A00012804DC2B484E
:104CC000B0F90C00012802DD002029490870294AAA
:104CD000D178294A508A02F085FB012820D102F0C0
:104CE000C5FB01281CD12078012819D11F48007C60
:104CF000012815D12148007890B921480088401C2E
:104D000000B21F4908801F480088401C00B21D499E
:104D100008801D48006848601B48006818494860C2
:104D20001A48007830B91A4890F84A00012801D191
:104D3000207006E0164890F84C00022801D10020AF
:104D40002070207820B920211248FEF757F903E09F
:104D500020211048FEF754F90448007C07490870E8
:104D60000B4890F84A000949087010BD440800201B
:104D70001406002027000020D30A00202B06002064
:104D8000E40B0020240C0020540400202C060020FA
:104D9000E00D00200008024010B5C44A127842B964
:104DA000C34A1278012A04D190ED000AC14A82ED6B
:104DB000000AC14A12783AB990ED000ABD4A82ED64
:104DC000000A0122BC4B1A70BC4A1278A2BBBC4A32
:104DD00092F82620012A4CD1BA4A92ED000AB5EE8B
:104DE000C00AF1EE10FA02DD92ED000A04E0B54AC5
:104DF00092ED000AB1EE400ADFEDB30AB4EEE00A2C
:104E0000F1EE10FA35D2AB4A92ED000ADFEDAF0AAF
:104E100030EE200A82ED000A92ED000ADFEDAC0AC6
:104E2000B4EEE00AF1EE10FA07DD92ED000ADFEDD4
:104E3000A90A30EE600A03E01BE09E4A92ED000AE8
:104E40009C4A82ED000A92ED000ADFEDA30AB4EE5F
:104E5000E00AF1EE10FA06D292ED000ADFED9D0AAB
:104E600030EE200A02E0934A92ED000A914A82ED68
:104E7000000A934A92F82620904B1A70974A1278AB
:104E8000A2BB8F4A92F82C20012A4CD18D4A92ED78
:104E9000000AB5EEC00AF1EE10FA02DD92ED000A4A
:104EA00004E0884A92ED000AB1EE400ADFED860A7E
:104EB000B4EEE00AF1EE10FA35D27E4A92ED000A25
:104EC000DFED820A30EE600A82ED000A92ED000A00
:104ED000DFED7F0AB4EEE00AF1EE10FA07DD92EDA5
:104EE000000ADFED7C0A30EE600A03E01BE0714A45
:104EF00092ED000A6F4A82ED000A92ED000ADFEDA2
:104F0000760AB4EEE00AF1EE10FA06D292ED000A4B
:104F1000DFED700A30EE200A02E0664A92ED000AE8
:104F2000644A82ED000A664A92F82C206B4B1A7094
:104F30006B4A12680A23B2FBF3F403FB1422002A23
:104F40007BD1684AB2F90A2000EE102AB8EEC00AF6
:104F5000F2EE0E0A60EE200A9FED631A80EE810ADF
:104F6000544AD2ED000A30EEC00A82ED000A5D4AD2
:104F7000B2F90C2000EE102AB8EEC00AF0EE000ADA
:104F800020EE200AF0EE080A80EE201A574A92ED31
:104F9000000A31EE000A82ED000A464A92ED000A4C
:104FA000DFED4B0AB4EEE00AF1EE10FA06DD92ED09
:104FB000000ADFED480A30EE600A02E03D4A92ED59
:104FC000000A3C4A82ED000A92ED000ADFED420A37
:104FD000B4EEE00AF1EE10FA06D292ED000ADFED2F
:104FE0003D0A30EE200A02E0324A92ED000A314AD0
:104FF00082ED000A324A927E012A26D03B4A92ED87
:10500000000ADFED3B0AB4EEE00AF1EE10FA02DD31
:105010009FED370A02E0354A92ED000A334A82EDED
:10502000000A92ED000ADFED330AB4EEE00AF1EE79
:1050300010FA03D29FED2F0A03E035E02B4A92EDE0
:10504000000A2A4A82ED000A24E0284A92ED000A6A
:10505000DFED290AB4EEE00AF1EE10FA02DD9FED71
:10506000260A02E0214A92ED000A204A82ED000A57
:1050700092ED000ADFED210AB4EEE00AF1EE10FA3B
:1050800002D29FED1E0A02E0184A92ED000A174A6A
:1050900082ED000A074A92ED000A80ED000A134AE9
:1050A00092ED000A81ED000A10BD00007E0700208D
:1050B0007D07002080070020880700208907002046
:1050C000E00D0020040200207BD9A03E00006144D6
:1050D0000000E144000061450000E1C48A070020AF
:1050E00054040020440800200000204284070020CF
:1050F00000C0464500C00045004053450080E844DC
:1051000000B5F0EE402AB0EE603A416900EE101AA8
:10511000B8EEC00AB4EEE20AF1EE10FA06D2416926
:1051200000EE101AB8EEC00AF0EE402A016900EE57
:10513000101AB8EEC00AB4EEE20AF1EE10FA06DD7B
:10514000016900EE101AB8EEC00AF0EE402A816A3A
:10515000416232EEC30A10EE101A816272EEC30A87
:10516000C16800EE101AF4EEC00AF1EE10FA02DD8A
:10517000C168816213E072EEC30AC16800EE101AC2
:10518000B1EE400AF4EEC00AF1EE10FA07D2C1689F
:1051900000EE101AB1EE400A10EE101A816232EEE3
:1051A000C30AB5EEC00AF1EE10FA02DD32EEC30A10
:1051B00003E032EEC30AB1EE400A816B00EE901AB2
:1051C000F8EEE00AB4EEE00AF1EE10FA04D89FED32
:1051D0005B0A10EE101A8162816A00EE101AC16A31
:1051E00000EE901A9FED561A01EE200A10EE101AEA
:1051F000C162816A00EE101A416A00EE901A70EEE8
:10520000600A816800EE101A20EE800A10EE101A73
:105210000163C16A00EE101A016A00EE901AB4EE42
:10522000E00AF1EE10FA01DD016AC162C16A00EE26
:10523000101A016A00EE901AF1EE600AB4EEE00A6C
:10524000F1EE10FA07D2016A00EE101AB1EE400A30
:1052500010EE101AC162816A00EE101A016800EEA9
:10526000901A20EE200ABDEEC00A10EE101A09B204
:105270008187016B00EE101ABDEEC00A10EE101A05
:1052800009B2C187C16A00EE101A416800EE901A97
:1052900020EE200ABDEEC00A10EE101A09B2A0F8E6
:1052A0004010816A00EE101A00F04CF8816A00EE9E
:1052B000901A016801EE101A60EE810A20EE201AA1
:1052C000C16A00EE101A416800EE901A00EE201A32
:1052D000016B00EE101A31EE000A10EE101A416355
:1052E000416B00EE101AC16900EE901AF8EEE00A68
:1052F000B4EEE00AF1EE10FA07DDC16900EE101A13
:10530000B8EEC00A10EE101A4163416B00EE101A9D
:10531000816900EE901AF8EEE00AB4EEE00AF1EED0
:1053200010FA07D2816900EE101AB8EEC00A10EE2A
:10533000101A4163416B00EE101A00BD000000001E
:1053400077BE7F3FF0EE400AB7EE001AB0EE410A9A
:10535000F5EEC00AF1EE10FA02DDB0EE601A01E0DF
:10536000B1EE601ADFED1A1AB4EEE11AF1EE10FA9E
:105370002DD2F5EEC00AF1EE10FA02DDB0EE601AA1
:1053800001E0B1EE601A9FED122AC1EE021A9FED04
:10539000111A31EE811AB0EE410AB7EE001AB4EEDE
:1053A000C10AF1EE10FA02DDB7EE001A01E0B0EE2C
:1053B000401AB0EE410AB5EEC00AF1EE10FA02D280
:1053C0009FED051A01E0B0EE401AB0EE410A7047B9
:1053D0000000C843CDCCCC3E00000000B0EE401A27
:1053E000416900EE101AB8EEC00AB4EEC10AF1EE3F
:1053F00010FA06D2416900EE101AB8EEC00AB0EEFB
:10540000401A016900EE101AB8EEC00AB4EEC10AE3
:10541000F1EE10FA06DD016900EE101AB8EEC00ACE
:10542000B0EE401A816A416231EE600A10EE101A45
:10543000816271EE601AC16800EE101AF4EEC01AB3
:10544000F1EE10FA02DDC168816213E071EE601ABC
:10545000C16800EE101AB1EE400AF4EEC01AF1EE87
:1054600010FA07D2C16800EE101AB1EE400A10EE31
:10547000101A816231EE600AB5EEC00AF1EE10FA40
:1054800002DD31EE600A03E031EE600AB1EE400A5F
:10549000816B01EE901AF8EEE11AB4EEE10AF1EE3A
:1054A00010FA04D89FED570A10EE101A8162816A33
:1054B00000EE101AC16A01EE901A9FED532A02EE17
:1054C000210A10EE101AC162816A00EE101A416AB8
:1054D00001EE901A70EE611A816800EE101A21EE4A
:1054E000800A10EE101A0163C16A00EE101A016AF8
:1054F00001EE901AB4EEE10AF1EE10FA01DD016A54
:10550000C162C16A00EE101A016A01EE901AF1EE52
:10551000611AB4EEE10AF1EE10FA07D2016A00EE68
:10552000101AB1EE400A10EE101AC162816A00EE44
:10553000101A016801EE901A20EE210ABDEEC00A91
:1055400010EE101A09B28187016B00EE101ABDEE41
:10555000C00A10EE101A09B2C187C16A00EE101A13
:10556000416801EE901A20EE210ABDEEC00A10EE4D
:10557000101A09B2A0F84010816A00EE101A0168F2
:1055800001EE901A20EE212AC16A01EE901A4168BC
:1055900000EE101A01EE802A016B00EE101A32EEB6
:1055A000000A10EE101A4163416B00EE101AC16937
:1055B00001EE901AF8EEE11AB4EEE10AF1EE10FAFB
:1055C00007DDC16900EE101AB8EEC00A10EE101A1D
:1055D0004163416B00EE101A816901EE901AF8EEFA
:1055E000E11AB4EEE10AF1EE10FA07D2816900EE99
:1055F000101AB8EEC00A10EE101A4163416B00EEAB
:10560000101A70470000000077BE7F3F00B58BB0D6
:105610000121022000F022FB0121084600F01EFBC0
:105620000121022000F02AFB0121082000F026FBC6
:105630000320099002208DF8280003208DF829000E
:1056400009A96A48FDF766FCCF20099002208DF871
:10565000280003208DF8290009A96548FDF75AFCA8
:10566000022200216148FDF79DFC022201215F48D2
:10567000FDF798FC022206215D48FDF793FC02220B
:1056800007215B48FDF78EFC022200215848FDF7F8
:1056900089FC022201215648FDF784FC02221146B2
:1056A0005348FDF77FFC022203215148FDF77AFCA5
:1056B0005320ADF818000020ADF81A0044F6206021
:1056C00007900020ADF8200006A94A4802F012FA1F
:1056D0005320ADF818000020ADF81A0044F6206001
:1056E00007900020ADF8200006A9434802F002FA16
:1056F0007020ADF804000120ADF806000020ADF8E0
:1057000008004FF47A7003900220ADF810000020DA
:10571000ADF81200ADF814004FF48070ADF816002B
:1057200001A9344802F09AF801A9324802F0DEF8E3
:1057300001A9304802F03AF901A92E4802F090F987
:105740004FF47A70039001A92B4802F087F801A961
:10575000294802F0CBF801A9274802F027F901A94E
:10576000254802F07DF90821224802F0B5F8082109
:10577000204802F00DF908211E4802F067F90821BF
:105780001C4802F0A9F908211B4802F0A5F80821DD
:10579000194802F0FDF80821174802F057F90821CE
:1057A000154802F099F90121124802F01FF8012171
:1057B000114802F01BF801210E4802F029F80121DE
:1057C0000D4802F025F84FF40C700A493431086096
:1057D00040F6C410091D0860C00007493C3108604C
:1057E0000020091F08600BB000BD0000000402404B
:1057F0000000024000040040000C004010B50446C8
:105800006148007807287DD2DFE800F0040A333DC4
:105810004D5363005A2C02D101205B490870B0E05F
:105820005A48006880F888405848006890F8880016
:10583000A52804D0A62806D0A72818D10FE002205A
:105840005149087013E05248006820B14F48006881
:105850004F490968884700204B49087007E000203D
:105860004A490968086006204749087000BF00BF20
:1058700087E046480068A0F88440464884700320CA
:10588000414908707DE041480068B0F8840040EA72
:1058900004203E490968A1F884003E48C4700420F1
:1058A000394908706DE03C4804800520364908708D
:1058B00067E03948008840EA042037490880002022
:1058C0003249096808603549088006202E49087069
:1058D00057E02E48006801682C4800680068401CAA
:1058E0002A4A1268106029480068001D445427485D
:1058F000006890F88800A72813D124480068006841
:10590000082800E039E00CD3082020490968A1F8F4
:1059100084001E4800681E490968884700201A490B
:1059200008701A480068006818490968B1F88410BE
:10593000884221D31548006890F88800A5281BD11B
:1059400004221449154804F0DBFF1048006802687F
:105950000E480168091D114804F0D2FF0F48008865
:105960000D490988884204D1084800680849096837
:10597000884700200449087003E0002002490870AD
:1059800000BF00BF002010BDA8080020A008002014
:105990009C080020A9080020A4080020A6080020D8
:1059A00070B504460D46044805608C212046FAF780
:1059B000C1FC0248046070BD9C080020A0080020C3
:1059C000704701460020704770B52DED088B0646E4
:1059D0000C461546287BE97A40EA012000B2208275
:1059E000204600F035F8B4F9100005F088FC41ECD1
:1059F0001B0B9FED140B53EC102B05F0F9FA41EC47
:105A0000190BB4F9160000EE100AB8EEC00ADFED6B
:105A10000F0A20EE200A10EE101A084605F0CCFFFF
:105A200041EC1A0B53EC192B05F026FA41EC180B3C
:105A300005F036FCB4F9161000EBC1003060BDEC87
:105A4000088B70BD0000000000408F405C8F423E1C
:105A5000818A028A891A09B24182B0F9121041F290
:105A60005452914204DDC18A491C09B2C18208E046
:105A7000B0F91210044A914203DAC18A491E09B2F0
:105A8000C182018A81827047ACEAFFFF0B684A69D4
:105A9000D21A354B1A601A461268002A02DD1A46DD
:105AA000126802E0304A12685242062A0FDDB1F94C
:105AB0001020002A02DDB1F9102002E0B1F9102017
:105AC00052420A2A03DAC269521CC26101E0002371
:105AD000C361C269642A05D9027E1AB9012202761D
