:020000040800F2
:10000000901400206902000849400008D92B00081C
:10001000113C0008C10D0008D76D00080000000069
:100020000000000000000000000000001D5C00084F
:100030003323000800000000554B0008A9610008A8
:10004000830200088302000883020008830200087C
:10005000830200088302000883020008830200086C
:100060008302000883020008F125000883020008CB
:1000700083020008A11E000883020008B51F0008C3
:10008000830200088302000883020008830200083C
:100090006910000883020008830200088302000838
:1000A000830200088302000883020008830200081C
:1000B000830200088302000883020008830200080C
:1000C00083020008830200088302000883020008FC
:1000D000830200088302000883020008C569000843
:1000E00083020008830200088302000883020008DC
:1000F00083020008830200088302000883020008CC
:1001000083020008830200088302000883020008BB
:1001100083020008830200085D6200088302000871
:100120008302000883020008B91F00088302000848
:10013000830200088302000883020008830200088B
:1001400041130008830200088302000883020008AC
:10015000830200088302000883020008716A000815
:10016000830200088302000883020008830200085B
:10017000830200088302000883020008830200084B
:10018000830200088302000800F002F800F05CF827
:100190000AA090E8000C82448344AAF10107DA45E2
:1001A00001D100F051F8AFF2090EBAE80F0013F0D8
:1001B000010F18BFFB1A43F00103184764900000B9
:1001C000849000000A444FF0000C10F8013B13F03B
:1001D000070408BF10F8014B1D1108BF10F8015BA0
:1001E000641E05D010F8016B641E01F8016BF9D193
:1001F00013F0080F1EBF10F8014BAD1C0C1B09D1EA
:100200006D1E58BF01F801CBFAD505E014F8016B5B
:1002100001F8016B6D1EF9D59142D6D370470000ED
:100220000023002400250026103A28BF78C1FBD8FF
:10023000520728BF30C148BF0B6070471FB508F098
:1002400076FD1FBD10B510BD00F0E4F81146FFF7B4
:10025000F5FF07F083FF00F002F903B4FFF7F2FFA8
:1002600003BC07F0EDFD000009488047094800473E
:10027000FEE7FEE7FEE7FEE7FEE7FEE7FEE7FEE756
:10028000FEE7FEE704480549054A064B70470000B3
:10029000AD61000889010008900E00209014002034
:1002A00090100020901000207047032A40F2308008
:1002B00010F0030C00F0158011F8013BBCF1020FA7
:1002C000624498BF11F801CB00F8013B38BF11F828
:1002D000013BA2F1040298BF00F801CB38BF00F83F
:1002E000013B11F0030300F05B80083AC0F0088086
:1002F00051F8043B083A51F804CBA0E80810F5E7A0
:10030000121D5CBF51F8043B40F8043BAFF3008082
:10031000D20724BF11F8013B11F801CB48BF11F8F7
:10032000012B24BF00F8013B00F801CB48BF00F8C7
:10033000012B70474FF0000200B5134694469646D5
:10034000203922BFA0E80C50A0E80C50B1F12001E8
:10035000BFF4F7AF090728BFA0E80C5048BF0CC096
:100360005DF804EB890028BF40F8042B08BF7047F4
:1003700048BF20F8022B11F0804F18BF00F8012B66
:100380007047704770477047704710B500F03AF8F3
:10039000006810BD10B5044600F034F8046010BDCC
:1003A00010B5203AC0F00B80B1E81850203AA0E810
:1003B0001850B1E81850A0E81850BFF4F5AF5FEA44
:1003C000027C24BFB1E81850A0E8185044BF18C9F7
:1003D00018C0BDE810405FEA827C24BF51F8043B9E
:1003E00040F8043B08BF7047D20728BF31F8023BF2
:1003F00048BF11F8012B28BF20F8023B48BF00F886
:10040000012B7047004870472C0E002000487047B1
:100410002C0E00207546FFF7F9FFAE460500694631
:10042000534620F00700854618B020B5FFF72AFF95
:10043000BDE820404FF000064FF000074FF00008E5
:100440004FF0000B21F00701AC46ACE8C009ACE866
:10045000C009ACE8C009ACE8C0098D467047044645
:10046000AFF300802046FFF7F8FE000000B5002043
:1004700005F012FD012005F043FC002005F0F0FB23
:1004800000203D490880012005F03AFC012870D188
:10049000002005F0E5FB01286BD16FF06D003749B6
:1004A00008800020344908803548007850B9344825
:1004B000407838B96FF009003049088000202E4993
:1004C000088022E02E48007801280ED12C48407880
:1004D00058B9012005F0E0FC6FF0090027490880B9
:1004E0006FF01D00244908800FE02548007860B9AE
:1004F00023484078012808D105F0CEFC6FF00900B0
:100500001E4908801E201C4908801D4800790128CA
:100510000CD11B484079012808D16FF031001749F0
:100520000880002014490880012000BD144800798B
:1005300070B91348407901280AD105F0ADFC6FF07D
:1005400031000E4908806FF01D000B49088010E053
:100550000B48007901280CD10948407948B901209D
:1005600005F09AFC6FF03100044908801E20024912
:1005700008800020D9E70000C6010020C201002049
:10058000CE07002010B5002013E09FED370A10EED3
:10059000101A00EB4012354B03EB420251609FED05
:1005A000340A10EE101A00EB401203EB4202116203
:1005B000401C0428E9DB2F480078062851D2DFE8E8
:1005C00000F0030A121A222A00F0DEF8012801D1F5
:1005D0002849087045E0FFF749FF012802D10220B1
:1005E000244908703DE000F04BF8012802D10320B7
:1005F0002049087035E000F069F9012802D1042093
:100600001C4908702DE0FFF731FF012802D10520B9
:100610001849087025E000F033F8012820D10420A3
:1006200005F034FC00201349087000BF13E09FED73
:10063000120A10EE101A00EB40120C4B03EB4202B0
:1006400051609FED0E0A10EE101A00EB401203EB02
:1006500042021162401C0428E9DB012005F01CFC69
:1006600000BF00BF10BD00003E0AD73D640000205F
:100670006E43D14748000020295C0F3D49828B47DB
:1006800000B53B48006818B93A4800683849086026
:100690003848006836490968401AB0F5E17F64D9E6
:1006A000002005F0F9FB002005F02AFB002005F0F2
:1006B000D7FA00203049088005F022FB012828D114
:1006C000002005F0CDFA012823D12C48006850B94C
:1006D00028480068294908606FF09F002849088071
:1006E0000020254908802348006824490968401AE9
:1006F00040F28A21884238D96FF0310020490880C1
:1007000000201D4908801D49086019490860012022
:1007100000BD1C48007850B91A48407838B96FF0CD
:100720003100174908800020134908801DE0154852
:10073000007801280BD11348407840B96FF03100A0
:100740000F4908806FF01D000B4908800DE00D482F
:10075000007850B90B484078012806D16FF031007D
:10076000074908801E20044908800020D0E70000C7
:100770005C00002014040020C60100205800002066
:10078000C2010020CE07002000B5002005F084FB48
:10079000012005F0B5FA012005F062FA0020484971
:1007A0000880012005F0ACFA012803D105F058FAC1
:1007B000012807D06FF045004249088000204049D9
:1007C000088006E06FF06D003E49088000203C493B
:1007D0000880012005F094FA01280DD13A4880786C
:1007E00050B93948C07838B96FF0090035490880E8
:1007F0000020334908802CE0012005F081FA01280F
:1008000012D13148807801280ED12F48C07858B9CC
:10081000012005F041FB6FF009002A4908806FF0C4
:100820001D002749088014E0012005F069FA01281D
:100830000FD12548807860B92348C078012808D1B5
:1008400005F02AFB6FF009001E4908801E201C4994
:1008500008801D48807901280CD11B48C0790128E7
:1008600008D16FF031001749088000201449088032
:10087000012000BD1448807970B91348C07901285F
:100880000AD105F009FB6FF031000E4908806FF0C6
:100890001D000B49088010E00B48807901280CD11D
:1008A0000948C07948B9012005F0F6FA6FF0310027
:1008B000044908801E20024908800020D9E7000072
:1008C000C6010020C2010020CE07002000B5002094
:1008D00005F0E2FA012005F013FA012005F0C0F955
:1008E000002048490880012005F00AFA012803D1B8
:1008F00005F0B6F9012807D06FF03B0042490880A7
:1009000000204049088006E06FF06D003E490880F5
:1009100000203C490880012005F0F2F901280DD1A2
:100920003A48807850B93948C07838B96FF0090032
:10093000354908800020334908802CE0012005F06B
:10094000DFF9012812D13148807801280ED12F48D3
:10095000C07858B9012005F09FFA6FF009002A49C4
:1009600008806FF01D002749088014E0012005F081
:10097000C7F901280FD12548807860B92348C0788D
:10098000012808D105F088FA6FF009001E49088097
:100990001E201C4908801D48807901280CD11B4865
:1009A000C079012808D16FF0310017490880002074
:1009B00014490880012000BD1448807970B913489B
:1009C000C07901280AD105F067FA6FF031000E49AD
:1009D00008806FF01D000B49088010E00B488079FB
:1009E00001280CD10948C07948B9012005F054FA12
:1009F0006FF03100044908801E2002490880002061
:100A0000D9E70000C6010020C2010020CE07002067
:100A100010B52DED028BB0EE408AC94890ED000A6A
:100A2000F7EE000A30EEC00AC648D0ED000A20EE0C
:100A3000200AC348D0ED000A08EE200AC14880ED24
:100A4000000A02F097F8042876D1BF48007820B158
:100A5000012839D0022836D1D0E01E20BB490863D6
:100A600048638863C863B74890ED000AB5EEC00AD2
:100A7000F1EE10FA02DD90ED000A04E0B14890EDCD
:100A8000000AB1EE400AF2EE000AB4EEE00AF1EE1E
:100A900010FA0BDDAE4800884FF6FE71884205DA89
:100AA000AB480088401CAA49088002E00020A84901
:100AB0000880A7480088642805DD0120A249087045
:100AC0000020A3490880DEE09E4890ED000AB5EEC4
:100AD000C00AF1EE10FA30DD9C48006B1E2814DCD1
:100AE0009A4890ED0A0AB8EEC00A9648D0ED000A7E
:100AF000B2EE081A00EE810ABDEEC00A934880EDFE
:100B00000E0A806B9149C86346E0904890ED080A50
:100B1000B8EEC00A8B48D0ED000AF1EE600AB2EEE2
:100B2000081A00EE810ABDEEC00A884880ED0C0A62
:100B3000006B864948632FE0A6E08448806B1E283E
:100B400016DC824890ED080AB8EEC00A7D48D0ED68
:100B5000000AF1EE600AB2EE081A00EE810ABDEE5C
:100B6000C00A7A4880ED0C0A006B7849486313E0AC
:100B7000764890ED0A0AB8EEC00A7248D0ED000A35
:100B8000B2EE081A00EE810ABDEEC00A6F4880ED91
:100B90000E0A806B6D49C8636A4890ED000AB5EE95
:100BA000C00AF1EE10FA02DD90ED000A04E065489B
:100BB00090ED000AB1EE400ADFED660AB4EEE00AFD
:100BC000F1EE10FA0BD2644800884FF6FE718842AD
:100BD00005DA61480088401C5F49088002E0002077
:100BE0005D4908805C480088B0F5967F05DD0220ED
:100BF0005549087000205849088044E0514890ED5C
:100C0000000AB5EEC00AF1EE10FA02DD90ED000A1E
:100C100004E04C4890ED000AB1EE400AF1EE000A03
:100C2000B4EEE00AF1EE10FA03DD01204649087047
:100C30001FE04648006B4549896B401A002805DDD6
:100C40004248006B4149896B401A04E03F48806B81
:100C50003E49096B401AB0F5967F0ADA3F48008892
:100C60004FF6FE71884204DA3C480088401C3B493C
:100C700008803A480088962804DD00203249087030
:100C80003649088000BF00BF3048006B1E2801DADB
:100C90001E2001E02D48006B2C4908630846006BBC
:100CA00040F29341884201DD084601E02748006B8D
:100CB000264908630846406B1E2801DA1E2001E021
:100CC0002248406B214948630846406B40F29341FB
:100CD000884201DD084601E01C48406B1B4948631F
:100CE0000846806B1E2801DA1E2001E01748806B41
:100CF000164988630846806B40F29341884201DDC3
:100D0000084601E01148806B104988630846C06BB3
:100D10001E2801DA1E2001E00C48C06B0B49C86395
:100D20000846C06B40F29341884201DD084601E06D
:100D30000648C06B0549C863BDEC028B10BD0000BE
:100D4000600700205C0700204C070020600A00209C
:100D500064070020CDCC0C40660700206807002007
:100D600010B54FF4A06003F0ADF902F0AFF903F055
:100D700043FD02F083FA114805F0EEFC4FF4615098
:100D800005F090FE4FF4E13005F07CFD07F034FAF9
:100D900007F024F907F0ACF84FF47A7007F09AF8EE
:100DA00005F038FA00F0E4F800F04EFA4FF4C860AD
:100DB00007F090F805F066FA10BD0000A08601006B
:100DC00000BFFEE7C178012903D10188491C0180D9
:100DD00001E00021018001880A290EDD0188B1F5BA
:100DE0007A7F07DAC178012909D1817839B90121DF
:100DF000017104E00221017101E00021017181789B
:100E0000C170704710B50446224600213A4800F0F0
:100E1000ECFC2068A0F20120062869D2DFE800F08F
:100E20000311223344562146344805F0B5F92246D1
:100E300033493248203003F091FE324802F00FFE71
:100E400057E021462D48001D05F0A6F922462C4901
:100E500018312A48243003F081FE2A48801C02F011
:100E6000FEFD46E021462548083005F095F922466A
:100E7000234930312148283003F070FE2148001DFD
:100E800002F0EDFD35E021461C480C3005F084F9F8
:100E900022461B49483119482C3003F05FFE19489F
:100EA000801D02F0DCFD24E0207BE17A40EA012095
:100EB00015494861A17B607B41EA002000B21249DC
:100EC00088611048001F02F0CAFD12E0207BE17A21
:100ED00040EA01200C490860A17B607B41EA0020C8
:100EE00000B2094948600748801E02F0B8FD00E0E2
:100EF00000BF00BF10BD000000640040600A002079
:100F0000E40B002094040020F8050020F0B585B023
:100F100004460D4616461F464FF400700090002010
:100F20008DF808008DF8090008208DF80A00200AC5
:100F30008DF80B00E1B28DF80C10290A8DF80D1018
:100F4000E9B28DF80E10310A8DF80F10F1B28DF85C
:100F50001010390A8DF81110F9B28DF81210694687
:100F6000024800F0CAFC05B0F0BD0000006400407B
:100F700000B58BB00121084603F0C6FE01214806EA
:100F800003F0D2FE09220B21354801F0B5FD0922FC
:100F90000C21334801F0B0FD4FF4C0500290022004
:100FA0008DF80C0002A92E4801F05EFD14208DF88A
:100FB000040001208DF8050000208DF806000120B6
:100FC0008DF8070001A803F041F8264800F04AFA1E
:100FD00008A800F082FC00208DF826008DF827007C
:100FE0008DF828008DF829008DF82A0001208DF851
:100FF0002B0000208DF822008DF8230008208DF8AA
:10100000240003208DF82500ADF8200008A915481C
:1010100000F061FB01208DF81A0000208DF81B0004
:1010200001208DF81C000020ADF81000ADF8120072
:10103000ADF81400ADF81600ADF8180001208DF8D9
:101040001D0004A800F02AFA01220221054800F040
:1010500039FB01221146034800F034FB0BB000BD00
:10106000000002400064004000B585B0022106483F
:1010700000F098FA30B10221034800F09FF9684669
:10108000FFF7C0FE05B000BD0064004030B585B07C
:1010900004460D4640F2FF10009000208DF8080035
:1010A0008DF8090008208DF80A00200A8DF80B0041
:1010B000E1B28DF80C10290A8DF80D10E9B28DF807
:1010C0000E1000218DF80F108DF810108DF81110F2
:1010D0008DF812106946024800F00FFC05B030BDD3
:1010E00000640040F0B585B004460D4616461F4624
:1010F0004FF40070009000208DF808008DF8090072
:1011000008208DF80A00200A8DF80B00E1B28DF856
:101110000C10290A8DF80D10E9B28DF80E10310A65
:101120008DF80F10F1B28DF81010390A8DF81110EA
:10113000F9B28DF812106946024800F0DEFB05B0E6
:10114000F0BD00000068004010B5044622460021B2
:10115000344800F04AFB2068A0F2012006285ED245
:10116000DFE800F003112233444E21462E4805F0FB
:1011700013F822462D492C48203003F0EFFC2C4870
:1011800002F06DFC4CE021462748001D05F004F8F4
:101190002246264918312448243003F0DFFC244835
:1011A000801C02F05CFC3BE021461F48083004F044
:1011B000F3FF22461D4930311B48283003F0CEFC96
:1011C0001B48001D02F04BFC2AE0214616480C305B
:1011D00004F0E2FF22461549483113482C3003F051
:1011E000BDFC1348801D02F03AFC19E0224611496B
:1011F000114804F057FE0E48143002F030FC0FE0A6
:101200000E480088401C0D49088022460C490D48B4
:1012100004F048FE0648163002F021FC00E000BF52
:1012200000BF10BD00680040000A0020440C0020F0
:1012300088040020FC0A0020E00A0020F6010020BB
:10124000380B00201C0B002000B58BB001210220C0
:1012500003F05AFD0121880603F066FD09220C21E6
:10126000354801F049FC09220D21334801F044FCC6
:101270004FF44050029002208DF80C0002A92E4835
:1012800001F0F2FB40208DF8040001208DF80500EC
:1012900000208DF8060001208DF8070001A802F05B
:1012A000D5FE264800F0DEF808A800F016FB002066
:1012B0008DF826008DF827008DF828008DF829007C
:1012C0008DF82A0001208DF82B0000208DF82200D7
:1012D0008DF8230008208DF8240003208DF82500C8
:1012E000ADF8200008A9154800F0F5F90E208DF89A
:1012F0001A0000208DF81B0001208DF81C00002032
:10130000ADF81000ADF81200ADF81400ADF81600FD
:10131000ADF8180001208DF81D0004A800F0BEF8FB
:1013200001220221054800F0CDF9012211460348AF
:1013300000F0C8F90BB000BD000402400068004096
:1013400000B585B00221064800F02CF930B1022129
:10135000034800F033F86846FFF7F6FE05B000BD1D
:101360000068004030B585B004460D4640F2FF10DD
:10137000009000208DF808008DF8090008208DF8F5
:101380000A00200A8DF80B00E1B28DF80C10290A32
:101390008DF80D10E9B28DF80E1000218DF80F10A8
:1013A0008DF810108DF811108DF812106946024852
:1013B00000F0A3FA05B030BD00680040B1F5007F31
:1013C0003AD00FDC202928D006DC01291CD00429C2
:1013D0001DD0082940D11DE0402921D0B1F5807FE2
:1013E0003AD126E0B1F5004F31D006DCB1F5806F7F
:1013F00025D0B1F5006F2FD124E0B1F5803F12D098
:10140000B1F5003F28D111E0154A826025E008229D
:10141000C26022E01022C2601FE0082202611CE0CC
:101420001022026119E00822426016E01022426098
:1014300013E00422426010E0042242600DE0042226
:1014400042600AE0002282610422426005E000223C
:1014500082610422426000E000BF00BF70470000CC
:101460000101010010B504460B48844209D1012155
:10147000480603F069FC00214FF0007003F064FCA3
:1014800008E00121880603F05FFC00214FF0806036
:1014900003F05AFC10BD00000064004010B50021AC
:1014A000837A012202FA03F13D4A126842F00102F6
:1014B0003B4B1A603A4A1C3212688A43384B1C3341
:1014C0001A60027BCAB9364A0C3212688A43344B1E
:1014D0000C331A604288C38842EA0343304A4032E0
:1014E000847A42F834300288838842EA03432C4AE3
:1014F0004032847A02EBC4025360027B012A19D184
:10150000274A0C3212680A43254B0C331A60428872
:10151000038842EA0343224A4032847A42F8343054
:10152000C288838842EA03431D4A4032847A02EB30
:10153000C4025360C27A3AB9194A121D12688A432A
:10154000174B1B1D1A6006E0154A121D12680A434C
:10155000134B1B1D1A60028932B9114A14321268EA
:101560008A430F4B14331A600289012A06D10C4AB0
:10157000143212680A430A4B14331A60427B012A60
:1015800006D1074A1C3212680A43054B1C331A6005
:10159000034A126822F00102014B1A6010BD0000DC
:1015A0000066004070B504460D460026606928407C
:1015B000002871D0B5F5807F5CD010DC082D35D0C7
:1015C00006DC012D20D0022D24D0042D72D127E07D
:1015D000102D31D0202D35D0402D6BD138E0B5F510
:1015E000004F60D009DCB5F5007F49D0B5F5806FBC
:1015F0004CD0B5F5006F5DD14FE0B5F5803F2DD0F3
:10160000B5F5003F56D12FE0A0682D4900F0A8FAAB
:10161000064651E0E068032100F0A2FA06464BE0DE
:10162000E068082100F09CFA064645E0E0681021D9
:1016300000F096FA06463FE02069032100F090FA98
:10164000064639E02069082100F08AFA064633E0B0
:101650002069102100F084FA06462DE06068082118
:1016600000F07EFA064627E06068102100F078FA64
:10167000064621E0A069012100F072FA06461BE04F
:10168000A069022100F06CFA064615E0A069042169
:1016900000F066FA06460FE00FE0A069702100F046
:1016A0005FFA064608E06068042100F059FA064631
:1016B00002E0FFE7002600BF00E00026304670BDD4
:1016C000010101001AB143690B43436102E0436920
:1016D0008B434361704730B50246002000231468F5
:1016E00024F002041460146844F00104146000E063
:1016F0005B1C546804F001041CB94FF6FF74A3424C
:10170000F6D1546804F001040CB900206CE08C7927
:10171000012C04D1146844F08004146003E01468C0
:1017200024F080041460CC79012C04D1146844F0B6
:101730004004146003E0146824F0400414600C7A40
:10174000012C04D1146844F02004146003E01468F0
:1017500024F0200414604C7A012C04D1146844F065
:101760001004146003E0146824F0100414608C7AF0
:10177000012C04D1146844F00804146003E01468D8
:1017800024F008041460CC7A012C04D1146844F0CD
:101790000404146003E0146824F0040414608C78DA
:1017A000A407CD7844EA05640D7944EA05444D79EF
:1017B00044EA05540D886D1E2C43D461146824F04E
:1017C00001041460002300E05B1C546804F0010471
:1017D0001CB14FF6FF74A342F6D1546804F0010423
:1017E0000CB1002000E0012030BD10B500F5D87329
:1017F00003EB01131B6803F004031372137A53B94C
:1018000000F5D87303EB01131B6840F2FF7404EA80
:101810005353136009E000F5D87303EB01131B6801
:101820006FF0604404EAD303536000F5D87303EB10
:1018300001131B6803F00203537200F5D87303EB26
:1018400001135B6803F00F03937200F5D87303EB89
:1018500001135B681B0AD37400F5D87303EB011303
:101860009B68D37200F5D87303EB01139B681C0AC5
:10187000147300F5D87303EB01139B681C0C5473AD
:1018800000F5D87303EB01139B681B0E937300F5EF
:10189000D87303EB0113DB68D37300F5D87303EB44
:1018A0000113DB681C0A147400F5D87303EB0113F1
:1018B000DB681C0C547400F5D87303EB0113DB6870
:1018C0001B0E937421B9C36843F02003C36003E087
:1018D000036943F02003036110BD00218171C171D0
:1018E000017241728172C1728170C17003210171F4
:1018F0000221417101210180704710B5024600208C
:10190000936803F08063B3F1806F00D110E09368B7
:1019100003F00063B3F1006F01D1012008E0936888
:1019200003F08053B3F1805F01D1022000E0042076
:10193000042874D002F5C07303EB00131B6803F096
:10194000010402F5C07303EB00131C600B7A7BB932
:101950004B7A0C8843EA445302F5C07404EB00143C
:101960002468234302F5C07404EB0014236010E0E4
:101970000B7A4C6843EAC4034C7A234302F5C074E3
:1019800004EB00142468234302F5C07404EB001434
:1019900023608B7A03F00F038B7202F5C07303EBA5
:1019A00000135B6823F00F0402F5C07303EB001310
:1019B0005C6002F5C07303EB00135B688C7A234311
:1019C00002F5C07404EB001463608B7B1C064B7B38
:1019D00044EA03440B7B44EA0323CC7A234302F515
:1019E000C07404EB0014A3608B7C1C064B7C44EA9F
:1019F00003440B7C44EA0323CC7B234302F5C074ED
:101A000004EB0014E36002F5C07303EB00131B68E2
:101A100043F0010402F5C07303EB00131C6010BD1A
:101A2000DFED0D0AB4EEE00AF1EE10FA04DDDFEDB1
:101A30000A0AC0ED000A0DE0DFED080AB4EEE00A84
:101A4000F1EE10FA04D2DFED050AC0ED000A01E064
:101A500080ED000A704700000020B2450080D4C429
:101A60003748006840F63811081A01EE100AB8EE3F
:101A7000C11AB0EE410A3248406932490968081A71
:101A800001EE100AB8EEC11AF0EE410A9FED2E1ACF
:101A900020EE011A9FED2D2AC1EE021A2C4890ED7E
:101AA000031AB1EE411A31EE611A2A4880ED001A8C
:101AB000274890ED041AF0EE081A31EE611A254815
:101AC00080ED011A9FED201A20EE811ADFED1F1A1A
:101AD00081EE212A1E4890ED051A32EE011A1D48AA
:101AE00080ED021A90ED021ADFED1B1AB4EEE11A36
:101AF000F1EE10FA06DD90ED021ADFED131A31EE69
:101B0000611A02E0134890ED021A124880ED021AA1
:101B100090ED021ADFED111AB4EEE11AF1EE10FAAF
:101B200006D290ED021ADFED081A31EE211A02E01A
:101B3000084890ED021A074880ED021A704700002D
:101B4000F8050020F40500200000B4430000004622
:101B50006C0D0020C00A002000003443000034C394
:101B60000246002002EA01030BB1012000E0002040
:101B70007047000010B5002410E0234901EB440039
:101B800001F058FF204B203B33F814204033191943
:101B9000203B33F8140001F056FF641C102CECDBE2
:101BA0001948203890F84000012807D117490860EB
:101BB0000020174908800A2004F068F904240EE088
:101BC00011482030005D012808D1801E0F490860AF
:101BD00020B20F4908800A2004F058F9641C102C28
:101BE000EEDB0948203890F8410001280AD100F0C6
:101BF000C1FF012803D1032004F048F902E00920C5
:101C000004F044F910BD000080040020B40400205A
:101C1000B004002010B595480068401C9349086046
:101C2000084600684FF47A71B0FBF1F201FB120034
:101C300030B98F4800888F49088000208C4908807F
:101C40008D4801F09DFEFFF795FF00BF002407E0DF
:101C500004EB4401894A02EB4100FFF7B3F8641C2E
:101C6000102CF5DB05F036F900F084FF0B2831D29B
:101C7000DFE800F03106A8F1B6C8F2DAE3F3F000CD
:101C80007A480068B0F5967F24D903F001F9002066
:101C900004F0FCF840F638107949C8604969794A7F
:101CA0001268511A4FF4616201FB02F0C11700EB98
:101CB000D141491300EE101AB8EEC00A7249D1EDB5
:101CC000050AB2EE041A00EE810ABDEEC00A6C49A4
:101CD00081ED080AC2E005F0B9FB6B48B0F90600D7
:101CE000002803DD6848B0F9060003E06648B0F953
:101CF00006004042142862DA6348B0F90A0000285E
:101D000003DD6148B0F90A0003E05F48B0F90A005A
:101D10004042142853DA5C4890ED030ADFED5B0A79
:101D200060EE200A9FED5A1A80EE810ADFED590A13
:101D300070EE200A524890ED030AB8EEC00A30EE69
:101D4000600AB5EEC00AF1EE10FA16DD4E4890EDCD
:101D5000030ADFED4E0A20EE200ADFED4D0A80EE89
:101D6000201A9FED4C0A71EE000A454890ED030AD7
:101D7000B8EEC00A30EE600A17E0434890ED030A5F
:101D8000DFED420A60EE200A9FED411A80EE810AE3
:101D9000DFED400A70EE200A394890ED030AB8EEF4
:101DA000C00A30EE600AB1EE400ADFED3B0AB4EE45
:101DB000E00AF1EE10FA02D2022004F067F804F013
:101DC0002BF94BE001F076FA012802D1042004F04F
:101DD0005DF805F03BFB01F0E1FB04F01DF93DE08F
:101DE00004F028FC05F032FB03F0CEF92B48D0EDCF
:101DF000000AB0EE600AFEF70BFE01F0CFFB04F024
:101E00000BF92BE004F016FC05F020FB03F0BCF905
:101E10002248D0ED000AB0EE600AFEF7F9FD01F0AD
:101E2000BDFB04F0F9F819E0FEF7ACFB05F00EFB82
:101E300003F0AAF901F0B2FB10E000F07BFA05F024
:101E400005FB03F0A1F901F0A9FB07E002E004E0C3
:101E500002E000E002E001E000E000BF00BF01F0AE
:101E600055F9FFF7FDFD01F0D5FE10BD140400206B
:101E7000F6010020F801002010040020A40C00202E
:101E8000F8050020F40500206C0D0020000000463D
:101E90000000B4430080134500004842C00A0020FF
:101EA0002DE9F0413C493D4800F0B6F9002871D0D9
:101EB0004FF08151394800F09DF83749374800F01C
:101EC000B3F8374801F0CBFD364800785A280DD1D9
:101ED00034484078A52809D1002404E03149085D40
:101EE00002F056FD641C222CF8DB48E02E4890F8E6
:101EF00021005A2805D12B480078A52801D1212698
:101F00000EE000250AE02848405D5A2805D1264900
:101F1000681C085CA52800D12E466D1C222DF2DB22
:101F2000002405E0A0192049085C20490855641CDC
:101F3000C6F12200A042F5DC002707E01948C15D88
:101F400007F12200801B194A11547F1CB742F5DBB0
:101F5000002404E01348005D13490855641C222C3A
:101F6000F8DB4FF0000806E0104911F8080002F015
:101F70000FFD08F10108B8F1220FF5DB00BF0C4896
:101F800006F018F80A48801D06F01EF808480C30C4
:101F900006F006F8BDE8F0810080201040600240A5
:101FA00080040020040D0020260D0020480D002094
:101FB0006C0D00207047000010B50A490A4800F077
:101FC0002BF970B14FF08151074800F013F8054923
:101FD000054800F029F8054803F078F8044801F0B6
:101FE0003EFD10BD0080201040640240100800201B
:101FF000820400200246094B9A4201D2084801E0BF
:102000000648103801F000531BB1064B0B40C3606B
:1020100002E0044B0B4083607047000010640240F4
:10202000006002407D0F7D0F0246094B9A4201D2AB
:10203000084801E00648103801F000531BB1064B78
:102040000B40C36002E0044B0B408360704700000C
:1020500010640240006002407D0F7D0F21B10268D4
:1020600042F00102026003E0026822F00102026015
:1020700070470000016821F001010160002101604A
:1020800041608160C1600161212141614A4988420A
:1020900004D13D21484A103A91608CE046491831FC
:1020A000884205D14FF47461434A103A916082E04E
:1020B00041493031884205D14FF474113E4A103AFB
:1020C000916078E03C494831884205D14FF0746115
:1020D000394A103A91606EE037496031884204D144
:1020E0003649354A103AD16065E033497831884243
:1020F00004D13349304A103AD1605CE02E49903126
:10210000884204D12F492C4A103AD16053E02A4921
:10211000A831884205D14FF03D51274A103AD1608D
:1021200049E02949884204D13D21274A083A1160F3
:1021300041E025491831884205D14FF47461224AA3
:10214000083A116037E020493031884205D14FF418
:1021500074111D4A083A11602DE01B49483188422C
:1021600005D14FF07461184A083A116023E016490E
:102170006031884204D11149134A121F11601AE0DC
:1021800011497831884204D10D490F4A121F11605C
:1021900011E00D499031884204D10A490A4A121FC0
:1021A000116008E00849A831884204D14FF03D5140
:1021B000054A121F11607047106002403D00002068
:1021C000400F002000003D201064024021B1026851
:1021D00042F48022026003E0026822F4802202605E
:1021E000704722B1036843F40023036003E00368EF
:1021F00023F400230360016170470146486880B200
:102200007047014600200A6802F400220AB101204A
:1022100000E000207047000070B502460020002456
:102220000025124EB24201D2114B01E00F4B103B80
:10223000104E0E4036B11E2606EAD124166806EA74
:10224000040502E0566906F0800501F000560EB163
:102250005C6800E01C68084E344004EA010616B1D0
:102260000DB1012000E0002070BD000010640240AC
:10227000006002403C0F3C0F7D0F7D0F10B501F058
:1022800080034BB122B1436943F08003436103E013
:10229000436923F08003436180290BD02AB103688E
:1022A00001F01E042343036004E0036801F01E04F0
:1022B000A343036010BD000010B500220268134B59
:1022C0001A40CC680B6823434C6923438C69234331
:1022D000CC6923430C6A23434C6A23438C6A23430F
:1022E0004C6B23438C6B23431A430260426922F0F8
:1022F0000702D1E90B3423431A4342610B6943605F
:102300004B6883608B68C36010BD00003F801CF089
:102310000021016041608160C160016141618161B2
:10232000C161016241628162C16201634163816393
:102330007047704710B5002013E09FED350A10EE8E
:10234000101A00EB4012334B03EB420251609FED39
:10235000320A10EE101A00EB401203EB4202116237
:10236000401C0428E9DB2D48007806284ED2DFE81F
:1023700000F0030A121A222A00F0A6F8012801D15F
:102380002649087042E000F04FF8012802D10220EF
:10239000224908703AE000F0E1F8012802D1032058
:1023A0001E49087032E000F08FF8012802D10420A5
:1023B0001A4908702AE000F037F8012802D10520F8
:1023C0001649087022E000F0C9F801281DD100204C
:1023D0001249087000BF13E09FED110A10EE101AA9
:1023E00000EB40120B4B03EB420251609FED0D0AD4
:1023F00010EE101A00EB401203EB42021162401C77
:102400000428E9DB042003F041FD00BF00BF10BD3C
:102410003E0AD73D640000206E43D14749000020AA
:10242000295C0F3D49828B4700B500202349088075
:1024300023490880012003F063FC002003F010FC16
:10244000012003F05DFC012835D1002003F008FCD9
:10245000012830D12320194908800020184908801C
:102460001848807801280AD11648C078012806D17A
:1024700000201249088012490880012000BD11483F
:10248000807850B90F48C078012806D100200B4948
:1024900008801E200A4908800DE00A48807801283B
:1024A00009D10848C07830B90020044908806FF08D
:1024B0001D00034908800020E0E70000C201002061
:1024C000C6010020CE07002000B50020204908806A
:1024D0002049088003F014FC002003F0C1FB002019
:1024E00003F00EFC012831D1002003F0B9FB0128D4
:1024F0002CD128201649088017480078012809D1D6
:1025000015484078012805D100200880114908802D
:10251000012000BD1048007850B90F4840780128CC
:1025200006D100200A4908801E200A4908800DE0D3
:1025300009480078012809D10748407830B90020BF
:10254000034908806FF01D00024908800020E0E781
:10255000C2010020C6010020CE07002000B50020E7
:102560001F4908801F490880012003F0C9FB012092
:1025700003F076FB012003F0C3FB01282ED103F00A
:102580006FFB01282AD11848006818B9174800685D
:10259000154908605A201249088000201149088016
:1025A0001248006810490968401A642805D90020BB
:1025B00003F0A6FB002003F053FB0C4800680A4917
:1025C0000968401AB0F5966F08D9002004490880C0
:1025D0000449088004490860012000BD0020FCE790
:1025E000C2010020C6010020600000201404002069
:1025F00010B5102000F018F8012807D101F032FAC8
:10260000102000F005F8102000F008F810BD0000C0
:102610000149086070470000143C0140014908600E
:1026200070470000143C0140014600200022074B87
:102630001B6803EA0102054B14331B680B4013B1FE
:102640000AB1012000E0002070470000003C01407A
:1026500010B52DED0A8B8CB004462069002801DDF1
:10266000206901E0206940426169002901DD61695A
:1026700001E0616949420144A069002801DDA069C7
:1026800001E0A06940420144E069002801DDE06901
:1026900001E0E0694042084400EE100AB8EEC08A4A
:1026A0002068002801DD206801E020684042616860
:1026B000002901DD616801E0616849420144A068C8
:1026C000002801DDA06801E0A06840420144E06804
:1026D000002801DDE06801E0E0684042084400EEC7
:1026E000100AF8EEC08A0020089009900A900B901A
:1026F0000490059006900790B5EEC08AF1EE10FAAE
:1027000002DDB0EE480A01E0B1EE480A10EE101A00
:10271000084606F09BFA41EC190B9FEDCA0B53ECEF
:10272000102B06F063F810D29FEDC80A8DED080A51
:102730009FEDC60A8DED090A9FEDC40A8DED0A0AC8
:102740009FEDC20A8DED0B0A27E094ED040AB8EE66
:10275000C00A20EE280AC0EE080ACDED080A94ED62
:10276000050AB8EEC00A20EE280AC0EE080ACDED30
:10277000090A94ED060AB8EEC00A20EE280AC0EE57
:10278000080ACDED0A0A94ED070AB8EEC00A20EE59
:10279000280AC0EE080ACDED0B0ADDED080A94ED1B
:1027A000000AB8EEC00A30EEC00A8DED040ADDED75
:1027B000090A94ED010AB8EEC00A30EEC00A8DEDA8
:1027C000050ADDED0A0A94ED020AB8EEC00A30EE01
:1027D000C00A8DED060ADDED0B0A94ED030AB8EE92
:1027E000C00A30EEC00A8DED070A9DED040A10EE16
:1027F000101A084606F02AFA41EC1C0B9FED940BC8
:1028000053EC102B06F02EF841EC1A0B924890ED89
:10281000000A10EE101A084606F018FA41EC1B0BDD
:1028200053EC1A2B05F07CFD41EC190B05F046FD2D
:10283000894908609DED040A10EE101A084606F05A
:1028400005FA41EC1C0B9FED820B53EC102B06F0AC
:1028500009F841EC1A0B804890ED000A10EE101AAE
:10286000084606F0F3F941EC1B0B53EC1A2B05F06C
:1028700057FD41EC190B05F021FD774908609DEDEE
:10288000040A10EE101A084606F0E0F941EC1C0BA1
:102890009FED6F0B53EC102B05F0E4FF41EC1A0B8E
:1028A0006D4890ED000A10EE101A084606F0CEF9B9
:1028B00041EC1B0B53EC1A2B05F032FD41EC190BCC
:1028C00005F0FCFC644908609DED040A10EE101A46
:1028D000084606F0BBF941EC1C0B9FED5D0B53EC79
:1028E000102B05F0BFFF41EC1A0B5B4890ED000A7E
:1028F00010EE101A084606F0A9F941EC1B0B53EC38
:102900001A2B05F00DFD41EC190B05F0D7FC5249CF
:102910000860002032E0504901EB800191ED000A8F
:10292000DFED4E0AB4EEE00AF1EE10FA02DD9FEDA3
:102930004B0A04E0484901EB800191ED000A464949
:1029400001EB800181ED000A434901EB800191ED2B
:10295000000ADFED430AB4EEE00AF1EE10FA02D20B
:102960009FED3F0A04E03C4901EB800191ED000A34
:10297000394901EB800181ED000A401C0428CADBC3
:10298000354890ED000ADDED040AB0EE081A00EEBD
:10299000810ABDEEC00A8DED000A90ED010ADDED61
:1029A000050AB0EE081A00EE810ABDEEC00A8DEDF0
:1029B000010A90ED020ADDED060AB0EE081A00EEFB
:1029C000810ABDEEC00A8DED020A90ED030ADDED2D
:1029D000070AB0EE081A00EE810ABDEEC00A8DEDBE
:1029E000030A002017E05DF82010B1F57A6F02DDD0
:1029F0004FF47A6101E05DF820104DF820105DF889
:102A0000201011F57A6F01DA164901E05DF8201007
:102A10004DF82010401C0428E5DB206C0099084488
:102A20002064606C019908446064A06C02990844B9
:102A3000A064E06C03990844E0640CB0BDEC0A8B20
:102A400010BD00009A9999999999B93F000000002A
:102A50007B14AE47E17A843F500A002000007A449C
:102A600000007AC460F0FFFFF0B50A4600210023A1
:102A7000002400BF3DE0012505FA01F3156805EAD1
:102A800003049C4234D105684F000326BE40B54381
:102A9000056015794E00B540066835430560157927
:102AA000012D02D01579022D16D185684F0003261D
:102AB000BE40B543856055794E00B54086683543C4
:102AC0008560456801268E40B54345604568967926
:102AD0008E40B6B235434560C5684F000326BE4000
:102AE000B543C560D5794E00B540C6683543C5606D
:102AF000491C1029BFD3F0BDF0B5002300244D07B9
:102B0000ED0E02FA05F3CE1000F1200555F826501F
:102B10004E07F70E0F26BE40B543CF1000F120063A
:102B200046F82750CE1000F1200555F8265045EA0A
:102B30000304CE1000F1200545F82640F0BD024602
:102B4000002013690B400BB1012000E0002070470A
:102B500041837047018370474FF6FF710160002188
:102B6000017141718171C171704742694A4042618E
:102B7000704700000148007870470000F401002011
:102B800030B5034613B94FF6FF7030BD09E013F8B6
:102B9000014B82EA0400C0B2054D35F8100080EA0E
:102BA00022220800A1F10101F1D11046EDE7000059
:102BB000448E000830B5034605E013F8010B80EAA7
:102BC00002040448025D0800A1F10105A9B2F4D194
:102BD000104630BD438D000800BFFEE710B5044627
:102BE00000F0B0F82CB14FF400710D48FFF7B2FFC0
:102BF00004E04FF400710A48FFF7AAFF4FF4807118
:102C00000748FFF7A7FF012000F00CF84FF4807190
:102C10000348FFF79DFF012000F004F810BD0000FD
:102C20000004024010B5002106E0062200BF130098
:102C3000A2F10102FBD1491C8142F6D310BD000074
:102C400070B5002400F068F800251BE04FF4807197
:102C50001148FFF77DFF0120FFF7E4FF4FF480717B
:102C60000D48FFF777FF6006040E4FF400710A4825
:102C7000FFF765FF08B1601CC4B20120FFF7D2FF67
:102C8000681CC5B2082DE1DB4FF480710248FFF7E4
:102C90005FFF204670BD0000000402402DE9F041B6
:102CA00006460F461446984600F060F8304600F09D
:102CB000CBF800F09BF8FF2801D1BDE8F081384641
:102CC00000F0C2F800F092F8FF2800D1F5E700F01C
:102CD0004DF8711CC8B200F0B7F800F087F8FF2873
:102CE00000D1EAE7002508E0FFF7AAFF20700020E6
:102CF000FFF774FF641C681CC5B2A8F10100A8426C
:102D0000F2DCFFF79DFF20700120FFF767FF00F066
:102D10004DF80020D1E700001CB54FF40070009082
:102D200000208DF804008DF806008DF807000220C1
:102D30008DF8050069460248FFF796FE1CBD0000AD
:102D4000000402401CB54FF40070009001208DF883
:102D500004008DF8060003208DF80500694602483E
:102D6000FFF782FE1CBD00000004024010B5FFF713
:102D7000E9FF4FF400710C48FFF7ECFE4FF480714F
:102D80000948FFF7E7FE0120FFF74CFF4FF4007101
:102D90000548FFF7DDFE0120FFF744FF4FF4807187
:102DA0000148FFF7D5FE10BD0004024010B5FFF743
:102DB000C9FF4FF480710C48FFF7CAFE4FF4007151
:102DC0000948FFF7C5FE0120FFF72CFF4FF4807183
:102DD0000548FFF7BFFE4FF400710348FFF7BAFE46
:102DE0000120FFF71FFF10BD0004024010B54FF493
:102DF0007A744FF400711348FFF7ACFEFFF78CFFB5
:102E00000120FFF70FFF4FF480710E48FFF7A2FE7D
:102E10000120FFF707FF07E0601E80B2040003D027
:102E2000FFF7C4FFFF2010BD4FF400710548FFF706
:102E300086FE0028F0D14FF480710248FFF788FE2B
:102E40000020F0E70004024070B50446FFF77AFF67
:102E50004FF480711448FFF77BFE002521E004F059
:102E6000800028B14FF400710F48FFF773FE04E0B3
:102E70004FF400710C48FFF76BFE6006040E012052
:102E8000FFF7D0FE4FF480710748FFF763FE012083
:102E9000FFF7C8FE4FF480710348FFF759FE681C26
:102EA000C5B2082DDBDB70BD000402403448807CD5
:102EB00000F00100334988703148807CC0F3400144
:102EC000304801722E48807CC0F380012D48817308
:102ED0002B48807CC0F3C0012A4801752848807CBB
:102EE000C0F30011274881762548807CC0F340114B
:102EF000244880F820102248807CC0F380112148AB
:102F000080F826101E48807CC1091E4880F82C10CD
:102F10001B48C07C00F001011A4880F832101848A4
:102F2000C07CC0F34001174880F838101448C07CBA
:102F3000C0F38001134880F83E101148C07CC0F3F4
:102F4000C001104880F844100D48C07CC0F3001147
:102F50000C4880F84A100A48C07CC0F34011094868
:102F600080F850100648C07CC0F38011054880F8F6
:102F700056100348C07CC109024880F85C107047B5
:102F8000B8070020A40C002010B5424800780A2899
:102F900030DA4048007800282CDD3F4800684FF4C4
:102FA0001661B0FBF1F201FB12003A4909784900C1
:102FB000C1EB011101EB8101B0EB410F27D836487D
:102FC00000684FF41661B0FBF1F201FB120020B96A
:102FD00002213248FFF7BEFD19E02F480068962114
:102FE000B0FBF1F201FB120088B902212B48FFF778
:102FF000BCFD0CE0274800780A2804DB02212748A2
:10300000FFF7A6FD03E002212448FFF7A3FD2448B3
:1030100000780A2830DA2248007800282CDD1E4883
:1030200000684FF41661B0FBF1F201FB12001C497D
:1030300009784900C1EB011101EB8101B0EB410FAF
:1030400027D8154800684FF41661B0FBF1F201FB78
:10305000120020B901211148FFF77CFD19E00E484C
:1030600000689621B0FBF1F201FB120088B9012142
:103070000A48FFF77AFD0CE0094800780A2804DBCB
:1030800001210648FFF764FD03E001210348FFF733
:1030900061FD10BD5C040020140400200008024003
:1030A0005D0400200A2801DD0A2200E00246054BEB
:1030B0001A700A2901DD0A2200E00A46024B1A7042
:1030C000704700005C0400205D0400201CB5012155
:1030D000042001F019FE0320009001208DF8040067
:1030E00000208DF8060003208DF80500694606488B
:1030F000FFF7BAFC02210448FFF72CFD012102482A
:10310000FFF728FD1CBD00000008024010B559481B
:1031100000689621B0FBF1F201FB1200002877D184
:10312000FFF728FD0B280BD2DFE800F00B06107824
:10313000151A7D1F249B29000A210846FFF7B2FFBC
:1031400094E009210846FFF7ADFF8FE0092108460A
:10315000FFF7A8FF8AE000210120FFF7A3FF85E029
:1031600000210120FFF79EFF80E000210120FFF7F2
:1031700099FF7BE000210120FFF794FF76E03E48B5
:1031800000880E2804D10A210320FFF78BFF44E0BA
:10319000394800880F2804D10A210420FFF782FF54
:1031A0003BE03548008804280BD0334800880528C8
:1031B00007D031480088062803D02F480088072808
:1031C00004D10A210220FFF76DFF26E02A4800887B
:1031D0000A280BD0284800880B2807D026480088EA
:1031E0000C2803D0244800880D2804D10A2101208E
:1031F000FFF758FF11E020480088092803D01E4837
:103200000088082805D10A210520FFF74BFF04E0BC
:103210002FE00A210620FFF745FF27E0012108469D
:10322000FFF740FF22E0134800684FF41661B0FB3F
:10323000F1F201FB120020B90A210020FFF732FF52
:103240000EE00C48006800F596604FF41661B0FB84
:10325000F1F201FB120018B900210A20FFF722FF4A
:1032600004E001210846FFF71DFF00BF00BFFFF784
:103270008BFE10BD14040020B00400201CB50121F9
:10328000042001F041FD2020009001208DF8040071
:1032900000208DF8060003208DF8050069460448DB
:1032A000FFF7E2FB20210248FFF752FC1CBD0000A3
:1032B000000802406148007820B1012836D0022879
:1032C00033D162E09FED5E0A10EE100A5D4948605E
:1032D0009FED5B0A10EE100AC1F846009FED580AF8
:1032E00010EE100AC1F888009FED550A10EE100A82
:1032F000C1F8CA0046205449086348638863C8631C
:103300000846006A1E2810DD0846406A1E280CDDAB
:103310000846806A1E2808DD0846C06A1E2804DDAB
:103320000120464908704949087083E09FED480A2A
:1033300010EE100A434948609FED460A10EE100A4D
:10334000C1F846009FED430A10EE100AC1F888004C
:103350009FED400A10EE100AC1F8CA003E483A49F3
:10336000086348638863C86308460068496808447E
:103370003549896808443449C968084410F1190F6F
:1033800002DA02202D49087054E02F4800682E49C7
:10339000496808442C49896808442B49C96808448D
:1033A00000280BDD28480068274949680844264959
:1033B000896808442449C96808440BE02248006829
:1033C0002149496808442049896808441E49C96858
:1033D000084440420A282CDA00202049C8820021F3
:1033E0001E48C185A0F84610A0F85E1000201649BE
:1033F000086348638863C8639FED150A10EE100ADE
:10340000104948609FED120A10EE100AC1F84600FC
:103410009FED0F0A10EE100AC1F888009FED0C0A0C
:1034200010EE100AC1F8CA000020084908700120F7
:10343000704700BF00BF0020FAE700001A04002018
:10344000CDCCCC3D02030020600A00201B040020EC
:10345000CDCC4C3D00000000F0D8FFFFE40B002075
:103460004749097801297DD1464991ED000AB1EE1D
:10347000400AD1ED010A70EE600A90ED000A9FED5E
:10348000421A01EE200A80ED000A91ED000AB1EE29
:10349000400AD1ED010A70EE200A90ED010A9FED7D
:1034A0003A1A01EE200A80ED010A91ED000AD1EDF1
:1034B000010A70EE600A90ED020A9FED331A01EEE8
:1034C000200A80ED020A91ED000AD1ED010A70EEAA
:1034D000200A90ED030A9FED2C1A01EE200A80EDE0
:1034E000030A91ED000AB1EE400AD1ED010A30EE77
:1034F000600ADFED250A20EE200ABDEEC00A10EEBC
:10350000101A09B2214A11801E4991ED000AB1EE4C
:10351000400AD1ED010A30EE200ADFED1B0A20EE51
:10352000200ABDEEC00A10EE101A09B2184A118026
:10353000144991ED000AD1ED010A30EE600ADFED89
:10354000120A20EE200ABDEEC00A10EE101A09B2CF
:10355000104A11800B4991ED000AD1ED010A30EEBD
:10356000200A00E00AE0DFED080A20EE200ABDEEA6
:10357000C00A10EE101A09B2074A11807047000005
:103580001B040020C00A00200000824250040020DA
:1035900052040020540400205604002010B52DEDE4
:1035A000048BFFF7E7FA042872D1EE48007A01286D
:1035B000FAD1ED4800680A21B0FBF1F201FB1200DC
:1035C0000028F1D1E748407A012804D0022860D0D1
:1035D00003285CD1C6E0E349C988A1F5806101EB0D
:1035E0004101880005F0D7F89FEDE00B53EC102B5C
:1035F00004F04AFF05F0A0F800B2DE49096B084468
:10360000DC490863D749C988A1F5806101EB410114
:10361000880005F0C0F89FEDD50B53EC102B04F09B
:1036200033FF05F089F800B2D249496B0844D1490B
:103630004863CC49C988A1F5806101EB410188004C
:1036400005F0A9F89FEDC90B53EC102B04F01CFFFB
:1036500005F072F800B2C749896B0844C549886310
:10366000C049C988A1F5806101EB4101880005F0DE
:1036700092F89FEDBE0B53EC102B04F005FF05F004
:103680005BF800B2BB49C96B0844BA49C8636AE039
:103690006AE0B449C988A1F58061C1EBC10005F0B9
:1036A0007AF841EC190B9FEDB10B53EC102B04F0A1
:1036B000EBFE41EC180B05F03FF800B2AD49096B89
:1036C0000844AC490863A749C988A1F58061C1EBEA
:1036D000C10005F060F841EC190B9FEDA40B53EC11
:1036E000102B04F0D1FE41EC180B05F025F800B2C8
:1036F000A049496B08449F4948639A49C988A1F584
:103700008061C1EBC10005F046F841EC190B9FED5B
:10371000970B53EC102B04F0B7FE41EC180B05F09F
:103720000BF800B29349896B081A924988638D4956
:10373000C988A1F58061C1EBC10005F02CF841EC0E
:10374000190B9FED8A0B53EC102B04F09DFE41ECFE
:10375000180B04F0F1FF00B28649C96B081A8549BD
:10376000C86300E000BF00BFFFF704FA022857D08B
:103770008048006B1E2801DA1E2001E07D48006BA6
:103780007C4908630846006B40F29341884201DDA2
:10379000084601E07748006B764908630846406BAD
:1037A0001E2801DA1E2001E07248406B714948630F
:1037B0000846406B40F29341884201DD084601E033
:1037C0006C48406B6B4948630846806B1E2801DAE1
:1037D0001E2001E06748806B664988630846806B5D
:1037E00040F29341884201DD084601E06148806B68
:1037F000604988630846C06B1E2801DA1E2001E07C
:103800005C48C06B5B49C8630846C06B40F293419B
:10381000884201DD084601E05648C06B5549C8633F
:10382000544890ED081AB8EEC11AF0EE410A90ED36
:103830000C1AB8EEC11AB0EE410A4F4800F0C4FEAF
:10384000BDEEC00A4B4880ED040A90ED091AB8EEAF
:10385000C11AF0EE410A90ED0D1AB8EEC11AB0EEA1
:10386000410A4548423000F0AFFEBDEEC00A414873
:1038700080ED050A90ED0A1AB8EEC11AF0EE410A81
:1038800090ED0E1AB8EEC11AB0EE410A3A488430F3
:1038900000F09AFEBDEEC00A364880ED060A90EDB3
:1038A0000B1AB8EEC11AF0EE410A90ED0F1AB8EEFD
:1038B000C11AB0EE410A3048C63000F085FEBDEEB8
:1038C000C00A2C4880ED070A90ED001AB8EEC11A24
:1038D000F0EE410A90ED041AB8EEC11AB0EE410ABA
:1038E000264800F071FE234880ED100A90ED011A81
:1038F000B8EEC11AF0EE410A90ED051AB8EEC11A01
:10390000B0EE410A1D48423000F05EFE194880EDDD
:10391000110A90ED021AB8EEC11AF0EE410A90EDCC
:10392000061AB8EEC11AB0EE410A1448843000F00D
:103930004BFE104880ED120A90ED031AB8EEC11A42
:10394000F0EE410A90ED071AB8EEC11AB0EE410A46
:103950000A48C63000F038FE064880ED130ABDEC78
:10396000048B10BDB80700201404002000000000E4
:1039700000A08440600A0020FA0100200203002019
:1039800010B504462078012815D10B480088401C4A
:1039900009490880012002F0B3F9012804D0012070
:1039A00002F05EF9012806D10020207002F0A8F98B
:1039B000002002F055F910BD58040020B0EE401A66
:1039C000F7EE001AB0EE610AF0EE081A60EEA11AE6
:1039D000DFED152A81EEA22ADFED141A72EE211A0C
:1039E000B0EE610AF7EE001AB4EEE10AF1EE10FA59
:1039F00002DDF7EE001A01E0F0EE401AB0EE610AC7
:103A0000DFED0A1AB4EEE10AF1EE10FA02D2DFEDB0
:103A1000071A01E0F0EE401AB0EE610ADFED041A79
:103A2000B0EE610A7047000000004843CDCCCC3DA9
:103A30006666663F01884FF6FE72914202DA01889F
:103A4000491C01807047034602EB8200984202DA6B
:103A50000120087001E000200870087870470021FC
:103A6000018070471FB50E236A463B21D020FFF727
:103A700015F9FF2801D104B010BD9DF801009DF893
:103A8000001040EA012000B2584908809DF8030068
:103A90009DF8021040EA012000B2544948809DF888
:103AA00005009DF8041040EA012000B24F498880CB
:103AB0009DF807009DF8061040EA012000B24B492E
:103AC000C8809DF809009DF8081040EA012000B266
:103AD000464908819DF80B009DF80A1040EA012034
:103AE00000B2424948819DF80D009DF80C1040EA53
:103AF000012000B23D4988810846B0F9000000EE7F
:103B0000100AB8EEC00AB1EE400ADFED390A80EEC5
:103B1000201A384880ED001A0846B0F9020000EE7D
:103B2000100AB8EEC00AB1EE400ADFED310A80EEAD
:103B3000201A304880ED011A0846B0F9040000EE62
:103B4000100AB8EEC00ADFED2A0A80EE201A2948D2
:103B500080ED021A0846B0F9060000EE100AB8EE31
:103B6000C00A9FED251AC0EE010A9FED240A30EE2F
:103B7000800A204880ED030A0846B0F90800204971
:103B80000968401A00EE100AB8EEC00ADFED1D0AFF
:103B900080EE201A174880ED041A1448B0F90A0084
:103BA00019490968401A00EE100AB8EEC00AB1EED1
:103BB000400ADFED140A80EE201A0E4880ED051A47
:103BC0000A48B0F90C0011490968401A00EE100AC1
:103BD000B8EEC00AB1EE400ADFED0A0A80EE201A04
:103BE000044880ED061A002045E700007C0B002009
:103BF000000000468C0B00200000AA43B81E1242B1
:103C00006C0700200000834270070020740700202A
:103C100000BFFEE770B5FEF7ADFF0B287ED2DFE8F0
:103C200000F022064E7DBDFDFCFBFAF9F8000021F4
:103C30000846FDF72BFA00231A4619461846FDF7E9
:103C400051FA00231A4619461846FDF75FF9F6495E
:103C500091ED070ABDEEC00A10EE101A08B200215D
:103C6000FDF780FBDEE1F149C86800F074FFEF4921
:103C7000098A084404B2ED49486903F0E5F9EB49C3
:103C8000898C084405B221462846FDF7FFF9002338
:103C90001A4619461846FDF725FA00231A46194612
:103CA0001846FDF733F9E04991ED070ABDEEC00A69
:103CB00010EE101A08B20021FDF754FBB2E1DC4807
:103CC0000068401CDA4908604FF44870D949086020
:103CD000091D0860D848D0ED100AB0EE600AD74838
:103CE000FDF79EFED448D0ED110AB0EE600AD3482D
:103CF000001DFDF795FED048D0ED120AB0EE600A27
:103D0000CE480830FDF78CFECB48D0ED130AB0EE5C
:103D1000600ACA480C30FDF783FE00E06DE1C74839
:103D2000FFF79EFBC14A128A11B2C04A928C10B2B0
:103D3000FDF7ACF900231A4619461846FDF7D2F9EB
:103D4000BE4C94ED030ABDEEC00A10EE104A23B239
:103D5000BA4C94ED020ABDEEC00A10EE104A22B22F
:103D6000B64C94ED010ABDEEC00A10EE104A21B225
:103D7000B24C94ED000ABDEEC00A10EE104A20B21B
:103D8000FDF7C4F8A84991ED070ABDEEC00A10EE90
:103D9000101A08B20021FDF7E5FA43E1A34A128A9E
:103DA00011B2A24A928C10B2FDF770F9A44CE36CE8
:103DB000A26C616C206CFDF795F99F4C94ED130A91
:103DC000BDEEC00A10EE104A23B29B4C94ED120ACD
:103DD000BDEEC00A10EE104A22B2974C94ED110AC3
:103DE000BDEEC00A10EE104A21B2934C94ED100AB9
:103DF000BDEEC00A10EE104A20B2FDF787F8914AD6
:103E000092ED070ABDEEC00A10EE102A11B2864AE2
:103E100005E02FE058E0AEE06BE040E009E092ED15
:103E2000070ABDEEC00A10EE102A10B2FDF79AFA8A
:103E3000F8E07E4A128A11B27C4A928C10B2FDF7E9
:103E400025F97F4CE36CA26C616C206CFDF74AF99C
:103E500000231A4619461846FDF758F8724991EDA5
:103E6000070ABDEEC00A10EE101A08B20021FDF7D5
:103E700079FAD7E000210846FDF708F900231A4631
:103E800019461846FDF72EF900231A46194618461A
:103E9000FDF73CF800210846FDF764FAC2E0002176
:103EA0000846FDF7F3F800231A4619461846FDF7B1
:103EB00019F900231A4619461846FDF727F800217C
:103EC0000846FDF74FFAADE000210846FDF7DEF8A1
:103ED00000231A4619461846FDF704F900231A462E
:103EE00019461846FDF712F800210846FDF73AFA80
:103EF00098E04E49C86800F02EFE4C49098A0844F3
:103F000004B24A49486903F09FF84849898C08443B
:103F100005B221462846FDF7B9F8494CE36CA26C7E
:103F2000616C206CFDF7DEF8434C94ED130ABDEE96
:103F3000C00A10EE104A23B23F4C94ED120ABDEEB7
:103F4000C00A10EE104A22B23B4C94ED110ABDEEAD
:103F5000C00A10EE104A21B2374C94ED100ABDEEA3
:103F6000C00A10EE104A20B2FCF7D0FF002108462C
:103F7000FDF7F8F956E02D49C86800F0ECFD2B4933
:103F8000098A084404B22949486903F05DF82749C1
:103F9000898C084405B221462846FDF777F8284C5D
:103FA000E36CA26C616C206CFDF79CF8224C94EDE4
:103FB000130ABDEEC00A10EE104A23B21E4C94ED57
:103FC000120ABDEEC00A10EE104A22B21A4C94ED4D
:103FD000110ABDEEC00A10EE104A21B2164C94ED43
:103FE000100ABDEEC00A10EE104A20B2FCF78EFF98
:103FF00000210846FDF7B6F914E000210846FDF758
:1040000045F800231A4619461846FDF76BF80023B9
:104010001A4619461846FCF779FF00210846FDF7B5
:10402000A1F900BF00BF70BDFC0A0020F805002008
:104030002C0400203C040040600A0020B00A00204C
:10404000000A0020380B00207047000070B50021E6
:1040500000230F22C4781CB3174C246804F4E064D6
:10406000C4F5E064C4F30721C1F10404E3B20A41DA
:1040700044789C40E1B28478144021430C07210E1F
:104080000E4C05786155047804F01F050124AC40FE
:1040900005786D11AD0005F1E025C5F8004109E096
:1040A000047804F01F050124AC40054D0678761114
:1040B00045F8264070BD00000CED00E000E400E093
:1040C00080E100E002490143024A116070470000AC
:1040D0000000FA050CED00E070B506460024351D21
:1040E000A3E0285DC02840D012DCA52829D008DC38
:1040F00090281ED0A02821D0A12820D0A22877D196
:104100001EE0B02826D0B12825D0B228F7D123E070
:10411000D1287BD006DCC12828D0C22827D0D028BF
:10412000EDD12DE0D92865D0E02879D0F02879D1DB
:1041300074E0687840490870A41C75E000BF00BFB7
:1041400000BF29193D4851F8012F026089888180FC
:10415000E41D69E000BF00BF2919394851F8012F5B
:10416000026089888180E41D5EE000BF00BF2919DC
:10417000344851F8012F026089888180E41D53E0A2
:10418000601C295CA01C285C01EB002000B200EE42
:10419000100AB8EEC00ADFED2C0A80EE201A2B4878
:1041A00080ED001AE01C295C201D285C01EB00203A
:1041B00000B200EE100AB8EEC00ADFED230A80EE6E
:1041C000201A224880ED011A601D295CA01D285C80
:1041D00001EB002000B200EE100AB8EEC00AF2EEC9
:1041E000040A80EE201A194880ED021AE41D1BE033
:1041F00018E00BE02919154851F8012F02604A68B0
:104200004260896881600D340EE009E02819411C84
:1042100010220F48FCF749F8113405E0641D03E053
:10422000641D01E0641C00BF00BFB6F88400A0421A
:104230003FF757AF70BD0000F8070020E6070020E9
:10424000EC070020F20700200000C842100E0020FA
:104250001C0E00200021F7EE000AB0EE600AD0E943
:1042600004239A4201DD026900E042691146826935
:104270008A4201DA0A4600E082691146C2698A422E
:1042800001DA0A4600E0C269114600EE901AF8EE23
:10429000E00A9FED1D1AF4EEC10AF1EE10FA31DDCD
:1042A00000EE901AF8EEE00A9FED171AC1EE201A00
:1042B000B0EE610AD0ED040AF8EEE00A60EE800A82
:1042C000FDEEE00AC0ED040AD0ED050AF8EEE00AC2
:1042D00060EE800AFDEEE00AC0ED050AD0ED060AA8
:1042E000F8EEE00A60EE800AFDEEE00AC0ED060A94
:1042F000D0ED070AF8EEE00A60EE800AFDEEE00A73
:10430000C0ED070A7047000000D0044670B50546AE
:104310000C46FEF72FFC042803D0FEF72BFC0528E3
:1043200076D14648007800F001000028F8D14448D2
:104330008078D0B14348B0F90000B0F5257F0BDAA2
:104340004048B0F90000002806DB3E480088401CC9
:1043500000B23C49088029E03A48B0F90000002842
:1043600024DA00203749088020E03548007AD0B1AF
:104370003448B0F9000010F5257F0BDD3148B0F965
:104380000000002806DC2F480088401E00B22D499E
:1043900008800BE02B48B0F90000002806DD002063
:1043A0002849088002E00020264908802448007D32
:1043B000C8B12548B0F90000B0F5257F0BDA2248D6
:1043C000B0F90000002806DB1F480088401C00B23E
:1043D0001D49088029E0B4F90000002825DA0020F2
:1043E0001949088021E01648807BD8B11648B0F9F9
:1043F000000010F5257F0CDD1348B0F900000028FF
:1044000007DC11480088401E00B20F4908800CE00C
:1044100013E00D48B0F90000002806DD00200A492D
:10442000088002E00020084908800648B0F9000032
:1044300028800548B0F90000208070BD14040020D9
:10444000A40C0020E4010020E601002010B5524A2F
:1044500012784AB990ED000AB8EEC00A4F4A82EDD0
:10446000000A01224C4B1A704D4A12680A23B2FB13
:10447000F3F403FB1422002A77D14A4AB2F90A2046
:1044800000EE102AB8EEC00AF2EE0E0A20EE200A64
:10449000DFED450A80EE201A404A92ED000A30EE28
:1044A000410A82ED000A3F4AB2F90C2000EE102AC0
:1044B000B8EEC00AF0EE000A20EE200ADFED3B0A5B
:1044C00080EE201A3A4A92ED000A31EE000A82ED9F
:1044D000000A324A92ED000ADFED360AB4EEE00A35
:1044E000F1EE10FA06DD92ED000ADFED330A30EE50
:1044F000600A02E0294A92ED000A284A82ED000A89
:1045000092ED000ADFED2D0AB4EEE00AF1EE10FAAA
:1045100006D292ED000ADFED280A30EE200A02E012
:104520001E4A92ED000A1D4A82ED000A204A92EDD1
:10453000000ADFED230AB4EEE00AF1EE10FA02DD24
:104540009FED1F0A02E01A4A92ED000A184A82ED16
:10455000000A92ED000ADFED1B0AB4EEE00AF1EE6C
:1045600010FA03D29FED170A03E013E0104A92ED10
:10457000000A0F4A82ED000A084A92ED000ABDEED9
:10458000C00A80ED000A0A4A92ED000ABDEEC00A98
:1045900081ED000A10BD00003C0700203407002018
:1045A00014040020B807002000002042CDCC4C406D
:1045B000380700200000E144000061450000E1C42C
:1045C00000A02F4500C0EE44B0EE401A416900EE55
:1045D000101AB8EEC00AB4EEC10AF1EE10FA06D213
:1045E000416900EE101AB8EEC00AB0EE401A016937
:1045F00000EE101AB8EEC00AB4EEC10AF1EE10FADD
:1046000006DD016900EE101AB8EEC00AB0EE401ADD
:10461000816A416231EE600A10EE101A816271EE19
:10462000601AC16800EE101AF4EEC01AF1EE10FA2A
:1046300002DDC168816213E071EE601AC16800EEAC
:10464000101AB1EE400AF4EEC01AF1EE10FA07D2D9
:10465000C16800EE101AB1EE400A10EE101A816225
:1046600031EE600AB5EEC00AF1EE10FA02DD31EE6D
:10467000600A03E031EE600AB1EE400A816B01EEA0
:10468000901AF8EEE11AB4EEE10AF1EE10FA04D84D
:104690009FED570A10EE101A8162816A00EE101A1F
:1046A000C16A01EE901A9FED532A02EE210A10EE24
:1046B000101AC162816A00EE101A416A01EE901A66
:1046C00070EE611A816800EE101A21EE800A10EE79
:1046D000101A0163C16A00EE101A016A01EE901A05
:1046E000B4EEE10AF1EE10FA01DD016AC162C16ABD
:1046F00000EE101A016A01EE901AF1EE611AB4EEA2
:10470000E10AF1EE10FA07D2016A00EE101AB1EEDA
:10471000400A10EE101AC162816A00EE101A016898
:1047200001EE901A20EE210ABDEEC00A10EE101A1A
:1047300009B28187016B00EE101ABDEEC00A10EEBF
:10474000101A09B2C187C16A00EE101A416801EE61
:10475000901A20EE210ABDEEC00A10EE101A09B21E
:10476000A0F84010816A00EE101A016801EE901A5C
:1047700020EE212AC16A01EE901A416800EE101A5B
:1047800001EE802A016B00EE101A32EE000A10EEE4
:10479000101A4163416B00EE101AC16901EE901AC4
:1047A000F8EEE11AB4EEE10AF1EE10FA07DDC169A4
:1047B00000EE101AB8EEC00A10EE101A4163416BF9
:1047C00000EE101A816901EE901AF8EEE11AB4EECB
:1047D000E10AF1EE10FA07D2816900EE101AB8EE84
:1047E000C00A10EE101A4163416B00EE101A7047B8
:1047F0000000000077BE7F3F00B58BB00121022092
:1048000000F082FA0121084600F07EFA0121022020
:1048100000F08AFA0121082000F086FA03200990AE
:1048200002208DF8280003208DF8290009A954489A
:10483000FEF71AF9CC20099002208DF828000320F9
:104840008DF8290009A94F48FEF70EF90222002130
:104850004B48FEF751F9022201214948FEF74CF975
:10486000022206214748FEF747F902220721454860
:10487000FEF742F9022211464248FEF73DF90222B4
:1048800003214048FEF738F95320ADF81800002006
:10489000ADF81A0044F6206007900020ADF8200023
:1048A00006A9394801F084FE5320ADF81800002015
:1048B000ADF81A00642007900020ADF8200006A98A
:1048C000324801F075FE7020ADF804000120ADF80B
:1048D00006000020ADF808004FF47A700390022023
:1048E000ADF810000020ADF81200ADF814004FF440
:1048F0008070ADF8160001A9234801F00DFD01A953
:10490000214801F051FD01A91F4801F0ADFD01A9A9
:104910001D4801F003FE0020039001A91B4801F08F
:10492000A3FD01A9194801F0F9FD0821164801F07D
:1049300031FD0821144801F089FD0821124801F0D9
:10494000E3FD0821104801F025FE08210F4801F081
:10495000DBFD08210D4801F01DFE01210A4801F090
:10496000A3FC0121094801F09FFC0121064801F048
:10497000ADFC0121054801F0A9FC0BB000BD000011
:10498000000402400000024000040040000C00400F
:1049900010B504466148007807287DD2DFE800F0B2
:1049A000040A333D4D5363005A2C02D101205B4968
:1049B0000870B0E05A48006880F88840584800689D
:1049C00090F88800A52804D0A62806D0A72818D1DA
:1049D0000FE002205149087013E05248006820B1EE
:1049E0004F4800684F490968884700204B490870C4
:1049F00007E000204A490968086006204749087016
:104A000000BF00BF87E046480068A0F884404648E1
:104A100084700320414908707DE041480068B0F887
:104A2000840040EA04203E490968A1F884003E4819
:104A3000C4700420394908706DE03C4804800520AA
:104A40003649087067E03948008840EA0420374951
:104A5000088000203249096808603549088006202E
:104A60002E49087057E02E48006801682C480068FD
:104A70000068401C2A4A1268106029480068001D1E
:104A800044542748006890F88800A72813D1244888
:104A900000680068082800E039E00CD308202049AD
:104AA0000968A1F884001E4800681E490968884703
:104AB00000201A4908701A480068006818490968F7
:104AC000B1F88410884221D31548006890F8880016
:104AD000A5281BD104221449154803F0DDF910481C
:104AE000006802680E480168091D114803F0D4F9F6
:104AF0000F4800880D490988884204D10848006899
:104B000008490968884700200449087003E000202C
:104B10000249087000BF00BF002010BD0808002037
:104B200000080020FC0700200908002004080020DD
:104B30000608002070B504460D46044805608C2127
:104B40002046FBF7F7FB0248046070BDFC0700201D
:104B500000080020704701460020704770B52DED19
:104B6000088B06460C461546287BE97A40EA012068
:104B700000B22082204600F035F8B4F9100003F0AE
:104B80000AFE41EC1B0B9FED140B53EC102B03F0B2
:104B90007BFC41EC190BB4F9160000EE100AB8EEDC
:104BA000C00ADFED0F0A20EE200A10EE101A0846A8
:104BB00004F04CF841EC1A0B53EC192B03F0B0FB4A
:104BC00041EC180B03F0B8FDB4F9161000EBC1006E
:104BD0003060BDEC088B70BD0000000000408F40CD
:104BE0005C8F423E818A028A891A09B24182B0F9F9
:104BF000121041F25452914204DDC18A491C09B29B
:104C0000C18208E0B0F91210044A914203DAC18A65
:104C1000491E09B2C182018A81827047ACEAFFFF56
:104C20000B684A69D21A354B1A601A461268002A74
:104C300002DD1A46126802E0304A12685242062A21
:104C40000FDDB1F91020002A02DDB1F9102002E0D9
:104C5000B1F9102052420A2A03DA8269521C826199
:104C600001E0002383618269642A05D9027D1AB9B3
:104C700001220275224B1A70027D012A3CD1204A82
:104C80001278012A04D0022A11D0032A33D129E054
:104C90000A68503A1B4B1A601A4692ED000AB8EEA9
:104CA000400A80ED020A0222154B1A7023E0154AD1
:104CB00092ED000AB8EE400A80ED020A114B0A6834
:104CC0001B68D21A04D00F4B0A681B68D21A03E083
:104CD0000C4B0A681B689A1A282A02D20322084B36
:104CE0001A7008E000220275054B1A704288028093
:104CF0000023836100BF00BF70470000EC05002067
:104D0000F0050020D805002029B1064A12680243A8
:104D1000044B1A6004E0034A12688243014B1A6094
:104D2000704700003038024029B1064A1268024339
:104D3000044B1A6004E0034A12688243014B1A6074
:104D4000704700004038024029B1064A1268024309
:104D5000044B1A6004E0034A12688243014B1A6054
:104D6000704700002038024029B1064A1268024309
:104D7000044B1A6004E0034A12688243014B1A6034
:104D8000704700004438024029B1064A12680243C5
:104D9000044B1A6004E0034A12688243014B1A6014
:104DA0007047000024380240F0B5002100220024A2
:104DB000022500260223324F3F6807F00C0121B183
:104DC000042905D0082937D105E02E4F076036E0C9
:104DD0002D4F076033E02A4F3F1F3F68C7F38056CF
:104DE000274F3F1F3F6807F03F036EB1264FB7FBC9
:104DF000F3F7DFF88CC0ACF1040CDCF800C0CCF3A6
:104E0000881C07FB0CF40CE01E4FB7FBF3F7DFF830
:104E100070C0ACF1040CDCF800C0CCF3881C07FBBC
:104E20000CF4174F3F1F3F68C7F301477F1C7D00FD
:104E3000B4FBF5F7076002E0124F076000BF00BF48
:104E40000F4F3F6807F0F0010909104F7A5C0768BF
:104E5000D74047600A4F3F6807F4E051890A0B4F7B
:104E60007A5C4768D7408760054F3F6807F4604128
:104E7000490B064F7A5C4768D740C760F0BD000019
:104E8000083802400024F40000127A00A80700202D
:104E90001E4800881D49498808441C4989880844DF
:104EA0001A49C9880844A0F5805000280DDD17482C
:104EB00000881649498808441449898808441349D8
:104EC000C9880844A0F580500CE0104800880F49BC
:104ED000498808440D49898808440C49C988084410
:104EE000C0F58050082810DD00BFBFF34F8F084881
:104EF000006800F4E06007490843001D04490860A9
:104F0000BFF34F8F00BF00BFFEE77047B807002018
:104F10000CED00E00000FA0510B5FDF72BFE0428AB
:104F200003D0FDF727FE05280BD125484088A0F5C2
:104F3000806000B2234908800846B0F90000224989
:104F4000088000BF1E480088A0F580601F49B1F9A5
:104F50000010401A01280CDD19480088A0F5806077
:104F60000A2806DD1A480088401C00B2184908804B
:104F70001FE013480088A0F580601449B1F90010C3
:104F8000401AB0F1FF3F0DDA0D480088A0F58060AF
:104F900010F10A0F06DA0E480088401E00B20C49D4
:104FA000088006E006480088A0F5806000B2084945
:104FB00008800748B0F900000449088010BD0000CF
:104FC000B8070020C2010020E0010020E20100201B
:104FD000C401002070B52DED068B04460D46324805
:104FE00000680F21B0FBF1F201FB1200B0BB2F49AA
:104FF0008988A1F5806003F0CEFB41EC1A0B9FED90
:105000002C0B53EC102B03F02DFC41EC190B9FEDF6
:105010002A0B53EC102B03F037FA41EC180B03F07A
:105020008BFB2749096A081A254908620846006A65
:10503000B0F5E16F04DD0846006AA0F5616001E0AB
:105040001F48006A1E4908620846006A10F5E16FB1
:1050500005DA0846006A00F5616002E003E01848DE
:10506000006A174908621149C988C1F5806003F0D8
:1050700092FB41EC1A0B9FED130B53EC102B03F03A
:10508000F1FB41EC190B9FED0C0B53EC102B03F0D3
:10509000FBF941EC180B03F04FFB00F63810084900
:1050A000C860BDEC068B70BD14040020B80700205A
:1050B00000000000000034400000000000A0844018
:1050C000F80500200000000000E07A4000B502462C
:1050D0002B480088401C2A49088002B900BD10787E
:1050E000517840EA0120C0F30A0026490880507830
:1050F000C010917840EA4110C0F30A00214948806D
:1051000090788011D17840EA8100117940EA8120BD
:10511000C0F30A001B49888010794010517940EA99
:10512000C110C0F30A001749C880507900118008E7
:1051300008725079C0F3011048729079D17940EA31
:10514000012000B20F494881107A517A40EA0120CB
:1051500001B20C488181907AD17A40EA012001B2F3
:105160000848C181117B0174517B4174907B0549D2
:105170008874D17B0348C174FDF798FE00BFADE78A
:10518000CC070020B807002070B52DED0C8BFDF783
:10519000F1FC90B3FDF7EEFC02282ED0FE48C07C57
:1051A00010B9FD48807C18B10120FC49087024E04A
:1051B000F9480088A0F58060002804DDF6480088E2
:1051C000A0F5806003E0F4480088C0F58060032803
:1051D00010DCF1484088A0F58060002804DDEE482E
:1051E0004088A0F5806003E0EB484088C0F580600F
:1051F000032802DD0020E9490870E848007810B96A
:10520000FFF78AFE07E0E5480078012803D1E4496A
:10521000E448FFF77BF8FDF7ADFC052845D141F2E6
:105220005630E149097811B1012936D11AE0A0F2CE
:10523000EE21DE4A1160DE4949691268511A0029DF
:1052400005DDDB494969D94A1268511A04E0D84999
:105250004969D64A1268891A002902DA0121D24A1C
:1052600011701AE000F2EE21D04A1160D04949696C
:105270001268511A002905DDCD494969CB4A1268E7
:10528000511A04E0CA494969C84A1268891A0F29A3
:1052900002DA0021C44A117000BF00BFB6EE000A56
:1052A00010EE101AC34A116009E041F25630BF49AE
:1052B00008609FEDC10A10EE100ABE490860BC48A4
:1052C00090ED080AB8EEC00ABC48D0ED050AB2EE6F
:1052D000041A00EEC10ADFEDBA0AB4EEE00AF1EEFC
:1052E00010FA24DDB24890ED080AF8EEC00AB3487F
:1052F00090ED051A9FEDB30AF2EE041A01EE210AB1
:1053000030EEC00ADFEDB00A20EE200A9FEDAD1AA4
:10531000C0EE010AA64890ED050AB8EEC00A30EECC
:10532000800ABDEEC00AA94880ED000A57E0A048F7
:1053300090ED080AB8EEC00AA048D0ED050AB2EE1A
:10534000041A00EEC10ADFEDA20AB4EEE00AF1EEA3
:1053500010FA24D2964890ED080AF8EEC00A974851
:1053600090ED051A9FED970AF2EE041A11EE210A4C
:1053700030EEC00ADFED940A20EE200A9FED911A6C
:10538000C0EE010A8A4890ED050AB8EEC00A30EE78
:10539000800ABDEEC00A8D4880ED000A1FE08448F7
:1053A00090ED080AB8EEC00A8448D0ED050AB2EEC6
:1053B000041A00EEC10ADFED840A20EE200A9FEDF8
:1053C000811AC0EE010A7A4890ED050AB8EEC00ACB
:1053D00030EE800ABDEEC00A7C4880ED000AFDF781
:1053E000C9FB042803D0FDF7C5FB052803D1012024
:1053F000784908700DE0FDF7BDFB072806D1764817
:10540000007818B901207349087002E00020714942
:1054100008707048007801287DD15F488088A0F529
:105420008060002804DD5C488088A0F5806003E08F
:1054300059488088C0F5806028286DDA5C4840694A
:105440005A490968081A002805DD59484069574932
:105450000968081A04E05648406954490968401A26
:10546000B42859DA5248406950490968081AB0F519
:10547000805F27DD4E48406900F5005000EE100ABD
:10548000B8EEC00AF0EE400A4A48484991ED000AD9
:10549000B8EEC00AFFF798F8BDEEC00A10EE100A89
:1054A00000B24E4908804248406900F500503F492B
:1054B0000968081A00EE100AB8EEC00A484880EDE4
:1054C000000AFBE03A48406938490968081A10F5B3
:1054D000805F2ADA36484069A0F5005000EE100AD5
:1054E000B8EEC00AF0EE400A3248304991ED000AA9
:1054F000B8EEC00AFFF768F8BDEEC00A10EE100A59
:1055000000B23649088031480068A0F500502749AC
:105510000968081A01E0D8E02AE000EE100AB8EEA7
:10552000C00A2F4880ED000AC8E0214890ED050A26
:10553000B8EEC00AF0EE400A1E481C4991ED000A80
:10554000B8EEC00AFFF740F8BDEEC00A10EE100A30
:1055500000B222490880154800681C490968401AB1
:1055600000EE100AB8EEC00A1D4880ED000AA5E062
:105570000E48006815490968401AB0F5805F4DDD96
:105580000C481249096801F5005100EE101AF8EEB6
:10559000C00A064926E00000B8070020DC01002010
:1055A000C4010020C2010020DE010020F40500201B
:1055B000F80500206C0100209A99193F6C0D00201D
:1055C0000000E1440000614500000046CC010020DD
:1055D0000000E1C4DD0100204A000020C6010020D7
:1055E000D001002091ED000AB8EEC00AFEF7ECFFF2
:1055F000BDEEC00A10EE100A00B2FE490880FE4857
:105600000168FE48006800F50050081A00EE100A14
:10561000B8EEC00AFA4880ED000A4FE0F64800688C
:10562000F6490968401A10F5805F27DAF3480068E8
:10563000A0F5005000EE100AB8EEC00AF0EE400AE5
:10564000F048ED4991ED000AB8EEC00AFEF7BCFF44
:10565000BDEEC00A10EE100A00B2E6490880E74825
:105660000068A0F50050E4490968081A00EE100A25
:10567000B8EEC00AE24880ED000A1FE0E148DF49C9
:1056800091ED000AF8EEC00ADB4991ED000AB8EE90
:10569000C00AFEF799FFBDEEC00A10EE100A00B274
:1056A000D4490880D4480068D4490968401A00EEFB
:1056B000100AB8EEC00AD24880ED000ACD48B0F911
:1056C000000002F0BFFBCB490880FDF753FA042825
:1056D0007ED1CD484069C8490968081A002805DD0F
:1056E000C9484069C4490968081A04E0C6484069C5
:1056F000C1490968401AC82874DDC448B0F900409F
:105700000020C2490880BE48D0ED000A1FED521AA1
:1057100080EE810AF0EE000A20EE200A10EE105A08
:10572000284603F093FA41EC190B9FEDB90B53ECAB
:10573000102B03F097F841EC180B02F0BFFDB049B5
:1057400008600846006803F081FA41EC1B0BB0EEDC
:105750004B0AF0EE6B0A01F097FEB0EE409AF0EEC5
:10576000609A204603F017F841EC1A0B53EC192B02
:1057700003F078F841EC180B02F0DEFFA34909882A
:10578000084400B2A14908809D48006803F05EFA11
:1057900041EC1C0BB0EE4C0AF0EE6C0A01F0D8FEA6
:1057A000B0EE40AAF0EE60AA204602F0F4FF41EC11
:1057B0001B0B53EC1A2B03F055F841EC190B9FED22
:1057C000960B53EC102B03F04DF841EC180B00E056
:1057D00008E002F0B1FF92490988084400B29049FC
:1057E000088000BFFDF7C6F905287DD19FED8D0A21
:1057F000B0EE408A8548B0F900408048006841F228
:105800005631081AB0F5805F0BDD7C48006800F562
:105810000050081A00EE100AB8EEC00AB0EE408A36
:105820001EE07648006841F25631081A10F5805F94
:105830000BDA72480068A0F50050081A00EE100A52
:10584000B8EEC00AB0EE408A0AE06C48006841F247
:105850005631081A00EE100AB8EEC00AB0EE408ABF
:1058600000206A4908801FEDA80AC8EE000AB0EEC1
:10587000000A20EE800A10EE105A284603F0E6F9DE
:1058800041EC1A0B9FED620B53EC102B02F0EAFF78
:1058900041EC190B02F012FD08EE100A18EE100A86
:1058A00003F0D4F941EC1C0BB0EE4C0AF0EE6C0A9C
:1058B00001F0EAFDB0EE40AAF0EE60AA204602F048
:1058C0006AFF41EC1B0B53EC1A2B02F0CBFF41ECAF
:1058D000190B02F031FF4D490988084400B24B49C9
:1058E000088018EE100A00E055E003F0AFF941EC33
:1058F0001D0BB0EE4D0AF0EE6D0A01F029FEB0EE80
:1059000040BAF0EE60BA204602F045FF41EC1C0BB5
:1059100053EC1B2B02F0A6FF41EC1A0B9FED3E0B44
:1059200053EC102B02F09EFF41EC190B02F004FF28
:105930003B490988084400B23949088018EE100A2A
:1059400003F084F941EC1A0BB0EE4A0AF0EE6A0A51
:1059500001F0FEFDB0EE409AF0EE609A51EC190BAA
:1059600002F0ACFC3049086018EE100A03F06EF942
:1059700041EC1A0BB0EE4A0AF0EE6A0A01F084FD1F
:10598000B0EE409AF0EE609A51EC190B02F096FCE2
:105990002649086000BF2648007A022822D1FDF778
:1059A000E9F807281ED01348B0F9000000EE100AED
:1059B000B8EEC00A10EE104A204603F047F941EC59
:1059C000190B9FED1C0B53EC102B02F05DFD41EC0D
:1059D000180B02F0B1FE12490988081A00B21049EA
:1059E000088000BF0948B0F900000D49B1F9001066
:1059F000084423E0C6010020F4050020CC0100206B
:105A0000D00100206C010020F8050020C201002018
:105A10004AD8124DFB210940000000000000F03F71
:105A2000C401002000000000D4010020D8010020A3
:105A3000B8070020333333333333FB3F7049B1F9B8
:105A40000010084400EB800040006E4908616E4879
:105A5000B0F9000040426D49B1F9001008446849AE
:105A6000B1F90010084400EB80004000654948612E
:105A70006548B0F900006549B1F90010401A604965
:105A8000B1F90010084400EB800040005D498861D6
:105A90005D48B0F9000040425C49B1F90010401A7D
:105AA0005749B1F90010084400EB80004000554907
:105AB000C8610846FEF7CEFB524890ED001AB8EEDA
:105AC000C11AF0EE410A90ED041AB8EEC11AB0EE18
:105AD000410A4F48FEF778FDBDEEC00A494880ED07
