:020000040800F2
:100000002815002069020008FF420008252D00087D
:100010006D3E00083D0E00089F80000800000000B3
:10002000000000000000000000000000156800084B
:100030008B24000800000000A55300087D70000814
:10004000830200088302000883020008830200087C
:10005000830200088302000883020008830200086C
:100060008302000883020008352800088302000884
:1000700083020008F91F0008830200080D21000810
:10008000830200088302000883020008830200083C
:10009000E5100008830200088302000883020008BC
:1000A000830200088302000883020008830200081C
:1000B000830200088302000883020008830200080C
:1000C00083020008830200088302000883020008FC
:1000D0008302000883020008830200086D7C000888
:1000E00083020008830200088302000883020008DC
:1000F00083020008830200088302000883020008CC
:1001000083020008830200088302000883020008BB
:10011000830200088302000831710008830200088E
:1001200083020008830200081121000883020008EE
:10013000830200088302000883020008830200088B
:10014000BD13000883020008830200088302000830
:10015000830200088302000883020008197D00085A
:10016000830200088302000883020008830200085B
:10017000830200088302000883020008830200084B
:10018000830200088302000800F002F800F05CF827
:100190000AA090E8000C82448344AAF10107DA45E2
:1001A00001D100F051F8AFF2090EBAE80F0013F0D8
:1001B000010F18BFFB1A43F0010318474CB70000AA
:1001C0006CB700000A444FF0000C10F8013B13F02C
:1001D000070408BF10F8014B1D1108BF10F8015BA0
:1001E000641E05D010F8016B641E01F8016BF9D193
:1001F00013F0080F1EBF10F8014BAD1C0C1B09D1EA
:100200006D1E58BF01F801CBFAD505E014F8016B5B
:1002100001F8016B6D1EF9D59142D6D370470000ED
:100220000023002400250026103A28BF78C1FBD8FF
:10023000520728BF30C148BF0B6070471FB50BF095
:1002400008F81FBD10B510BD00F0E4F81146FFF727
:10025000F5FF0AF00BF900F002F903B4FFF7F2FF23
:1002600003BC09F075FF00000948804709480047B2
:10027000FEE7FEE7FEE7FEE7FEE7FEE7FEE7FEE756
:10028000FEE7FEE704480549054A064B70470000B3
:100290008170000889010008280F0020281500201F
:1002A00028110020281100207047032A40F23080D6
:1002B00010F0030C00F0158011F8013BBCF1020FA7
:1002C000624498BF11F801CB00F8013B38BF11F828
:1002D000013BA2F1040298BF00F801CB38BF00F83F
:1002E000013B11F0030300F05B80083AC0F0088086
:1002F00051F8043B083A51F804CBA0E80810F5E7A0
:10030000121D5CBF51F8043B40F8043BAFF3008082
:10031000D20724BF11F8013B11F801CB48BF11F8F7
:10032000012B24BF00F8013B00F801CB48BF00F8C7
:10033000012B70474FF0000200B5134694469646D5
:10034000203922BFA0E80C50A0E80C50B1F12001E8
:10035000BFF4F7AF090728BFA0E80C5048BF0CC096
:100360005DF804EB890028BF40F8042B08BF7047F4
:1003700048BF20F8022B11F0804F18BF00F8012B66
:100380007047704770477047704710B500F03AF8F3
:10039000006810BD10B5044600F034F8046010BDCC
:1003A00010B5203AC0F00B80B1E81850203AA0E810
:1003B0001850B1E81850A0E81850BFF4F5AF5FEA44
:1003C000027C24BFB1E81850A0E8185044BF18C9F7
:1003D00018C0BDE810405FEA827C24BF51F8043B9E
:1003E00040F8043B08BF7047D20728BF31F8023BF2
:1003F00048BF11F8012B28BF20F8023B48BF00F886
:10040000012B704700487047C40E00200048704719
:10041000C40E00207546FFF7F9FFAE460500694699
:10042000534620F00700854618B020B5FFF72AFF95
:10043000BDE820404FF000064FF000074FF00008E5
:100440004FF0000B21F00701AC46ACE8C009ACE866
:10045000C009ACE8C009ACE8C0098D467047044645
:10046000AFF300802046FFF7F8FE000000B5002043
:1004700006F056FC012006F089FA002006F01EFA6C
:1004800000204F490880012006F080FA012871D130
:10049000002006F013FA0128F9D14A48006818B97B
:1004A0004948006847490860474800684549096865
:1004B000401AB0F5C87F07D26FF09F00434908800B
:1004C00000203F49088011E03F4800683D49096825
:1004D000401AB0F5C87F09D93A48006830B16FF0CA
:1004E00059003A490880002035490880384800788A
:1004F00050B93748407838B96FF00900334908805F
:1005000000202F49088022E03148007801280ED1D0
:100510002F48407858B9012006F002FC6FF009001E
:100520002A4908806FF01D00254908800FE02848FF
:10053000007860B926484078012808D106F0F0FB21
:100540006FF00900214908801E201D4908802048BD
:10055000807901280FD11E48C07901280BD16FF096
:1005600027001A49088000201549088015490860AD
:10057000012000BD22E01648807970B91448C07986
:1005800001280AD106F0CCFB6FF027000F49088044
:100590006FF01D000A49088010E00D48807901289D
:1005A0000CD10B48C07948B9012006F0B9FB6FF0B7
:1005B0002700064908801E20014908800020D8E74E
:1005C000D6010020600000202C040020D201002071
:1005D000880D002010B501203C490872002013E06E
:1005E0009FED3B0A10EE101A00EB4012394B03EB63
:1005F000420251609FED380A10EE101A00EB4012D3
:1006000003EB42021162401C0428E9DB01202F4960
:10061000087032480078062856D2DFE800F0030A56
:10062000121A222A00F0E4F8012801D12B4908709F
:100630004AE0FFF71BFF012802D10220274908707A
:1006400042E000F051F8012802D10320234908704C
:100650003AE000F06FF9012802D104201F49087028
:1006600032E0FFF703FF012802D105201B49087083
:100670002AE000F039F8012825D10020134908723A
:10068000042006F047FB0020144908700F49087049
:1006900000BF13E09FED120A10EE101A00EB40129B
:1006A0000C4B03EB420251609FED0E0A10EE101A44
:1006B00000EB401203EB42021162401C0428E9DB0C
:1006C000012006F02DFB00BF00BF10BD920D0020E1
:1006D0003E0AD73D740000206E43D14748000020F9
:1006E000295C0F3D49828B4700B53B48006818B92B
:1006F0003A4800683849086038480068364909684F
:10070000401AB0F5E17F64D9002006F009FB002013
:1007100006F03CF9002006F0D1F8002030490880AE
:1007200006F034F9012828D1002006F0C7F8012886
:1007300023D12C48006850B928480068294908602E
:100740006FF09F0028490880002025490880234831
:10075000006824490968401A40F27621884238D955
:100760006FF027002049088000201D4908801D499E
:10077000086019490860012000BD1C48007850B984
:100780001A48407838B96FF02700174908800020D0
:10079000134908801DE01548007801280BD1134843
:1007A000407840B96FF027000F4908806FF01D00B6
:1007B0000B4908800DE00D48007850B90B4840788F
:1007C000012806D16FF02700074908801E20044940
:1007D00008800020D0E70000680000202C040020E2
:1007E000D601002064000020D2010020880D0020E6
:1007F00000B5002006F094FA012006F0C7F80120A9
:1008000006F05CF8002048490880012006F0BEF898
:10081000012803D106F052F8012807D06FF04500F7
:100820004249088000204049088006E06FF06D00D2
:100830003E49088000203C490880012006F0A6F8C7
:1008400001280DD13A48807850B93948C07838B974
:100850006FF00900354908800020334908802CE0FA
:10086000012006F093F8012812D131488078012840
:100870000ED12F48C07858B9012006F051FA6FF018
:1008800009002A4908806FF01D002749088014E0FC
:10089000012006F07BF801280FD12548807860B947
:1008A0002348C078012808D106F03AFA6FF0090011
:1008B0001E4908801E201C4908801D48007A012816
:1008C0000CD11B48407A012808D16FF02700174946
:1008D0000880002014490880012000BD1448007AD7
:1008E00070B91348407A01280AD106F019FA6FF05E
:1008F00027000E4908806FF01D000B49088010E0AA
:100900000B48007A01280CD10948407A48B90120E7
:1009100006F006FA6FF02700044908801E200249FD
:1009200008800020D9E70000D6010020D201002075
:10093000880D002000B5002006F0F2F9012006F035
:1009400025F8012005F0BAFF002048490880012061
:1009500006F01CF8012803D105F0B0FF012807D0EC
:100960006FF045004249088000204049088006E0B9
:100970006FF06D003E49088000203C49088001204E
:1009800006F004F801280DD13A48807850B939486A
:10099000C07838B96FF00900354908800020334924
:1009A00008802CE0012005F0F1FF012812D1314828
:1009B000807801280ED12F48C07858B9012006F060
:1009C000AFF96FF009002A4908806FF01D00274930
:1009D000088014E0012005F0D9FF01280FD1254837
:1009E000807860B92348C078012808D106F098F9CA
:1009F0006FF009001E4908801E201C4908801D4810
:100A0000007A01280CD11B48407A012808D16FF0E8
:100A1000270017490880002014490880012000BDE4
:100A20001448007A70B91348407A01280AD106F0B8
:100A300077F96FF027000E4908806FF01D000B4911
:100A4000088010E00B48007A01280CD10948407A50
:100A500048B9012006F064F96FF0270004490880C6
:100A60001E20024908800020D9E70000D60100209E
:100A7000D2010020880D002010B52DED028BB0EEC4
:100A8000408ACE4890ED000AF7EE000A30EEC00A28
:100A9000CB48D0ED000A20EE200AC848D0ED000A6D
:100AA00008EE200AC64880ED000A02F009F9042881
:100AB0007ED1C448007820B1012842D002283FD11D
:100AC000DAE01E20C049086348638863C863BC48F5
:100AD00090ED000AF2EE000AB4EEE00AF1EE10FA30
:100AE0000BDDBA4800884FF6FE71884205DAB74838
:100AF0000088401CB549088018E0B14890ED000A14
:100B0000FAEE000AB4EEE00AF1EE10FA0BD2AF48AA
:100B100000884FF6FE71884205DAAC480088401C18
:100B2000AA49088002E00020A8490880A748008858
:100B3000642805DD0120A34908700020A34908802E
:100B4000DFE09F4890ED000AB5EEC00AF1EE10FA22
:100B500031DD9D48006B1E2814DC9B4890ED0A0A8D
:100B6000B8EEC00A9648D0ED000AB2EE081A00EEC0
:100B7000810ABDEEC00A944880ED0E0A806B92494E
:100B8000C86347E0904890ED080AB8EEC00A8C4868
:100B9000D0ED000AF1EE600AB2EE081A00EE810A0A
:100BA000BDEEC00A884880ED0C0A006B864900E063
:100BB000A8E048632EE08448806B1E2816DC82483B
:100BC00090ED080AB8EEC00A7D48D0ED000AF1EEBB
:100BD000600AB2EE081A00EE810ABDEEC00A7A4839
:100BE00080ED0C0A006B7849486313E0764890ED7D
:100BF0000A0AB8EEC00A7248D0ED000AB2EE081A2E
:100C000000EE810ABDEEC00A6F4880ED0E0A806BCF
:100C10006D49C8636A4890ED000AB5EEC00AF1EE6E
:100C200010FA02DD90ED000A04E0654890ED000A3C
:100C3000B1EE400ADFED660AB4EEE00AF1EE10FA1A
:100C40000BD2644800884FF6FE71884205DA61488D
:100C50000088401C5F49088002E000205D49088050
:100C60005C480088B0F5967F05DD02205549087084
:100C700000205849088044E0514890ED000AB5EE44
:100C8000C00AF1EE10FA02DD90ED000A04E04C48D3
:100C900090ED000AB1EE400AF1EE000AB4EEE00A6F
:100CA000F1EE10FA03DD0120464908701FE04648C6
:100CB000006B4549896B401A002805DD4248006BEE
:100CC0004149896B401A04E03F48806B3E49096BFB
:100CD000401AB0F5967F0ADA3F4800884FF6FE7159
:100CE000884204DA3C480088401C3B4908803A4866
:100CF0000088962804DD00203249087036490880B3
:100D000000BF00BF3048006B1E2801DA1E2001E042
:100D10002D48006B2C4908630846006B40F24C419B
:100D2000884201DD084601E02748006B2649086338
:100D30000846406B1E2801DA1E2001E02248406B65
:100D4000214948630846406B40F24C41884201DD2E
:100D5000084601E01C48406B1B4948630846806B0D
:100D60001E2801DA1E2001E01748806B16498863AF
:100D70000846806B40F24C41884201DD084601E0A4
:100D80001148806B104988630846C06B1E2801DA41
:100D90001E2001E00C48C06B0B49C8630846C06BBD
:100DA00040F24C41884201DD084601E00648C06B34
:100DB0000549C863BDEC028B10BD00008007002010
:100DC0007C0700206C070020B40A00208407002064
:100DD000CDCC0C40860700208807002010B54FF4CA
:100DE000A06003F0C9FA02F09FFA04F001F902F0E2
:100DF00079FB114806F004FE4FF4E13006F0A6FF3F
:100E00004FF4E13006F092FE09F07EFB09F06EFA35
:100E100009F0F6F94FF47A7009F0E4F906F064F994
:100E200000F0E4F800F04EFA44F2D80009F0DAF9E4
:100E300006F092F910BD0000A086010000BFFEE799
:100E4000C178012903D10188491C018001E00021FA
:100E5000018001880A290EDD0188B1F57A7F07DA61
:100E6000C178012909D1817839B90121017104E0E2
:100E70000221017101E0002101718178C170704788
:100E800010B50446224600213A4800F0ECFC2068E8
:100E9000A0F20120062869D2DFE800F00311223316
:100EA00044562146344806F0E1F822463349324898
:100EB000203004F07BFA324802F0FFFE57E0214672
:100EC0002D48001D06F0D2F822462C4918312A4838
:100ED000243004F06BFA2A48801C02F0EEFE46E053
:100EE00021462548083006F0C1F822462349303112
:100EF0002148283004F05AFA2148001D02F0DDFE96
:100F000035E021461C480C3006F0B0F822461B495B
:100F1000483119482C3004F049FA1948801D02F074
:100F2000CCFE24E0207BE17A40EA012015494861AB
:100F3000A17B607B41EA002000B212498861104821
:100F4000001F02F0BAFE12E0207BE17A40EA0120A5
:100F50000C490860A17B607B41EA002000B209498E
:100F600048600748801E02F0A8FE00E000BF00BFF6
:100F700010BD000000640040B40A0020680C00208E
:100F8000B004002018060020F0B585B004460D46D8
:100F900016461F464FF40070009000208DF80800A0
:100FA0008DF8090008208DF80A00200A8DF80B0042
:100FB000E1B28DF80C10290A8DF80D10E9B28DF808
:100FC0000E10310A8DF80F10F1B28DF81010390A99
:100FD0008DF81110F9B28DF812106946024800F030
:100FE000CAFC05B0F0BD00000064004000B58BB045
:100FF0000121084604F024FB0121480604F030FBDF
:1010000009220B21354801F01DFE09220C2133482D
:1010100001F018FE4FF4C050029002208DF80C0031
:1010200002A92E4801F0C6FD14208DF8040001200D
:101030008DF8050000208DF8060001208DF80700CE
:1010400001A803F05DF9264800F04AFA08A800F06C
:1010500082FC00208DF826008DF827008DF82800EE
:101060008DF829008DF82A0001208DF82B00002032
:101070008DF822008DF8230008208DF8240003202D
:101080008DF82500ADF8200008A9154800F061FB97
:1010900001208DF81A0000208DF81B0001208DF82A
:1010A0001C000020ADF81000ADF81200ADF81400DF
:1010B000ADF81600ADF8180001208DF81D0004A849
:1010C00000F02AFA01220221054800F039FB012232
:1010D0001146034800F034FB0BB000BD0000024095
:1010E0000064004000B585B00221064800F098FA7F
:1010F00030B10221034800F09FF96846FFF7C0FEB7
:1011000005B000BD0064004030B585B004460D4612
:1011100040F2FF10009000208DF808008DF80900C3
:1011200008208DF80A00200A8DF80B00E1B28DF836
:101130000C10290A8DF80D10E9B28DF80E1000215F
:101140008DF80F108DF810108DF811108DF8121009
:101150006946024800F00FFC05B030BD0064004055
:10116000F0B585B004460D4616461F464FF4007094
:10117000009000208DF808008DF8090008208DF8F7
:101180000A00200A8DF80B00E1B28DF80C10290A34
:101190008DF80D10E9B28DF80E10310A8DF80F1090
:1011A000F1B28DF81010390A8DF81110F9B28DF8DE
:1011B00012106946024800F0DEFB05B0F0BD0000E9
:1011C0000068004010B5044622460021344800F073
:1011D0004AFB2068A0F2012006285ED2DFE800F07A
:1011E00003112233444E21462E4805F03FFF22468C
:1011F0002D492C48203004F0D9F82C4802F05DFD30
:101200004CE021462748001D05F030FF22462649C4
:1012100018312448243004F0C9F82448801C02F016
:101220004CFD3BE021461F48083005F01FFF2246D9
:101230001D4930311B48283004F0B8F81B48001D08
:1012400002F03BFD2AE0214616480C3005F00EFF67
:1012500022461549483113482C3004F0A7F81348AA
:10126000801D02F02AFD19E022461149114805F0BF
:101270005DFD0E48143002F020FD0FE00E4800889E
:10128000401C0D49088022460C490D4805F04EFDD2
:101290000648163002F011FD00E000BF00BF10BD8F
:1012A00000680040540A0020C80C0020A40400205C
:1012B000500B0020340B00200E0200208C0B00206D
:1012C000700B002000B58BB00121022004F0B8F9AA
:1012D0000121880604F0C4F909220C21354801F0E7
:1012E000B1FC09220D21334801F0ACFC4FF4405011
:1012F000029002208DF80C0002A92E4801F05AFC41
:1013000040208DF8040001208DF8050000208DF8A4
:10131000060001208DF8070001A802F0F1FF264821
:1013200000F0DEF808A800F016FB00208DF826007B
:101330008DF827008DF828008DF829008DF82A00F7
:1013400001208DF82B0000208DF822008DF823005D
:1013500008208DF8240003208DF82500ADF820002A
:1013600008A9154800F0F5F90E208DF81A000020A4
:101370008DF81B0001208DF81C000020ADF8100036
:10138000ADF81200ADF81400ADF81600ADF8180075
:1013900001208DF81D0004A800F0BEF801220221F2
:1013A000054800F0CDF901221146034800F0C8F9C4
:1013B0000BB000BD000402400068004000B585B0DD
:1013C0000221064800F02CF930B10221034800F058
:1013D00033F86846FFF7F6FE05B000BD0068004030
:1013E00030B585B004460D4640F2FF100090002055
:1013F0008DF808008DF8090008208DF80A00200AF1
:101400008DF80B00E1B28DF80C10290A8DF80D1043
:10141000E9B28DF80E1000218DF80F108DF8101024
:101420008DF811108DF812106946024800F0A3FAE9
:1014300005B030BD00680040B1F5007F3AD00FDC48
:10144000202928D006DC01291CD004291DD0082918
:1014500040D11DE0402921D0B1F5807F3AD126E06E
:10146000B1F5004F31D006DCB1F5806F25D0B1F574
:10147000006F2FD124E0B1F5803F12D0B1F5003FCD
:1014800028D111E0154A826025E00822C26022E0DE
:101490001022C2601FE0082202611CE010220261DB
:1014A00019E00822426016E01022426013E0042294
:1014B000426010E0042242600DE0042242600AE033
:1014C000002282610422426005E00022826104223F
:1014D000426000E000BF00BF704700000101010052
:1014E00010B504460B48844209D10121480604F096
:1014F000C7F800214FF0007004F0C2F808E00121A5
:10150000880604F0BDF800214FF0806004F0B8F8C0
:1015100010BD00000064004010B50021837A012254
:1015200002FA03F13D4A126842F001023B4B1A6095
:101530003A4A1C3212688A43384B1C331A60027BC9
:10154000CAB9364A0C3212688A43344B0C331A60DB
:101550004288C38842EA0343304A4032847A42F8E0
:1015600034300288838842EA03432C4A4032847A2A
:1015700002EBC4025360027B012A19D1274A0C32C4
:1015800012680A43254B0C331A604288038842EAEA
:101590000343224A4032847A42F83430C288838836
:1015A00042EA03431D4A4032847A02EBC40253608C
:1015B000C27A3AB9194A121D12688A43174B1B1D89
:1015C0001A6006E0154A121D12680A43134B1B1DD0
:1015D0001A60028932B9114A143212688A430F4BD9
:1015E00014331A600289012A06D10C4A1432126897
:1015F0000A430A4B14331A60427B012A06D1074A78
:101600001C3212680A43054B1C331A60034A1268E5
:1016100022F00102014B1A6010BD0000006600407C
:1016200070B504460D46002660692840002871D038
:10163000B5F5807F5CD010DC082D35D006DC012D9F
:1016400020D0022D24D0042D72D127E0102D31D0CE
:10165000202D35D0402D6BD138E0B5F5004F60D04E
:1016600009DCB5F5007F49D0B5F5806F4CD0B5F5F4
:10167000006F5DD14FE0B5F5803F2DD0B5F5003F4F
:1016800056D12FE0A0682D4900F0A6FA064651E099
:10169000E068032100F0A0FA06464BE0E06808216C
:1016A00000F09AFA064645E0E068102100F094FA4E
:1016B00006463FE02069032100F08EFA064639E035
:1016C0002069082100F088FA064633E020691021DD
:1016D00000F082FA06462DE06068082100F07CFAEE
:1016E000064627E06068102100F076FA064621E001
:1016F000A069012100F070FA06461BE0A0690221F2
:1017000000F06AFA064615E0A069042100F064FAC8
:1017100006460FE00FE0A069702100F05DFA064672
:1017200008E06068042100F057FA064602E0FFE78F
:10173000002600BF00E00026304670BD0101010018
:101740001AB143690B43436102E043698B43436130
:10175000704730B5024600200023146824F00204CC
:101760001460146844F00104146000E05B1C5468C9
:1017700004F001041CB94FF6FF74A342F6D154687B
:1017800004F001040CB900206CE08C79012C04D128
:10179000146844F08004146003E0146824F08004AA
:1017A0001460CC79012C04D1146844F04004146016
:1017B00003E0146824F0400414600C7A012C04D176
:1017C000146844F02004146003E0146824F020043A
:1017D00014604C7A012C04D1146844F01004146095
:1017E00003E0146824F0100414608C7A012C04D1F6
:1017F000146844F00804146003E0146824F008043A
:101800001460CC7A012C04D1146844F004041460F0
:1018100003E0146824F0040414608C78A407CD78E5
:1018200044EA05640D7944EA05444D7944EA0554D7
:101830000D886D1E2C43D461146824F001041460DB
:10184000002300E05B1C546804F001041CB14FF657
:10185000FF74A342F6D1546804F001040CB10020D7
:1018600000E0012030BD10B500F5D87303EB011383
:101870001B6803F004031372137A53B900F5D8738D
:1018800003EB01131B6840F2FF7404EA5353136027
:1018900009E000F5D87303EB01131B686FF0604497
:1018A00004EAD303536000F5D87303EB01131B68FC
:1018B00003F00203537200F5D87303EB01135B6866
:1018C00003F00F03937200F5D87303EB01135B6809
:1018D0001B0AD37400F5D87303EB01139B68D37212
:1018E00000F5D87303EB01139B681C0A147300F511
:1018F000D87303EB01139B681C0C547300F5D87369
:1019000003EB01139B681B0E937300F5D87303EB75
:101910000113DB68D37300F5D87303EB0113DB68A5
:101920001C0A147400F5D87303EB0113DB681C0C5C
:10193000547400F5D87303EB0113DB681B0E93742A
:1019400021B9C36843F02003C36003E0036943F097
:101950002003036110BD00218171C17101724172C8
:101960008172C1728170C1700321017102214171C4
:1019700001210180704710B502460020936803F0F2
:101980008063B3F1806F00D110E0936803F00063CF
:10199000B3F1006F01D1012008E0936803F0805398
:1019A000B3F1805F01D1022000E00420042874D04C
:1019B00002F5C07303EB00131B6803F0010402F58A
:1019C000C07303EB00131C600B7A7BB94B7A0C8855
:1019D00043EA445302F5C07404EB00142468234323
:1019E00002F5C07404EB0014236010E00B7A4C681D
:1019F00043EAC4034C7A234302F5C07404EB001499
:101A00002468234302F5C07404EB001423608B7A2E
:101A100003F00F038B7202F5C07303EB00135B68D6
:101A200023F00F0402F5C07303EB00135C6002F5B2
:101A3000C07303EB00135B688C7A234302F5C07418
:101A400004EB001463608B7B1C064B7B44EA03446D
:101A50000B7B44EA0323CC7A234302F5C07404EBE6
:101A60000014A3608B7C1C064B7C44EA03440B7C73
:101A700044EA0323CC7B234302F5C07404EB001437
:101A8000E36002F5C07303EB00131B6843F001042D
:101A900002F5C07303EB00131C6010BDDFED0D0AEF
:101AA000B4EEE00AF1EE10FA04DDDFED0A0AC0ED53
:101AB000000A0DE0DFED080AB4EEE00AF1EE10FADC
:101AC00004D2DFED050AC0ED000A01E080ED000A56
:101AD000704700000020B2450080D4C4364800683A
:101AE000C0F52A6001EE100AB8EEC11AB0EE410A44
:101AF0003148406931490968081A01EE100AB8EE08
:101B0000C11AF0EE410A9FED2E1A20EE011A9FED48
:101B10002D2AC1EE021A2C4890ED031AB1EE411A9B
:101B200031EE611A294880ED001A274890ED041A19
:101B3000F0EE081A31EE611A244880ED011A9FED8B
:101B4000201A20EE811ADFED1F1A81EE212A1E488D
:101B500090ED051A32EE011A1C4880ED021A90ED44
:101B6000021ADFED1B1AB4EEE11AF1EE10FA06DDEF
:101B700090ED021ADFED121A31EE611A02E01348FD
:101B800090ED021A114880ED021A90ED021ADFED75
:101B9000111AB4EEE11AF1EE10FA06D290ED021A23
:101BA000DFED071A31EE211A02E0084890ED021A23
:101BB000064880ED021A704718060020140600201F
:101BC0000000B44300000046040E0020140B002067
:101BD00000003443000034C30246002002EA01033F
:101BE0000BB1012000E000207047000001212448D3
:101BF000006A234A526A104409B1012200E000221F
:101C0000A2EB421303EB0313A3EBC2021E23A3EBCD
:101C10004202022303FB1200002815DD1848006A67
:101C2000174A526A104409B1012200E00022A2EBD7
:101C3000421303EB0313A3EBC2021E23A3EB4202E6
:101C4000022303FB120013E00D48006A0C4A526A9B
:101C5000104409B1012200E00022A2EB421303EB81
:101C60000313A3EBC2021E23A3EB4202C0EB42000C
:101C7000B0F5FA7F01DA012070470020FCE7000090
:101C8000B40A002010B5002410E0234901EB440001
:101C900001F0FEFF204B203B33F81420403319198C
:101CA000203B33F8140001F0FCFF641C102CECDB2B
:101CB0001948203890F84000012807D117490860DA
:101CC0000020174908800B2005F024F804240EE0BA
:101CD00011482030005D012808D1801E0F4908609E
:101CE00020B20F4908800B2005F014F8641C0E2C5C
:101CF000EEDB0948203890F8410001280AD100F0B5
:101D0000DFFF012803D1032005F004F802E00A20D8
:101D100005F000F810BD00009C040020D004002055
:101D2000CC04002010B5A6480068401CA4490860F7
:101D3000084600684FF47A71B0FBF1F201FB120023
:101D400030B9A0480088A049088000209D4908803B
:101D50009E4801F049FFFFF795FF00BF002407E010
:101D600004EB44019A4A02EB4100FFF769F8641C56
:101D7000102CF5DB06F078FA06F0A4FB01F056F91A
:101D800000F09EFF0C2831D2DFE800F03106A2F50A
:101D9000B2CBF4D8E3F6F2F189480068B0F5967F4B
:101DA00024D903F011FD002004F0B4FF9FED890A4F
:101DB000894880ED030A01464969884A1268511A28
:101DC0004FF4616201FB02F0C11700EBD1414913EE
:101DD00000EE101AB8EEC00A8149D1ED050AB2EE44
:101DE000041A00EE810A7C4981ED080AD7E006F06A
:101DF000DBFD7B48B0F90600002803DD7848B0F928
:101E0000060003E07648B0F90600404214285CDA88
:101E10007348B0F90A00002803DD7148B0F90A00E0
:101E200003E06F48B0F90A00404214284DDA6C48CC
:101E300090ED030ADFED6B0A60EE200A9FED6A1A4F
:101E400080EE810ADFED630A30EE200A6248D0EDB1
:101E5000030A30EEC00AB5EEC00AF1EE10FA14DD46
:101E60005F4890ED030ADFED5F0A20EE200ADFED08
:101E70005E0A80EE201A9FED570A31EE000A56489E
:101E8000D0ED030A30EEC00A15E0554890ED030A84
:101E9000DFED540A20EE200A9FED531AC0EE010A2E
:101EA0009FED4C0A30EE800A4B48D0ED030A30EE2D
:101EB000C00AB1EE400ADFED4D0AB4EEE00AF1EEE1
:101EC00010FA02D2022004F025FF05F031F866E096
:101ED00001F024FB012802D1042004F01BFF06F0CE
:101EE00063FD01F08FFC05F023F805F00DFB56E0D3
:101EF000374991F8320004F073FC05F0EFFC06F06E
:101F000053FD03F0CBFE3A48D0ED000AB0EE600A74
:101F1000FEF7B2FD01F076FC05F00AF805F0F4FAE0
:101F20003DE005F0DBFC06F03FFD03F0B7FE01F0FD
:101F300069FC04F0FDFF05F0E7FA30E0FEF74AFB2C
:101F400006F032FD03F0AAFE01F05CFC05F0DCFABD
:101F500025E001202749087200F098FA06F024FDD8
:101F600003F09CFE01F04EFC05F0CEFA17E010E005
:101F700014E001E00FE00DE005F0B0FC05F0C4FA5C
:101F800006F012FD03F08AFE01F03CFC04F0D0FFE5
:101F900005E004E003E005F0B7FA00E000BF00BF91
:101FA00001F0E2F9FFF79AFD01F062FF04480078C2
:101FB00000F0010018B906F0ADF806F0E1F810BD28
:101FC0002C0400200E020020100200202604002015
:101FD000280D002000002A451806002014060020C5
:101FE000040E0020000000460000B44300004842F8
:101FF000140B0020920D00202DE9F0413C493D4892
:1020000000F0B6F9002871D04FF08151394800F046
:102010009DF83749374800F0B3F8374801F04DFED6
:10202000364800785A280DD134484078A52809D17F
:10203000002404E03149085D03F0D2F8641C222C2E
:10204000F8DB48E02E4890F821005A2805D12B48AB
:102050000078A52801D121260EE000250AE02848B5
:10206000405D5A2805D12649681C085CA52800D186
:102070002E466D1C222DF2DB002405E0A01920491C
:10208000085C20490855641CC6F12200A042F5DC1A
:10209000002707E01948C15D07F12200801B194A9B
:1020A00011547F1CB742F5DB002404E01348005DA7
:1020B00013490855641C222CF8DB4FF0000806E099
:1020C000104911F8080003F08BF808F10108B8F185
:1020D000220FF5DB00BF0C4808F0F4F80A48801D19
:1020E00008F0FAF808480C3008F0E2F8BDE8F08192
:1020F00000802010406002409C0400209C0D0020C5
:10210000BE0D0020E00D0020040E002070470000EE
:1021100010B50A490A4800F02BF970B14FF081510F
:10212000074800F013F80549054800F029F805486C
:1021300003F056FD044801F0C0FD10BD00802010E2
:1021400040640240640800209E0400200246094BBF
:102150009A4201D2084801E00648103801F00053C5
:102160001BB1064B0B40C36002E0044B0B40836085
:102170007047000010640240006002407D0F7D0F38
:102180000246094B9A4201D2084801E0064810383D
:1021900001F000531BB1064B0B40C36002E0044B3F
:1021A0000B408360704700001064024000600240F2
:1021B0007D0F7D0F21B1026842F00102026003E051
:1021C000026822F00102026070470000016821F0FD
:1021D000010101600021016041608160C160016115
:1021E000212141614A49884204D13D21484A103A9F
:1021F00091608CE046491831884205D14FF47461F2
:10220000434A103A916082E041493031884205D119
:102210004FF474113E4A103A916078E03C494831DD
:10222000884205D14FF07461394A103A91606EE0EE
:1022300037496031884204D13649354A103AD16075
:1022400065E033497831884204D13349304A103A45
:10225000D1605CE02E499031884204D12F492C4A4C
:10226000103AD16053E02A49A831884205D14FF095
:102270003D51274A103AD16049E02949884204D1AA
:102280003D21274A083A116041E02549183188422A
:1022900005D14FF47461224A083A116037E02049B1
:1022A0003031884205D14FF474111D4A083A11604B
:1022B0002DE01B494831884205D14FF07461184A1E
:1022C000083A116023E016496031884204D111496F
:1022D000134A121F11601AE011497831884204D163
:1022E0000D490F4A121F116011E00D4990318842CB
:1022F00004D10A490A4A121F116008E00849A831AE
:10230000884204D14FF03D51054A121F11607047B9
:10231000106002403D000020400F002000003D20E2
:102320001064024021B1026842F48022026003E09E
:10233000026822F480220260704722B1036843F4ED
:102340000023036003E0036823F4002303600161BA
:1023500070470146486880B27047014600200A680D
:1023600002F400220AB1012000E0002070470000C2
:1023700070B50246002000240025124EB24201D260
:10238000114B01E00F4B103B104E0E4036B11E2694
:1023900006EAD124166806EA040502E0566906F04A
:1023A000800501F000560EB15C6800E01C68084E24
:1023B000344004EA010616B10DB1012000E000200E
:1023C00070BD000010640240006002403C0F3C0FF2
:1023D0007D0F7D0F10B501F080034BB122B1436931
:1023E00043F08003436103E0436923F080034361CA
:1023F00080290BD02AB1036801F01E042343036037
:1024000004E0036801F01E04A343036010BD000054
:1024100010B500220268134B1A40CC680B682343A6
:102420004C6923438C692343CC6923430C6A2343BF
:102430004C6A23438C6A23434C6B23438C6B2343AA
:102440001A430260426922F00702D1E90B342343A8
:102450001A4342610B6943604B6883608B68C360B9
:1024600010BD00003F801CF00021016041608160D0
:10247000C160016141618161C1610162416281624A
:10248000C1620163416381637047704710B50120E9
:102490005A490872002013E09FED590A10EE101AF5
:1024A00000EB4012574B03EB420251609FED560A7E
:1024B00010EE101A00EB401203EB42021162401CB6
:1024C0000428E9DB51480078A8B9FFF78FFB20B951
:1024D0004F480068B0F52F7F02D901204B490870A2
:1024E000012004F053FA012004F0E8F9484800689C
:1024F000401C474908600120404908704348007863
:10250000012879D143480078062874D2DFE800F02A
:10251000030A121A222A00F0DDF8012801D13D49F0
:10252000087068E000F07EF8012802D102203949E5
:10253000087060E000F022F9012802D1032035493B
:10254000087058E000F0C6F8012802D10420314993
:10255000087050E000F066F8012802D105202D49EE
:10256000087048E00020254908722B48806A2A49F3
:10257000C96A0844A0F69800002807DD2648806A4A
:102580002549C96A0844A0F6980007E02248806AF5
:102590002149C96A084440F69801081A642802DAF9
:1025A00000201649087000F0E9F8012822D1002027
:1025B000124908701749087000BF13E09FED170A11
:1025C00010EE101A00EB40120E4B03EB420251606A
:1025D0009FED130A10EE101A00EB401203EB4202BB
:1025E0001162401C0428E9DB042004F093FB002066
:1025F00004F096FB00BF00BF10BD0000920D00204C
:102600003E0AD73D740000206E43D1474A000020A7
:102610004C00002049000020B40A0020295C0F3D36
:1026200049828B4700B5002004F07AFB0020264940
:10263000088026490880012004F0A8F9002004F051
:102640003DF9012004F0A2F901283BD1002004F05B
:1026500035F9012836D148201B49088000201B4944
:1026600008801B48807801280AD11948C0780128C1
:1026700006D100201449088014490880012000BDBB
:102680001348807868B91248C078012809D1002021
:102690000D4908801E200D490880012004F040FBF0
:1026A00010E00B48807801280CD10948C07848B95F
:1026B0000020054908806FF01D00044908800120B2
:1026C00004F02EFB0020DAE7D2010020D601002022
:1026D000880D002000B5002004F022FB00202449D2
:1026E00008802449088004F051F9002004F0E6F83D
:1026F000002004F04BF9012837D1002004F0DEF867
:10270000012832D128201A4908801B480078012866
:1027100009D119484078012805D1002008801549C1
:102720000880012000BD1448007868B9124840783C
:10273000012809D100200E4908801E200D4908807B
:10274000012004F0EDFA10E00B48007801280CD1CC
:102750000948407848B90020054908806FF01D00FD
:1027600004490880012004F0DBFA0020DAE70000C9
:10277000D2010020D6010020880D002000B50020E5
:1027800004F0CEFA0020264908802649088001205E
:1027900004F0FCF8012809D104F090F8012805D1D3
:1027A0002148007810B901201F4908701E480078A0
:1027B000012832D11D48006818B91D4800681B491E
:1027C00008604620164908800020164908801848ED
:1027D000006816490968401AC82808D913480068D3
:1027E00028B1002004F0D2F8002004F067F8104867
:1027F00000680E490968401AB0F5966F0DD90B486C
:10280000006850B100200649088006490880074941
:10281000086005490870012000BD0020FCE70000A9
:10282000D2010020D6010020700000206C000020A2
:102830002C04002010B5102000F018F8012807D152
:1028400001F03EFA102000F005F8102000F008F822
:1028500010BD00000149086070470000143C0140B1
:102860000149086070470000143C01400146002007
:102870000022074B1B6803EA0102054B14331B6857
:102880000B4013B10AB1012000E0002070470000A6
:10289000003C01408CB00169002901DD016901E0C3
:1028A000016949424269002A01DD426901E0426949
:1028B00052420A448169002901DD816901E0816990
:1028C00049420A44C169002901DDC16901E0C169C9
:1028D0004942114401EE101AB8EEC10A01680029FC
:1028E00001DD016801E0016849424268002A01DD1A
:1028F000426801E0426852420A448168002901DDD1
:10290000816801E0816849420A44C168002901DD0B
:10291000C16801E0C1684942114401EE101AF8EEA5
:10292000C10A0021089109910A910B910491059126
:1029300006910791B5EEC00AF1EE10FA02DDB0EE95
:10294000401A01E0B1EE401ADFED931AB4EEE11A3D
:10295000F1EE10FA10D29FED911A8DED081A9FED4D
:102960008F1A8DED091A9FED8D1A8DED0A1A9FEDC4
:102970008B1A8DED0B1A27E090ED041AB8EEC11AF0
:1029800021EE201AC1EE001ACDED081A90ED051ABD
:10299000B8EEC11A21EE201AC1EE001ACDED091AC7
:1029A00090ED061AB8EEC11A21EE201AC1EE001AF7
:1029B000CDED0A1A90ED071AB8EEC11A21EE201AD1
:1029C000C1EE001ACDED0B1ADDED081A90ED001ADC
:1029D000B8EEC11A31EEC11A8DED041ADDED091AF7
:1029E00090ED011AB8EEC11A31EEC11A8DED051A3B
:1029F000DDED0A1A90ED021AB8EEC11A31EEC11AD5
:102A00008DED061ADDED0B1A90ED031AB8EEC11A22
:102A100031EEC11A8DED071A614991ED001ADDED15
:102A2000041A9FED602A01EE821A81ED001A91EDE1
:102A3000001ADDED041A9FED5B2A01EE821A81ED8A
:102A4000001A91ED001ADDED041A9FED562A01EEF1
:102A5000821A81ED001A91ED001ADDED041A9FED46
:102A6000512A01EE821A81ED001A002132E04C4A0F
:102A700002EB810292ED001ADFED4B1AB4EEE11A7F
:102A8000F1EE10FA02DD9FED481A04E0444A02EB31
:102A9000810292ED001A424A02EB810282ED001A95
:102AA0003F4A02EB810292ED001ADFED401AB4EECC
:102AB000E11AF1EE10FA02D29FED3C1A04E0384A16
:102AC00002EB810292ED001A354A02EB810282ED9F
:102AD000001A491C0429CADB314991ED001ADDEDC9
:102AE000041AB0EE082A01EE821ABDEEC11A8DED6D
:102AF000001A91ED011ADDED051AB0EE082A01EE7B
:102B0000821ABDEEC11A8DED011A91ED021ADDEDAA
:102B1000061AB0EE082A01EE821ABDEEC11A8DED3A
:102B2000021A91ED031ADDED071AB0EE082A01EE44
:102B3000821ABDEEC11A8DED031A002117E05DF86F
:102B40002120B2F57A6F02DD4FF47A6201E05DF880
:102B500021204DF821205DF8212012F57A6F01DA4D
:102B6000134A01E05DF821204DF82120491C042979
:102B7000E5DB016C009A11440164416C019A114437
:102B80004164816C029A11448164C16C039A1144BE
:102B9000C1640CB070470000CDCCCC3D00000000FB
:102BA000A40A00200AD7233C00007A4400007AC41B
:102BB00060F0FFFFF0B50A4600210023002400BFAB
:102BC0003DE0012505FA01F3156805EA03049C427E
:102BD00034D105684F000326BE40B5430560157922
:102BE0004E00B5400668354305601579012D02D0C9
:102BF0001579022D16D185684F000326BE40B543D6
:102C0000856055794E00B5408668354385604568D6
:102C100001268E40B5434560456896798E40B6B230
:102C200035434560C5684F000326BE40B543C560C7
:102C3000D5794E00B540C6683543C560491C10299A
:102C4000BFD3F0BDF0B5002300244D07ED0E02FA0E
:102C500005F3CE1000F1200555F826504E07F70E6B
:102C60000F26BE40B543CF1000F1200646F827508E
:102C7000CE1000F1200555F8265045EA0304CE1089
:102C800000F1200545F82640F0BD024600201369FA
:102C90000B400BB1012000E00020704741837047DA
:102CA000018370474FF6FF7101600021017141718E
:102CB0008171C171704742694A40426170470000AA
:102CC00001480078704700000C02002030B5034630
:102CD00013B94FF6FF7030BD09E013F8014B82EADB
:102CE0000400C0B2054D35F8100080EA2222080029
:102CF000A1F10101F1D11046EDE7000058B4000840
:102D000030B5034605E013F8010B80EA02040448DD
:102D1000025D0800A1F10105A9B2F4D1104630BD51
:102D200057B3000800BFFEE710B5044600F0B0F846
:102D30002CB14FF400710D48FFF7B2FF04E04FF4DF
:102D400000710A48FFF7AAFF4FF480710748FFF7A8
:102D5000A7FF012000F00CF84FF480710348FFF743
:102D60009DFF012000F004F810BD000000040240A7
:102D700010B5002106E0062200BF1300A2F10102F7
:102D8000FBD1491C8142F6D310BD000070B5002470
:102D900000F068F800251BE04FF480711148FFF740
:102DA0007DFF0120FFF7E4FF4FF480710D48FFF72E
:102DB00077FF6006040E4FF400710A48FFF765FFC5
:102DC00008B1601CC4B20120FFF7D2FF681CC5B275
:102DD000082DE1DB4FF480710248FFF75FFF2046CA
:102DE00070BD0000000402402DE9F04106460F4688
:102DF0001446984600F060F8304600F0CBF800F03A
:102E00009BF8FF2801D1BDE8F081384600F0C2F8F8
:102E100000F092F8FF2800D1F5E700F04DF8711CA2
:102E2000C8B200F0B7F800F087F8FF2800D1EAE751
:102E3000002508E0FFF7AAFF20700020FFF774FFCD
:102E4000641C681CC5B2A8F10100A842F2DCFFF7BF
:102E50009DFF20700120FFF767FF00F04DF8002074
:102E6000D1E700001CB54FF40070009000208DF8F1
:102E700004008DF806008DF8070002208DF805008B
:102E800069460248FFF796FE1CBD000000040240A0
:102E90001CB54FF40070009001208DF804008DF8EF
:102EA000060003208DF8050069460248FFF782FE00
:102EB0001CBD00000004024010B5FFF7E9FF4FF40D
:102EC00000710C48FFF7ECFE4FF480710948FFF7E2
:102ED000E7FE0120FFF74CFF4FF400710548FFF7B4
:102EE000DDFE0120FFF744FF4FF480710148FFF73A
:102EF000D5FE10BD0004024010B5FFF7C9FF4FF426
:102F000080710C48FFF7CAFE4FF400710948FFF7C3
:102F1000C5FE0120FFF72CFF4FF480710548FFF735
:102F2000BFFE4FF400710348FFF7BAFE0120FFF720
:102F30001FFF10BD0004024010B54FF47A744FF427
:102F400000711348FFF7ACFEFFF78CFF0120FFF77D
:102F50000FFF4FF480710E48FFF7A2FE0120FFF72C
:102F600007FF07E0601E80B2040003D0FFF7C4FF34
:102F7000FF2010BD4FF400710548FFF786FE0028C2
:102F8000F0D14FF480710248FFF788FE0020F0E78F
:102F90000004024070B50446FFF77AFF4FF48071D9
:102FA0001448FFF77BFE002521E004F0800028B1E3
:102FB0004FF400710F48FFF773FE04E04FF4007107
:102FC0000C48FFF76BFE6006040E0120FFF7D0FEF1
:102FD0004FF480710748FFF763FE0120FFF7C8FE3A
:102FE0004FF480710348FFF759FE681CC5B2082DE5
:102FF000DBDB70BD0004024050B1012810D109494B
:103000008978094A11720749CA7807494A7200BF8C
:1030100004490978044A117202494A7802494A72FD
:103020007047000050B70008920D002010B52F48DF
:10303000007809280AD0FFF743FE092806D10020AE
:10304000FFF7DAFF01202A4908700DE027480078D1
:10305000092809D1FFF734FE092805D00020FFF721
:10306000CBFF002022490870FFF72AFE042808D170
:103070002048007828B90020FFF7BEFF00201C4937
:1030800008701D48007850B91A480078012806D108
:103090000020FFF7B1FF0120154908700CE0164829
:1030A0000078012808D11348007828B90020FFF7DC
:1030B000A3FF00200E4908700D48007800EB801037
:1030C00000EB400040F2C261A1EB80000B490860B8
:1030D000FFF7F6FD054908700648007806490870B4
:1030E000074890F850000749087010BDC10700203C
:1030F000BC070020C3070020C2070020400C00408E
:10310000280D0020C00700203448807C00F001001A
:10311000334988703148807CC0F3400130480172E7
:103120002E48807CC0F380012D4881732B48807C21
:10313000C0F3C0012A4801752848807CC0F3001103
:10314000274881762548807CC0F34011244880F8C8
:1031500020102248807CC0F38011214880F826107E
:103160001E48807CC1091E4880F82C101B48C07C7A
:1031700000F001011A4880F832101848C07CC0F3F2
:103180004001174880F838101448C07CC0F3800113
:10319000134880F83E101148C07CC0F3C0011048AD
:1031A00080F844100D48C07CC0F300110C4880F832
:1031B0004A100A48C07CC0F34011094880F85010FA
:1031C0000648C07CC0F38011054880F856100348BB
:1031D000C07CC109024880F85C10704714080020C8
:1031E000280D002010B5424800780A2830DA4048FF
:1031F000007800282CDD3F4800684FF41661B0FBD2
:10320000F1F201FB12003A4909784900C1EB0111C2
:1032100001EB8101B0EB410F27D8364800684FF42D
:103220001661B0FBF1F201FB120020B90221324815
:10323000FFF736FD19E02F4800689621B0FBF1F248
:1032400001FB120088B902212B48FFF734FD0CE086
:10325000274800780A2804DB02212748FFF71EFDD3
:1032600003E002212448FFF71BFD244800780A28C8
:1032700030DA2248007800282CDD1E4800684FF420
:103280001661B0FBF1F201FB12001C4909784900FC
:10329000C1EB011101EB8101B0EB410F27D81548BB
:1032A00000684FF41661B0FBF1F201FB120020B987
:1032B00001211148FFF7F4FC19E00E48006896213F
:1032C000B0FBF1F201FB120088B901210A48FFF7B7
:1032D000F2FC0CE0094800780A2804DB01210648CA
:1032E000FFF7DCFC03E001210348FFF7D9FC10BD28
:1032F000D40400202C04002000080240D504002043
:103300000A2801DD0A2200E00246054B1A700A294C
:1033100001DD0A2200E00A46024B1A7070470000E5
:10332000D4040020D50400201CB50121042002F0A3
:1033300087F90320009001208DF8040000208DF80B
:10334000060003208DF8050069460648FFF732FCA9
:1033500002210448FFF7A4FC01210248FFF7A0FC6A
:103360001CBD00000008024010B55C4800689621B2
:10337000B0FBF1F201FB120000286FD1FFF7A0FCB7
:103380000C280BD2DFE800F00B06107D151A821F07
:103390002429A02E0A210846FFF7B2FF99E009214F
:1033A0000846FFF7ADFF94E009210846FFF7A8FFA4
:1033B0008FE000210120FFF7A3FF8AE00021012018
:1033C000FFF79EFF85E000210120FFF799FF80E0D5
:1033D00000210120FFF794FF7BE000210120FFF78F
:1033E0008FFF76E03E4800880E2804D10A21032092
:1033F000FFF786FF44E03A4800880F2804D10A21ED
:103400000420FFF77DFF3BE03548008804280BD0FF
:1034100033480088052807D031480088062803D0A3
:103420002F480088072804D10A210220FFF768FFEF
:1034300026E02B4800880A280BD0294800880B2852
:1034400007D0274800880C2803D0254800880D287D
:1034500005D10A210120FFF753FF11E03CE020488D
:103460000088092803D01E480088082804D10A21B2
:103470000520FFF745FF03E00A210620FFF740FF84
:1034800027E001210846FFF73BFF22E013480068D0
:103490004FF41661B0FBF1F201FB120020B90A21D2
:1034A0000020FFF72DFF0EE00C48006800F5966045
:1034B0004FF41661B0FBF1F201FB120018B90021C4
:1034C0000A20FFF71DFF04E001210846FFF718FF5F
:1034D00000BF00BFFFF786FE10BD00002C040020D7
:1034E000CC0400201CB50121042002F0A9F8202002
:1034F000009001208DF8040000208DF806000320C4
:103500008DF8050069460448FFF754FB2021024866
:10351000FFF7C4FB1CBD00000008024061480078B2
:1035200020B1012836D0022833D162E09FED5E0A37
:1035300010EE100A5D4948609FED5B0A10EE100A1C
:10354000C1F846009FED580A10EE100AC1F8880035
:103550009FED550A10EE100AC1F8CA0046205449E2
:10356000086348638863C8630846006A1E2810DD44
:103570000846406A1E280CDD0846806A1E2808DDC1
:103580000846C06A1E2804DD0120464908704949E2
:10359000087083E09FED480A10EE100A4349486026
:1035A0009FED460A10EE100AC1F846009FED430A4F
:1035B00010EE100AC1F888009FED400A10EE100AC4
:1035C000C1F8CA003E483A49086348638863C86343
:1035D0000846006849680844354989680844344900
:1035E000C968084410F1190F02DA02202D49087049
:1035F00054E02F4800682E49496808442C498968DE
:1036000008442B49C968084400280BDD2848006895
:103610002749496808442649896808442449C968F3
:1036200008440BE0224800682149496808442049C1
:10363000896808441E49C968084440420A282CDAAF
:1036400000202049C88200211E48C185A0F84610EC
:10365000A0F85E1000201649086348638863C863B9
:103660009FED150A10EE100A104948609FED120AEE
:1036700010EE100AC1F846009FED0F0A10EE100A76
:10368000C1F888009FED0C0A10EE100AC1F8CA00BC
:103690000020084908700120704700BF00BF0020CB
:1036A000FAE7000034040020CDCCCC3D1A03002002
:1036B000B40A002035040020CDCC4C3D00000000B1
:1036C000F0D8FFFF680C00204749097801297DD117
:1036D000464991ED000AB1EE400AD1ED010A70EEC3
:1036E000600A90ED000A9FED421A01EE200A80ED7B
:1036F000000A91ED000AB1EE400AD1ED010A70EE28
:10370000200A90ED010A9FED3A1A01EE200A80EDA1
:10371000010A91ED000AD1ED010A70EE600A90ED08
:10372000020A9FED331A01EE200A80ED020A91EDA4
:10373000000AD1ED010A70EE200A90ED030A9FED18
:103740002C1A01EE200A80ED030A91ED000AB1EE79
:10375000400AD1ED010A30EE600ADFED250A20EEC5
:10376000200ABDEEC00A10EE101A09B2214A1180DB
:103770001E4991ED000AB1EE400AD1ED010A30EE8A
:10378000200ADFED1B0A20EE200ABDEEC00A10EE73
:10379000101A09B2184A1180144991ED000AD1EDAE
:1037A000010A30EE600ADFED120A20EE200ABDEEBB
:1037B000C00A10EE101A09B2104A11800B4991ED9F
:1037C000000AD1ED010A30EE200A00E00AE0DFED48
:1037D000080A20EE200ABDEEC00A10EE101A09B247
:1037E000074A11807047000035040020140B0020A8
:1037F000000082426C0400206E040020700400204F
:103800007204002010B52DED048BFFF759FA04283F
:1038100072D1EE48007A0128FAD1ED4800680A21F9
:10382000B0FBF1F201FB12000028F1D1E748407A29
:10383000012804D0022860D003285CD1C6E0E34907
:10384000C988A1F5806101EB4101880007F033F9D7
:103850009FEDE00B53EC102B06F0A6FF07F0FCF8F1
:1038600000B2DE49096B0844DC490863D749C988BE
:10387000A1F5806101EB4101880007F01CF99FED83
:10388000D50B53EC102B06F08FFF07F0E5F800B2D4
:10389000D249496B0844D1494863CC49C988A1F54C
:1038A000806101EB4101880007F005F99FEDC90B2C
:1038B00053EC102B06F078FF07F0CEF800B2C749A2
:1038C000896B0844C5498863C049C988A1F58061EE
:1038D00001EB4101880007F0EEF89FEDBE0B53ECC1
:1038E000102B06F061FF07F0B7F800B2BB49C96BB7
:1038F0000844BA49C8636AE06AE0B449C988A1F5D6
:103900008061C1EBC10007F0D6F841EC190B9FEDC7
:10391000B10B53EC102B06F047FF41EC180B07F0EE
:103920009BF800B2AD49096B0844AC490863A7494C
:10393000C988A1F58061C1EBC10007F0BCF841EC7A
:10394000190B9FEDA40B53EC102B06F02DFF41EC4F
:10395000180B07F081F800B2A049496B08449F4951
:1039600048639A49C988A1F58061C1EBC10007F09D
:10397000A2F841EC190B9FED970B53EC102B06F0BE
:1039800013FF41EC180B07F067F800B29349896BFD
:10399000081A924988638D49C988A1F58061C1EBF5
:1039A000C10007F088F841EC190B9FED8A0B53EC2E
:1039B000102B06F0F9FE41EC180B07F04DF800B2A1
:1039C0008649C96B081A8549C86300E000BF00BF7B
:1039D000FFF776F9022857D08048006B1E2801DADD
:1039E0001E2001E07D48006B7C4908630846006B9F
:1039F000B0F5AF6F02DD4FF4AF6001E07748006BC8
:103A0000764908630846406B1E2801DA1E2001E053
:103A10007248406B714948630846406BB0F5AF6F20
:103A200002DD4FF4AF6001E06C48406B6B494863C6
:103A30000846806B1E2801DA1E2001E06748806B73
:103A4000664988630846806BB0F5AF6F02DD4FF4BE
:103A5000AF6001E06148806B604988630846C06BD5
:103A60001E2801DA1E2001E05C48C06B5B49C86378
:103A70000846C06BB0F5AF6F02DD4FF4AF6001E0F8
:103A80005648C06B5549C863544890ED081AB8EEC3
:103A9000C11AF0EE410A90ED0C1AB8EEC11AB0EE60
:103AA000410A4F4801F08CF9BDEEC00A4B4880ED49
:103AB000040A90ED091AB8EEC11AF0EE410A90ED31
:103AC0000D1AB8EEC11AB0EE410A4548423001F075
:103AD00077F9BDEEC00A414880ED050A90ED0A1A5B
:103AE000B8EEC11AF0EE410A90ED0E1AB8EEC11A06
:103AF000B0EE410A3A48843001F062F9BDEEC00AE6
:103B0000364880ED060A90ED0B1AB8EEC11AF0EEB9
:103B1000410A90ED0F1AB8EEC11AB0EE410A3048D2
:103B2000C63001F04DF9BDEEC00A2C4880ED070A01
:103B300090ED001AB8EEC11AF0EE410A90ED041AA9
:103B4000B8EEC11AB0EE410A264801F039F923480F
:103B500080ED100A90ED011AB8EEC11AF0EE410A9C
:103B600090ED051AB8EEC11AB0EE410A1D48423078
:103B700001F026F9194880ED110A90ED021AB8EE0D
:103B8000C11AF0EE410A90ED061AB8EEC11AB0EE75
:103B9000410A1448843001F013F9104880ED120AEC
:103BA00090ED031AB8EEC11AF0EE410A90ED071A33
:103BB000B8EEC11AB0EE410A0A48C63001F000F969
:103BC000064880ED130ABDEC048B10BD14080020DC
:103BD0002C0400200000000000A08440B40A002053
:103BE000120200201A03002010B504462078012894
:103BF00015D10B480088401C09490880012002F0BB
:103C0000C5FE012804D0012002F058FE012806D18B
:103C10000020207002F0BAFE002002F04FFE10BD1E
:103C200074040020B0EE401AF7EE001AB0EE610AFC
:103C3000F0EE081A60EEA11ADFED132A81EEA22A37
:103C4000DFED121A72EE211AB0EE610AF7EE001AD9
:103C5000B4EEE10AF1EE10FA02DDF7EE001A01E02F
:103C6000F0EE401AB0EE610ADFED081AB4EEE10A98
:103C7000F1EE10FA02D2DFED051A01E0F0EE401A83
:103C8000B0EE610A7047000000004843CDCCCC3D47
:103C900001884FF6FE72914202DA0188491C0180C8
:103CA0007047034602EB8200984202DA0120087056
:103CB00001E00020087008787047002101807047FB
:103CC0001FB50E236A463B21D020FFF78DF8FF2851
:103CD00001D104B010BD9DF801009DF8001040EA2C
:103CE000012000B2584908809DF803009DF8021099
:103CF00040EA012000B2544948809DF805009DF833
:103D0000041040EA012000B24F4988809DF8070066
:103D10009DF8061040EA012000B24B49C8809DF88A
:103D200009009DF8081040EA012000B246490881C8
:103D30009DF80B009DF80A1040EA012000B24249AC
:103D400048819DF80D009DF80C1040EA012000B25A
:103D50003D4988810846B0F9000000EE100AB8EE2F
:103D6000C00AB1EE400ADFED390A80EE201A384869
:103D700080ED001A0846B0F9020000EE100AB8EE15
:103D8000C00AB1EE400ADFED310A80EE201A304859
:103D900080ED011A0846B0F9040000EE100AB8EEF2
:103DA000C00ADFED2A0A80EE201A294880ED021AA7
:103DB0000846B0F9060000EE100AB8EEC00A9FED02
:103DC000251AC0EE010A9FED240A30EE800A204831
:103DD00080ED030A0846B0F9080020490968401A36
:103DE00000EE100AB8EEC00ADFED1D0A80EE201AC0
:103DF000174880ED041A1448B0F90A0019490968F7
:103E0000401A00EE100AB8EEC00AB1EE400ADFED2B
:103E1000140A80EE201A0E4880ED051A0A48B0F9FF
:103E20000C0011490968401A00EE100AB8EEC00AE9
:103E3000B1EE400ADFED0A0A80EE201A044880ED58
:103E4000061A002045E70000000C00200000004694
:103E5000100C00200000AA43B81E1242C807002020
:103E600000008342CC070020D007002000BFFEE7FF
:103E700070B5FEF725FF0C287DD2DFE800F01B06A9
:103E80003B7CAAF5F3F2F1F0EFEE00210846FDF7D6
:103E90003BF900231A4619461846FDF761F900233D
:103EA0001A4619461846FDF76FF800210846FDF737
:103EB00097FA22E2FE4A128A11B2FD4A928C10B29F
:103EC000FDF722F900231A4619461846FDF748F96E
:103ED00000231A4619461846FDF756F8F54991EDA4
:103EE000070ABDEEC00A10EE101A08B20021FDF755
:103EF00077FA02E2F0480068401CEF4908604FF48E
:103F00004870EE490860091D0860ED48D0ED100AC0
:103F1000B0EE600AEB48FDF7C1FDE948D0ED110AAB
:103F2000B0EE600AE748001DFDF7B8FDE448D0EDAB
:103F3000120AB0EE600AE3480830FDF7AFFDE04832
:103F4000D0ED130AB0EE600ADE480C30FDF7A6FD96
:103F5000DC48FFF7B9FBD64A128A11B2D44A928CD8
:103F600010B2FDF7D1F800231A4619461846FDF79E
:103F7000F7F8D44C00E0ABE194ED030ABDEEC00AC3
:103F800010EE104A23B2CF4C94ED020ABDEEC00AE7
:103F900010EE104A22B2CB4C94ED010ABDEEC00ADD
:103FA00010EE104A21B2C74C94ED000ABDEEC00AD3
:103FB00010EE104A20B2FCF7E7FFBE4991ED070A68
:103FC000BDEEC00A10EE101A08B20021FDF708FA83
:103FD00093E1B74A128A11B2B54A928C10B2FDF73A
:103FE00093F8B94CE36CA26C616C206CFDF7B8F8E7
:103FF000B34C94ED130ABDEEC00A10EE104A23B282
:10400000AF4C94ED120ABDEEC00A10EE104A22B277
:10401000AB4C94ED110ABDEEC00A10EE104A21B26D
:10402000A74C94ED100ABDEEC00A10EE104A20B263
:10403000FCF7AAFFA54A92ED070ABDEEC00A10EEF2
:10404000102A11B29B4A92ED070ABDEEC00A10EE8B
:10405000102A10B2FDF7C4F94FE126E04FE0F1E07D
:10406000A9E061E036E0FFE7914A128A11B2904A76
:10407000928C10B2FDF748F8934CE36CA26C616C23
:10408000206CFDF76DF800231A4619461846FCF718
:104090007BFF884991ED070ABDEEC00A10EE101AA9
:1040A00008B20021FDF79CF927E100210846FDF741
:1040B0002BF800231A4619461846FDF751F800233D
:1040C0001A4619461846FCF75FFF00210846FDF71F
:1040D00087F912E100210846FDF716F800231A4679
:1040E00019461846FDF73CF800231A4619461846AB
:1040F000FCF74AFF00210846FDF772F9FDE00021B8
:104100000846FDF701F800231A4619461846FDF740
:1041100027F800231A4619461846FCF735FF0021F8
:104120000846FDF75DF9E8E0614991ED030ABDEE4F
:10413000C00A10EE100A01F036F95D49098A0844F8
:1041400004B25B49486904F0F5F95949898C08447F
:1041500005B221462846FCF7D7FF5B4CE36CA26C06
:10416000616C206CFCF7FCFF554C94ED130ABDEE1E
:10417000C00A10EE104A23B2514C94ED120ABDEE63
:10418000C00A10EE104A22B24D4C94ED110ABDEE59
:10419000C00A10EE104A21B2494C94ED100ABDEE4F
:1041A000C00A10EE104A20B2FCF7EEFE00210846CD
:1041B000FDF716F9A1E03E4991ED030ABDEEC00AF4
:1041C00010EE100A01F0EFF83949098A084404B2E8
:1041D0003749486904F0AEF93549898C084405B27D
:1041E00021462846FCF790FF374CE36CA26C616CCB
:1041F000206CFCF7B5FF324C94ED130ABDEEC00AFB
:1042000010EE104A23B22E4C94ED120ABDEEC00AF5
:1042100010EE104A22B22A4C94ED110ABDEEC00AEB
:1042200010EE104A21B2264C94ED100ABDEEC00AE1
:1042300010EE104A20B2FCF7A7FE00210846FDF759
:10424000CFF85AE01A4A128A11B2194A928C10B267
:10425000FCF75AFF1C4CE36CA26C616C206CFCF701
:104260007FFF174C94ED130ABDEEC00A10EE104A02
:1042700023B2134C94ED120ABDEEC00A10EE104AA0
:1042800022B20F4C94ED110ABDEEC00A10EE104A96
:1042900021B20B4C94ED100ABDEEC00A10EE104A8C
:1042A00020B2FCF771FE00210846FDF799F824E0E2
:1042B00018060020500B0020480400203C04004059
:1042C000B40A0020040B0020540A00208C0B0020AC
:1042D00000210846FCF718FF00231A461946184625
:1042E000FCF73EFF00231A4619461846FCF74CFE21
:1042F00000210846FDF774F800BF00BF70BD70478D
:1043000070B5002100230F22C4781CB3174C246819
:1043100004F4E064C4F5E064C4F30721C1F10404CB
:10432000E3B20A4144789C40E1B2847814402143CE
:104330000C07210E0E4C05786155047804F01F051A
:104340000124AC4005786D11AD0005F1E025C5F8FC
:10435000004109E0047804F01F050124AC40054D3C
:104360000678761145F8264070BD00000CED00E09F
:1043700000E400E080E100E002490143024A1160EC
:10438000704700000000FA050CED00E070B506462D
:104390000024351DA3E0285DC02840D012DCA528EC
:1043A00029D008DC90281ED0A02821D0A12820D018
:1043B000A22877D11EE0B02826D0B12825D0B22877
:1043C000F7D123E0D1287BD006DCC12828D0C22831
:1043D00027D0D028EDD12DE0D92865D0E02879D09C
:1043E000F02879D174E0687840490870A41C75E021
:1043F00000BF00BF00BF29193D4851F8012F0260DE
:1044000089888180E41D69E000BF00BF291939480F
:1044100051F8012F026089888180E41D5EE000BFB1
:1044200000BF2919344851F8012F02608988818022
:10443000E41D53E0601C295CA01C285C01EB0020FB
:1044400000B200EE100AB8EEC00ADFED2C0A80EED2
:10445000201A2B4880ED001AE01C295C201D285CE6
:1044600001EB002000B200EE100AB8EEC00ADFED4A
:10447000230A80EE201A224880ED011A601D295C73
:10448000A01D285C01EB002000B200EE100AB8EE7F
:10449000C00AF2EE040A80EE201A194880ED021AD2
:1044A000E41D1BE018E00BE02919154851F8012F15
:1044B00002604A684260896881600D340EE009E05C
:1044C0002819411C10220F48FBF7EFFE113405E0BC
:1044D000641D03E0641D01E0641C00BF00BFB6F86A
:1044E0008400A0423FF757AF70BD00004E08002087
:1044F0003C08002042080020480800200000C84274
:10450000A80E0020B40E00200021F7EE000AB0EE45
:10451000600AD0E904239A4201DD026900E04269A1
:10452000114682698A4201DA0A4600E08269114630
:10453000C2698A4201DA0A4600E0C269114600EE09
:10454000901AF8EEE00A9FED1D1AF4EEC10AF1EEA2
:1045500010FA31DD00EE901AF8EEE00A9FED171A1E
:10456000C1EE201AB0EE610AD0ED040AF8EEE00ABE
:1045700060EE800AFDEEE00AC0ED040AD0ED050A07
:10458000F8EEE00A60EE800AFDEEE00AC0ED050AF2
:10459000D0ED060AF8EEE00A60EE800AFDEEE00AD1
:1045A000C0ED060AD0ED070AF8EEE00A60EE800AD8
:1045B000FDEEE00AC0ED070A7047000000D0044697
:1045C00070B505460C46FEF77BFB042803D0FEF7CA
:1045D00077FB052876D14648007800F001000028D6
:1045E000F8D144488078D0B14348B0F90000B0F524
:1045F000257F0BDA4048B0F90000002806DB3E4872
:104600000088401C00B23C49088029E03A48B0F9D3
:104610000000002824DA00203749088020E03548CF
:10462000007AD0B13448B0F9000010F5257F0BDDD9
:104630003148B0F90000002806DC2F480088401EF1
:1046400000B22D4908800BE02B48B0F9000000288B
:1046500006DD00202849088002E000202649088065
:104660002448007DC8B12548B0F90000B0F5257F89
:104670000BDA2248B0F90000002806DB1F4800884A
:10468000401C00B21D49088029E0B4F90000002850
:1046900025DA00201949088021E01648807BD8B12E
:1046A0001648B0F9000010F5257F0CDD1348B0F96D
:1046B0000000002807DC11480088401E00B20F49A6
:1046C00008800CE013E00D48B0F90000002806DD7A
:1046D00000200A49088002E00020084908800648B6
:1046E000B0F9000028800548B0F90000208070BDB6
:1046F0002C040020280D0020FC010020FE010020D9
:1047000010B504462B48007C01280DD02948407C78
:10471000012809D02748B0F90A00012804DC2548FF
:10472000B0F90C00012802DD00202349087023495C
:10473000488A012102F03EFB012815D1207801288A
:1047400012D11C48007C01280ED11D48007858B9B0
:104750001C480088401C00B21A4908801A4800888A
:10476000401C00B2184908801848007830B9184831
:1047700090F84A00012801D1207006E0144890F812
:104780004C00022801D100202070207820B920217F
:104790001048FEF783FA03E020210E48FEF780FA66
:1047A0000448007C06490870094890F84A00074907
:1047B000087010BD14080020E8050020220A00201F
:1047C000FF050020340B0020700B002000060020A5
:1047D000280D00200008024010B5AF4A127842B9F7
:1047E000AE4A1278012A04D190ED000AAC4A82ED5B
:1047F000000AAC4A12783AB990ED000AA84A82ED54
:10480000000A0122A74B1A70A74A1278A2BBA74A36
:1048100092F82620012A4CD1A54A92ED000AB5EE65
:10482000C00AF1EE10FA02DD92ED000A04E0A04A9F
:1048300092ED000AB1EE400ADFED9E0AB4EEE00A06
:10484000F1EE10FA35D2964A92ED000ADFED9A0A9F
:1048500030EE200A82ED000A92ED000ADFED970AA1
:10486000B4EEE00AF1EE10FA07DD92ED000ADFED9A
:10487000940A30EE600A03E01BE0894A92ED000AD8
:10488000874A82ED000A92ED000ADFED8E0AB4EE4F
:10489000E00AF1EE10FA06D292ED000ADFED880A86
:1048A00030EE200A02E07E4A92ED000A7C4A82ED58
:1048B000000A7E4A92F826207B4B1A70824A1278B0
:1048C000A2BB7A4A92F82C20012A4CD1784A92ED68
:1048D000000AB5EEC00AF1EE10FA02DD92ED000A10
:1048E00004E0734A92ED000AB1EE400ADFED710A6E
:1048F000B4EEE00AF1EE10FA35D2694A92ED000A00
:10490000DFED6D0A30EE600A82ED000A92ED000ADA
:10491000DFED6A0AB4EEE00AF1EE10FA07DD92ED7F
:10492000000ADFED670A30EE600A03E01BE05C4A34
:1049300092ED000A5A4A82ED000A92ED000ADFED7C
:10494000610AB4EEE00AF1EE10FA06D292ED000A26
:10495000DFED5B0A30EE200A02E0514A92ED000AD8
:104960004F4A82ED000A514A92F82C20564B1A7099
:10497000564A12680A23B2FBF3F403FB1422002AFE
:1049800077D1534AB2F90A2000EE102AB8EEC00AD5
:10499000F2EE0E0A60EE200A9FED4E1A80EE810ABA
:1049A0003F4AD2ED000A30EEC00A82ED000A484AC2
:1049B000B2F90C2000EE102AB8EEC00AF0EE000AA0
:1049C00020EE200AF0EE080A80EE201A424A92ED0C
:1049D000000A31EE000A82ED000A314A92ED000A27
:1049E000DFED360AB4EEE00AF1EE10FA06DD92EDE4
:1049F000000ADFED330A30EE600A02E0284A92ED49
:104A0000000A274A82ED000A92ED000ADFED2D0A26
:104A1000B4EEE00AF1EE10FA06D292ED000ADFEDF4
:104A2000280A30EE200A02E01D4A92ED000A1C4AD4
:104A300082ED000A284A92ED000ADFED280AB4EE62
:104A4000E00AF1EE10FA02DD9FED240A02E0224AAC
:104A500092ED000A204A82ED000A92ED000ADFED95
:104A6000200AB4EEE00AF1EE10FA03D29FED1C0A20
:104A700003E00FE0184A92ED000A174A82ED000A9F
:104A8000074A92ED000A80ED000A134A92ED000AEF
:104A900081ED000A10BD00005207002051070020E0
:104AA000540700205C0700205D070020280D00202F
:104AB000DC0100207BD9A03E000061440000E144FD
:104AC000000061450000E1C45E0700202C040020C6
:104AD00014080020000020425807002000404945EB
:104AE0000060014500B5F0EE402AB0EE603A416941
:104AF00000EE101AB8EEC00AB4EEE20AF1EE10FAB7
:104B000006D2416900EE101AB8EEC00AF0EE402A53
:104B1000016900EE101AB8EEC00AB4EEE20AF1EE36
:104B200010FA06DD016900EE101AB8EEC00AF0EEC8
:104B3000402A816A416232EEC30A10EE101A816285
:104B400072EEC30AC16800EE101AF4EEC00AF1EE6C
:104B500010FA02DDC168816213E072EEC30AC16817
:104B600000EE101AB1EE400AF4EEC00AF1EE10FAAF
:104B700007D2C16800EE101AB1EE400A10EE101A0A
:104B8000816232EEC30AB5EEC00AF1EE10FA02DD20
:104B900032EEC30A03E032EEC30AB1EE400A816B83
:104BA00000EE901AF8EEE00AB4EEE00AF1EE10FA28
:104BB00004D89FED5B0A10EE101A8162816A00EE44
:104BC000101AC16A00EE901A9FED561A01EE200AE3
:104BD00010EE101AC162816A00EE101A416A00EEEE
:104BE000901A70EE600A816800EE101A20EE800ABA
:104BF00010EE101A0163C16A00EE101A016A00EE8D
:104C0000901AB4EEE00AF1EE10FA01DD016AC16219
:104C1000C16A00EE101A016A00EE901AF1EE600A05
:104C2000B4EEE00AF1EE10FA07D2016A00EE101AB3
:104C3000B1EE400A10EE101AC162816A00EE101A3D
:104C4000016800EE901A20EE200ABDEEC00A10EEB8
:104C5000101A09B28187016B00EE101ABDEEC00A6E
:104C600010EE101A09B2C187C16A00EE101A41682D
:104C700000EE901A20EE200ABDEEC00A10EE101AC7
:104C800009B2A0F84010816A00EE101A00F04CF84A
:104C9000816A00EE901A016801EE101A60EE810A36
:104CA00020EE201AC16A00EE101A416800EE901A38
:104CB00000EE201A016B00EE101A31EE000A10EE21
:104CC000101A4163416B00EE101AC16900EE901A90
:104CD000F8EEE00AB4EEE00AF1EE10FA07DDC16981
:104CE00000EE101AB8EEC00A10EE101A4163416BC4
:104CF00000EE101A816900EE901AF8EEE00AB4EEA8
:104D0000E00AF1EE10FA07D2816900EE101AB8EE4F
:104D1000C00A10EE101A4163416B00EE101A00BD7C
:104D20000000000077BE7F3FF0EE400AB7EE001AA9
:104D3000B0EE410AF5EEC00AF1EE10FA02DDB0EE77
:104D4000601A01E0B1EE601ADFED1A1AB4EEE11A52
:104D5000F1EE10FA2DD2F5EEC00AF1EE10FA02DDF6
:104D6000B0EE601A01E0B1EE601A9FED122AC1EEBA
:104D7000021A9FED111A31EE811AB0EE410AB7EE18
:104D8000001AB4EEC10AF1EE10FA02DDB7EE001A15
:104D900001E0B0EE401AB0EE410AB5EEC00AF1EE05
:104DA00010FA02D29FED051A01E0B0EE401AB0EE03
:104DB000410A70470000C843CDCCCC3E0000000043
:104DC000B0EE401A416900EE101AB8EEC00AB4EE17
:104DD000C10AF1EE10FA06D2416900EE101AB8EEDF
:104DE000C00AB0EE401A016900EE101AB8EEC00A0F
:104DF000B4EEC10AF1EE10FA06DD016900EE101AF8
:104E0000B8EEC00AB0EE401A816A416231EE600A23
:104E100010EE101A816271EE601AC16800EE101A6D
:104E2000F4EEC01AF1EE10FA02DDC168816213E0FF
:104E300071EE601AC16800EE101AB1EE400AF4EE8D
:104E4000C01AF1EE10FA07D2C16800EE101AB1EEE6
:104E5000400A10EE101A816231EE600AB5EEC00A07
:104E6000F1EE10FA02DD31EE600A03E031EE600A85
:104E7000B1EE400A816B01EE901AF8EEE11AB4EE41
:104E8000E10AF1EE10FA04D89FED570A10EE101A5D
:104E90008162816A00EE101AC16A01EE901A9FEDDC
:104EA000532A02EE210A10EE101AC162816A00EE46
:104EB000101A416A01EE901A70EE611A816800EED4
:104EC000101A21EE800A10EE101A0163C16A00EE7A
:104ED000101A016A01EE901AB4EEE10AF1EE10FA2E
:104EE00001DD016AC162C16A00EE101A016A01EEB9
:104EF000901AF1EE611AB4EEE10AF1EE10FA07D25F
:104F0000016A00EE101AB1EE400A10EE101AC162EA
:104F1000816A00EE101A016801EE901A20EE210A53
:104F2000BDEEC00A10EE101A09B28187016B00EEC7
:104F3000101ABDEEC00A10EE101A09B2C187C16A7C
:104F400000EE101A416801EE901A20EE210ABDEE23
:104F5000C00A10EE101A09B2A0F84010816A00EEE3
:104F6000101A016801EE901A20EE212AC16A01EEA2
:104F7000901A416800EE101A01EE802A016B00EED3
:104F8000101A32EE000A10EE101A4163416B00EE67
:104F9000101AC16901EE901AF8EEE11AB4EEE10AB6
:104FA000F1EE10FA07DDC16900EE101AB8EEC00A82
:104FB00010EE101A4163416B00EE101A816901EE88
:104FC000901AF8EEE11AB4EEE10AF1EE10FA07D207
:104FD000816900EE101AB8EEC00A10EE101A416393
:104FE000416B00EE101A70470000000077BE7F3F53
:104FF00000B58BB00121022000F022FB0121084600
:1050000000F01EFB0121022000F02AFB01210820F4
:1050100000F026FB0320099002208DF828000320D1
:105020008DF8290009A96A48FDF7C4FDCF20099031
:1050300002208DF8280003208DF8290009A9654871
:10504000FDF7B8FD022200216148FDF7FBFD0222B9
:1050500001215F48FDF7F6FD022206215D48FDF7BC
:10506000F1FD022207215B48FDF7ECFD0222002141
:105070005848FDF7E7FD022201215648FDF7E2FD01
:10508000022211465348FDF7DDFD0222032151485B
:10509000FDF7D8FD5320ADF818000020ADF81A0038
:1050A00044F6206007900020ADF8200006A94A4889
:1050B00002F0E8F95320ADF818000020ADF81A000E
:1050C00044F6206007900020ADF8200006A9434870
:1050D00002F0D8F97020ADF804000120ADF8060008
:1050E0000020ADF808004FF47A7003900220ADF86C
:1050F00010000020ADF81200ADF814004FF48070DD
:10510000ADF8160001A9344802F070F801A9324840
:1051100002F0B4F801A9304802F010F901A92E48B4
:1051200002F066F94FF47A70039001A92B4802F05F
:105130005DF801A9294802F0A1F801A9274802F069
:10514000FDF801A9254802F053F90821224802F090
:105150008BF80821204802F0E3F808211E4802F0ED
:105160003DF908211C4802F07FF908211B4802F094
:105170007BF80821194802F0D3F80821174802F0FB
:105180002DF90821154802F06FF90121124801F0AC
:10519000F5FF0121114801F0F1FF01210E4801F056
:1051A000FFFF01210D4801F0FBFF4FF40C700A498D
:1051B0003431086040F6C410091D0860C00007497A
:1051C0003C3108600020091F08600BB000BD0000E2
:1051D000000402400000024000040040000C0040B7
:1051E00010B504466148007807287DD2DFE800F05A
:1051F000040A333D4D5363005A2C02D101205B4910
:105200000870B0E05A48006880F888405848006844
:1052100090F88800A52804D0A62806D0A72818D181
:105220000FE002205149087013E05248006820B195
:105230004F4800684F490968884700204B4908706B
:1052400007E000204A4909680860062047490870BD
:1052500000BF00BF87E046480068A0F88440464889
:1052600084700320414908707DE041480068B0F82F
:10527000840040EA04203E490968A1F884003E48C1
:10528000C4700420394908706DE03C480480052052
:105290003649087067E03948008840EA04203749F9
:1052A00008800020324909680860354908800620D6
:1052B0002E49087057E02E48006801682C480068A5
:1052C0000068401C2A4A1268106029480068001DC6
:1052D00044542748006890F88800A72813D1244830
:1052E00000680068082800E039E00CD30820204955
:1052F0000968A1F884001E4800681E4909688847AB
:1053000000201A4908701A4800680068184909689E
:10531000B1F88410884221D31548006890F88800BD
:10532000A5281BD104221449154804F03DFF10485C
:10533000006802680E480168091D114804F034FF36
:105340000F4800880D490988884204D10848006840
:1053500008490968884700200449087003E00020D4
:105360000249087000BF00BF002010BD5C0800208B
:1053700054080020500800205D0800205808002034
:105380005A08002070B504460D46044805608C217B
:105390002046FAF7CFFF0248046070BD5008002095
:1053A00054080020704701460020704770B52DED6D
:1053B000088B06460C461546287BE97A40EA012010
:1053C00000B22082204600F035F8B4F9100005F054
:1053D00072FB41EC1B0B9FED140B53EC102B05F0F3
:1053E000E3F941EC190BB4F9160000EE100AB8EE1F
:1053F000C00ADFED0F0A20EE200A10EE101A084650
:1054000005F0B6FE41EC1A0B53EC192B05F010F920
:1054100041EC180B05F020FBB4F9161000EBC100AD
:105420003060BDEC088B70BD0000000000408F4074
:105430005C8F423E818A028A891A09B24182B0F9A0
:10544000121041F25452914204DDC18A491C09B242
:10545000C18208E0B0F91210044A914203DAC18A0D
:10546000491E09B2C182018A81827047ACEAFFFFFE
:105470000B684A69D21A354B1A601A461268002A1C
:1054800002DD1A46126802E0304A12685242062AC9
:105490000FDDB1F91020002A02DDB1F9102002E081
:1054A000B1F9102052420A2A03DA8269521C826141
:1054B00001E0002383618269642A05D9027D1AB95B
:1054C00001220275224B1A70027D012A3DD1204A29
:1054D0001278012A04D0022A11D0032A34D12AE0FA
:1054E0000A68223A1B4B1A601A4692ED000AB8EE7F
:1054F000C00A80ED020A0222154B1A7024E0154AF8
:1055000092ED000AB8EEC00A80ED020A114B0A685B
:105510001B68D21A002A04DD0E4B0A681B68D21AD7
:1055200003E00C4B0A681B689A1A282A02DA032245
:10553000074B1A7008E000220275054B1A7042886A
:1055400002800023836100BF00BF70470406002073
:1055500008060020EC0500200B684A69D21A354B7A
:105560001A601A461268002A02DD1A46126802E022
:10557000304A12685242062A0FDDB1F91020002A83
:1055800002DDB1F9102002E0B1F9102052420A2ADE
:1055900003DA8269521C826101E00023836182691F
:1055A000642A05D9027D1AB901220275224B1A70AC
:1055B000027D012A3DD1204A1278012A04D0022A14
:1055C00011D0032A34D12AE00A68223A1B4B1A6010
:1055D0001A4692ED000AB8EEC00A80ED020A0222D5
:1055E000154B1A7024E0154A92ED000AB8EEC00A75
:1055F00080ED020A114B0A681B68D21A002A04DDEA
:105600000E4B0A681B68D21A03E00C4B0A681B6831
:105610009A1A282A02DA0322074B1A7008E000229D
:105620000275054B1A70428802800023836100BF17
:1056300000BF70470C06002010060020F005002077
:1056400029B1064A12680243044B1A6004E0034A77
:1056500012688243014B1A607047000030380240E4
:1056600029B1064A12680243044B1A6004E0034A57
:1056700012688243014B1A607047000040380240B4
:1056800029B1064A12680243044B1A6004E0034A37
:1056900012688243014B1A607047000020380240B4
:1056A00029B1064A12680243044B1A6004E0034A17
:1056B00012688243014B1A60704700004438024070
:1056C00029B1064A12680243044B1A6004E0034AF7
:1056D00012688243014B1A60704700002438024070
:1056E000F0B5002100220024022500260223324FBB
:1056F0003F6807F00C0121B1042905D0082937D1F2
:1057000005E02E4F076036E02D4F076033E02A4F4B
:105710003F1F3F68C7F38056274F3F1F3F6807F082
:105720003F036EB1264FB7FBF3F7DFF88CC0ACF147
:10573000040CDCF800C0CCF3881C07FB0CF40CE074
:105740001E4FB7FBF3F7DFF870C0ACF1040CDCF8C8
:1057500000C0CCF3881C07FB0CF4174F3F1F3F68B9
:10576000C7F301477F1C7D00B4FBF5F7076002E03B
:10577000124F076000BF00BF0F4F3F6807F0F001F6
:105780000909104F7A5C0768D74047600A4F3F68A5
:1057900007F4E051890A0B4F7A5C4768D74087606D
:1057A000054F3F6807F46041490B064F7A5C476834
:1057B000D740C760F0BD0000083802400024F40064
:1057C00000127A00040800201E4800881D494988FC
:1057D00008441C49898808441A49C9880844A0F526
:1057E000805000280DDD1748008816494988084474
:1057F0001449898808441349C9880844A0F5805091
:105800000CE0104800880F49498808440D498988F0
:1058100008440C49C9880844C0F58050082810DDA8
:1058200000BFBFF34F8F0848006800F4E0600749ED
:105830000843001D04490860BFF34F8F00BF00BF3D
:10584000FEE77047140800200CED00E00000FA05A8
:1058500010B5FDF735FA042803D0FDF731FA052815
:1058600041D15D48007880BB00BF5C484088A0F50E
:1058700080605B49B1F90010401A01280CDD5748DF
:105880004088A0F580600A2806DD56480088401C44
:1058900000B25449088020E050484088A0F580605C
:1058A0004F49B1F90010401AB0F1FF3F0EDA4B48F2
:1058B0004088A0F5806010F10A0F07DA4948008897
:1058C000401E00B24749088007E00CE0434840888A
:1058D000A0F5806000B2434908804248B0F900005A
:1058E0003F49088014E0FDF7EBF9092803D03A4856
:1058F000007801280CD100BF38484088C0F580608E
:1059000000B2384908800846B0F9000034490880E0
:1059100000BFFDF7D5F909283BD02F48007878BBA8
:105920002E480088A0F580602F49B1F90010401A78
:1059300001280CDD29480088A0F580600A2806DDD2
:105940002A480088401C00B22849088028E02348E3
:105950000088A0F580602449B1F90010401AB0F128
:10596000FF3F0EDA1D480088A0F5806010F10A0F95
:1059700007DA1E480088401E00B21C4908800FE06C
:1059800007E016480088A0F5806000B2174908803B
:1059900006E012480088C0F5806000B21349088014
:1059A0001248B0F9000010490880FDF789F909286C
:1059B00003D00948007801280DD108488088A0F557
:1059C00080604FF4967148434FF4257190FBF1F0DD
:1059D00000B20749088010BDC3070020140800204A
:1059E000F8010020D2010020FA010020D40100209B
:1059F000D601002010B504461E480078012833D196
:105A00001D49488A012101F0D5F901281AD12078D1
:105A1000012817D11948007A012813D118480078B5
:105A200003280FD11548407A02280BD11548008869
:105A3000C01C00B21349088013480088C01C00B283
:105A4000114908800D48007A01280DD10C480078D2
:105A5000032809D10948407A012805D1207808B9DE
:105A6000012000E0002020700448407A04490870BA
:105A700010BD0000E8050020220A002014080020C4
:105A8000FE050020340B0020700B002070B52DEDBA
:105A90000A8B04460D46444800680F21B0FBF1F222
:105AA00001FB1200002858D140498988A1F5806087
:105AB00005F001F841EC1C0B9FED3D0B53EC102B56
:105AC00005F060F841EC1B0B9FED3B0B53EC102BEA
:105AD00004F06AFE41EC190B394890ED080A10EE0B
