:020000040800F2
:100000001014002069020008C53800080125000806
:10001000CD3400087D0A0008D75B0008000000000E
:10002000000000000000000000000000954A0008E9
:10003000A51F000800000000914000088D4F000837
:10004000830200088302000883020008830200087C
:10005000830200088302000883020008830200086C
:10006000830200088302000865220008830200085A
:1000700083020008851A000883020008991B000803
:10008000830200088302000883020008830200083C
:10009000E50C0008830200088302000883020008C0
:1000A000830200088302000883020008830200081C
:1000B000830200088302000883020008830200080C
:1000C00083020008830200088302000883020008FC
:1000D000830200088302000883020008A957000871
:1000E00083020008830200088302000883020008DC
:1000F00083020008830200088302000883020008CC
:1001000083020008830200088302000883020008BB
:10011000830200088302000841500008830200089F
:1001200083020008830200089D1B00088302000868
:10013000830200088302000883020008830200088B
:10014000950F00088302000883020008830200085C
:100150008302000883020008830200086158000837
:10016000830200088302000883020008830200085B
:10017000830200088302000883020008830200084B
:10018000830200088302000800F002F800F05CF827
:100190000AA090E8000C82448344AAF10107DA45E2
:1001A00001D100F051F8AFF2090EBAE80F0013F0D8
:1001B000010F18BFFB1A43F001031847CC7C000065
:1001C000EC7C00000A444FF0000C10F8013B13F0E7
:1001D000070408BF10F8014B1D1108BF10F8015BA0
:1001E000641E05D010F8016B641E01F8016BF9D193
:1001F00013F0080F1EBF10F8014BAD1C0C1B09D1EA
:100200006D1E58BF01F801CBFAD505E014F8016B5B
:1002100001F8016B6D1EF9D59142D6D370470000ED
:100220000023002400250026103A28BF78C1FBD8FF
:10023000520728BF30C148BF0B6070471FB507F099
:10024000ACFB1FBD10B510BD00F0E4F81146FFF780
:10025000F5FF06F005FE00F002F903B4FFF7F2FF28
:1002600003BC06F059FC00000948804709480047D4
:10027000FEE7FEE7FEE7FEE7FEE7FEE7FEE7FEE756
:10028000FEE7FEE704480549054A064B70470000B3
:10029000914F000889010008100E00201014002062
:1002A00010100020101000207047032A40F2308008
:1002B00010F0030C00F0158011F8013BBCF1020FA7
:1002C000624498BF11F801CB00F8013B38BF11F828
:1002D000013BA2F1040298BF00F801CB38BF00F83F
:1002E000013B11F0030300F05B80083AC0F0088086
:1002F00051F8043B083A51F804CBA0E80810F5E7A0
:10030000121D5CBF51F8043B40F8043BAFF3008082
:10031000D20724BF11F8013B11F801CB48BF11F8F7
:10032000012B24BF00F8013B00F801CB48BF00F8C7
:10033000012B70474FF0000200B5134694469646D5
:10034000203922BFA0E80C50A0E80C50B1F12001E8
:10035000BFF4F7AF090728BFA0E80C5048BF0CC096
:100360005DF804EB890028BF40F8042B08BF7047F4
:1003700048BF20F8022B11F0804F18BF00F8012B66
:100380007047704770477047704710B500F03AF8F3
:10039000006810BD10B5044600F034F8046010BDCC
:1003A00010B5203AC0F00B80B1E81850203AA0E810
:1003B0001850B1E81850A0E81850BFF4F5AF5FEA44
:1003C000027C24BFB1E81850A0E8185044BF18C9F7
:1003D00018C0BDE810405FEA827C24BF51F8043B9E
:1003E00040F8043B08BF7047D20728BF31F8023BF2
:1003F00048BF11F8012B28BF20F8023B48BF00F886
:10040000012B704700487047AC0D00200048704732
:10041000AC0D00207546FFF7F9FFAE4605006946B2
:10042000534620F00700854618B020B5FFF72AFF95
:10043000BDE820404FF000064FF000074FF00008E5
:100440004FF0000B21F00701AC46ACE8C009ACE866
:10045000C009ACE8C009ACE8C0098D467047044645
:10046000AFF300802046FFF7F8FE000000B5002043
:1004700004F06EFC012004F09FFB002004F04CFB14
:1004800000203D490880012004F096FB012870D12E
:10049000002004F041FB01286BD16FF06D0037495B
:1004A00008800020344908803548007850B9344825
:1004B000407838B96FF009003049088000202E4993
:1004C000088022E02E48007801280ED12C48407880
:1004D00058B9012004F03CFC6FF00900274908805E
:1004E0006FF01D00244908800FE02548007860B9AE
:1004F00023484078012808D104F02AFC6FF0090055
:100500001E4908801E201C4908801D4800790128CA
:100510000CD11B484079012808D16FF031001749F0
:100520000880002014490880012000BD144800798B
:1005300070B91348407901280AD104F009FC6FF022
:1005400031000E4908806FF01D000B49088010E053
:100550000B48007901280CD10948407948B901209D
:1005600004F0F6FB6FF03100044908801E200249B8
:1005700008800020D9E70000D2010020CE01002031
:10058000F606002010B5002013E09FED370A10EEAC
:10059000101A00EB4012354B03EB420251609FED05
:1005A000340A10EE101A00EB401203EB4202116203
:1005B000401C0428E9DB2F480078062851D2DFE8E8
:1005C00000F0030A121A222A00F0DEF8012801D1F5
:1005D0002849087045E0FFF749FF012802D10220B1
:1005E000244908703DE000F04BF8012802D10320B7
:1005F0002049087035E000F069F9012802D1042093
:100600001C4908702DE0FFF731FF012802D10520B9
:100610001849087025E000F033F8012820D10520A2
:1006200004F090FB00201349087000BF13E09FED19
:10063000120A10EE101A00EB40120C4B03EB4202B0
:1006400051609FED0E0A10EE101A00EB401203EB02
:1006500042021162401C0428E9DB012004F078FB0F
:1006600000BF00BF10BD00003E0AD73D7000002053
:100670006E43D14754000020295C0F3D49828B47CF
:1006800000B53B48006818B93A4800683849086026
:100690003848006836490968401AB0F5E17F64D9E6
:1006A000002004F055FB002004F086FA002004F03E
:1006B00033FA00203049088004F07EFA012828D15E
:1006C000002004F029FA012823D12C48006850B9F1
:1006D00028480068294908606FF09F002849088071
:1006E0000020254908802348006824490968401AE9
:1006F00040F28A21884238D96FF0310020490880C1
:1007000000201D4908801D49086019490860012022
:1007100000BD1C48007850B91A48407838B96FF0CD
:100720003100174908800020134908801DE0154852
:10073000007801280BD11348407840B96FF03100A0
:100740000F4908806FF01D000B4908800DE00D482F
:10075000007850B90B484078012806D16FF031007D
:10076000074908801E20044908800020D0E70000C7
:100770006800002008040020D2010020640000204E
:10078000CE010020F606002000B5002004F0E0FABB
:10079000012004F011FA012004F0BEF900204849BC
:1007A0000880012004F008FA012803D104F0B4F90C
:1007B000012807D06FF045004249088000204049D9
:1007C000088006E06FF06D003E49088000203C493B
:1007D0000880012004F0F0F901280DD13A48807812
:1007E00050B93948C07838B96FF0090035490880E8
:1007F0000020334908802CE0012004F0DDF90128B5
:1008000012D13148807801280ED12F48C07858B9CC
:10081000012004F09DFA6FF009002A4908806FF06A
:100820001D002749088014E0012004F0C5F90128C3
:100830000FD12548807860B92348C078012808D1B5
:1008400004F086FA6FF009001E4908801E201C493A
:1008500008801D48807901280CD11B48C0790128E7
:1008600008D16FF031001749088000201449088032
:10087000012000BD1448807970B91348C07901285F
:100880000AD104F065FA6FF031000E4908806FF06C
:100890001D000B49088010E00B48807901280CD11D
:1008A0000948C07948B9012004F052FA6FF03100CC
:1008B000044908801E20024908800020D9E7000072
:1008C000D2010020CE010020F606002000B5002055
:1008D00004F03EFA012004F06FF9012004F01CF945
:1008E000002048490880012004F066F9012803D15E
:1008F00004F012F9012807D06FF03B00424908804C
:1009000000204049088006E06FF06D003E490880F5
:1009100000203C490880012004F04EF901280DD147
:100920003A48807850B93948C07838B96FF0090032
:10093000354908800020334908802CE0012004F06C
:100940003BF9012812D13148807801280ED12F4877
:10095000C07858B9012004F0FBF96FF009002A496A
:1009600008806FF01D002749088014E0012004F082
:1009700023F901280FD12548807860B92348C07831
:10098000012808D104F0E4F96FF009001E4908803D
:100990001E201C4908801D48807901280CD11B4865
:1009A000C079012808D16FF0310017490880002074
:1009B00014490880012000BD1448807970B913489B
:1009C000C07901280AD104F0C3F96FF031000E4953
:1009D00008806FF01D000B49088010E00B488079FB
:1009E00001280CD10948C07948B9012004F0B0F9B8
:1009F0006FF03100044908801E2002490880002061
:100A0000D9E70000D2010020CE010020F606002028
:100A100010B54FF4A06002F093FF01F015FF03F052
:100A200089F901F0C3FF134804F088FD4FF46150C9
:100A300004F038FF4FF4E13004F016FE02F0DEFB64
:100A400000B20D49088002F06DFB02F029FC06F0AF
:100A500051FA06F02FF906F0B7F84FF4FA7006F0E5
:100A6000A5F804F0C9FA00F0C1F800F017FA04F094
:100A7000FBFA10BDA08601000000002000BFFEE7C9
:100A800010B50446224600213A4800F0D8FC206800
:100A9000A0F20120062869D2DFE800F0031122331A
:100AA00044562146344804F069FA22463349324814
:100AB000203003F0F1FA324802F031FB57E02146D2
:100AC0002D48001D04F05AFA22462C4918312A48B4
:100AD000243003F0E1FA2A48801C02F020FB46E0B3
:100AE00021462548083004F049FA2246234930318E
:100AF0002148283003F0D0FA2148001D02F00FFBF6
:100B000035E021461C480C3004F038FA22461B49D7
:100B1000483119482C3003F0BFFA1948801D02F003
:100B2000FEFA24E0207BE17A40EA01201549486181
:100B3000A17B607B41EA002000B212498861104825
:100B4000001F02F0ECFA12E0207BE17A40EA01207B
:100B50000C490860A17B607B41EA002000B2094992
:100B600048600748801E02F0DAFA00E000BF00BFCC
:100B700010BD000000640040400A0020C40B0020AB
:100B80008404002058050020F0B585B004460D46C9
:100B900016461F464FF40070009000208DF80800A4
:100BA0008DF8090008208DF80A00200A8DF80B0046
:100BB000E1B28DF80C10290A8DF80D10E9B28DF80C
:100BC0000E10310A8DF80F10F1B28DF81010390A9D
:100BD0008DF81110F9B28DF812106946024800F034
:100BE000B6FC05B0F0BD00000064004000B58BB05D
:100BF0000121084603F026FB0121480603F032FBE1
:100C000009220B21354801F0EFFB09220C21334862
:100C100001F0EAFB4FF4C050029002208DF80C0066
:100C200002A92E4801F098FB14208DF80400012041
:100C30008DF8050000208DF8060001208DF80700D2
:100C400001A802F041FE264800F036FA08A800F09C
:100C50006EFC00208DF826008DF827008DF8280006
:100C60008DF829008DF82A0001208DF82B00002036
:100C70008DF822008DF8230008208DF82400032031
:100C80008DF82500ADF8200008A9154800F04DFBAF
:100C900001208DF81A0000208DF81B0001208DF82E
:100CA0001C000020ADF81000ADF81200ADF81400E3
:100CB000ADF81600ADF8180001208DF81D0004A84D
:100CC00000F016FA01220221054800F025FB01225E
:100CD0001146034800F020FB0BB000BD00000240AD
:100CE0000064004000B585B00221064800F084FA97
:100CF00030B10221034800F08BF96846FFF7C0FECF
:100D000005B000BD0064004030B585B004460D4616
:100D100040F2FF10009000208DF808008DF80900C7
:100D200008208DF80A00200A8DF80B00E1B28DF83A
:100D30000C10290A8DF80D10E9B28DF80E10002163
:100D40008DF80F108DF810108DF811108DF812100D
:100D50006946024800F0FBFB05B030BD006400406E
:100D6000F0B585B004460D4616461F464FF4007098
:100D7000009000208DF808008DF8090008208DF8FB
:100D80000A00200A8DF80B00E1B28DF80C10290A38
:100D90008DF80D10E9B28DF80E10310A8DF80F1094
:100DA000F1B28DF81010390A8DF81110F9B28DF8E2
:100DB00012106946024800F0CAFB05B0F0BD000001
:100DC0000068004010B50446224600212D4800F07E
:100DD00036FB2068A0F2012005284FD2DFE800F0A2
:100DE0000311223344002146274804F0C7F8224665
:100DF00026492548203003F04FF9254802F08FF9A5
:100E00003DE021462048001D04F0B8F822461F4965
:100E100018311D48243003F03FF91D48801C02F0B2
:100E20007EF92CE021461848083004F0A7F8224645
:100E3000164930311448283003F02EF91448001DAB
:100E400002F06DF91BE021460F480C3004F096F8D3
:100E500022460E4948310C482C3003F01DF90C484D
:100E6000801D02F05CF90AE022460A490A4803F0B4
:100E700075FF0748143002F052F900E000BF00BFD0
:100E800010BD000000680040F0090020240C002084
:100E900078040020DC0A0020C00A002000B58BB0D6
:100EA0000121022003F0CEF90121880603F0DAF9CE
:100EB00009220C21354801F097FA09220D21334807
:100EC00001F092FA4FF44050029002208DF80C008D
:100ED00002A92E4801F040FA40208DF804000120BC
:100EE0008DF8050000208DF8060001208DF8070020
:100EF00001A802F0E9FC264800F0DEF808A800F09E
:100F000016FB00208DF826008DF827008DF82800AC
:100F10008DF829008DF82A0001208DF82B00002083
:100F20008DF822008DF8230008208DF8240003207E
:100F30008DF82500ADF8200008A9154800F0F5F956
:100F40000E208DF81A0000208DF81B0001208DF86E
:100F50001C000020ADF81000ADF81200ADF8140030
:100F6000ADF81600ADF8180001208DF81D0004A89A
:100F700000F0BEF801220221054800F0CDF901225F
:100F80001146034800F0C8F90BB000BD0004024050
:100F90000068004000B585B00221064800F02CF939
:100FA00030B10221034800F033F86846FFF70AFF2A
:100FB00005B000BD0068004030B585B004460D4660
:100FC00040F2FF10009000208DF808008DF8090015
:100FD00008208DF80A00200A8DF80B00E1B28DF888
:100FE0000C10290A8DF80D10E9B28DF80E100021B1
:100FF0008DF80F108DF810108DF811108DF812105B
:101000006946024800F0A3FA05B030BD0068004010
:10101000B1F5007F3AD00FDC202928D006DC012969
:101020001CD004291DD0082940D11DE0402921D021
:10103000B1F5807F3AD126E0B1F5004F31D006DC22
:10104000B1F5806F25D0B1F5006F2FD124E0B1F557
:10105000803F12D0B1F5003F28D111E0154A8260DF
:1010600025E00822C26022E01022C2601FE00822B0
:1010700002611CE01022026119E00822426016E0C1
:101080001022426013E00422426010E00422426019
:101090000DE0042242600AE00022826104224260E4
:1010A00005E0002282610422426000E000BF00BF30
:1010B000704700000101010010B504460B4884424E
:1010C00009D10121480603F0DDF800214FF000703E
:1010D00003F0D8F808E00121880603F0D3F80021D6
:1010E0004FF0806003F0CEF810BD000000640040B7
:1010F00010B50021837A012202FA03F13D4A1268F9
:1011000042F001023B4B1A603A4A1C3212688A4391
:10111000384B1C331A60027BCAB9364A0C3212684B
:101120008A43344B0C331A604288C38842EA034333
:10113000304A4032847A42F834300288838842EA66
:1011400003432C4A4032847A02EBC4025360027B90
:10115000012A19D1274A0C3212680A43254B0C3355
:101160001A604288038842EA0343224A4032847A62
:1011700042F83430C288838842EA03431D4A403231
:10118000847A02EBC4025360C27A3AB9194A121D3A
:1011900012688A43174B1B1D1A6006E0154A121D80
:1011A00012680A43134B1B1D1A60028932B9114A97
:1011B000143212688A430F4B14331A600289012AD1
:1011C00006D10C4A143212680A430A4B14331A60CF
:1011D000427B012A06D1074A1C3212680A43054B9A
:1011E0001C331A60034A126822F00102014B1A6094
:1011F00010BD00000066004070B504460D46002694
:1012000060692840002871D0B5F5807F5CD010DC83
:10121000082D35D006DC012D20D0022D24D0042D40
:1012200072D127E0102D31D0202D35D0402D6BD13B
:1012300038E0B5F5004F60D009DCB5F5007F49D046
:10124000B5F5806F4CD0B5F5006F5DD14FE0B5F5C9
:10125000803F2DD0B5F5003F56D12FE0A0682D4935
:1012600000F00CFB064651E0E068032100F006FBAD
:1012700006464BE0E068082100F000FB064645E02A
:10128000E068102100F0FAFA06463FE020690321E9
:1012900000F0F4FA064639E02069082100F0EEFA81
:1012A000064633E02069102100F0E8FA06462DE0FA
:1012B0006068082100F0E2FA064627E06068102125
:1012C00000F0DCFA064621E0A069012100F0D6FA20
:1012D00006461BE0A069022100F0D0FA064615E0A0
:1012E000A069042100F0CAFA06460FE00FE0A069E9
:1012F000702100F0C3FA064608E06068042100F09F
:10130000BDFA064602E0FFE7002600BF00E0002627
:10131000304670BD010101001AB143690B434361BE
:1013200002E043698B434361704730B502460020B9
:101330000023146824F002041460146844F00104CB
:10134000146000E05B1C546804F001041CB94FF603
:10135000FF74A342F6D1546804F001040CB90020D4
:101360006CE08C79012C04D1146844F08004146082
:1013700003E0146824F080041460CC79012C04D1BB
:10138000146844F04004146003E0146824F040043E
:1013900014600C7A012C04D1146844F02004146009
:1013A00003E0146824F0200414604C7A012C04D16A
:1013B000146844F01004146003E0146824F010046E
:1013C00014608C7A012C04D1146844F00804146071
:1013D00003E0146824F008041460CC7A012C04D1D2
:1013E000146844F00404146003E0146824F0040456
:1013F00014608C78A407CD7844EA05640D7944EA3A
:1014000005444D7944EA05540D886D1E2C43D46182
:10141000146824F001041460002300E05B1C54688D
:1014200004F001041CB14FF6FF74A342F6D15468D6
:1014300004F001040CB1002000E0012030BD10B523
:1014400000F5D87303EB01131B6803F00403137258
:10145000137A53B900F5D87303EB01131B6840F2FC
:10146000FF7404EA5353136009E000F5D87303EBEB
:1014700001131B686FF0604404EAD303536000F566
:10148000D87303EB01131B6803F00203537200F5DA
:10149000D87303EB01135B6803F00F03937200F53D
:1014A000D87303EB01135B681B0AD37400F5D87380
:1014B00003EB01139B68D37200F5D87303EB0113A0
:1014C0009B681C0A147300F5D87303EB01139B6827
:1014D0001C0C547300F5D87303EB01139B681B0EAF
:1014E000937300F5D87303EB0113DB68D37300F536
:1014F000D87303EB0113DB681C0A147400F5D8736E
:1015000003EB0113DB681C0C547400F5D87303EB78
:101510000113DB681B0E937421B9C36843F02003E9
:10152000C36003E0036943F02003036110BD0021A1
:101530008171C171017241728172C1728170C17019
:10154000032101710221417101210180704710B511
:1015500002460020936803F08063B3F1806F00D1EE
:1015600010E0936803F00063B3F1006F01D1012034
:1015700008E0936803F08053B3F1805F01D102204B
:1015800000E00420042874D002F5C07303EB0013BC
:101590001B6803F0010402F5C07303EB00131C6029
:1015A0000B7A7BB94B7A0C8843EA445302F5C0743A
:1015B00004EB00142468234302F5C07404EB001408
:1015C000236010E00B7A4C6843EAC4034C7A23434F
:1015D00002F5C07404EB00142468234302F5C074C0
:1015E00004EB001423608B7A03F00F038B7202F577
:1015F000C07303EB00135B6823F00F0402F5C073A4
:1016000003EB00135C6002F5C07303EB00135B682F
:101610008C7A234302F5C07404EB001463608B7B67
:101620001C064B7B44EA03440B7B44EA0323CC7A3D
:10163000234302F5C07404EB0014A3608B7C1C06EA
:101640004B7C44EA03440B7C44EA0323CC7B2343D6
:1016500002F5C07404EB0014E36002F5C07303EB01
:1016600000131B6843F0010402F5C07303EB001381
:101670001C6010BDDFED0D0AB4EEE00AF1EE10FAC9
:1016800004DDDFED0A0AC0ED000A0DE0DFED080A17
:10169000B4EEE00AF1EE10FA04D2DFED050AC0ED77
:1016A000000A01E080ED000A7047000000609F45DD
:1016B000004003C53648006841F6FA11081A01EEE9
:1016C000100AB8EEC11AB0EE410A31484069C0F5BF
:1016D000617001EE100AB8EEC11AF0EE410A9FEDFA
:1016E0002D1A20EE011A9FED2C2AC1EE021A2B486A
:1016F00090ED031AB1EE411A31EE611A284880EDDF
:10170000001A264890ED041AF0EE001A31EE211A64
:10171000234880ED011A9FED1F1A20EE811ADFED9C
:101720001E1A81EE212A1D4890ED051A32EE011A8B
:101730001B4880ED021A90ED021ADFED1A1AB4EE82
:10174000E11AF1EE10FA06DD90ED021ADFED111A42
:1017500031EE611A02E0124890ED021A104880ED55
:10176000021A90ED021ADFED101AB4EEE11AF1EE52
:1017700010FA06D290ED021ADFED061A31EE211AA8
:1017800002E0074890ED021A054880ED021A704702
:10179000580500200000B44300000046EC0C002077
:1017A000A00A002000003443000034C302462C4944
:1017B000D1ED000A70EE600A2A49C1ED000A00204E
:1017C000D1ED000A9FED281AF4EEC10AF1EE10FAED
:1017D00006DDD1ED000A9FED251A70EEC10A13E077
:1017E0002049D1ED000A9FED221AF4EEC10AF1EE74
:1017F00010FA06D2D1ED000A9FED1C1A70EE810A94
:1018000002E01849D1ED000A1649C1ED000A194954
:10181000097831B1012910D1114981ED000A002068
:101820000BE01049D1ED000AFDEEE00A10EE901A2F
:1018300001EB8101490008B200BF00BF642801DD4F
:10184000642100E00146084610F1640F02DA6FF0EF
:10185000630100E001460846074908807047000020
:10186000580000205C000020000034430000B44316
:10187000000034C356000020600000200246002013
:1018800002EA01030BB1012000E0002070470000D4
:1018900010B5002410E0194901EB440001F02AFCC6
:1018A000164B203B33F8142040331919203B33F8F2
:1018B000140001F028FC641C102CECDB0F482038CD
:1018C00090F84000012802D1042003F03BFA0B48B5
:1018D000203890F84100012802D1092003F032FAA3
:1018E000042408E005482030005D012802D10420CE
:1018F00003F028FA641C0F2CF4DB10BD70040020E8
:1019000010B559480068401C57490860574801F015
:10191000D3FBFFF7BDFF56494989891C08B25549D9
:10192000D1ED020AB0EE600AFFF740FF524908808D
:10193000524800880988084400B25049088004F0E1
:1019400085F900F08FFD0A282FD2DFE800F02F057F
:1019500055818063826E778343480068B0F5967F37
:1019600023D902F033FD002003F0ECF941F6FA1020
:101970004349C8604969C1F561714FF4616201FB77
:1019800002F0C11700EBD141491300EE101AB8EE76
:10199000C00A3749D1ED050AB2EE041A00EE810AF9
:1019A000BDEEC00A364981ED080A54E004F0BCFBE4
:1019B0002F48B0F90600002803DD2D48B0F90600D5
:1019C00003E02B48B0F906004042142811DA2848F9
:1019D000B0F90A00002803DD2548B0F90A0003E049
:1019E0002348B0F90A004042142802DA022003F02A
:1019F000A9F903F04FFA2EE000F0F4FF012802D11C
:101A0000052003F09FF904F08FFB01F05FF903F06C
:101A100041FA20E003F000FD04F086FB02F074FDC3
:101A200001F054F903F036FA15E0FEF7ABFD04F0CF
:101A30007BFB02F069FD01F049F90CE000F0B4FA1B
:101A400004F072FB02F060FD01F040F903E002E0F7
:101A500001E000E000BF00BF00F016FFFFF72AFE24
:101A600001F036FD10BD0000080400200404002031
:101A7000EC0C0020A00A002006040020D201002067
:101A8000580500202DE9F0413C493D4800F0B6F9E9
:101A9000002871D04FF08151394800F09DF8374946
:101AA000374800F0B3F8374801F039FB3648007882
:101AB0005A280DD134484078A52809D1002404E0E3
:101AC0003149085D02F002FA641C222CF8DB48E080
:101AD0002E4890F821005A2805D12B480078A528D7
:101AE00001D121260EE000250AE02848405D5A2851
:101AF00005D12649681C085CA52800D12E466D1C1E
:101B0000222DF2DB002405E0A0192049085C2049C1
:101B10000855641CC6F12200A042F5DC002707E04E
:101B20001948C15D07F12200801B194A11547F1C1E
:101B3000B742F5DB002404E01348005D1349085563
:101B4000641C222CF8DB4FF0000806E0104911F865
:101B5000080002F0BBF908F10108B8F1220FF5DB2B
:101B600000BF0C4805F092F80A48801D05F098F86F
:101B700008480C3005F080F8BDE8F08100802010A6
:101B80004060024070040020840C0020A60C00205D
:101B9000C80C0020EC0C00207047000010B50A496A
:101BA0000A4800F02BF970B14FF08151074800F05E
:101BB00013F80549054800F029F8054802F04AFCE9
:101BC000044801F0ACFA10BD0080201040640240CF
:101BD00038070020720400200246094B9A4201D2C5
:101BE000084801E00648103801F000531BB1064BCD
:101BF0000B40C36002E0044B0B4083607047000061
:101C000010640240006002407D0F7D0F0246094BC8
:101C10009A4201D2084801E00648103801F000530A
:101C20001BB1064B0B40C36002E0044B0B408360CA
:101C30007047000010640240006002407D0F7D0F7D
:101C400021B1026842F00102026003E0026822F062
:101C50000102026070470000016821F0010101608B
:101C60000021016041608160C16001612121416109
:101C70004A49884204D13D21484A103A91608CE09B
:101C800046491831884205D14FF47461434A103AED
:101C9000916082E041493031884205D14FF474119E
:101CA0003E4A103A916078E03C494831884205D17B
:101CB0004FF07461394A103A91606EE037496031F3
:101CC000884204D13649354A103AD16065E033493B
:101CD0007831884204D13349304A103AD1605CE00F
:101CE0002E499031884204D12F492C4A103AD160B4
:101CF00053E02A49A831884205D14FF03D51274A87
:101D0000103AD16049E02949884204D13D21274A4F
:101D1000083A116041E025491831884205D14FF455
:101D20007461224A083A116037E020493031884214
:101D300005D14FF474111D4A083A11602DE01B497A
:101D40004831884205D14FF07461184A083A116051
:101D500023E016496031884204D11149134A121F09
:101D600011601AE011497831884204D10D490F4AB7
:101D7000121F116011E00D499031884204D10A49C7
:101D80000A4A121F116008E00849A831884204D1AC
:101D90004FF03D51054A121F11607047106002401C
:101DA0003D000020400F002000003D201064024054
:101DB00021B1026842F48022026003E0026822F44A
:101DC00080220260704722B1036843F4002303605D
:101DD00003E0036823F400230360016170470146B8
:101DE000486880B27047014600200A6802F4002269
:101DF0000AB1012000E000207047000070B50246E3
:101E0000002000240025124EB24201D2114B01E005
:101E10000F4B103B104E0E4036B11E2606EAD12461
:101E2000166806EA040502E0566906F0800501F02E
:101E300000560EB15C6800E01C68084E344004EAAD
:101E4000010616B10DB1012000E0002070BD0000B8
:101E500010640240006002403C0F3C0F7D0F7D0F7C
:101E600010B501F080034BB122B1436943F0800308
:101E7000436103E0436923F08003436180290BD071
:101E80002AB1036801F01E042343036004E00368E1
:101E900001F01E04A343036010BD000010B5002232
:101EA0000268134B1A40CC680B6823434C692343E8
:101EB0008C692343CC6923430C6A23434C6A234334
:101EC0008C6A23434C6B23438C6B23431A4302607D
:101ED000426922F00702D1E90B3423431A434261DD
:101EE0000B6943604B6883608B68C36010BD000062
:101EF0003F801CF00021016041608160C160016190
:101F000041618161C161016241628162C1620163BB
:101F1000416381637047000010B504461F48008884
:101F2000401C1E4908805A2C09D11D48007830B940
:101F300000201B494870012008700020C871184813
:101F40000078012824D11648C179801C4454801E91
:101F5000C079401C1249C871A52C03D10846C0792C
:101F6000052803D10E48C079052805DD00200C495D
:101F700048700870C8710BE0A52C09D10848C079D9
:101F8000052805D101200649487000200870C87155
:101F90000348801C02F0A0FD10BD00000E070020C9
:101FA000050700207047000010B5002013E09FEDEA
:101FB000350A10EE101A00EB4012334B03EB4202CD
:101FC00051609FED320A10EE101A00EB401203EB45
:101FD00042021162401C0428E9DB2D4800780628E3
:101FE0004ED2DFE800F0030A121A222A00F0A6F807
:101FF000012801D12649087042E000F04FF801287D
:1020000002D10220224908703AE000F0E1F80128EC
:1020100002D103201E49087032E000F08FF8012839
:1020200002D104201A4908702AE000F037F801288C
:1020300002D105201649087022E000F0C9F80128F5
:102040001DD100201249087000BF13E09FED110A56
:1020500010EE101A00EB40120B4B03EB42025160E2
:102060009FED0D0A10EE101A00EB401203EB420236
:102070001162401C0428E9DB052002F063FE00BF6A
:1020800000BF10BD3E0AD73D700000206E43D1470F
:1020900055000020295C0F3D49828B4700B5002088
:1020A0002349088023490880012002F085FD002093
:1020B00002F032FD012002F07FFD012835D1002021
:1020C00002F02AFD012830D1232019490880002080
:1020D000184908801848807801280AD11648C07825
:1020E000012806D1002012490880124908800120E9
:1020F00000BD1148807850B90F48C078012806D13A
:1021000000200B4908801E200A4908800DE00A487B
:102110008078012809D10848C07830B900200449E6
:1021200008806FF01D00034908800020E0E70000F0
:10213000CE010020D2010020F606002000B50020CC
:10214000204908802049088002F036FD002002F076
:10215000E3FC002002F030FD012831D1002002F024
:10216000DBFC01282CD1282016490880174800786C
:10217000012809D115484078012805D100200880A0
:1021800011490880012000BD1048007850B90F485F
:102190004078012806D100200A4908801E200A49FB
:1021A00008800DE009480078012809D107484078E7
:1021B00030B90020034908806FF01D0002490880F3
:1021C0000020E0E7CE010020D2010020F60600202A
:1021D00000B500201F4908801F490880012002F037
:1021E000EBFC012002F098FC012002F0E5FC012844
:1021F0002ED102F091FC01282AD11848006818B9A4
:1022000017480068154908605A20124908800020C4
:10221000114908801248006810490968401A64286A
:1022200005D9002002F0C8FC002002F075FC0C4823
:1022300000680A490968401AB0F5966F08D900206D
:10224000044908800449088004490860012000BD51
:102250000020FCE7CE010020D20100206C0000200D
:102260000804002010B5102000F018F8012807D14C
:1022700001F056F8102000F005F8102000F008F8E2
:1022800010BD00000149086070470000143C014087
:102290000149086070470000143C014001460020DD
:1022A0000022074B1B6803EA0102054B14331B682D
:1022B0000B4013B10AB1012000E00020704700007C
:1022C000003C0140002123498279002A3AD00A4685
:1022D000126803689A430B461A600A1D1268036865
:1022E0009A430B1D1A60027911440A6803681A4365
:1022F0000A60184A0832126803689A43154B08337B
:102300001A601A1D126803689A43124B0C331A6044
:102310004279102A0ED11A1F126803681A430D4B16
:1023200008331A601A1D126803681A43094B0C33EC
:102330001A600DE00749427911440A6803681A439C
:102340000A6005E0027911440A6803689A430A604A
:1023500070470000003C0140F0B50A460021002310
:10236000002400BF3DE0012505FA01F3156805EAE8
:1023700003049C4234D105684F000326BE40B54398
:10238000056015794E00B54006683543056015793E
:10239000012D02D01579022D16D185684F00032634
:1023A000BE40B543856055794E00B54086683543DB
:1023B0008560456801268E40B5434560456896793D
:1023C0008E40B6B235434560C5684F000326BE4017
:1023D000B543C560D5794E00B540C6683543C56084
:1023E000491C1029BFD3F0BDF0B5002300244D07D0
:1023F000ED0E02FA05F3CE1000F1200555F8265037
:102400004E07F70E0F26BE40B543CF1000F1200651
:1024100046F82750CE1000F1200555F8265045EA21
:102420000304CE1000F1200545F82640F0BD024619
:10243000002013690B400BB1012000E00020704721
:1024400041837047018370474FF6FF71016000219F
:10245000017141718171C171704742694A404261A5
:10246000704700000148007870470000EC01002030
:1024700030B5034613B94FF6FF7030BD09E013F8CD
:10248000014B82EA0400C0B2054D35F8100080EA25
:1024900022220800A1F10101F1D11046EDE7000070
:1024A000B07A000830B5034605E013F8010B80EA66
:1024B00002040448025D0800A1F10105A9B2F4D1AB
:1024C000104630BDAF7900081CB50121022001F093
:1024D000B9FE1020009001208DF8040000208DF836
:1024E000060003208DF8050069460448FFF734FF15
:1024F00010210248FFF7A4FF1CBD000000040240A9
:1025000000BFFEE710B5044600F0C8F82CB14FF448
:1025100000710D48FFF796FF04E04FF400710A4880
:10252000FFF78EFF4FF480710748FFF78BFF012004
:1025300000F00CF84FF480710348FFF781FF012091
:1025400000F004F810BD00000004024010B50021A6
:1025500006E0062200BF1300A2F10102FBD1491CD4
:102560008142F6D310BD00001CB50121022001F00C
:1025700069FE4FF44070009001208DF804008DF842
:10258000060003208DF8050069460248FFF7E4FEC7
:102590001CBD00000004024070B5002400F068F883
:1025A00000251BE04FF480711148FFF749FF01201F
:1025B000FFF7CCFF4FF480710D48FFF743FF600633
:1025C000040E4FF400710A48FFF731FF08B1601C98
:1025D000C4B20120FFF7BAFF681CC5B2082DE1DBC9
:1025E0004FF480710248FFF72BFF204670BD0000BA
:1025F000000402402DE9F04106460F461446984675
:1026000000F060F8304600F0CBF800F09BF8FF28AF
:1026100001D1BDE8F081384600F0C2F800F092F830
:10262000FF2800D1F5E700F04DF8711CC8B200F0AA
:10263000B7F800F087F8FF2800D1EAE7002508E0A6
:10264000FFF7AAFF20700020FFF75CFF641C681CE6
:10265000C5B2A8F10100A842F2DCFFF79DFF20708F
:102660000120FFF74FFF00F04DF80020D1E70000F8
:102670001CB54FF40070009000208DF804008DF818
:1026800006008DF8070002208DF805006946024813
:10269000FFF762FE1CBD0000000402401CB54FF4B1
:1026A0000070009001208DF804008DF806000320D2
:1026B0008DF8050069460248FFF74EFE1CBD00007C
:1026C0000004024010B5FFF7E9FF4FF400710C4819
:1026D000FFF7B8FE4FF480710948FFF7B3FE012001
:1026E000FFF734FF4FF400710548FFF7A9FE012002
:1026F000FFF72CFF4FF480710148FFF7A1FE10BDDA
:102700000004024010B5FFF7C9FF4FF480710C4878
:10271000FFF796FE4FF400710948FFF791FE012084
:10272000FFF714FF4FF480710548FFF78BFE4FF45D
:1027300000710348FFF786FE0120FFF707FF10BD79
:102740000004024010B54FF47A744FF4007113483E
:10275000FFF778FEFFF78CFF0120FFF7F7FE4FF43D
:1027600080710E48FFF76EFE0120FFF7EFFE07E0D5
:10277000601E80B2040003D0FFF7C4FFFF2010BD2D
:102780004FF400710548FFF752FE0028F0D14FF4D6
:1027900080710248FFF754FE0020F0E70004024079
:1027A00070B50446FFF77AFF4FF480711448FFF7C5
:1027B00047FE002521E004F0800028B14FF40071AD
:1027C0000F48FFF73FFE04E04FF400710C48FFF79D
:1027D00037FE6006040E0120FFF7B8FE4FF480714B
:1027E0000748FFF72FFE0120FFF7B0FE4FF480717E
:1027F0000348FFF725FE681CC5B2082DDBDB70BD62
:102800000004024070B506460C461546FFF75AFF15
:102810003046FFF7C5FFFFF795FFFF2800D170BDD9
:102820002046FFF7BDFFFFF78DFFFF2800D1F6E739
:102830002846FFF7B5FFFFF785FFFF2800D1EEE739
:10284000FFF760FF0020EAE71CB50121042001F03A
:10285000F9FC0320009001208DF8040000208DF881
:10286000060003208DF8050069460648FFF774FD51
:1028700002210448FFF7E6FD01210248FFF7E2FDCF
:102880001CBD00000008024010B5FFF7EBFD0A2850
:102890000ED2DFE800F00E05175F5E28603A4C723A
:1028A00001214048FFF7CCFD02213E48FFF7CAFD59
:1028B00075E001213B48FFF7C3FD02213948FFF7CE
:1028C000C1FD6CE001213748FFF7BAFD36480068CA
:1028D000C821B0FBF1F201FB120018B90221314806
:1028E000FFF7BBFD5BE001212E48FFF7ABFD2E4853
:1028F00000684FF4FA71B0FBF1F201FB120018B955
:1029000002212848FFF7A9FD49E001212548FFF7EA
:1029100099FD254800684FF4FA71B0FBF1F201FB14
:10292000120018B902211F48FFF797FD37E0012177
:102930001C48FFF787FD1C4800684FF4FA71B0FB94
:10294000F1F201FB120018B902211648FFF785FDCC
:1029500025E024E023E0144800684FF4FA71B0FB4E
:10296000F1F201FB120018B901210E48FFF775FDC5
:1029700002210C48FFF766FD11E00B4800684FF498
:10298000FA71B0FBF1F201FB120038B901210548E0
:10299000FFF763FD02210348FFF75FFD00BF00BFA3
:1029A00010BD000000080240080400201CB50121F1
:1029B000042001F047FC2020009001208DF8040045
:1029C00000208DF8060003208DF8050069460448B4
:1029D000FFF7C2FC20210248FFF732FD1CBD0000BA
:1029E000000802406148007820B1012836D0022852
:1029F00033D162E09FED5E0A10EE100A5D49486037
:102A00009FED5B0A10EE100AC1F846009FED580AD0
:102A100010EE100AC1F888009FED550A10EE100A5A
:102A2000C1F8CA0046205449086348638863C863F4
:102A30000846006A1E2810DD0846406A1E280CDD84
:102A40000846806A1E2808DD0846C06A1E2804DD84
:102A50000120464908704949087083E09FED480A03
:102A600010EE100A434948609FED460A10EE100A26
:102A7000C1F846009FED430A10EE100AC1F8880025
:102A80009FED400A10EE100AC1F8CA003E483A49CC
:102A9000086348638863C863084600684968084457
:102AA0003549896808443449C968084410F1190F48
:102AB00002DA02202D49087054E02F4800682E49A0
:102AC000496808442C49896808442B49C968084466
:102AD00000280BDD28480068274949680844264932
:102AE000896808442449C96808440BE02248006802
:102AF0002149496808442049896808441E49C96831
:102B0000084440420A282CDA00202049C8820021CB
:102B10001E48C185A0F84610A0F85E100020164996
:102B2000086348638863C8639FED150A10EE100AB6
:102B3000104948609FED120A10EE100AC1F84600D5
:102B40009FED0F0A10EE100AC1F888009FED0C0AE5
:102B500010EE100AC1F8CA000020084908700120D0
:102B6000704700BF00BF0020FAE700000E040020FD
:102B7000CDCCCC3DF5020020400A00200F040020FF
:102B8000CDCC4C3D00000000F0D8FFFFC40B00206E
:102B90004749097801297DD1464991ED000AB1EEF6
:102BA000400AD1ED010A70EE600A90ED000A9FED37
:102BB000421A01EE200A80ED000A91ED000AB1EE02
:102BC000400AD1ED010A70EE200A90ED010A9FED56
:102BD0003A1A01EE200A80ED010A91ED000AD1EDCA
:102BE000010A70EE600A90ED020A9FED331A01EEC1
:102BF000200A80ED020A91ED000AD1ED010A70EE83
:102C0000200A90ED030A9FED2C1A01EE200A80EDB8
:102C1000030A91ED000AB1EE400AD1ED010A30EE4F
:102C2000600ADFED250A20EE200ABDEEC00A10EE94
:102C3000101A09B2214A11801E4991ED000AB1EE25
:102C4000400AD1ED010A30EE200ADFED1B0A20EE2A
:102C5000200ABDEEC00A10EE101A09B2184A1180FF
:102C6000144991ED000AD1ED010A30EE600ADFED62
:102C7000120A20EE200ABDEEC00A10EE101A09B2A8
:102C8000104A11800B4991ED000AD1ED010A30EE96
:102C9000200A00E00AE0DFED080A20EE200ABDEE7F
:102CA000C00A10EE101A09B2074A118070470000DE
:102CB0000F040020A00A00200000824244040020EB
:102CC00046040020480400204A04002010B52DEDE1
:102CD000048BFFF7C7FB052872D1F048007A032860
:102CE0006ED0EF4800680A21B0FBF1F201FB120040
:102CF0000028F1D1E948407A012804D0022860D0A8
:102D000003285CD1C6E0E549C988A1F5806101EBE3
:102D10004101880004F0B1FB9FEDE20B53EC102B56
:102D200004F024FA04F07AFB00B2E049096B08448D
:102D3000DE490863D949C988A1F5806101EB4101E9
:102D4000880004F09AFB9FEDD70B53EC102B04F096
:102D50000DFA04F063FB00B2D449496B0844D3492F
:102D60004863CE49C988A1F5806101EB4101880023
:102D700004F083FB9FEDCB0B53EC102B04F0F6F922
:102D800004F04CFB00B2C949896B0844C749886309
:102D9000C249C988A1F5806101EB4101880004F0B6
:102DA0006CFB9FEDC00B53EC102B04F0DFF904F02B
:102DB00035FB00B2BD49C96B0844BC49C8636AE031
:102DC0006AE0B649C988A1F58061C1EBC10004F091
:102DD00054FB41EC190B9FEDB30B53EC102B04F09B
:102DE000C5F941EC180B04F019FB00B2AF49096BAF
:102DF0000844AE490863A949C988A1F58061C1EBBF
:102E0000C10004F03AFB41EC190B9FEDA60B53EC0B
:102E1000102B04F0ABF941EC180B04F0FFFA00B2F0
:102E2000A249496B0844A14948639C49C988A1F556
:102E30008061C1EBC10004F020FB41EC190B9FED58
:102E4000990B53EC102B04F091F941EC180B04F0A2
:102E5000E5FA00B29549896B081A944988638F494D
:102E6000C988A1F58061C1EBC10004F006FB41EC0B
:102E7000190B9FED8C0B53EC102B04F077F941EC00
:102E8000180B04F0CBFA00B28849C96B081A8749BD
:102E9000C86300E000BF00BFFFF7E4FA022857D084
:102EA0008248006B1E2801DA1E2001E07F48006B7B
:102EB0007E4908630846006B40F29341884201DD79
:102EC000084601E07948006B784908630846406B82
:102ED0001E2801DA1E2001E07448406B73494863E4
:102EE0000846406B40F29341884201DD084601E00C
:102EF0006E48406B6D4948630846806B1E2801DAB6
:102F00001E2001E06948806B684988630846806B31
:102F100040F29341884201DD084601E06348806B3E
:102F2000624988630846C06B1E2801DA1E2001E052
:102F30005E48C06B5D49C8630846C06B40F2934170
:102F4000884201DD084601E05848C06B5749C86314
:102F5000564890ED081AB8EEC11AF0EE410A90ED0D
:102F60000C1AB8EEC11AB0EE410A514800F0B0FD9B
:102F7000BDEEC00A4D4880ED040A90ED091AB8EE86
:102F8000C11AF0EE410A90ED0D1AB8EEC11AB0EE7A
:102F9000410A4748423000F09BFDBDEEC00A43485D
:102FA00080ED050A90ED0A1AB8EEC11AF0EE410A5A
:102FB000806B0D3001EE100AB8EEC11AB0EE410A76
:102FC0003B48843000F084FDBDEEC00A374880EDF8
:102FD000060A90ED0B1AB8EEC11AF0EE410AC06B6A
:102FE000401F01EE100AB8EEC11AB0EE410A304897
:102FF000C63000F06DFDBDEEC00A2C4880ED070A1A
:1030000090ED001AB8EEC11AF0EE410A90ED041AE4
:10301000B8EEC11AB0EE410A264800F059FD234827
:1030200080ED100A90ED011AB8EEC11AF0EE410AD7
:1030300090ED051AB8EEC11AB0EE410A1D484230B3
:1030400000F046FD194880ED110A90ED021AB8EE25
:10305000C11AF0EE410A90ED061AB8EEC11AB0EEB0
:10306000410A1448843000F033FD104880ED120A04
:1030700090ED031AB8EEC11AF0EE410A90ED071A6E
:10308000B8EEC11AB0EE410A0A48C63000F020FD81
:10309000064880ED130ABDEC048B10BDE00600204D
:1030A000080400200000000000A08440400A002026
:1030B000ED010020F502002010B50446207801281B
:1030C00015D10B480088401C09490880012001F0F7
:1030D00073FD012804D0012001F01EFD012806D156
:1030E0000020207001F068FD002001F015FD10BDEA
:1030F0004C04002001884FF6FE72914202DA0188EA
:10310000491C01807047034602EB8200984202DAB4
:103110000120087001E00020087008787047002145
:103120000180704710B52DED048B9FED2E0AB0EE97
:10313000408A9FED2C0AF0EE408A9FED2A0AB0EEFD
:10314000409A002427E000F0EBF8012003F02EFD68
:103150002548B0F9080000EE100AB8EEC00A30EEBB
:10316000080AB0EE408A2048B0F90A0000EE100AC2
:10317000B8EEC00A30EE280AF0EE408A1A48B0F9DC
:103180000C0000EE100AB8EEC00A30EE090AB0EEEC
:10319000409A601C84B2B4F5FA6FD4DB9FED130A39
:1031A000C8EE000AB0EE608A9FED100AC8EE800AF1
:1031B000F0EE608A9FED0D0AC9EE000AB0EE609A4B
:1031C000BDEEC80A0A4880ED000ABDEEE80A0948CB
:1031D00080ED000ABDEEC90A074880ED000ABDEC8B
:1031E000048B10BD000000005C0B00200000FA44BE
:1031F00094060020980600209C06002008B50020B8
:103200000090FFF7B1F9FFF75FF901236A467521D6
:10321000D020FFF7EFF928B99DF80000682803D007
:10322000FC2008BDCC20FCE701226B21D020FFF759
:10323000E9FAFF2801D1CF20F3E707221921D02096
:10324000FFF7E0FAFF2800D1EBE700221A21D02097
:10325000FFF7D8FAFF2800D1E3E708221B21D0208E
:10326000FFF7D0FAFF2800D1DBE708221C21D0208D
:10327000FFF7C8FAFF2800D1D3E700223721D0207A
:10328000FFF7C0FAFF2800D1CBE701223821D02078
:10329000FFF7B8FAFF2800D1C3E70020C1E700001C
:1032A00000B585B00121880300F0FCFF012108462C
:1032B00000F0C8FF1020039000208DF810008DF85A
:1032C000120001208DF8130002208DF8110003A9CF
:1032D0001248FFF741F80421002001F0DDFB102027
:1032E000009000208DF804000C208DF805000120CE
:1032F0008DF806006846FEF7E5FF0A208DF8080005
:1033000001208DF8090002208DF80A0001208DF8B7
:103310000B0002A800F0D8FA05B000BD0000024082
:103320001FB50E236A463B21D020FFF763F9FF2823
:1033300001D104B010BD9DF801009DF8001040EAD5
:10334000012000B2584908809DF803009DF8021042
:1033500040EA012000B2544948809DF805009DF8DC
:10336000041040EA012000B24F4988809DF8070010
:103370009DF8061040EA012000B24B49C8809DF834
:1033800009009DF8081040EA012000B24649088172
:103390009DF80B009DF80A1040EA012000B2424956
:1033A00048819DF80D009DF80C1040EA012000B204
:1033B0003D4988810846B0F9000000EE100AB8EED9
:1033C000C00AB1EE400ADFED390A80EE201A384813
:1033D00080ED001A0846B0F9020000EE100AB8EEBF
:1033E000C00AB1EE400ADFED310A80EE201A304803
:1033F00080ED011A0846B0F9040000EE100AB8EE9C
:10340000C00ADFED2A0A80EE201A294880ED021A50
:103410000846B0F9060000EE100AB8EEC00A9FEDAB
:10342000251AC0EE010A9FED240A30EE800A2048DA
:1034300080ED030A0846B0F9080020490968401ADF
:1034400000EE100AB8EEC00ADFED1D0A80EE201A69
:10345000174880ED041A1448B0F90A0019490968A0
:10346000401A00EE100AB8EEC00AB1EE400ADFEDD5
:10347000140A80EE201A0E4880ED051A0A48B0F9A9
:103480000C0011490968401A00EE100AB8EEC00A93
:10349000B1EE400ADFED0A0A80EE201A044880ED02
:1034A000061A002045E700005C0B002000000046E3
:1034B0006C0B00200000AA43B81E124294060020A4
:1034C00000008342980600209C06002000BFFEE713
:1034D00070B5FEF7C7FF0A287ED2DFE800F02105AD
:1034E0004D7DFCBCFBFAF9F800210846FDF70CFC09
:1034F00000231A4619461846FDF732FC00231A46E7
:1035000019461846FDF740FBE74991ED070ABDEE65
:10351000C00A10EE101A08B20021FDF74DFDC1E1FE
:10352000E249C86800F0B5FDE049098A084404B2E0
:10353000DE49486902F01CFCDC49898C084405B26C
:1035400021462846FDF7E0FB00231A461946184697
:10355000FDF706FC00231A4619461846FDF714FB32
:10356000D14991ED070ABDEEC00A10EE101A08B25B
:103570000021FDF721FD95E1CD480068401CCC49B4
:1035800008604FF44870CB490860091D0860CA48BC
:10359000D0ED100AB0EE600AC848FEF76BF8C648D6
:1035A000D0ED110AB0EE600AC448001DFEF762F8C3
:1035B000C148D0ED120AB0EE600AC0480830FEF7EC
:1035C00059F8BD48D0ED130AB0EE600ABB480C3084
:1035D000FEF750F8B94800E04FE1FFF7D9FAB34AD7
:1035E000128A11B2B14A928C10B2FDF78DFB002302
:1035F0001A4619461846FDF7B3FBB04C94ED030A82
:10360000BDEEC00A10EE104A23B2AC4C94ED020A93
:10361000BDEEC00A10EE104A22B2A84C94ED010A89
:10362000BDEEC00A10EE104A21B2A44C94ED000A7F
:10363000BDEEC00A10EE104A20B2FDF7A5FA9A4975
:1036400091ED070ABDEEC00A10EE101A08B2002173
:10365000FDF7B2FC26E19549C86800F01AFD9349D0
:10366000098A084404B29149486902F081FB8F49F4
:10367000898C084405B221462846FDF745FB904C4D
:10368000E36CA26C616C206CFDF76AFB8A4C94EDD4
:10369000130ABDEEC00A10EE104A23B2864C94ED18
:1036A000120ABDEEC00A10EE104A22B2824C94ED0E
:1036B000110ABDEEC00A10EE104A21B27E4C94ED04
:1036C000100ABDEEC00A10EE104A20B204E03BE042
:1036D00091E04EE023E00DE0FDF756FA724991EDDE
:1036E000070ABDEEC00A10EE101A08B20021FDF75D
:1036F00063FCD7E000210846FDF706FB00231A46CD
:1037000019461846FDF72CFB00231A4619461846A1
:10371000FDF73AFA00210846FDF74EFCC2E0002111
:103720000846FDF7F1FA00231A4619461846FDF738
:1037300017FB00231A4619461846FDF725FA002103
:103740000846FDF739FCADE000210846FDF7DCFA3C
:1037500000231A4619461846FDF702FB00231A46B5
:1037600019461846FDF710FA00210846FDF724FC1B
:1037700098E04E49C86800F08CFC4C49098A08441E
:1037800004B24A49486902F0F3FA4849898C08446E
:1037900005B221462846FDF7B7FA494CE36CA26C06
:1037A000616C206CFDF7DCFA434C94ED130ABDEE1E
:1037B000C00A10EE104A23B23F4C94ED120ABDEE3F
:1037C000C00A10EE104A22B23B4C94ED110ABDEE35
:1037D000C00A10EE104A21B2374C94ED100ABDEE2B
:1037E000C00A10EE104A20B2FDF7CEF900210846BB
:1037F000FDF7E2FB56E02D49C86800F04AFC2B4972
:10380000098A084404B22949486902F0B1FA2749F3
:10381000898C084405B221462846FDF775FA284CE4
:10382000E36CA26C616C206CFDF79AFA224C94ED6B
:10383000130ABDEEC00A10EE104A23B21E4C94EDDE
:10384000120ABDEEC00A10EE104A22B21A4C94EDD4
:10385000110ABDEEC00A10EE104A21B2164C94EDCA
:10386000100ABDEEC00A10EE104A20B2FDF78CF926
:1038700000210846FDF7A0FB14E000210846FDF7F3
:1038800043FA00231A4619461846FDF769FA002341
:103890001A4619461846FDF777F900210846FDF744
:1038A0008BFB00BF00BF70BDDC0A00205805002064
:1038B000200400203C040040400A0020900A002020
:1038C000F00900207047000070B5002100230F228E
:1038D000C4781CB3174C246804F4E064C4F5E064B5
:1038E000C4F30721C1F10404E3B20A4144789C40C7
:1038F000E1B28478144021430C07210E0E4C057868
:103900006155047804F01F050124AC4005786D1161
:10391000AD0005F1E025C5F8004109E0047804F0A8
:103920001F050124AC40054D0678761145F8264068
:1039300070BD00000CED00E000E400E080E100E07C
:1039400002490143024A1160704700000000FA0575
:103950000CED00E070B506460024351DA3E0285D9F
:10396000C02840D012DCA52829D008DC90281ED021
:10397000A02821D0A12820D0A22877D11EE0B028ED
:1039800026D0B12825D0B228F7D123E0D1287BD08A
:1039900006DCC12828D0C22827D0D028EDD12DE0C0
:1039A000D92865D0E02879D0F02879D174E06878FA
:1039B00040490870A41C75E000BF00BF00BF291972
:1039C0003D4851F8012F026089888180E41D69E03B
:1039D00000BF00BF2919394851F8012F02608988BA
:1039E0008180E41D5EE000BF00BF2919344851F812
:1039F000012F026089888180E41D53E0601C295CEE
:103A0000A01C285C01EB002000B200EE100AB8EE0A
:103A1000C00ADFED2C0A80EE201A2B4880ED001A38
:103A2000E01C295C201D285C01EB002000B200EEA8
:103A3000100AB8EEC00ADFED230A80EE201A2248F1
:103A400080ED011A601D295CA01D285C01EB00209F
:103A500000B200EE100AB8EEC00AF2EE040A80EEE0
:103A6000201A194880ED021AE41D1BE018E00BE053
:103A70002919154851F8012F02604A684260896887
:103A800081600D340EE009E02819411C10220F4816
:103A9000FCF70BFC113405E0641D03E0641D01E03C
:103AA000641C00BF00BFB6F88400A0423FF757AFC8
:103AB00070BD00002207002010070020160700201C
:103AC0001C0700200000C842900D00209C0D002023
:103AD00010B52DED0A8BB0EE408AF0EE608A0446F8
:103AE000606900EE100AB8EEC00AB4EEC80AF1EE42
:103AF00010FA06D2606900EE100AB8EEC00AB0EE05
:103B0000408A206900EE100AB8EEC00AB4EEC80A76
:103B1000F1EE10FA06DD206900EE100AB8EEC00AD8
:103B2000B0EE408AA06A606238EE680A10EE100AB1
:103B3000A06278EE680AE06800EE100AF4EEC00AAF
:103B4000F1EE10FA02DDE068A06213E078EE680A98
:103B5000E06800EE100AB1EE400AF4EEC00AF1EEA1
:103B600010FA07D2E06800EE100AB1EE400A10EE3B
:103B7000100AA06238EE680AB5EEC00AF1EE10FA3B
:103B800002DD38EE680A03E038EE680AB1EE400A5A
:103B9000A06B00EE900AF8EEE00AB4EEE00AF1EE57
:103BA00010FA04D89FED600A10EE100AA062A16A14
:103BB000084603F081FE41EC1A0BE16A084603F067
:103BC0007BFE41EC1C0B9FED590B53EC102B03F0CB
:103BD0007FFC41EC1B0B53EC1A2B03F01FFA41EC5A
:103BE000190B03F0E9F9E062A06A00EE100A606ABE
:103BF00000EE900A70EE600AA06800EE100A20EE57
:103C0000800A10EE100A2063E06A00EE100A206AB3
:103C100000EE900AB4EEE00AF1EE10FA01DD206A3F
:103C2000E062E06A00EE100A206A00EE900AF1EE0F
:103C3000600AB4EEE00AF1EE10FA07D2206A00EE54
:103C4000100AB1EE400A10EE100AE062A06A00EE1F
:103C5000100A206800EE900A20EE200ABDEEC00A8D
:103C600010EE100A00B2A087206B00EE100ABDEE25
:103C7000C00A10EE100A00B2E087E06A00EE100AF7
:103C8000606800EE900A20EE200ABDEEC00A10EE39
:103C9000100A00B2A4F84000A06A00EE100A2068E2
:103CA00000EE900A20EE201AE06A00EE100A60682A
:103CB00000EE900A00EE201A206B00EE100A31EEA2
:103CC000000A10EE100A6063606B00EE100AE069F3
:103CD00000EE900AF8EEE00AB4EEE00AF1EE10FA17
:103CE00007DDE06900EE100AB8EEC00A10EE100A17
:103CF0006063606B00EE100AA06900EE900AF8EEB7
:103D0000E00AB4EEE00AF1EE10FA07D2A06900EE84
:103D1000100AB8EEC00A10EE100A6063606B00EE85
:103D2000100ABDEC0A8B10BD000000002B8716D9CD
:103D3000CEF7EF3F00B58BB00121022000F082FAF0
:103D40000121084600F07EFA0121022000F08AFAE3
:103D50000121082000F086FA0320099002208DF846
:103D6000280003208DF8290009A95448FEF7F4FA29
:103D7000CC20099002208DF8280003208DF829001E
:103D800009A94F48FEF7E8FA022200214B48FEF746
:103D90002BFB022201214948FEF726FB02220621C5
:103DA0004748FEF721FB022207214548FEF71CFB8E
:103DB000022211464248FEF717FB02220321404827
:103DC000FEF712FB5320ADF818000020ADF81A00E2
:103DD00044F6206007900020ADF8200006A939487D
:103DE00001F0D8FA5320ADF818000020ADF81A0001
:103DF000642007900020ADF8200006A9324801F0A9
:103E0000C9FA7020ADF804000120ADF806000020CA
:103E1000ADF808004FF47A7003900220ADF810005E
:103E20000020ADF81200ADF814004FF48070ADF82A
:103E3000160001A9234801F061F901A9214801F008
:103E4000A5F901A91F4801F001FA01A91D4801F0D7
:103E500057FA0020039001A91B4801F0F7F901A9C6
:103E6000194801F04DFA0821164801F085F908219A
:103E7000144801F0DDF90821124801F037FA082151
:103E8000104801F079FA08210F4801F02FFA0821B3
:103E90000D4801F071FA01210A4801F0F7F80121FB
:103EA000094801F0F3F80121064801F001F9012168
:103EB000054801F0FDF80BB000BD00000004024011
:103EC0000000024000040040000C004010B5044611
:103ED0006148007807287DD2DFE800F0040A333D0E
:103EE0004D5363005A2C02D101205B490870B0E0A9
:103EF0005A48006880F888405848006890F8880060
:103F0000A52804D0A62806D0A72818D10FE00220A3
:103F10005149087013E05248006820B14F480068CA
:103F20004F490968884700204B49087007E0002086
:103F30004A490968086006204749087000BF00BF69
:103F400087E046480068A0F8844046488470032013
:103F5000414908707DE041480068B0F8840040EABB
:103F600004203E490968A1F884003E48C47004203A
:103F7000394908706DE03C480480052036490870D6
:103F800067E03948008840EA04203749088000206B
:103F90003249096808603549088006202E490870B2
:103FA00057E02E48006801682C4800680068401CF3
:103FB0002A4A1268106029480068001D44542748A6
:103FC000006890F88800A72813D12448006800688A
:103FD000082800E039E00CD3082020490968A1F83E
:103FE00084001E4800681E490968884700201A4955
:103FF00008701A480068006818490968B1F8841008
:10400000884221D31548006890F88800A5281BD164
:1040100004221449154802F0ABFD104800680268FC
:104020000E480168091D114802F0A2FD0F480088E2
:104030000D490988884204D1084800680849096880
:10404000884700200449087003E0002002490870F6
:1040500000BF00BF002010BD30070020280700204F
:1040600024070020310700202C0700202E07002005
:1040700070B504460D46044805608C212046FCF7C7
:1040800059F90248046070BD240700202807002069
:10409000704701460020704770B52DED088B06462D
:1040A0000C461546287BE97A40EA012000B22082BE
:1040B000204600F035F8B4F9100003F0DEF941ECC9
:1040C0001B0B9FED140B53EC102B03F04FF841EC3E
:1040D000190BB4F9160000EE100AB8EEC00ADFEDB5
:1040E0000F0A20EE200A10EE101A084603F0E4FB37
:1040F00041EC1A0B53EC192B02F090FF41EC180B1A
:1041000003F08CF9B4F9161000EBC1003060BDEC7F
:10411000088B70BD0000000000408F405C8F423E65
:10412000818A028A891A09B24182B0F9121041F2D9
:104130005452914204DDC18A491C09B2C18208E08F
:10414000B0F91210044A914203DAC18A491E09B239
:10415000C182018A81827047ACEAFFFF0B684A691D
:10416000D21A354B1A601A461268002A02DD1A4626
:10417000126802E0304A12685242062A0FDDB1F995
:104180001020002A02DDB1F9102002E0B1F9102060
:1041900052420A2A03DA8269521C826101E000233A
:1041A00083618269642A05D9027D1AB901220275E8
:1041B000224B1A70027D012A3CD1204A1278012A32
:1041C00004D0022A11D0032A33D129E00A68503AD8
:1041D0001B4B1A601A4692ED000AB8EE400A80EDB9
:1041E000020A0222154B1A7023E0154A92ED000ACA
:1041F000B8EE400A80ED020A114B0A681B68D21A19
:1042000004D00F4B0A681B68D21A03E00C4B0A68F3
:104210001B689A1A282A02D20322084B1A7008E057
:1042200000220275054B1A704288028000238361C8
:1042300000BF00BF7047000050050020540500205B
:104240003C05002029B1064A12680243044B1A605B
:1042500004E0034A12688243014B1A607047000071
:104260003038024029B1064A12680243044B1A60F2
:1042700004E0034A12688243014B1A607047000051
:104280004038024029B1064A12680243044B1A60C2
:1042900004E0034A12688243014B1A607047000031
:1042A0002038024029B1064A12680243044B1A60C2
:1042B00004E0034A12688243014B1A607047000011
:1042C0004438024029B1064A12680243044B1A607E
:1042D00004E0034A12688243014B1A6070470000F1
:1042E00024380240F0B500210022002402250026D7
:1042F0000223324F3F6807F00C0121B1042905D099
:10430000082937D105E02E4F076036E02D4F0760B2
:1043100033E02A4F3F1F3F68C7F38056274F3F1FA8
:104320003F6807F03F036EB1264FB7FBF3F7DFF8A6
:104330008CC0ACF1040CDCF800C0CCF3881C07FB8B
:104340000CF40CE01E4FB7FBF3F7DFF870C0ACF1D4
:10435000040CDCF800C0CCF3881C07FB0CF4174FEE
:104360003F1F3F68C7F301477F1C7D00B4FBF5F793
:10437000076002E0124F076000BF00BF0F4F3F68A9
:1043800007F0F0010909104F7A5C0768D7404760D1
:104390000A4F3F6807F4E051890A0B4F7A5C47687F
:1043A000D7408760054F3F6807F46041490B064FCF
:1043B0007A5C4768D740C760F0BD0000083802400B
:1043C0000024F40000127A00D00600201E48008865
:1043D0001D49498808441C49898808441A49C988E4
:1043E0000844A0F5805000280DDD174800881649C4
:1043F000498808441449898808441349C9880844ED
:10440000A0F580500CE0104800880F494988084406
:104410000D49898808440C49C9880844C0F5805072
:10442000082810DD00BFBFF34F8F0848006800F474
:10443000E06007490843001D04490860BFF34F8F3F
:1044400000BF00BFFEE77047E00600200CED00E073
:104450000000FA052A490988491C294A118000B937
:1044600070470178427841EA0221C1F30A01254AE6
:1044700011804178C910827841EA4211C1F30A01E2
:10448000204A518081788911C27841EA82010279FB
:1044900041EA8221C1F30A011A4A91800179491047
:1044A000427941EAC211C1F30A01164AD180417929
:1044B0000911890811724179C1F301115172817991
:1044C000C27941EA022109B20E4A5181017A427A47
:1044D00041EA02210AB20B498A81817AC27A41EA11
:1044E00002210AB20749CA81027B0A74427B4A74DC
:1044F000817B044A9174C27B0249CA7400BFAFE752
:10450000F4060020E006002070B52DED088BFE4873
:1045100090ED080AB8EEC00AFC48D0ED050AB2EEEC
:10452000041A00EEC10ADFEDFA0AB4EEE00AF1EE79
:1045300010FA24DDF44890ED080AF8EEC00AF348BA
:1045400090ED051A9FEDF30AF2EE041A01EE210A2E
:1045500030EEC00ADFEDF00A20EE200A9FEDED1AE2
:10456000C0EE010AE84890ED050AB8EEC00A30EE48
:10457000800ABDEEC00AE94880ED000A57E0E24833
:1045800090ED080AB8EEC00AE048D0ED050AB2EE98
:10459000041A00EEC10ADFEDE20AB4EEE00AF1EE21
:1045A00010FA24D2D84890ED080AF8EEC00AD7488D
:1045B00090ED051A9FEDD70AF2EE041A11EE210ACA
:1045C00030EEC00ADFEDD40A20EE200A9FEDD11AAA
:1045D000C0EE010ACC4890ED050AB8EEC00A30EEF4
:1045E000800ABDEEC00ACD4880ED000A1FE0C64833
:1045F00090ED080AB8EEC00AC448D0ED050AB2EE44
:10460000041A00EEC10ADFEDC40A20EE200A9FED75
:10461000C11AC0EE010ABC4890ED050AB8EEC00A06
:1046200030EE800ABDEEC00ABC4880ED000AFDF7FE
:1046300019FF052806D1BB484088A0F5806000B26C
:10464000B9490880FDF70EFF052803D0FDF70AFFE2
:1046500007287CD1B3488088A0F58060002804DD5D
:10466000B0488088A0F5806003E0AE488088C0F53F
:104670008060282879DAA4484069C0F56170002874
:1046800004DDA1484069C0F5617003E09E484069BF
:10469000A0F56170C82868DA9B484069C0F5617070
:1046A000B0F5805F1EDD9848406900F5005000EECF
:1046B000100AB8EEC00AF0EE400A9C489FED9C0A32
:1046C000FFF706FABDEEC00A10EE100A00B29949D3
:1046D00008808D48406900F50050C0F5617096492A
:1046E0000860A3E088484069C0F5617010F5805FFC
:1046F0001EDA85484069A0F5005000EE100AB8EEB9
:10470000C00AF0EE400A89489FED890AFFF7E0F9F8
:10471000BDEEC00A10EE100A00B2864908807F483C
:104720000068A0F50050C0F56170834908607DE025
:10473000754890ED050AB8EEC00AF0EE400A7B48D5
:104740009FED7B0AFFF7C4F9BDEEC00A01E074E0FB
:104750000BE010EE100A00B2764908806F4800683E
:10476000C0F561707449086060E06C480068C0F58D
:104770006170B0F5805F1CDD6C486849096801F51F
:10478000005100EE101AF8EEC00A9FED690AFFF71B
:104790009FF9BDEEC00A10EE100A00B2654908800C
:1047A0005E48006800F50050C0F56170624908601D
:1047B0003CE05A480068C0F5617010F5805F1EDA71
:1047C00056480068A0F5005000EE100AB8EEC00A86
:1047D000F0EE400A55489FED560AFFF779F9BDEE15
:1047E000C00A10EE100A00B2524908804B48006817
:1047F000A0F50050C0F561704F49086016E04B48C5
:10480000464991ED000AF8EEC00A9FED490AFFF70C
:104810005FF9BDEEC00A10EE100A00B245490880EB
:104820003E480068C0F56170434908604148B0F9EE
:10483000000002F073F93F4908803A480088A0F56B
:10484000806000B23D490880FDF70CFE05287BD151
:104850003548B0F9005000203349088036490C68CB
:10486000E11704EBD1414913480002F006FE41EC88
:10487000190B9FED330B53EC102B02F029FE41EC8A
:10488000180B02F0CBFD2C4908600846006802F0C6
:10489000F4FD41EC1B0BB0EE4B0AF0EE6B0A01F09D
:1048A0005FFCB0EE409AF0EE609A284602F0E5FD1B
:1048B00041EC1A0B53EC192B02F00AFE41EC180BD9
:1048C00002F0ACFD18490988084400B21649088076
:1048D0001948006802F0D1FD41EC1B0BB0EE4B0A09
:1048E000F0EE6B0A01F0A0FCB0EE409AF0EE609A98
:1048F000284602F0C2FD41EC1A0B53EC192B02F0D2
:10490000E7FD41EC180B20E058050020EC0C0020DE
:104910000000E1440000614500000046D80100208D
:104920000000E1C4E0060020CE0100207801002054
:1049300000006144D2010020DC010020D0010020F1
:104940004AD8124DFB21094008E002F067FD4C49AE
:104950000988084400B24A49088000BF4948B0F9B4
:1049600000004749B1F9001008444749B1F9001067
:104970000844C000454908614248B0F9000040427F
:104980003F49B1F9001008443F49B1F9001008440B
:10499000C0003E4948613B48B0F900003849B1F9D0
:1049A0000010401A3849B1F900100844C0003749D6
:1049B00088613448B0F9000040423149B1F9001033
:1049C000401A3149B1F900100844C0002F49C861AC
:1049D000084690ED001AB8EEC11AF0EE410A90EDCB
:1049E000041AB8EEC11AB0EE410A2948FFF770F870
:1049F000BDEEC00A254880ED100A90ED011AB8EE10
:104A0000C11AF0EE410A90ED051AB8EEC11AB0EEE7
:104A1000410A1F484230FFF75BF8BDEEC00A1B4851
:104A200080ED110A90ED021AB8EEC11AF0EE410ABB
:104A300090ED061AB8EEC11AB0EE410A144884305F
:104A4000FFF746F8BDEEC00A104880ED120A90ED5F
:104A5000031AB8EEC11AF0EE410A90ED071AB8EE4B
:104A6000C11AB0EE410A0A48C630FFF731F8BDEE70
:104A7000C00A064880ED130ABDEC088B70BD00002B
:104A8000D0010020CE010020D2010020F00900203A
:104A9000700000207047000030B500228B071C0F0B
:104AA0000F2303FA04F20B4B8C1053F8243093437A
:104AB000084C8D1044F8253023468C1053F82430D0
:104AC0008C07240F00FA04F42343024C8D1044F8A1
:104AD000253030BD083801400146002008E04A7802
:104AE000C0F107031A4102F001030A4A1354401CA3
:104AF0000428F4DB002009E04A78C0F103031A41DE
:104B000002F00102034B1B1F1A54401C0428F3DB64
:104B100070470000FA060020014609B1012000E0BC
:104B20000020234A5043C0F11E00224A906309B17D
:104B3000012000E000201E4A5043C0F11E001D4A23
:104B4000D0631046806AD26A024409B1012000E0B5
:104B50000020174B5843C0F11E00022303FB102016
:104B6000002810DD1348806A124AD26A024409B153
:104B7000012000E000200E4B5843C0F11E0002232C
:104B800003FB10200EE00B48806A0A4AD26A0244F6
:104B900009B1012000E00020054B5843C0F11E0080
:104BA000C2EB40001E2801DA012070470020FCE71C
:104BB0008BFBFFFF400A0020014609B1012000E005
:104BC0000020234A5043C0F11E00224A106309B15D
:104BD000012000E000201E4A5043C0F11E001D4A83
:104BE00050631046006A526A024409B1012000E095
:104BF0000020174B5843C0F11E00022303FB102076
:104C0000002810DD1348006A124A526A024409B1B2
:104C1000012000E000200E4B5843C0F11E0002238B
:104C200003FB10200EE00B48006A0A4A526A024455
:104C300009B1012000E00020054B5843C0F11E00DF
:104C4000C2EB40001E2801DA012070470020FCE77B
:104C50008BFBFFFF400A00200CB500200190009064
:104C60003448006840F480303249086000BF314861
:104C7000006800F4003000900198401C01900098FA
:104C800018B90198B0F5A06FF1D12A48006800F476
:104C9000003010B10120009001E000200090009849
:104CA000012846D123484030006840F08050214917
:104CB000403108602048006840F480401E49086088
:104CC0001C48083000681B49083108600846006825
:104CD00040F4004008600846006840F4A0500860B6
:104CE0001648091F0860081F006840F08070091FFF
:104CF000086000BF0F48006800F000700028F9D07D
:104D000040F205600E4908600A480830006820F04B
:104D100003000849083108600846006840F00200B6
:104D2000086000BF03480830006800F00C00082845
:104D3000F8D10CBD00380240007000400854400714
:104D4000003C02400149087070470000EC0100205F
:104D500001490870704700005600002010B5224B32
:104D60001B685B1C204C2360137BD47A43EA04232A
:104D70001BB28B80947B537B44EA03231BB20B82D0
:104D80008B898C881B1B1BB2CB81B1F90E3041F291
:104D90005454A34204DD8B6803F500538B6008E094
:104DA000B1F90E30114CA34203DA8B68A3F500531E
:104DB0008B60B1F904408B6823444FF47A7493FB01
:104DC000F4F30B608B888B8191ED000AB8EEC00A7A
:104DD000DFED070A80EE201ABCEEC10A10EE103A91
:104DE0001BB2438010BD000040050020ACEAFFFF6D
:104DF000A69B444300B52048007C012808D11F48E9
:104E0000007828B91E480088401C00B21C49088060
:104E10001C480078032809D11748407A022805D198
:104E200017480088C01C00B215490880144AB2F91E
:104E30000210B2F90000114A127802F023F8124968
:104E400008800D48007C0D4908700B48407A0D49D8
:104E500008700B48B0F9000000EE100AB8EEC00A66
:104E6000DFED0A0A20EE200A054880ED020A084913
:104E7000FFF774F900BD0000E00600204F05002098
:104E8000C00A00204E05002038050020A69B4443A0
:104E9000DC0A002010B5FFF7ADFF2F4890ED020AA5
:104EA000BDEEC00A2D4880ED050A90ED001AB8EE5F
:104EB000C11AF0EE410A90ED051AB8EEC11AB0EE33
:104EC000410A2748FEF704FEBDEEC00A10EE100AA4
:104ED00000B22249088323480078032816D12248CB
:104EE000407A012812D12148007808B9012000E059
:104EF00000201E49087008460078A0EB001000EB67
:104F000080000001C0F54870194908801348B0F9C5
:104F1000100001EE100AB8EEC11AF0EE410A0F4877
:104F2000B0F9180001EE100AB8EEC11AB0EE410A4D
:104F30001048FEF7CDFD094880ED070A0C480088AF
:104F40000D4908600A480088091D08600648407A33
:104F50000449087010BD0000C00A0020DC0A0020CF
:104F6000A004002044050020E006002045050020A4
:104F700026050020E20400203C04004010B58C7B94
:104F80004B7B44EA03231AB2026010BD7047000055
:104F900010B51548006840F47000134908601348C4
:104FA000006840F001001149086000200F490831F5
:104FB00008600E4800680E4908400C4908600D481A
:104FC000091D0860081F006820F48020091F086080
:104FD000002006490C310860FFF73EFE4FF00060EC
:104FE00001498039086010BD88ED00E000380240BA
:104FF000FFFFF6FE103000241FB501211020FFF73F
:1050000031F936208DF8000001208DF801008DF86F
:1050100002008DF803006846FEF756FC5320ADF8F9
:1050200004000020ADF80600ADF80C004FF47A70D3
:10503000029001A9014800F0ADF91FBD0010004029
:1050400010B50121074800F03FF848B1012105489B
:1050500000F02BF80121034800F024F8FCF750FC85
:1050600010BD00000010004010B50121064800F0FE
:105070001FF801221146044800F037F801210248C8
:1050800000F010F810BD00000010004021B10288AF
:1050900042F08002028004E002884FF67F731A40DB
:1050A00002807047CA4302827047CA430282704737
:1050B00021B1028842F00102028004E002884FF62A
:1050C000FE731A400280704730B50246002000236C
:1050D0000024158A05EA0103958905EA010413B144
:1050E0000CB1012000E0002030BD1AB183890B43D0
:1050F000838102E083898B438381704770B50024EC
:1051000000220023058C4FF6FE7635400584028C84
:105110008388048B4FF68F752C40B51E2C400D886C
:105120002C43751E2A408D892A434D882A43104DF1
:10513000A84202D00F4DA84213D14FF6F7752A406E
:10514000CD892A434FF6FB752A408D882A434FF6B6
:10515000FF652B404FF6FF552B400D8A2B434D8AA0
:105160002B43838004838D684563028470BD0000F7
:1051700000000140000401400A460021018B4FF667
:10518000F7731940114301837047000070B5002484
:1051900000220023058C4FF6EF7635400584028C03
:1051A0008388048B48F6FF752C404FF6FF452C4052
:1051B0000D884FF6FF7606EA05252C434FF6DF757E
:1051C0002A408D8906EA05152A434D8806EA051509
:1051D0002A43154DA84202D0144DA8421DD14FF6C6
:1051E0007F752A40CD894FF6FF7606EA05152A43DA
:1051F0004FF6BF752A408D8806EA05152A434FF6FB
:10520000FF352B404FF2FF752B400D8A06EA8505CE
:105210002B434D8A06EA85052B43838004838D68E2
:105220008563028470BD000000000140000401405D
:105230000A460021018B4FF2FF7319404FF6FF73AE
:1052400003EA0223194301837047000070B500246C
:1052500000220023058C4FF6FF6635400584028C42
:105260008388848B4FF68F752C404FF6FC752C404D
:105270000D882C434FF6FF552A408D894FF6FF7657
:1052800006EA05252A434D8806EA05252A43154DD9
:10529000A84202D0144DA8421DD14FF2FF752A40FA
:1052A000CD894FF6FF7606EA05252A434FF6FF35EE
:1052B0002A408D8806EA05252A434EF6FF752B40C5
:1052C0004DF6FF752B400D8A06EA05152B434D8AD6
:1052D00006EA05152B43838084838D68C5630284A9
:1052E00070BD000000000140000401400A4600219A
:1052F000818B4FF6F773194011438183704700008B
:1053000070B5002200230024058C4EF6FF76354050
:105310000584038C8488828B48F6FF752A404FF6FB
:10532000FF452A400D884FF6FF7606EA05252A43F9
:105330004DF6FF752B408D8906EA05352B434D88C8
:1053400006EA05352B430A4DA84202D0094DA84272
:1053500008D14BF6FF752C400D8A4FF6FF7606EA12
:1053600085152C43848082838D680564038470BD19
:1053700000000140000401400A460021818B4FF2E9
:10538000FF7319404FF6FF7303EA02231943818329
:105390007047000000220288184B98420ED0184B2C
:1053A00098420BD0B0F1804F08D0164B984205D0F0
:1053B000154B984202D0154B984204D14FF68F738B
:1053C0001A404B881A43124B984207D0114B98420F
:1053D00004D04FF6FF431A400B891A4302804B68F2
:1053E000C3620B880385054B984202D0044B984258
:1053F00001D18B7A0386012383827047000001402C
:10540000000401400004004000080040000C00407F
:10541000001000400014004010B5C024454800882A
:10542000A0F58060002804DD42480088A0F5806077
:1054300003E040480088C0F5806040F29621884231
:1054400001DC012000E0002004433A484088A0F538
:105450008060002804DD37484088A0F5806003E0C4
:1054600034484088C0F5806040F29621884201DCD3
:10547000012000E0002044EA40042E488088A0F586
:105480008060002804DD2B488088A0F5806003E060
:1054900028488088C0F5806040F29621884201DC6F
:1054A000012000E0002044EA80042248C088A0F5E2
:1054B0008060002804DD1F48C088A0F5806003E0FC
:1054C0001C48C088C0F5806040F29621884201DC0B
:1054D000012000E0002044EAC0041648007A0128B8
:1054E00007D01448007A022803D01248007A032813
:1054F00001D1012000E0002044EA00140D48407A68
:10550000012807D00B48407A022803D00948407A86
:10551000032801D1012000E0002044EA4014FF2CC0
:1055200007D00920FFF70EFC142202490248FAF7BF
:10553000BCFE10BDE0060020AC0A002010B596B0FD
:10554000044601210220FEF77DFE01211020FEF716
:10555000A9FE072211463F48FCF746FF14A8FCF7B6
:1055600073FF8020149002208DF8540001208DF8E4
:10557000570002208DF8550000208DF8560014A920
:105580003448FCF7E9FE344800F000FA10A800F0B7
:1055900016FB324810900020ADF84400ADF84600EC
:1055A0004FF48060ADF848000420ADF84A000020B8
:1055B000ADF84C0010A9284800F092FA01212648C5
:1055C00000F0CEF901224021234800F0D5F924480B
:1055D000FCF742FB01218805FEF734FE4FF0006026
:1055E00000901D48001D01901E480290002003906D
:1055F00012200490002005904FF480600690002057
:10560000079008904FF4807009904FF440300A9052
:1056100000200B900C900D900E9069461048FCF7FE
:105620003DFC012210210E48FCF71AFC01210C4818
:10563000FCF706FB3A208DF83C0000208DF83D0079
:105640008DF83E0001208DF83F000FA8FEF73CF9D1
:1056500016B010BD0004024000100140A0860100F9
:10566000406402403807002010B596B0044601217E
:105670000220FEF7E7FD01214805FEF7E3FD0121C9
:105680008804FEF7EFFD07220A214348FCF7ACFE31
:1056900007220B214048FCF7A7FE4FF4406014900E
:1056A00002208DF8540000208DF8560003208DF85C
:1056B000550000208DF8570014A93748FCF74CFE20
:1056C000364800F063F910A800F079FA1094002031
:1056D000ADF84400ADF84600ADF848000C20ADF838
:1056E0004A000020ADF84C0010A92C4800F0F8F951
:1056F00001224021294800F03FF9012240F22441D3
:10570000264800F0C7F90121244800F029F9272094
:105710008DF83C0002208DF83D0001208DF83E0000
:105720008DF83F000FA8FEF7CFF81D48FCF794FA5C
:105730006846FCF7DFFB4FF0006000901748001D43
:1057400001901848029000200390642004900020EB
:1057500005904FF480600690002007900890099013
:105760004FF440300A9000200B900C900D900E905A
:1057700069460B48FCF792FB00220A49C8310848E9
:10578000FCF721FB01210648FCF712FB012104482C
:10579000FCF756FA16B010BD000402400048004065
:1057A000286002405107002010B502212748FCF76D
:1057B00047FE40F22441264800F042F9002843D039
:1057C000234800882248001D00882248FCF70BFB74
:1057D000E8B900202049087000211E48FCF730FA83
:1057E0001C48FCF7FCFAC0F1C8001C490860C8203E
:1057F00018492839C8620846806A40F40020886247
:1058000001211448FCF71CFA01F060FA1CE00120A9
:105810001149087000210F48FCF712FA0D48FCF7F7
:10582000DEFAC0F1C8000D490860C82009492839CE
:10583000C8620846806A20F4002088620121054879
:10584000FCF7FEF901F042FA10BD0000000802402A
:10585000004800402860024004000020480000206A
:1058600010B50D480068401C0B49086040F22551F6
:105870000A4800F0E5F868B1084800F09BF90849CB
:10588000087008460078FCF747FB04480088034886
:10589000001D008810BD00004C00002000140140D5
:1058A0005000002010B588B0044601210420FEF706
:1058B000C9FC01212020FEF7F5FC0822062126481C
:1058C000FCF792FD082207212348FCF78DFDC0203C
:1058D000069002208DF81C0000208DF81E00032089
:1058E0008DF81D0000208DF81F0006A91A48FCF74E
:1058F00033FD1A4800F04AF802A800F060F902945B
:105900000020ADF80C00ADF80E00ADF810000C2032
:10591000ADF812000020ADF8140002A90F4800F005
:10592000DFF847208DF8040002208DF805000120E3
:105930008DF806008DF8070001A8FDF7C5FF0122CC
:1059400040F22551054800F0A5F80121034800F078
:1059500007F808B010BD0000000802400014014024
:1059600021B1828942F40052828104E082894DF69D
:10597000FF731A40828170471AB1838A0B43838276
:1059800002E0838A8B4383827047000010B504468F
:105990002548844208D101211020FEF793FC002104
:1059A0001020FEF78FFC3EE02048844209D10121FF
:1059B0004804FEF767FC00214FF40030FEF762FC5C
:1059C00031E01B48844209D101218804FEF75AFCCA
:1059D00000214FF48020FEF755FC24E01548844256
:1059E00009D10121C804FEF74DFC00214FF400202D
:1059F000FEF748FC17E01048844209D10121080550
:105A0000FEF740FC00214FF48010FEF73BFC0AE05B
:105A10000A48844207D101212020FEF753FC0021CF
:105A20002020FEF74FFC10BD001001400044004054
:105A300000480040004C004000500040001401406D
:105A400070B50246002400230025002040F66A16A7
:105A5000B14200D100BFC1F3421501F01F0301267E
:105A600006FA03F3012D02D19689334006E0022D98
:105A700002D1168A334001E0968A33400C12012687
:105A800006FA04F41688344013B10CB1012000E08A
:105A9000002070BDF0B5034600240026002500203C
:105AA00040F66A17B94200D100BF1846C1F342144C
:105AB00001F01F06012707FA06F5012C01D10C3071
:105AC00004E0022C01D1103000E014301AB1076854
:105AD0002F43076002E00768AF430760F0BD000096
